{
  "_format": "hh-sol-artifact-1",
  "contractName": "GratitudeContract",
  "sourceName": "contracts/GratitudeContract.sol",
  "abi": [
    {
      "inputs": [],
      "stateMutability": "nonpayable",
      "type": "constructor"
    },
    {
      "anonymous": false,
      "inputs": [
        {
          "indexed": true,
          "internalType": "address",
          "name": "owner",
          "type": "address"
        },
        {
          "indexed": true,
          "internalType": "address",
          "name": "approved",
          "type": "address"
        },
        {
          "indexed": true,
          "internalType": "uint256",
          "name": "tokenId",
          "type": "uint256"
        }
      ],
      "name": "Approval",
      "type": "event"
    },
    {
      "anonymous": false,
      "inputs": [
        {
          "indexed": true,
          "internalType": "address",
          "name": "owner",
          "type": "address"
        },
        {
          "indexed": true,
          "internalType": "address",
          "name": "operator",
          "type": "address"
        },
        {
          "indexed": false,
          "internalType": "bool",
          "name": "approved",
          "type": "bool"
        }
      ],
      "name": "ApprovalForAll",
      "type": "event"
    },
    {
      "anonymous": false,
      "inputs": [
        {
          "indexed": false,
          "internalType": "uint256",
          "name": "tokenId",
          "type": "uint256"
        },
        {
          "indexed": false,
          "internalType": "enum GratitudeContract.NftStatus",
          "name": "status",
          "type": "uint8"
        },
        {
          "indexed": false,
          "internalType": "uint256",
          "name": "lat",
          "type": "uint256"
        },
        {
          "indexed": false,
          "internalType": "uint256",
          "name": "lng",
          "type": "uint256"
        }
      ],
      "name": "GratitudTokenAceptedEvent",
      "type": "event"
    },
    {
      "anonymous": false,
      "inputs": [
        {
          "indexed": false,
          "internalType": "uint256",
          "name": "tokenId",
          "type": "uint256"
        },
        {
          "indexed": false,
          "internalType": "enum GratitudeContract.NftStatus",
          "name": "status",
          "type": "uint8"
        }
      ],
      "name": "GratitudTokenChangeStatusEvent",
      "type": "event"
    },
    {
      "anonymous": false,
      "inputs": [
        {
          "indexed": true,
          "internalType": "uint256",
          "name": "campaignId",
          "type": "uint256"
        },
        {
          "indexed": false,
          "internalType": "address",
          "name": "campaign_creator",
          "type": "address"
        },
        {
          "indexed": false,
          "internalType": "enum GratitudeContract.CampaignStatus",
          "name": "status",
          "type": "uint8"
        },
        {
          "indexed": false,
          "internalType": "string",
          "name": "campaignUri",
          "type": "string"
        },
        {
          "indexed": false,
          "internalType": "string",
          "name": "name",
          "type": "string"
        }
      ],
      "name": "GratitudeCampaignCreatedEvent",
      "type": "event"
    },
    {
      "anonymous": false,
      "inputs": [
        {
          "indexed": false,
          "internalType": "uint256",
          "name": "campaignId",
          "type": "uint256"
        }
      ],
      "name": "GratitudeCampaignRejected",
      "type": "event"
    },
    {
      "anonymous": false,
      "inputs": [
        {
          "indexed": false,
          "internalType": "uint256",
          "name": "campaignId",
          "type": "uint256"
        }
      ],
      "name": "GratitudeCampaignVerified",
      "type": "event"
    },
    {
      "anonymous": false,
      "inputs": [
        {
          "indexed": true,
          "internalType": "uint256",
          "name": "tokenId",
          "type": "uint256"
        },
        {
          "indexed": false,
          "internalType": "enum GratitudeContract.NftStatus",
          "name": "status",
          "type": "uint8"
        },
        {
          "indexed": false,
          "internalType": "address",
          "name": "sender",
          "type": "address"
        },
        {
          "indexed": false,
          "internalType": "address",
          "name": "receiver",
          "type": "address"
        },
        {
          "indexed": false,
          "internalType": "uint256",
          "name": "lat",
          "type": "uint256"
        },
        {
          "indexed": false,
          "internalType": "uint256",
          "name": "lng",
          "type": "uint256"
        },
        {
          "indexed": false,
          "internalType": "string",
          "name": "tokenUri",
          "type": "string"
        }
      ],
      "name": "GratitudeTokenCreationEvent",
      "type": "event"
    },
    {
      "anonymous": false,
      "inputs": [
        {
          "indexed": true,
          "internalType": "address",
          "name": "previousOwner",
          "type": "address"
        },
        {
          "indexed": true,
          "internalType": "address",
          "name": "newOwner",
          "type": "address"
        }
      ],
      "name": "OwnershipTransferred",
      "type": "event"
    },
    {
      "anonymous": false,
      "inputs": [
        {
          "indexed": true,
          "internalType": "address",
          "name": "from",
          "type": "address"
        },
        {
          "indexed": true,
          "internalType": "address",
          "name": "to",
          "type": "address"
        },
        {
          "indexed": true,
          "internalType": "uint256",
          "name": "tokenId",
          "type": "uint256"
        }
      ],
      "name": "Transfer",
      "type": "event"
    },
    {
      "inputs": [],
      "name": "_campaignIds",
      "outputs": [
        {
          "internalType": "uint256",
          "name": "_value",
          "type": "uint256"
        }
      ],
      "stateMutability": "view",
      "type": "function"
    },
    {
      "inputs": [],
      "name": "_tokenIds",
      "outputs": [
        {
          "internalType": "uint256",
          "name": "_value",
          "type": "uint256"
        }
      ],
      "stateMutability": "view",
      "type": "function"
    },
    {
      "inputs": [
        {
          "internalType": "string",
          "name": "_linkCode",
          "type": "string"
        },
        {
          "components": [
            {
              "internalType": "uint16",
              "name": "lat",
              "type": "uint16"
            },
            {
              "internalType": "uint16",
              "name": "lng",
              "type": "uint16"
            }
          ],
          "internalType": "struct GratitudeContract.GEO",
          "name": "_geo",
          "type": "tuple"
        }
      ],
      "name": "acceptLinkHash",
      "outputs": [],
      "stateMutability": "nonpayable",
      "type": "function"
    },
    {
      "inputs": [
        {
          "internalType": "address",
          "name": "to",
          "type": "address"
        },
        {
          "internalType": "uint256",
          "name": "tokenId",
          "type": "uint256"
        }
      ],
      "name": "approve",
      "outputs": [],
      "stateMutability": "nonpayable",
      "type": "function"
    },
    {
      "inputs": [
        {
          "internalType": "uint256",
          "name": "_campaignId",
          "type": "uint256"
        }
      ],
      "name": "approveCampaign",
      "outputs": [],
      "stateMutability": "nonpayable",
      "type": "function"
    },
    {
      "inputs": [
        {
          "internalType": "address",
          "name": "owner",
          "type": "address"
        }
      ],
      "name": "balanceOf",
      "outputs": [
        {
          "internalType": "uint256",
          "name": "",
          "type": "uint256"
        }
      ],
      "stateMutability": "view",
      "type": "function"
    },
    {
      "inputs": [
        {
          "internalType": "uint256",
          "name": "_tokenId",
          "type": "uint256"
        }
      ],
      "name": "cancelWhenStillPending",
      "outputs": [],
      "stateMutability": "nonpayable",
      "type": "function"
    },
    {
      "inputs": [
        {
          "internalType": "uint256",
          "name": "_tokenId",
          "type": "uint256"
        }
      ],
      "name": "checkPendingStatusPriorToGet",
      "outputs": [],
      "stateMutability": "nonpayable",
      "type": "function"
    },
    {
      "inputs": [
        {
          "internalType": "string",
          "name": "_name",
          "type": "string"
        },
        {
          "internalType": "string",
          "name": "_campaignUri",
          "type": "string"
        }
      ],
      "name": "createCampaign",
      "outputs": [],
      "stateMutability": "nonpayable",
      "type": "function"
    },
    {
      "inputs": [
        {
          "internalType": "uint256",
          "name": "_status",
          "type": "uint256"
        },
        {
          "internalType": "address",
          "name": "_receiver",
          "type": "address"
        },
        {
          "components": [
            {
              "internalType": "uint16",
              "name": "lat",
              "type": "uint16"
            },
            {
              "internalType": "uint16",
              "name": "lng",
              "type": "uint16"
            }
          ],
          "internalType": "struct GratitudeContract.GEO",
          "name": "_geo",
          "type": "tuple"
        },
        {
          "internalType": "uint256",
          "name": "_timeStamp",
          "type": "uint256"
        },
        {
          "internalType": "string",
          "name": "_tokenUri",
          "type": "string"
        },
        {
          "internalType": "string",
          "name": "_linkCode",
          "type": "string"
        }
      ],
      "name": "createGratitudeToken",
      "outputs": [],
      "stateMutability": "payable",
      "type": "function"
    },
    {
      "inputs": [
        {
          "internalType": "uint256",
          "name": "tokenId",
          "type": "uint256"
        }
      ],
      "name": "getApproved",
      "outputs": [
        {
          "internalType": "address",
          "name": "",
          "type": "address"
        }
      ],
      "stateMutability": "view",
      "type": "function"
    },
    {
      "inputs": [
        {
          "internalType": "uint256",
          "name": "_campaignId",
          "type": "uint256"
        }
      ],
      "name": "getCampaignStatus",
      "outputs": [
        {
          "internalType": "enum GratitudeContract.CampaignStatus",
          "name": "",
          "type": "uint8"
        }
      ],
      "stateMutability": "view",
      "type": "function"
    },
    {
      "inputs": [],
      "name": "getCreatorTokens",
      "outputs": [
        {
          "components": [
            {
              "internalType": "address",
              "name": "receiver",
              "type": "address"
            },
            {
              "internalType": "uint256",
              "name": "tokenId",
              "type": "uint256"
            },
            {
              "internalType": "enum GratitudeContract.NftStatus",
              "name": "status",
              "type": "uint8"
            },
            {
              "components": [
                {
                  "internalType": "uint16",
                  "name": "lat",
                  "type": "uint16"
                },
                {
                  "internalType": "uint16",
                  "name": "lng",
                  "type": "uint16"
                }
              ],
              "internalType": "struct GratitudeContract.GEO",
              "name": "geo",
              "type": "tuple"
            },
            {
              "internalType": "uint256",
              "name": "timeStamp",
              "type": "uint256"
            },
            {
              "internalType": "string",
              "name": "tokenUri",
              "type": "string"
            },
            {
              "internalType": "bytes32",
              "name": "linkCode",
              "type": "bytes32"
            }
          ],
          "internalType": "struct GratitudeContract.NFT[]",
          "name": "",
          "type": "tuple[]"
        }
      ],
      "stateMutability": "view",
      "type": "function"
    },
    {
      "inputs": [
        {
          "internalType": "string",
          "name": "_linkCode",
          "type": "string"
        }
      ],
      "name": "getGratitudeNFtByLinkCode",
      "outputs": [
        {
          "components": [
            {
              "internalType": "address",
              "name": "receiver",
              "type": "address"
            },
            {
              "internalType": "uint256",
              "name": "tokenId",
              "type": "uint256"
            },
            {
              "internalType": "enum GratitudeContract.NftStatus",
              "name": "status",
              "type": "uint8"
            },
            {
              "components": [
                {
                  "internalType": "uint16",
                  "name": "lat",
                  "type": "uint16"
                },
                {
                  "internalType": "uint16",
                  "name": "lng",
                  "type": "uint16"
                }
              ],
              "internalType": "struct GratitudeContract.GEO",
              "name": "geo",
              "type": "tuple"
            },
            {
              "internalType": "uint256",
              "name": "timeStamp",
              "type": "uint256"
            },
            {
              "internalType": "string",
              "name": "tokenUri",
              "type": "string"
            },
            {
              "internalType": "bytes32",
              "name": "linkCode",
              "type": "bytes32"
            }
          ],
          "internalType": "struct GratitudeContract.NFT",
          "name": "",
          "type": "tuple"
        }
      ],
      "stateMutability": "view",
      "type": "function"
    },
    {
      "inputs": [
        {
          "internalType": "uint256",
          "name": "_tokenId",
          "type": "uint256"
        }
      ],
      "name": "getStatus",
      "outputs": [
        {
          "internalType": "enum GratitudeContract.NftStatus",
          "name": "",
          "type": "uint8"
        }
      ],
      "stateMutability": "view",
      "type": "function"
    },
    {
      "inputs": [
        {
          "internalType": "address",
          "name": "owner",
          "type": "address"
        },
        {
          "internalType": "address",
          "name": "operator",
          "type": "address"
        }
      ],
      "name": "isApprovedForAll",
      "outputs": [
        {
          "internalType": "bool",
          "name": "",
          "type": "bool"
        }
      ],
      "stateMutability": "view",
      "type": "function"
    },
    {
      "inputs": [],
      "name": "name",
      "outputs": [
        {
          "internalType": "string",
          "name": "",
          "type": "string"
        }
      ],
      "stateMutability": "view",
      "type": "function"
    },
    {
      "inputs": [],
      "name": "owner",
      "outputs": [
        {
          "internalType": "address",
          "name": "",
          "type": "address"
        }
      ],
      "stateMutability": "view",
      "type": "function"
    },
    {
      "inputs": [
        {
          "internalType": "uint256",
          "name": "tokenId",
          "type": "uint256"
        }
      ],
      "name": "ownerOf",
      "outputs": [
        {
          "internalType": "address",
          "name": "",
          "type": "address"
        }
      ],
      "stateMutability": "view",
      "type": "function"
    },
    {
      "inputs": [
        {
          "internalType": "uint256",
          "name": "_campaignId",
          "type": "uint256"
        }
      ],
      "name": "rejectCampaign",
      "outputs": [],
      "stateMutability": "nonpayable",
      "type": "function"
    },
    {
      "inputs": [
        {
          "internalType": "string",
          "name": "_linkCode",
          "type": "string"
        }
      ],
      "name": "rejectGratitudeNFTbyLinkCode",
      "outputs": [],
      "stateMutability": "nonpayable",
      "type": "function"
    },
    {
      "inputs": [],
      "name": "renounceOwnership",
      "outputs": [],
      "stateMutability": "nonpayable",
      "type": "function"
    },
    {
      "inputs": [
        {
          "internalType": "uint256",
          "name": "_tokenId",
          "type": "uint256"
        },
        {
          "internalType": "address",
          "name": "_receiver",
          "type": "address"
        },
        {
          "internalType": "string",
          "name": "_linkCode",
          "type": "string"
        }
      ],
      "name": "resendWhenTimeOutOrRejectedOrStandby",
      "outputs": [],
      "stateMutability": "nonpayable",
      "type": "function"
    },
    {
      "inputs": [
        {
          "internalType": "address",
          "name": "from",
          "type": "address"
        },
        {
          "internalType": "address",
          "name": "to",
          "type": "address"
        },
        {
          "internalType": "uint256",
          "name": "tokenId",
          "type": "uint256"
        }
      ],
      "name": "safeTransferFrom",
      "outputs": [],
      "stateMutability": "nonpayable",
      "type": "function"
    },
    {
      "inputs": [
        {
          "internalType": "address",
          "name": "from",
          "type": "address"
        },
        {
          "internalType": "address",
          "name": "to",
          "type": "address"
        },
        {
          "internalType": "uint256",
          "name": "tokenId",
          "type": "uint256"
        },
        {
          "internalType": "bytes",
          "name": "_data",
          "type": "bytes"
        }
      ],
      "name": "safeTransferFrom",
      "outputs": [],
      "stateMutability": "nonpayable",
      "type": "function"
    },
    {
      "inputs": [
        {
          "internalType": "address",
          "name": "operator",
          "type": "address"
        },
        {
          "internalType": "bool",
          "name": "approved",
          "type": "bool"
        }
      ],
      "name": "setApprovalForAll",
      "outputs": [],
      "stateMutability": "nonpayable",
      "type": "function"
    },
    {
      "inputs": [
        {
          "internalType": "bytes4",
          "name": "interfaceId",
          "type": "bytes4"
        }
      ],
      "name": "supportsInterface",
      "outputs": [
        {
          "internalType": "bool",
          "name": "",
          "type": "bool"
        }
      ],
      "stateMutability": "view",
      "type": "function"
    },
    {
      "inputs": [],
      "name": "symbol",
      "outputs": [
        {
          "internalType": "string",
          "name": "",
          "type": "string"
        }
      ],
      "stateMutability": "view",
      "type": "function"
    },
    {
      "inputs": [
        {
          "internalType": "uint256",
          "name": "tokenId",
          "type": "uint256"
        }
      ],
      "name": "tokenURI",
      "outputs": [
        {
          "internalType": "string",
          "name": "",
          "type": "string"
        }
      ],
      "stateMutability": "view",
      "type": "function"
    },
    {
      "inputs": [
        {
          "internalType": "address",
          "name": "from",
          "type": "address"
        },
        {
          "internalType": "address",
          "name": "to",
          "type": "address"
        },
        {
          "internalType": "uint256",
          "name": "tokenId",
          "type": "uint256"
        }
      ],
      "name": "transferFrom",
      "outputs": [],
      "stateMutability": "nonpayable",
      "type": "function"
    },
    {
      "inputs": [
        {
          "internalType": "address",
          "name": "newOwner",
          "type": "address"
        }
      ],
      "name": "transferOwnership",
      "outputs": [],
      "stateMutability": "nonpayable",
      "type": "function"
    },
    {
      "inputs": [],
      "name": "withdraw",
      "outputs": [],
      "stateMutability": "nonpayable",
      "type": "function"
    },
    {
      "stateMutability": "payable",
      "type": "receive"
    }
  ],
  "bytecode": "0x60806040523480156200001157600080fd5b50604080518082018252600d81526c11d49055125515511148139195609a1b60208083019182528351808501909452600384526247524160e81b9084015281519192916200006291600091620000f6565b50805162000078906001906020840190620000f6565b505050620000956200008f620000a060201b60201c565b620000a4565b6001600755620001d9565b3390565b600680546001600160a01b038381166001600160a01b0319831681179093556040519116919082907f8be0079c531659141344cd1fd0a4f28419497f9722a3daafe3b4186f6b6457e090600090a35050565b82805462000104906200019c565b90600052602060002090601f01602090048101928262000128576000855562000173565b82601f106200014357805160ff191683800117855562000173565b8280016001018555821562000173579182015b828111156200017357825182559160200191906001019062000156565b506200018192915062000185565b5090565b5b8082111562000181576000815560010162000186565b600181811c90821680620001b157607f821691505b60208210811415620001d357634e487b7160e01b600052602260045260246000fd5b50919050565b61335f80620001e96000396000f3fe6080604052600436106101e75760003560e01c80637528f2b111610102578063a22cb46511610095578063e985e9c511610064578063e985e9c5146105bf578063ee4e1b5314610608578063f2fde38b14610628578063fce3f6ac1461064857600080fd5b8063a22cb46514610548578063aa46a40014610568578063b88d4fde1461057f578063c87b56dd1461059f57600080fd5b80638d816811116100d15780638d816811146104d35780638da5cb5b146104f557806395d89b41146105135780639896c56b1461052857600080fd5b80637528f2b1146104695780637a31707e1461048957806385df97dc1461049c57806386dadbfc146104bc57600080fd5b80633fd3b5681161017a57806368fb8fc01161014957806368fb8fc0146103b95780636c19e004146103e657806370a0823114610426578063715018a61461045457600080fd5b80633fd3b5681461031957806342842e0e146103395780635c622a0e146103595780636352211e1461039957600080fd5b8063095ea7b3116101b6578063095ea7b3146102a45780631a554c58146102c457806323b872dd146102e45780633ccfd60b1461030457600080fd5b806301ffc9a7146101f3578063034d09da1461022857806306fdde031461024a578063081812fc1461026c57600080fd5b366101ee57005b600080fd5b3480156101ff57600080fd5b5061021361020e366004612ce8565b610668565b60405190151581526020015b60405180910390f35b34801561023457600080fd5b50610248610243366004612df8565b610705565b005b34801561025657600080fd5b5061025f6107b8565b60405161021f9190613177565b34801561027857600080fd5b5061028c610287366004612df8565b61084a565b6040516001600160a01b03909116815260200161021f565b3480156102b057600080fd5b506102486102bf366004612cbf565b6108df565b3480156102d057600080fd5b506102486102df366004612df8565b610a2f565b3480156102f057600080fd5b506102486102ff366004612bd1565b610af5565b34801561031057600080fd5b50610248610c35565b34801561032557600080fd5b50610248610334366004612db4565b610cbe565b34801561034557600080fd5b50610248610354366004612bd1565b610e3f565b34801561036557600080fd5b5061038c610374366004612df8565b6000908152600a602052604090206002015460ff1690565b60405161021f9190613112565b3480156103a557600080fd5b5061028c6103b4366004612df8565b610e5a565b3480156103c557600080fd5b506103d96103d4366004612d20565b610ee5565b60405161021f919061318a565b3480156103f257600080fd5b50610419610401366004612df8565b6000908152600f602052604090206001015460ff1690565b60405161021f9190613104565b34801561043257600080fd5b50610446610441366004612b85565b6110c3565b60405190815260200161021f565b34801561046057600080fd5b5061024861115d565b34801561047557600080fd5b50610248610484366004612e10565b6111c3565b610248610497366004612e65565b611393565b3480156104a857600080fd5b506102486104b7366004612df8565b6116a6565b3480156104c857600080fd5b506009546104469081565b3480156104df57600080fd5b506104e86117d8565b60405161021f91906130a3565b34801561050157600080fd5b506006546001600160a01b031661028c565b34801561051f57600080fd5b5061025f611a49565b34801561053457600080fd5b50610248610543366004612d20565b611a58565b34801561055457600080fd5b50610248610563366004612c85565b611b74565b34801561057457600080fd5b506008546104469081565b34801561058b57600080fd5b5061024861059a366004612c0c565b611b7f565b3480156105ab57600080fd5b5061025f6105ba366004612df8565b611c0d565b3480156105cb57600080fd5b506102136105da366004612b9f565b6001600160a01b03918216600090815260056020908152604080832093909416825291909152205460ff1690565b34801561061457600080fd5b50610248610623366004612df8565b611d03565b34801561063457600080fd5b50610248610643366004612b85565b611dad565b34801561065457600080fd5b50610248610663366004612d53565b611e8f565b60006001600160e01b031982167f80ac58cd0000000000000000000000000000000000000000000000000000000014806106cb57506001600160e01b031982167f5b5e139f00000000000000000000000000000000000000000000000000000000145b806106ff57507f01ffc9a7000000000000000000000000000000000000000000000000000000006001600160e01b03198316145b92915050565b6006546001600160a01b031633146107645760405162461bcd60e51b815260206004820181905260248201527f4f776e61626c653a2063616c6c6572206973206e6f7420746865206f776e657260448201526064015b60405180910390fd5b6000818152600f6020908152604091829020600101805460ff1916600217905590518281527f023b8e2137f7b1a0f739637260916076b1a4df7b363323a7105d144c6f2aa11391015b60405180910390a150565b6060600080546107c790613251565b80601f01602080910402602001604051908101604052809291908181526020018280546107f390613251565b80156108405780601f1061081557610100808354040283529160200191610840565b820191906000526020600020905b81548152906001019060200180831161082357829003601f168201915b5050505050905090565b6000818152600260205260408120546001600160a01b03166108c35760405162461bcd60e51b815260206004820152602c60248201527f4552433732313a20617070726f76656420717565727920666f72206e6f6e657860448201526b34b9ba32b73a103a37b5b2b760a11b606482015260840161075b565b506000908152600460205260409020546001600160a01b031690565b60006108ea82610e5a565b9050806001600160a01b0316836001600160a01b031614156109745760405162461bcd60e51b815260206004820152602160248201527f4552433732313a20617070726f76616c20746f2063757272656e74206f776e6560448201527f7200000000000000000000000000000000000000000000000000000000000000606482015260840161075b565b336001600160a01b03821614806109ae57506001600160a01b038116600090815260056020908152604080832033845290915290205460ff165b610a205760405162461bcd60e51b815260206004820152603860248201527f4552433732313a20617070726f76652063616c6c6572206973206e6f74206f7760448201527f6e6572206e6f7220617070726f76656420666f7220616c6c0000000000000000606482015260840161075b565b610a2a8383612027565b505050565b6000818152600a60205260408120600401544290610a4f906102586131e2565b119050801581610a92575060016000838152600a602052604090206002015460ff166005811115610a9057634e487b7160e01b600052602160045260246000fd5b145b8015610ab357506000828152600a60205260409020546001600160a01b0316155b8015610acf575033610ac483610e5a565b6001600160a01b0316145b15610af1576000828152600a60205260409020600201805460ff191660031790555b5050565b60026007541415610b485760405162461bcd60e51b815260206004820152601f60248201527f5265656e7472616e637947756172643a207265656e7472616e742063616c6c00604482015260640161075b565b6002600755610b573382612095565b80610b7857506000818152600e60205260409020546001600160a01b031633145b610c105760405162461bcd60e51b815260206004820152604960248201527f4552433732313a207472616e736665722063616c6c6572206973206e6f74206f60448201527f776e6572206e6f7220617070726f766564206f72204e4654206e6f742079657460648201527f2061636365707465640000000000000000000000000000000000000000000000608482015260a40161075b565b610c2b838383604051806020016040528060008152506121cb565b5050600160075550565b6006546001600160a01b03163314610c8f5760405162461bcd60e51b815260206004820181905260248201527f4f776e61626c653a2063616c6c6572206973206e6f7420746865206f776e6572604482015260640161075b565b6040514790339082156108fc029083906000818181858888f19350505050158015610af1573d6000803e3d6000fd5b600082604051602001610cd19190612fd0565b60408051601f1981840301815291815281516020928301206000818152600d909352908220549092503391610d0582610e5a565b6000838152600e60205260409020549091506001600160a01b0384811691161415610d3a57610d35818484610af5565b610dd0565b6000848152600d6020526040902054610d5290612254565b610d9e5760405162461bcd60e51b815260206004820152600760248201527f54494d454f555400000000000000000000000000000000000000000000000000604482015260640161075b565b6000828152600e6020526040902080546001600160a01b0319166001600160a01b038516179055610dd0818484610af5565b6000828152600a6020526040902060020180546004919060ff19166001830217905550845160208601516040517f15b9c12dd403f5978e51223a82277ec8d4fa41cbaf76505824e44430dee97c2792610e2f92869260049291906131b1565b60405180910390a1505050505050565b610a2a83838360405180602001604052806000815250611b7f565b6000818152600260205260408120546001600160a01b0316806106ff5760405162461bcd60e51b815260206004820152602960248201527f4552433732313a206f776e657220717565727920666f72206e6f6e657869737460448201527f656e7420746f6b656e0000000000000000000000000000000000000000000000606482015260840161075b565b610f346040805160e08101825260008082526020808301829052828401829052835180850190945281845283015290606082019081526000602082018190526060604083018190529091015290565b600082604051602001610f479190612fd0565b60408051601f1981840301815282825280516020918201206000818152600d835283812054808252600a84529084902060e08601855280546001600160a01b031686526001810154938601939093526002830154919550939283019060ff166005811115610fc557634e487b7160e01b600052602160045260246000fd5b6005811115610fe457634e487b7160e01b600052602160045260246000fd5b8152604080518082018252600384015461ffff8082168352620100009091041660208281019190915283015260048301549082015260058201805460609092019161102e90613251565b80601f016020809104026020016040519081016040528092919081815260200182805461105a90613251565b80156110a75780601f1061107c576101008083540402835291602001916110a7565b820191906000526020600020905b81548152906001019060200180831161108a57829003601f168201915b5050505050815260200160068201548152505092505050919050565b60006001600160a01b0382166111415760405162461bcd60e51b815260206004820152602a60248201527f4552433732313a2062616c616e636520717565727920666f7220746865207a6560448201527f726f206164647265737300000000000000000000000000000000000000000000606482015260840161075b565b506001600160a01b031660009081526003602052604090205490565b6006546001600160a01b031633146111b75760405162461bcd60e51b815260206004820181905260248201527f4f776e61626c653a2063616c6c6572206973206e6f7420746865206f776e6572604482015260640161075b565b6111c160006122eb565b565b6000838152600a60205260409020600281015460ff1660058160058111156111fb57634e487b7160e01b600052602160045260246000fd5b14806112265750600281600581111561122457634e487b7160e01b600052602160045260246000fd5b145b806112505750600381600581111561124e57634e487b7160e01b600052602160045260246000fd5b145b801561126c57503361126186610e5a565b6001600160a01b0316145b6112de5760405162461bcd60e51b815260206004820152602b60248201527f4e4654204953204e4f542052454a4543544544204e4f522054494d454f55542060448201527f4e4f52205354414e444259000000000000000000000000000000000000000000606482015260840161075b565b60028201805460ff191660011790556040516112fe908490602001612fd0565b60408051601f19818403018152919052805160209091012060068301556001600160a01b03841615611352576000858152600e6020526040902080546001600160a01b0319166001600160a01b0386161790555b7faaec24950f5d317fc1ae90c137651a2aeee78da55e6886373ba89ed5e613c9da85600160405161138492919061319d565b60405180910390a15050505050565b8515806113a05750856001145b6114125760405162461bcd60e51b815260206004820152602f60248201527f4f4e4c5920535441545553204452414654283029204f522050454e44494e472860448201527f3129204152452041434345505445440000000000000000000000000000000000606482015260840161075b565b611420600880546001019055565b600061142b60085490565b905060006040518060e00160405280886001600160a01b031681526020018381526020016000600581111561147057634e487b7160e01b600052602160045260246000fd5b8152602001878152602001868152602001858152602001846040516020016114989190612fd0565b60408051601f19818403018152918152815160209283012090925260c08301516000908152600d909152208390559050600188141561150f57600160408201526001600160a01b0387161561150f576000828152600e6020526040902080546001600160a01b0319166001600160a01b0389161790555b611519338361233d565b6020808201839052336000908152600c909152604081208054600192906115419084906131e2565b9091555050336000908152600b60209081526040808320600c83528184205484528252808320859055848352600a825291829020835181546001600160a01b0319166001600160a01b039091161781559083015160018083019190915591830151600282018054859460ff19909116908360058111156115d157634e487b7160e01b600052602160045260246000fd5b02179055506060820151805160038301805460209384015161ffff908116620100000263ffffffff199092169316929092179190911790556080830151600483015560a0830151805161162a92600585019201906129cc565b5060c08201518160060155905050817f283314b0354adfa6b0f187b69a0c395a2fd9ac0f1198afe4c0587840c11c6ed489600581111561167a57634e487b7160e01b600052602160045260246000fd5b885160208a0151604051611694939233928e928c90613120565b60405180910390a25050505050505050565b336116b082610e5a565b6001600160a01b0316146117065760405162461bcd60e51b815260206004820152600b60248201527f4e4f542043524541544f52000000000000000000000000000000000000000000604482015260640161075b565b60016000828152600a602052604090206002015460ff16600581111561173c57634e487b7160e01b600052602160045260246000fd5b146117895760405162461bcd60e51b815260206004820152601960248201527f4e4654204e4f5420494e2050454e44494e472053544154555300000000000000604482015260640161075b565b6000818152600a6020526040908190206002908101805460ff19168217905590517faaec24950f5d317fc1ae90c137651a2aeee78da55e6886373ba89ed5e613c9da916107ad9184919061319d565b336000908152600c60205260408120546060918167ffffffffffffffff81111561181257634e487b7160e01b600052604160045260246000fd5b60405190808252806020026020018201604052801561189257816020015b61187f6040805160e08101825260008082526020808301829052828401829052835180850190945281845283015290606082019081526000602082018190526060604083018190529091015290565b8152602001906001900390816118305790505b50905060005b82811015611a4257600a60006118af8360016131e2565b81526020808201929092526040908101600020815160e08101835281546001600160a01b031681526001820154938101939093526002810154909183019060ff16600581111561190f57634e487b7160e01b600052602160045260246000fd5b600581111561192e57634e487b7160e01b600052602160045260246000fd5b8152604080518082018252600384015461ffff8082168352620100009091041660208281019190915283015260048301549082015260058201805460609092019161197890613251565b80601f01602080910402602001604051908101604052809291908181526020018280546119a490613251565b80156119f15780601f106119c6576101008083540402835291602001916119f1565b820191906000526020600020905b8154815290600101906020018083116119d457829003601f168201915b50505050508152602001600682015481525050828281518110611a2457634e487b7160e01b600052603260045260246000fd5b60200260200101819052508080611a3a9061328c565b915050611898565b5092915050565b6060600180546107c790613251565b600081604051602001611a6b9190612fd0565b60408051601f1981840301815291815281516020928301206000818152600d90935291205490915060016000828152600a602052604090206002015460ff166005811115611ac957634e487b7160e01b600052602160045260246000fd5b14611b165760405162461bcd60e51b815260206004820152601960248201527f4e4654204e4f5420494e2050454e44494e472053544154555300000000000000604482015260640161075b565b6000818152600a602052604090819020600201805460ff1916600590811790915590517faaec24950f5d317fc1ae90c137651a2aeee78da55e6886373ba89ed5e613c9da91611b679184919061319d565b60405180910390a1505050565b610af133838361247f565b611b893383612095565b611bfb5760405162461bcd60e51b815260206004820152603160248201527f4552433732313a207472616e736665722063616c6c6572206973206e6f74206f60448201527f776e6572206e6f7220617070726f766564000000000000000000000000000000606482015260840161075b565b611c07848484846121cb565b50505050565b6000818152600260205260409020546060906001600160a01b0316611c9a5760405162461bcd60e51b815260206004820152602f60248201527f4552433732314d657461646174613a2055524920717565727920666f72206e6f60448201527f6e6578697374656e7420746f6b656e0000000000000000000000000000000000606482015260840161075b565b6000611cb160408051602081019091526000815290565b90506000815111611cd15760405180602001604052806000815250611cfc565b80611cdb8461254e565b604051602001611cec929190612fec565b6040516020818303038152906040525b9392505050565b6006546001600160a01b03163314611d5d5760405162461bcd60e51b815260206004820181905260248201527f4f776e61626c653a2063616c6c6572206973206e6f7420746865206f776e6572604482015260640161075b565b6000818152600f602052604090206001908101805460ff1916828002179055506040518181527fade0ff2f87cd2fd5a89704161a2ebfc8accf3d6f70ab0485c1105e109204aa43906020016107ad565b6006546001600160a01b03163314611e075760405162461bcd60e51b815260206004820181905260248201527f4f776e61626c653a2063616c6c6572206973206e6f7420746865206f776e6572604482015260640161075b565b6001600160a01b038116611e835760405162461bcd60e51b815260206004820152602660248201527f4f776e61626c653a206e6577206f776e657220697320746865207a65726f206160448201527f6464726573730000000000000000000000000000000000000000000000000000606482015260840161075b565b611e8c816122eb565b50565b60026007541415611ee25760405162461bcd60e51b815260206004820152601f60248201527f5265656e7472616e637947756172643a207265656e7472616e742063616c6c00604482015260640161075b565b6002600755611ef5600980546001019055565b6000611f0060095490565b90506000604051806080016040528083815260200160006002811115611f3657634e487b7160e01b600052602160045260246000fd5b81526020808201869052336040928301526000858152600f8252919091208251815590820151600180830180549495508594909160ff1990911690836002811115611f9157634e487b7160e01b600052602160045260246000fd5b021790555060408201518051611fb19160028401916020909101906129cc565b5060609190910151600390910180546001600160a01b0319166001600160a01b0390921691909117905560405182907f9a298d4520c945bb590ba985d7d228a9fada94908f3fb6734f2900adb884f3ad9061201490339060009088908a90613057565b60405180910390a2505060016007555050565b600081815260046020526040902080546001600160a01b0319166001600160a01b038416908117909155819061205c82610e5a565b6001600160a01b03167f8c5be1e5ebec7d5bd14f71427d1e84f3dd0314c0f7b2291e5b200ac8c7c3b92560405160405180910390a45050565b6000818152600260205260408120546001600160a01b031661210e5760405162461bcd60e51b815260206004820152602c60248201527f4552433732313a206f70657261746f7220717565727920666f72206e6f6e657860448201526b34b9ba32b73a103a37b5b2b760a11b606482015260840161075b565b600061211983610e5a565b9050806001600160a01b0316846001600160a01b031614806121545750836001600160a01b03166121498461084a565b6001600160a01b0316145b8061218457506001600160a01b0380821660009081526005602090815260408083209388168352929052205460ff165b80156121c3575060046000848152600a602052604090206002015460ff1660058111156121c157634e487b7160e01b600052602160045260246000fd5b145b949350505050565b6121d684848461269c565b6121e284848484612869565b611c075760405162461bcd60e51b815260206004820152603260248201527f4552433732313a207472616e7366657220746f206e6f6e20455243373231526560448201527f63656976657220696d706c656d656e7465720000000000000000000000000000606482015260840161075b565b600060016000838152600a602052604090206002015460ff16600581111561228c57634e487b7160e01b600052602160045260246000fd5b1461229957506000919050565b6000828152600a602052604081206004015442906122b9906102586131e2565b119050806122e25750506000908152600a60205260408120600201805460ff1916600317905590565b50600192915050565b600680546001600160a01b038381166001600160a01b0319831681179093556040519116919082907f8be0079c531659141344cd1fd0a4f28419497f9722a3daafe3b4186f6b6457e090600090a35050565b6001600160a01b0382166123935760405162461bcd60e51b815260206004820181905260248201527f4552433732313a206d696e7420746f20746865207a65726f2061646472657373604482015260640161075b565b6000818152600260205260409020546001600160a01b0316156123f85760405162461bcd60e51b815260206004820152601c60248201527f4552433732313a20746f6b656e20616c7265616479206d696e74656400000000604482015260640161075b565b6001600160a01b03821660009081526003602052604081208054600192906124219084906131e2565b909155505060008181526002602052604080822080546001600160a01b0319166001600160a01b03861690811790915590518392907fddf252ad1be2c89b69c2b068fc378daa952ba7f163c4a11628f55a4df523b3ef908290a45050565b816001600160a01b0316836001600160a01b031614156124e15760405162461bcd60e51b815260206004820152601960248201527f4552433732313a20617070726f766520746f2063616c6c657200000000000000604482015260640161075b565b6001600160a01b03838116600081815260056020908152604080832094871680845294825291829020805460ff191686151590811790915591519182527f17307eab39ab6107e8899845ad3d59bd9653f200f220920489ca2b5937696c31910160405180910390a3505050565b60608161258e57505060408051808201909152600181527f3000000000000000000000000000000000000000000000000000000000000000602082015290565b8160005b81156125b857806125a28161328c565b91506125b19050600a836131fa565b9150612592565b60008167ffffffffffffffff8111156125e157634e487b7160e01b600052604160045260246000fd5b6040519080825280601f01601f19166020018201604052801561260b576020820181803683370190505b5090505b84156121c35761262060018361320e565b915061262d600a866132a7565b6126389060306131e2565b60f81b81838151811061265b57634e487b7160e01b600052603260045260246000fd5b60200101907effffffffffffffffffffffffffffffffffffffffffffffffffffffffffffff1916908160001a905350612695600a866131fa565b945061260f565b826001600160a01b03166126af82610e5a565b6001600160a01b03161461272b5760405162461bcd60e51b815260206004820152602560248201527f4552433732313a207472616e736665722066726f6d20696e636f72726563742060448201527f6f776e6572000000000000000000000000000000000000000000000000000000606482015260840161075b565b6001600160a01b0382166127a65760405162461bcd60e51b8152602060048201526024808201527f4552433732313a207472616e7366657220746f20746865207a65726f2061646460448201527f7265737300000000000000000000000000000000000000000000000000000000606482015260840161075b565b6127b1600082612027565b6001600160a01b03831660009081526003602052604081208054600192906127da90849061320e565b90915550506001600160a01b03821660009081526003602052604081208054600192906128089084906131e2565b909155505060008181526002602052604080822080546001600160a01b0319166001600160a01b0386811691821790925591518493918716917fddf252ad1be2c89b69c2b068fc378daa952ba7f163c4a11628f55a4df523b3ef91a4505050565b60006001600160a01b0384163b156129c157604051630a85bd0160e11b81526001600160a01b0385169063150b7a02906128ad90339089908890889060040161301b565b602060405180830381600087803b1580156128c757600080fd5b505af19250505080156128f7575060408051601f3d908101601f191682019092526128f491810190612d04565b60015b6129a7573d808015612925576040519150601f19603f3d011682016040523d82523d6000602084013e61292a565b606091505b50805161299f5760405162461bcd60e51b815260206004820152603260248201527f4552433732313a207472616e7366657220746f206e6f6e20455243373231526560448201527f63656976657220696d706c656d656e7465720000000000000000000000000000606482015260840161075b565b805181602001fd5b6001600160e01b031916630a85bd0160e11b1490506121c3565b506001949350505050565b8280546129d890613251565b90600052602060002090601f0160209004810192826129fa5760008555612a40565b82601f10612a1357805160ff1916838001178555612a40565b82800160010185558215612a40579182015b82811115612a40578251825591602001919060010190612a25565b50612a4c929150612a50565b5090565b5b80821115612a4c5760008155600101612a51565b600067ffffffffffffffff80841115612a8057612a806132fd565b604051601f8501601f19908116603f01168101908282118183101715612aa857612aa86132fd565b81604052809350858152868686011115612ac157600080fd5b858560208301376000602087830101525050509392505050565b80356001600160a01b0381168114612af257600080fd5b919050565b600082601f830112612b07578081fd5b611cfc83833560208501612a65565b600060408284031215612b27578081fd5b6040516040810181811067ffffffffffffffff82111715612b4a57612b4a6132fd565b604052905080612b5983612b73565b8152612b6760208401612b73565b60208201525092915050565b803561ffff81168114612af257600080fd5b600060208284031215612b96578081fd5b611cfc82612adb565b60008060408385031215612bb1578081fd5b612bba83612adb565b9150612bc860208401612adb565b90509250929050565b600080600060608486031215612be5578081fd5b612bee84612adb565b9250612bfc60208501612adb565b9150604084013590509250925092565b60008060008060808587031215612c21578081fd5b612c2a85612adb565b9350612c3860208601612adb565b925060408501359150606085013567ffffffffffffffff811115612c5a578182fd5b8501601f81018713612c6a578182fd5b612c7987823560208401612a65565b91505092959194509250565b60008060408385031215612c97578182fd5b612ca083612adb565b915060208301358015158114612cb4578182fd5b809150509250929050565b60008060408385031215612cd1578182fd5b612cda83612adb565b946020939093013593505050565b600060208284031215612cf9578081fd5b8135611cfc81613313565b600060208284031215612d15578081fd5b8151611cfc81613313565b600060208284031215612d31578081fd5b813567ffffffffffffffff811115612d47578182fd5b6121c384828501612af7565b60008060408385031215612d65578182fd5b823567ffffffffffffffff80821115612d7c578384fd5b612d8886838701612af7565b93506020850135915080821115612d9d578283fd5b50612daa85828601612af7565b9150509250929050565b60008060608385031215612dc6578182fd5b823567ffffffffffffffff811115612ddc578283fd5b612de885828601612af7565b925050612bc88460208501612b16565b600060208284031215612e09578081fd5b5035919050565b600080600060608486031215612e24578081fd5b83359250612e3460208501612adb565b9150604084013567ffffffffffffffff811115612e4f578182fd5b612e5b86828701612af7565b9150509250925092565b60008060008060008060e08789031215612e7d578384fd5b86359550612e8d60208801612adb565b9450612e9c8860408901612b16565b93506080870135925060a087013567ffffffffffffffff80821115612ebf578384fd5b612ecb8a838b01612af7565b935060c0890135915080821115612ee0578283fd5b50612eed89828a01612af7565b9150509295509295509295565b60008151808452612f12816020860160208601613225565b601f01601f19169290920160200192915050565b60038110612f3657612f366132e7565b9052565b60068110612f3657612f366132e7565b60006101006001600160a01b038351168452602083015160208501526040830151612f786040860182612f3a565b50606083015161ffff8082511660608701528060208301511660808701525050608083015160a085015260a08301518160c0860152612fb982860182612efa565b91505060c083015160e08501528091505092915050565b60008251612fe2818460208701613225565b9190910192915050565b60008351612ffe818460208801613225565b835190830190613012818360208801613225565b01949350505050565b60006001600160a01b0380871683528086166020840152508360408301526080606083015261304d6080830184612efa565b9695505050505050565b6001600160a01b03851681526130706020820185612f26565b6080604082015260006130866080830185612efa565b82810360608401526130988185612efa565b979650505050505050565b6000602080830181845280855180835260408601915060408160051b8701019250838701855b828110156130f757603f198886030184526130e5858351612f4a565b945092850192908501906001016130c9565b5092979650505050505050565b602081016106ff8284612f26565b602081016106ff8284612f3a565b61312a8188612f3a565b6001600160a01b0386811660208301528516604082015261ffff84811660608301528316608082015260c060a0820181905260009061316b90830184612efa565b98975050505050505050565b602081526000611cfc6020830184612efa565b602081526000611cfc6020830184612f4a565b82815260408101611cfc6020830184612f3a565b848152608081016131c56020830186612f3a565b61ffff808516604084015280841660608401525095945050505050565b600082198211156131f5576131f56132bb565b500190565b600082613209576132096132d1565b500490565b600082821015613220576132206132bb565b500390565b60005b83811015613240578181015183820152602001613228565b83811115611c075750506000910152565b600181811c9082168061326557607f821691505b6020821081141561328657634e487b7160e01b600052602260045260246000fd5b50919050565b60006000198214156132a0576132a06132bb565b5060010190565b6000826132b6576132b66132d1565b500690565b634e487b7160e01b600052601160045260246000fd5b634e487b7160e01b600052601260045260246000fd5b634e487b7160e01b600052602160045260246000fd5b634e487b7160e01b600052604160045260246000fd5b6001600160e01b031981168114611e8c57600080fdfea264697066735822122086dcb4f61123e7e5895889a899df5fabeb2fa093d082bcd23fed667053de1a9d64736f6c63430008040033",
  "linkReferences": {},
  "deployedLinkReferences": {}
}