{
  "_format": "hh-sol-artifact-1",
  "contractName": "GratitudeContract",
  "sourceName": "contracts/GratitudeContract.sol",
  "abi": [
    {
      "inputs": [],
      "stateMutability": "nonpayable",
      "type": "constructor"
    },
    {
      "anonymous": false,
      "inputs": [
        {
          "indexed": true,
          "internalType": "address",
          "name": "owner",
          "type": "address"
        },
        {
          "indexed": true,
          "internalType": "address",
          "name": "approved",
          "type": "address"
        },
        {
          "indexed": true,
          "internalType": "uint256",
          "name": "tokenId",
          "type": "uint256"
        }
      ],
      "name": "Approval",
      "type": "event"
    },
    {
      "anonymous": false,
      "inputs": [
        {
          "indexed": true,
          "internalType": "address",
          "name": "owner",
          "type": "address"
        },
        {
          "indexed": true,
          "internalType": "address",
          "name": "operator",
          "type": "address"
        },
        {
          "indexed": false,
          "internalType": "bool",
          "name": "approved",
          "type": "bool"
        }
      ],
      "name": "ApprovalForAll",
      "type": "event"
    },
    {
      "anonymous": false,
      "inputs": [
        {
          "indexed": true,
          "internalType": "address",
          "name": "previousOwner",
          "type": "address"
        },
        {
          "indexed": true,
          "internalType": "address",
          "name": "newOwner",
          "type": "address"
        }
      ],
      "name": "OwnershipTransferred",
      "type": "event"
    },
    {
      "anonymous": false,
      "inputs": [
        {
          "indexed": true,
          "internalType": "address",
          "name": "from",
          "type": "address"
        },
        {
          "indexed": true,
          "internalType": "address",
          "name": "to",
          "type": "address"
        },
        {
          "indexed": true,
          "internalType": "uint256",
          "name": "tokenId",
          "type": "uint256"
        }
      ],
      "name": "Transfer",
      "type": "event"
    },
    {
      "inputs": [],
      "name": "_tokenIds",
      "outputs": [
        {
          "internalType": "uint256",
          "name": "_value",
          "type": "uint256"
        }
      ],
      "stateMutability": "view",
      "type": "function"
    },
    {
      "inputs": [
        {
          "internalType": "string",
          "name": "_linkCode",
          "type": "string"
        }
      ],
      "name": "acceptLinkHash",
      "outputs": [],
      "stateMutability": "nonpayable",
      "type": "function"
    },
    {
      "inputs": [
        {
          "internalType": "address",
          "name": "to",
          "type": "address"
        },
        {
          "internalType": "uint256",
          "name": "tokenId",
          "type": "uint256"
        }
      ],
      "name": "approve",
      "outputs": [],
      "stateMutability": "nonpayable",
      "type": "function"
    },
    {
      "inputs": [
        {
          "internalType": "address",
          "name": "owner",
          "type": "address"
        }
      ],
      "name": "balanceOf",
      "outputs": [
        {
          "internalType": "uint256",
          "name": "",
          "type": "uint256"
        }
      ],
      "stateMutability": "view",
      "type": "function"
    },
    {
      "inputs": [
        {
          "internalType": "uint256",
          "name": "_tokenId",
          "type": "uint256"
        }
      ],
      "name": "cancelWhenStillPending",
      "outputs": [],
      "stateMutability": "nonpayable",
      "type": "function"
    },
    {
      "inputs": [
        {
          "internalType": "uint256",
          "name": "_tokenId",
          "type": "uint256"
        }
      ],
      "name": "checkPendingStatusPriorToGet",
      "outputs": [],
      "stateMutability": "nonpayable",
      "type": "function"
    },
    {
      "inputs": [
        {
          "internalType": "uint256",
          "name": "_status",
          "type": "uint256"
        },
        {
          "internalType": "address",
          "name": "_receiver",
          "type": "address"
        },
        {
          "components": [
            {
              "internalType": "uint8",
              "name": "lat",
              "type": "uint8"
            },
            {
              "internalType": "uint8",
              "name": "lng",
              "type": "uint8"
            }
          ],
          "internalType": "struct GratitudeContract.GEO",
          "name": "_geo",
          "type": "tuple"
        },
        {
          "internalType": "uint256",
          "name": "_timeStamp",
          "type": "uint256"
        },
        {
          "internalType": "string",
          "name": "_tokenUri",
          "type": "string"
        },
        {
          "internalType": "string",
          "name": "_linkCode",
          "type": "string"
        }
      ],
      "name": "createGratitudeToken",
      "outputs": [],
      "stateMutability": "nonpayable",
      "type": "function"
    },
    {
      "inputs": [
        {
          "internalType": "uint256",
          "name": "tokenId",
          "type": "uint256"
        }
      ],
      "name": "getApproved",
      "outputs": [
        {
          "internalType": "address",
          "name": "",
          "type": "address"
        }
      ],
      "stateMutability": "view",
      "type": "function"
    },
    {
      "inputs": [
        {
          "internalType": "string",
          "name": "_linkCode",
          "type": "string"
        }
      ],
      "name": "getGratitudeNFtByLinkCode",
      "outputs": [
        {
          "components": [
            {
              "internalType": "address",
              "name": "receiver",
              "type": "address"
            },
            {
              "internalType": "uint256",
              "name": "tokenId",
              "type": "uint256"
            },
            {
              "internalType": "enum GratitudeContract.NFTStatus",
              "name": "status",
              "type": "uint8"
            },
            {
              "components": [
                {
                  "internalType": "uint8",
                  "name": "lat",
                  "type": "uint8"
                },
                {
                  "internalType": "uint8",
                  "name": "lng",
                  "type": "uint8"
                }
              ],
              "internalType": "struct GratitudeContract.GEO",
              "name": "geo",
              "type": "tuple"
            },
            {
              "internalType": "uint256",
              "name": "timeStamp",
              "type": "uint256"
            },
            {
              "internalType": "string",
              "name": "tokenUri",
              "type": "string"
            },
            {
              "internalType": "bytes32",
              "name": "linkCode",
              "type": "bytes32"
            }
          ],
          "internalType": "struct GratitudeContract.NFT",
          "name": "",
          "type": "tuple"
        }
      ],
      "stateMutability": "view",
      "type": "function"
    },
    {
      "inputs": [
        {
          "internalType": "uint256",
          "name": "_tokenId",
          "type": "uint256"
        }
      ],
      "name": "getStatus",
      "outputs": [
        {
          "internalType": "enum GratitudeContract.NFTStatus",
          "name": "",
          "type": "uint8"
        }
      ],
      "stateMutability": "view",
      "type": "function"
    },
    {
      "inputs": [
        {
          "internalType": "address",
          "name": "owner",
          "type": "address"
        },
        {
          "internalType": "address",
          "name": "operator",
          "type": "address"
        }
      ],
      "name": "isApprovedForAll",
      "outputs": [
        {
          "internalType": "bool",
          "name": "",
          "type": "bool"
        }
      ],
      "stateMutability": "view",
      "type": "function"
    },
    {
      "inputs": [],
      "name": "name",
      "outputs": [
        {
          "internalType": "string",
          "name": "",
          "type": "string"
        }
      ],
      "stateMutability": "view",
      "type": "function"
    },
    {
      "inputs": [],
      "name": "owner",
      "outputs": [
        {
          "internalType": "address",
          "name": "",
          "type": "address"
        }
      ],
      "stateMutability": "view",
      "type": "function"
    },
    {
      "inputs": [
        {
          "internalType": "uint256",
          "name": "tokenId",
          "type": "uint256"
        }
      ],
      "name": "ownerOf",
      "outputs": [
        {
          "internalType": "address",
          "name": "",
          "type": "address"
        }
      ],
      "stateMutability": "view",
      "type": "function"
    },
    {
      "inputs": [
        {
          "internalType": "string",
          "name": "_linkCode",
          "type": "string"
        }
      ],
      "name": "rejectGratitudeNFTbyLinkCode",
      "outputs": [],
      "stateMutability": "nonpayable",
      "type": "function"
    },
    {
      "inputs": [],
      "name": "renounceOwnership",
      "outputs": [],
      "stateMutability": "nonpayable",
      "type": "function"
    },
    {
      "inputs": [
        {
          "internalType": "uint256",
          "name": "_tokenId",
          "type": "uint256"
        },
        {
          "internalType": "address",
          "name": "_receiver",
          "type": "address"
        },
        {
          "internalType": "string",
          "name": "_linkCode",
          "type": "string"
        }
      ],
      "name": "resendWhenTimeOutOrRejectedOrStandby",
      "outputs": [],
      "stateMutability": "nonpayable",
      "type": "function"
    },
    {
      "inputs": [
        {
          "internalType": "address",
          "name": "from",
          "type": "address"
        },
        {
          "internalType": "address",
          "name": "to",
          "type": "address"
        },
        {
          "internalType": "uint256",
          "name": "tokenId",
          "type": "uint256"
        }
      ],
      "name": "safeTransferFrom",
      "outputs": [],
      "stateMutability": "nonpayable",
      "type": "function"
    },
    {
      "inputs": [
        {
          "internalType": "address",
          "name": "from",
          "type": "address"
        },
        {
          "internalType": "address",
          "name": "to",
          "type": "address"
        },
        {
          "internalType": "uint256",
          "name": "tokenId",
          "type": "uint256"
        },
        {
          "internalType": "bytes",
          "name": "_data",
          "type": "bytes"
        }
      ],
      "name": "safeTransferFrom",
      "outputs": [],
      "stateMutability": "nonpayable",
      "type": "function"
    },
    {
      "inputs": [
        {
          "internalType": "address",
          "name": "operator",
          "type": "address"
        },
        {
          "internalType": "bool",
          "name": "approved",
          "type": "bool"
        }
      ],
      "name": "setApprovalForAll",
      "outputs": [],
      "stateMutability": "nonpayable",
      "type": "function"
    },
    {
      "inputs": [
        {
          "internalType": "bytes4",
          "name": "interfaceId",
          "type": "bytes4"
        }
      ],
      "name": "supportsInterface",
      "outputs": [
        {
          "internalType": "bool",
          "name": "",
          "type": "bool"
        }
      ],
      "stateMutability": "view",
      "type": "function"
    },
    {
      "inputs": [],
      "name": "symbol",
      "outputs": [
        {
          "internalType": "string",
          "name": "",
          "type": "string"
        }
      ],
      "stateMutability": "view",
      "type": "function"
    },
    {
      "inputs": [
        {
          "internalType": "uint256",
          "name": "index",
          "type": "uint256"
        }
      ],
      "name": "tokenByIndex",
      "outputs": [
        {
          "internalType": "uint256",
          "name": "",
          "type": "uint256"
        }
      ],
      "stateMutability": "view",
      "type": "function"
    },
    {
      "inputs": [
        {
          "internalType": "address",
          "name": "owner",
          "type": "address"
        },
        {
          "internalType": "uint256",
          "name": "index",
          "type": "uint256"
        }
      ],
      "name": "tokenOfOwnerByIndex",
      "outputs": [
        {
          "internalType": "uint256",
          "name": "",
          "type": "uint256"
        }
      ],
      "stateMutability": "view",
      "type": "function"
    },
    {
      "inputs": [
        {
          "internalType": "uint256",
          "name": "tokenId",
          "type": "uint256"
        }
      ],
      "name": "tokenURI",
      "outputs": [
        {
          "internalType": "string",
          "name": "",
          "type": "string"
        }
      ],
      "stateMutability": "view",
      "type": "function"
    },
    {
      "inputs": [],
      "name": "totalSupply",
      "outputs": [
        {
          "internalType": "uint256",
          "name": "",
          "type": "uint256"
        }
      ],
      "stateMutability": "view",
      "type": "function"
    },
    {
      "inputs": [
        {
          "internalType": "address",
          "name": "from",
          "type": "address"
        },
        {
          "internalType": "address",
          "name": "to",
          "type": "address"
        },
        {
          "internalType": "uint256",
          "name": "tokenId",
          "type": "uint256"
        }
      ],
      "name": "transferFrom",
      "outputs": [],
      "stateMutability": "nonpayable",
      "type": "function"
    },
    {
      "inputs": [
        {
          "internalType": "address",
          "name": "newOwner",
          "type": "address"
        }
      ],
      "name": "transferOwnership",
      "outputs": [],
      "stateMutability": "nonpayable",
      "type": "function"
    }
  ],
  "bytecode": "0x60806040523480156200001157600080fd5b50604080518082018252600d81526c11d49055125515511148139195609a1b60208083019182528351808501909452600384526247524160e81b9084015281519192916200006291600091620000f1565b50805162000078906001906020840190620000f1565b505050620000956200008f6200009b60201b60201c565b6200009f565b620001d4565b3390565b600680546001600160a01b038381166001600160a01b0319831681179093556040519116919082907f8be0079c531659141344cd1fd0a4f28419497f9722a3daafe3b4186f6b6457e090600090a35050565b828054620000ff9062000197565b90600052602060002090601f0160209004810192826200012357600085556200016e565b82601f106200013e57805160ff19168380011785556200016e565b828001600101855582156200016e579182015b828111156200016e57825182559160200191906001019062000151565b506200017c92915062000180565b5090565b5b808211156200017c576000815560010162000181565b600181811c90821680620001ac57607f821691505b60208210811415620001ce57634e487b7160e01b600052602260045260246000fd5b50919050565b6129e980620001e46000396000f3fe608060405234801561001057600080fd5b50600436106101c45760003560e01c806370a08231116100f9578063a22cb46511610097578063b88d4fde11610071578063b88d4fde146103cd578063c87b56dd146103e0578063e985e9c5146103f3578063f2fde38b1461042f57600080fd5b8063a22cb4651461039d578063aa46a400146103b0578063b4673482146103ba57600080fd5b806385df97dc116100d357806385df97dc1461035e5780638da5cb5b1461037157806395d89b41146103825780639896c56b1461038a57600080fd5b806370a0823114610330578063715018a6146103435780637528f2b11461034b57600080fd5b80632f745c59116101665780634f6ccce7116101405780634f6ccce7146102b75780635c622a0e146102ca5780636352211e146102fd57806368fb8fc01461031057600080fd5b80632f745c591461027e57806342842e0e146102915780634d118973146102a457600080fd5b8063095ea7b3116101a2578063095ea7b31461023157806318160ddd146102465780631a554c581461025857806323b872dd1461026b57600080fd5b806301ffc9a7146101c957806306fdde03146101f1578063081812fc14610206575b600080fd5b6101dc6101d73660046124ed565b610442565b60405190151581526020015b60405180910390f35b6101f9610494565b6040516101e8919061276b565b610219610214366004612558565b610526565b6040516001600160a01b0390911681526020016101e8565b61024461023f3660046124c4565b6105c0565b005b600f545b6040519081526020016101e8565b610244610266366004612558565b6106d6565b6102446102793660046123d6565b61079c565b61024a61028c3660046124c4565b610856565b61024461029f3660046123d6565b6108ec565b6102446102b2366004612525565b610907565b61024a6102c5366004612558565b610a25565b6102f06102d8366004612558565b60009081526008602052604090206002015460ff1690565b6040516101e8919061275d565b61021961030b366004612558565b610ac6565b61032361031e366004612525565b610b3d565b6040516101e891906127d0565b61024a61033e36600461238a565b610d19565b610244610da0565b610244610359366004612570565b610e06565b61024461036c366004612558565b610f8a565b6006546001600160a01b0316610219565b6101f9611077565b610244610398366004612525565b611086565b6102446103ab36600461248a565b611160565b60075461024a9081565b6102446103c83660046125c5565b61116b565b6102446103db366004612411565b611408565b6101f96103ee366004612558565b61148a565b6101dc6104013660046123a4565b6001600160a01b03918216600090815260056020908152604080832093909416825291909152205460ff1690565b61024461043d36600461238a565b611572565b60006001600160e01b031982166380ac58cd60e01b148061047357506001600160e01b03198216635b5e139f60e01b145b8061048e57506301ffc9a760e01b6001600160e01b03198316145b92915050565b6060600080546104a3906128f1565b80601f01602080910402602001604051908101604052809291908181526020018280546104cf906128f1565b801561051c5780601f106104f15761010080835404028352916020019161051c565b820191906000526020600020905b8154815290600101906020018083116104ff57829003601f168201915b5050505050905090565b6000818152600260205260408120546001600160a01b03166105a45760405162461bcd60e51b815260206004820152602c60248201527f4552433732313a20617070726f76656420717565727920666f72206e6f6e657860448201526b34b9ba32b73a103a37b5b2b760a11b60648201526084015b60405180910390fd5b506000908152600460205260409020546001600160a01b031690565b60006105cb82610ac6565b9050806001600160a01b0316836001600160a01b031614156106395760405162461bcd60e51b815260206004820152602160248201527f4552433732313a20617070726f76616c20746f2063757272656e74206f776e656044820152603960f91b606482015260840161059b565b336001600160a01b038216148061065557506106558133610401565b6106c75760405162461bcd60e51b815260206004820152603860248201527f4552433732313a20617070726f76652063616c6c6572206973206e6f74206f7760448201527f6e6572206e6f7220617070726f76656420666f7220616c6c0000000000000000606482015260840161059b565b6106d1838361163d565b505050565b60008181526008602052604081206004015442906106f690610258612882565b1190508015816107395750600160008381526008602052604090206002015460ff16600581111561073757634e487b7160e01b600052602160045260246000fd5b145b801561075a57506000828152600860205260409020546001600160a01b0316155b801561077657503361076b83610ac6565b6001600160a01b0316145b15610798576000828152600860205260409020600201805460ff191660031790555b5050565b6107a633826116ab565b806107c757506000818152600c60205260409020546001600160a01b031633145b61084b5760405162461bcd60e51b815260206004820152604960248201527f4552433732313a207472616e736665722063616c6c6572206973206e6f74206f60448201527f776e6572206e6f7220617070726f766564206f72204e4654206e6f7420796574606482015268081858d8d95c1d195960ba1b608482015260a40161059b565b6106d18383836117e1565b600061086183610d19565b82106108c35760405162461bcd60e51b815260206004820152602b60248201527f455243373231456e756d657261626c653a206f776e657220696e646578206f7560448201526a74206f6620626f756e647360a81b606482015260840161059b565b506001600160a01b03919091166000908152600d60209081526040808320938352929052205490565b6106d183838360405180602001604052806000815250611408565b60008160405160200161091a91906126d5565b60408051601f1981840301815291815281516020928301206000818152600b90935290822054909250339161094e82610ac6565b6000838152600c60205260409020549091506001600160a01b03848116911614156109835761097e81848461079c565b610a03565b6000848152600b602052604090205461099b90611988565b6109d15760405162461bcd60e51b81526020600482015260076024820152661512535153d55560ca1b604482015260640161059b565b6000828152600c6020526040902080546001600160a01b0319166001600160a01b038516179055610a0381848461079c565b506000908152600860205260409020600201805460ff19166004179055505050565b6000610a30600f5490565b8210610a935760405162461bcd60e51b815260206004820152602c60248201527f455243373231456e756d657261626c653a20676c6f62616c20696e646578206f60448201526b7574206f6620626f756e647360a01b606482015260840161059b565b600f8281548110610ab457634e487b7160e01b600052603260045260246000fd5b90600052602060002001549050919050565b6000818152600260205260408120546001600160a01b03168061048e5760405162461bcd60e51b815260206004820152602960248201527f4552433732313a206f776e657220717565727920666f72206e6f6e657869737460448201526832b73a103a37b5b2b760b91b606482015260840161059b565b610b8c6040805160e08101825260008082526020808301829052828401829052835180850190945281845283015290606082019081526000602082018190526060604083018190529091015290565b600082604051602001610b9f91906126d5565b60408051601f1981840301815282825280516020918201206000818152600b835283812054808252600884529084902060e08601855280546001600160a01b031686526001810154938601939093526002830154919550939283019060ff166005811115610c1d57634e487b7160e01b600052602160045260246000fd5b6005811115610c3c57634e487b7160e01b600052602160045260246000fd5b8152604080518082018252600384015460ff808216835261010090910416602082810191909152830152600483015490820152600582018054606090920191610c84906128f1565b80601f0160208091040260200160405190810160405280929190818152602001828054610cb0906128f1565b8015610cfd5780601f10610cd257610100808354040283529160200191610cfd565b820191906000526020600020905b815481529060010190602001808311610ce057829003601f168201915b5050505050815260200160068201548152505092505050919050565b60006001600160a01b038216610d845760405162461bcd60e51b815260206004820152602a60248201527f4552433732313a2062616c616e636520717565727920666f7220746865207a65604482015269726f206164647265737360b01b606482015260840161059b565b506001600160a01b031660009081526003602052604090205490565b6006546001600160a01b03163314610dfa5760405162461bcd60e51b815260206004820181905260248201527f4f776e61626c653a2063616c6c6572206973206e6f7420746865206f776e6572604482015260640161059b565b610e046000611a4d565b565b6000838152600860205260409020600281015460ff166005816005811115610e3e57634e487b7160e01b600052602160045260246000fd5b1480610e6957506002816005811115610e6757634e487b7160e01b600052602160045260246000fd5b145b80610e9357506003816005811115610e9157634e487b7160e01b600052602160045260246000fd5b145b8015610eaf575033610ea486610ac6565b6001600160a01b0316145b610f0f5760405162461bcd60e51b815260206004820152602b60248201527f4e4654204953204e4f542052454a4543544544204e4f522054494d454f55542060448201526a4e4f52205354414e44425960a81b606482015260840161059b565b60028201805460ff19166001179055604051610f2f9084906020016126d5565b60408051601f19818403018152919052805160209091012060068301556001600160a01b03841615610f83576000858152600c6020526040902080546001600160a01b0319166001600160a01b0386161790555b5050505050565b33610f9482610ac6565b6001600160a01b031614610fd85760405162461bcd60e51b815260206004820152600b60248201526a2727aa1021a922a0aa27a960a91b604482015260640161059b565b600160008281526008602052604090206002015460ff16600581111561100e57634e487b7160e01b600052602160045260246000fd5b146110575760405162461bcd60e51b81526020600482015260196024820152784e4654204e4f5420494e2050454e44494e472053544154555360381b604482015260640161059b565b60009081526008602052604090206002908101805460ff19169091179055565b6060600180546104a3906128f1565b60008160405160200161109991906126d5565b60408051601f1981840301815291815281516020928301206000818152600b909352912054909150600160008281526008602052604090206002015460ff1660058111156110f757634e487b7160e01b600052602160045260246000fd5b146111405760405162461bcd60e51b81526020600482015260196024820152784e4654204e4f5420494e2050454e44494e472053544154555360381b604482015260640161059b565b6000908152600860205260409020600201805460ff191660051790555050565b610798338383611a9f565b8515806111785750856001145b6111dc5760405162461bcd60e51b815260206004820152602f60248201527f4f4e4c5920535441545553204452414654283029204f522050454e44494e472860448201526e0c4a48105491481050d0d154151151608a1b606482015260840161059b565b6111ea600780546001019055565b60006111f560075490565b905060006040518060e00160405280886001600160a01b031681526020018381526020016000600581111561123a57634e487b7160e01b600052602160045260246000fd5b81526020018781526020018681526020018581526020018460405160200161126291906126d5565b60408051601f19818403018152918152815160209283012090925260c08301516000908152600b90915220839055905060018814156113fe57600160408201526112ac3383611b6e565b6020808201839052336000908152600a909152604081208054600192906112d4908490612882565b9091555050336000908152600960209081526040808320600a835281842054845282528083208590558483526008825291829020835181546001600160a01b0319166001600160a01b039091161781559083015160018083019190915591830151600282018054859460ff199091169083600581111561136457634e487b7160e01b600052602160045260246000fd5b02179055506060820151805160038301805460209384015160ff9081166101000261ffff199092169316929092179190911790556080830151600483015560a083015180516113b9926005850192019061222f565b5060c091909101516006909101556001600160a01b038716156113fe576000828152600c6020526040902080546001600160a01b0319166001600160a01b0389161790555b5050505050505050565b61141233836116ab565b6114785760405162461bcd60e51b815260206004820152603160248201527f4552433732313a207472616e736665722063616c6c6572206973206e6f74206f6044820152701ddb995c881b9bdc88185c1c1c9bdd9959607a1b606482015260840161059b565b61148484848484611cbc565b50505050565b6000818152600260205260409020546060906001600160a01b03166115095760405162461bcd60e51b815260206004820152602f60248201527f4552433732314d657461646174613a2055524920717565727920666f72206e6f60448201526e3732bc34b9ba32b73a103a37b5b2b760891b606482015260840161059b565b600061152060408051602081019091526000815290565b90506000815111611540576040518060200160405280600081525061156b565b8061154a84611cef565b60405160200161155b9291906126f1565b6040516020818303038152906040525b9392505050565b6006546001600160a01b031633146115cc5760405162461bcd60e51b815260206004820181905260248201527f4f776e61626c653a2063616c6c6572206973206e6f7420746865206f776e6572604482015260640161059b565b6001600160a01b0381166116315760405162461bcd60e51b815260206004820152602660248201527f4f776e61626c653a206e6577206f776e657220697320746865207a65726f206160448201526564647265737360d01b606482015260840161059b565b61163a81611a4d565b50565b600081815260046020526040902080546001600160a01b0319166001600160a01b038416908117909155819061167282610ac6565b6001600160a01b03167f8c5be1e5ebec7d5bd14f71427d1e84f3dd0314c0f7b2291e5b200ac8c7c3b92560405160405180910390a45050565b6000818152600260205260408120546001600160a01b03166117245760405162461bcd60e51b815260206004820152602c60248201527f4552433732313a206f70657261746f7220717565727920666f72206e6f6e657860448201526b34b9ba32b73a103a37b5b2b760a11b606482015260840161059b565b600061172f83610ac6565b9050806001600160a01b0316846001600160a01b0316148061176a5750836001600160a01b031661175f84610526565b6001600160a01b0316145b8061179a57506001600160a01b0380821660009081526005602090815260408083209388168352929052205460ff165b80156117d95750600460008481526008602052604090206002015460ff1660058111156117d757634e487b7160e01b600052602160045260246000fd5b145b949350505050565b826001600160a01b03166117f482610ac6565b6001600160a01b0316146118585760405162461bcd60e51b815260206004820152602560248201527f4552433732313a207472616e736665722066726f6d20696e636f72726563742060448201526437bbb732b960d91b606482015260840161059b565b6001600160a01b0382166118ba5760405162461bcd60e51b8152602060048201526024808201527f4552433732313a207472616e7366657220746f20746865207a65726f206164646044820152637265737360e01b606482015260840161059b565b6118c5838383611e09565b6118d060008261163d565b6001600160a01b03831660009081526003602052604081208054600192906118f99084906128ae565b90915550506001600160a01b0382166000908152600360205260408120805460019290611927908490612882565b909155505060008181526002602052604080822080546001600160a01b0319166001600160a01b0386811691821790925591518493918716917fddf252ad1be2c89b69c2b068fc378daa952ba7f163c4a11628f55a4df523b3ef91a4505050565b6000600160008381526008602052604090206002015460ff1660058111156119c057634e487b7160e01b600052602160045260246000fd5b146119cd57506000919050565b60008281526008602052604081206004015442906119ed90610258612882565b60008581526008602052604090206004015491109150611a0c90611ec1565b611a1542611ec1565b611a1e81611f06565b80611a445750506000908152600860205260408120600201805460ff1916600317905590565b50600192915050565b600680546001600160a01b038381166001600160a01b0319831681179093556040519116919082907f8be0079c531659141344cd1fd0a4f28419497f9722a3daafe3b4186f6b6457e090600090a35050565b816001600160a01b0316836001600160a01b03161415611b015760405162461bcd60e51b815260206004820152601960248201527f4552433732313a20617070726f766520746f2063616c6c657200000000000000604482015260640161059b565b6001600160a01b03838116600081815260056020908152604080832094871680845294825291829020805460ff191686151590811790915591519182527f17307eab39ab6107e8899845ad3d59bd9653f200f220920489ca2b5937696c31910160405180910390a3505050565b6001600160a01b038216611bc45760405162461bcd60e51b815260206004820181905260248201527f4552433732313a206d696e7420746f20746865207a65726f2061646472657373604482015260640161059b565b6000818152600260205260409020546001600160a01b031615611c295760405162461bcd60e51b815260206004820152601c60248201527f4552433732313a20746f6b656e20616c7265616479206d696e74656400000000604482015260640161059b565b611c3560008383611e09565b6001600160a01b0382166000908152600360205260408120805460019290611c5e908490612882565b909155505060008181526002602052604080822080546001600160a01b0319166001600160a01b03861690811790915590518392907fddf252ad1be2c89b69c2b068fc378daa952ba7f163c4a11628f55a4df523b3ef908290a45050565b611cc78484846117e1565b611cd384848484611f47565b6114845760405162461bcd60e51b815260040161059b9061277e565b606081611d135750506040805180820190915260018152600360fc1b602082015290565b8160005b8115611d3d5780611d278161292c565b9150611d369050600a8361289a565b9150611d17565b60008167ffffffffffffffff811115611d6657634e487b7160e01b600052604160045260246000fd5b6040519080825280601f01601f191660200182016040528015611d90576020820181803683370190505b5090505b84156117d957611da56001836128ae565b9150611db2600a86612947565b611dbd906030612882565b60f81b818381518110611de057634e487b7160e01b600052603260045260246000fd5b60200101906001600160f81b031916908160001a905350611e02600a8661289a565b9450611d94565b6001600160a01b038316611e6457611e5f81600f80546000838152601060205260408120829055600182018355919091527f8d1108e10bcb7c27dddfc02ed9d693a074039d026cf4ea4240b40f7d581ac8020155565b611e87565b816001600160a01b0316836001600160a01b031614611e8757611e878382612054565b6001600160a01b038216611e9e576106d1816120f1565b826001600160a01b0316826001600160a01b0316146106d1576106d182826121ca565b61163a81604051602401611ed791815260200190565b60408051601f198184030181529190526020810180516001600160e01b031663f5b1bba960e01b17905261220e565b604051811515602482015261163a9060440160408051601f198184030181529190526020810180516001600160e01b03166332458eed60e01b17905261220e565b60006001600160a01b0384163b1561204957604051630a85bd0160e11b81526001600160a01b0385169063150b7a0290611f8b903390899088908890600401612720565b602060405180830381600087803b158015611fa557600080fd5b505af1925050508015611fd5575060408051601f3d908101601f19168201909252611fd291810190612509565b60015b61202f573d808015612003576040519150601f19603f3d011682016040523d82523d6000602084013e612008565b606091505b5080516120275760405162461bcd60e51b815260040161059b9061277e565b805181602001fd5b6001600160e01b031916630a85bd0160e11b1490506117d9565b506001949350505050565b6000600161206184610d19565b61206b91906128ae565b6000838152600e60205260409020549091508082146120be576001600160a01b0384166000908152600d602090815260408083208584528252808320548484528184208190558352600e90915290208190555b506000918252600e602090815260408084208490556001600160a01b039094168352600d81528383209183525290812055565b600f54600090612103906001906128ae565b600083815260106020526040812054600f805493945090928490811061213957634e487b7160e01b600052603260045260246000fd5b9060005260206000200154905080600f838154811061216857634e487b7160e01b600052603260045260246000fd5b600091825260208083209091019290925582815260109091526040808220849055858252812055600f8054806121ae57634e487b7160e01b600052603160045260246000fd5b6001900381819060005260206000200160009055905550505050565b60006121d583610d19565b6001600160a01b039093166000908152600d602090815260408083208684528252808320859055938252600e9052919091209190915550565b80516a636f6e736f6c652e6c6f67602083016000808483855afa5050505050565b82805461223b906128f1565b90600052602060002090601f01602090048101928261225d57600085556122a3565b82601f1061227657805160ff19168380011785556122a3565b828001600101855582156122a3579182015b828111156122a3578251825591602001919060010190612288565b506122af9291506122b3565b5090565b5b808211156122af57600081556001016122b4565b600067ffffffffffffffff808411156122e3576122e3612987565b604051601f8501601f19908116603f0116810190828211818310171561230b5761230b612987565b8160405280935085815286868601111561232457600080fd5b858560208301376000602087830101525050509392505050565b80356001600160a01b038116811461235557600080fd5b919050565b600082601f83011261236a578081fd5b61156b838335602085016122c8565b803560ff8116811461235557600080fd5b60006020828403121561239b578081fd5b61156b8261233e565b600080604083850312156123b6578081fd5b6123bf8361233e565b91506123cd6020840161233e565b90509250929050565b6000806000606084860312156123ea578081fd5b6123f38461233e565b92506124016020850161233e565b9150604084013590509250925092565b60008060008060808587031215612426578081fd5b61242f8561233e565b935061243d6020860161233e565b925060408501359150606085013567ffffffffffffffff81111561245f578182fd5b8501601f8101871361246f578182fd5b61247e878235602084016122c8565b91505092959194509250565b6000806040838503121561249c578182fd5b6124a58361233e565b9150602083013580151581146124b9578182fd5b809150509250929050565b600080604083850312156124d6578182fd5b6124df8361233e565b946020939093013593505050565b6000602082840312156124fe578081fd5b813561156b8161299d565b60006020828403121561251a578081fd5b815161156b8161299d565b600060208284031215612536578081fd5b813567ffffffffffffffff81111561254c578182fd5b6117d98482850161235a565b600060208284031215612569578081fd5b5035919050565b600080600060608486031215612584578283fd5b833592506125946020850161233e565b9150604084013567ffffffffffffffff8111156125af578182fd5b6125bb8682870161235a565b9150509250925092565b60008060008060008086880360e08112156125de578283fd5b873596506125ee6020890161233e565b95506040603f1982011215612601578283fd5b5061260a612859565b61261660408901612379565b815261262460608901612379565b602082015293506080870135925060a087013567ffffffffffffffff8082111561264c578384fd5b6126588a838b0161235a565b935060c089013591508082111561266d578283fd5b5061267a89828a0161235a565b9150509295509295509295565b6000815180845261269f8160208601602086016128c5565b601f01601f19169290920160200192915050565b600681106126d157634e487b7160e01b600052602160045260246000fd5b9052565b600082516126e78184602087016128c5565b9190910192915050565b600083516127038184602088016128c5565b8351908301906127178183602088016128c5565b01949350505050565b6001600160a01b038581168252841660208201526040810183905260806060820181905260009061275390830184612687565b9695505050505050565b6020810161048e82846126b3565b60208152600061156b6020830184612687565b60208082526032908201527f4552433732313a207472616e7366657220746f206e6f6e20455243373231526560408201527131b2b4bb32b91034b6b83632b6b2b73a32b960711b606082015260800190565b6020815260018060a01b038251166020820152602082015160408201526000604083015161280160608401826126b3565b50606083015160ff815116608084015260ff60208201511660a084015250608083015160c083015260a08301516101008060e0850152612845610120850183612687565b60c095909501519301929092525090919050565b6040805190810167ffffffffffffffff8111828210171561287c5761287c612987565b60405290565b600082198211156128955761289561295b565b500190565b6000826128a9576128a9612971565b500490565b6000828210156128c0576128c061295b565b500390565b60005b838110156128e05781810151838201526020016128c8565b838111156114845750506000910152565b600181811c9082168061290557607f821691505b6020821081141561292657634e487b7160e01b600052602260045260246000fd5b50919050565b60006000198214156129405761294061295b565b5060010190565b60008261295657612956612971565b500690565b634e487b7160e01b600052601160045260246000fd5b634e487b7160e01b600052601260045260246000fd5b634e487b7160e01b600052604160045260246000fd5b6001600160e01b03198116811461163a57600080fdfea26469706673582212205d8a22dbd9a2f343850fda409cb7afce97d1338ea2d6f3c81fadc15db902d06164736f6c63430008040033",
  "linkReferences": {},
  "deployedLinkReferences": {}
}