{
  "_format": "hh-sol-artifact-1",
  "contractName": "GratitudeContract",
  "sourceName": "contracts/GratitudeContract.sol",
  "abi": [
    {
      "inputs": [],
      "stateMutability": "nonpayable",
      "type": "constructor"
    },
    {
      "anonymous": false,
      "inputs": [
        {
          "indexed": true,
          "internalType": "address",
          "name": "owner",
          "type": "address"
        },
        {
          "indexed": true,
          "internalType": "address",
          "name": "approved",
          "type": "address"
        },
        {
          "indexed": true,
          "internalType": "uint256",
          "name": "tokenId",
          "type": "uint256"
        }
      ],
      "name": "Approval",
      "type": "event"
    },
    {
      "anonymous": false,
      "inputs": [
        {
          "indexed": true,
          "internalType": "address",
          "name": "owner",
          "type": "address"
        },
        {
          "indexed": true,
          "internalType": "address",
          "name": "operator",
          "type": "address"
        },
        {
          "indexed": false,
          "internalType": "bool",
          "name": "approved",
          "type": "bool"
        }
      ],
      "name": "ApprovalForAll",
      "type": "event"
    },
    {
      "anonymous": false,
      "inputs": [
        {
          "indexed": false,
          "internalType": "uint256",
          "name": "tokenId",
          "type": "uint256"
        },
        {
          "indexed": false,
          "internalType": "enum GratitudeContract.NftStatus",
          "name": "status",
          "type": "uint8"
        },
        {
          "components": [
            {
              "internalType": "uint16",
              "name": "lat",
              "type": "uint16"
            },
            {
              "internalType": "uint16",
              "name": "lng",
              "type": "uint16"
            }
          ],
          "indexed": false,
          "internalType": "struct GratitudeContract.GEO",
          "name": "geo",
          "type": "tuple"
        }
      ],
      "name": "GratitudTokenAceptedEvent",
      "type": "event"
    },
    {
      "anonymous": false,
      "inputs": [
        {
          "indexed": false,
          "internalType": "uint256",
          "name": "tokenId",
          "type": "uint256"
        },
        {
          "indexed": false,
          "internalType": "enum GratitudeContract.NftStatus",
          "name": "status",
          "type": "uint8"
        }
      ],
      "name": "GratitudTokenChangeStatusEvent",
      "type": "event"
    },
    {
      "anonymous": false,
      "inputs": [
        {
          "indexed": true,
          "internalType": "uint256",
          "name": "campaignId",
          "type": "uint256"
        },
        {
          "indexed": false,
          "internalType": "enum GratitudeContract.CampaignStatus",
          "name": "status",
          "type": "uint8"
        },
        {
          "indexed": false,
          "internalType": "string",
          "name": "campaignUri",
          "type": "string"
        }
      ],
      "name": "GratitudeCampaignCreatedEvent",
      "type": "event"
    },
    {
      "anonymous": false,
      "inputs": [
        {
          "indexed": false,
          "internalType": "uint256",
          "name": "campaignId",
          "type": "uint256"
        }
      ],
      "name": "GratitudeCampaignRejected",
      "type": "event"
    },
    {
      "anonymous": false,
      "inputs": [
        {
          "indexed": false,
          "internalType": "uint256",
          "name": "campaignId",
          "type": "uint256"
        }
      ],
      "name": "GratitudeCampaignVerified",
      "type": "event"
    },
    {
      "anonymous": false,
      "inputs": [
        {
          "indexed": true,
          "internalType": "uint256",
          "name": "tokenId",
          "type": "uint256"
        },
        {
          "indexed": false,
          "internalType": "enum GratitudeContract.NftStatus",
          "name": "status",
          "type": "uint8"
        },
        {
          "indexed": false,
          "internalType": "address",
          "name": "sender",
          "type": "address"
        },
        {
          "indexed": false,
          "internalType": "address",
          "name": "receiver",
          "type": "address"
        },
        {
          "components": [
            {
              "internalType": "uint16",
              "name": "lat",
              "type": "uint16"
            },
            {
              "internalType": "uint16",
              "name": "lng",
              "type": "uint16"
            }
          ],
          "indexed": false,
          "internalType": "struct GratitudeContract.GEO",
          "name": "geo",
          "type": "tuple"
        },
        {
          "indexed": false,
          "internalType": "string",
          "name": "tokenUri",
          "type": "string"
        }
      ],
      "name": "GratitudeTokenCreationEvent",
      "type": "event"
    },
    {
      "anonymous": false,
      "inputs": [
        {
          "indexed": true,
          "internalType": "address",
          "name": "previousOwner",
          "type": "address"
        },
        {
          "indexed": true,
          "internalType": "address",
          "name": "newOwner",
          "type": "address"
        }
      ],
      "name": "OwnershipTransferred",
      "type": "event"
    },
    {
      "anonymous": false,
      "inputs": [
        {
          "indexed": true,
          "internalType": "address",
          "name": "from",
          "type": "address"
        },
        {
          "indexed": true,
          "internalType": "address",
          "name": "to",
          "type": "address"
        },
        {
          "indexed": true,
          "internalType": "uint256",
          "name": "tokenId",
          "type": "uint256"
        }
      ],
      "name": "Transfer",
      "type": "event"
    },
    {
      "inputs": [],
      "name": "_campaignIds",
      "outputs": [
        {
          "internalType": "uint256",
          "name": "_value",
          "type": "uint256"
        }
      ],
      "stateMutability": "view",
      "type": "function"
    },
    {
      "inputs": [],
      "name": "_tokenIds",
      "outputs": [
        {
          "internalType": "uint256",
          "name": "_value",
          "type": "uint256"
        }
      ],
      "stateMutability": "view",
      "type": "function"
    },
    {
      "inputs": [
        {
          "internalType": "string",
          "name": "_linkCode",
          "type": "string"
        },
        {
          "components": [
            {
              "internalType": "uint16",
              "name": "lat",
              "type": "uint16"
            },
            {
              "internalType": "uint16",
              "name": "lng",
              "type": "uint16"
            }
          ],
          "internalType": "struct GratitudeContract.GEO",
          "name": "_geo",
          "type": "tuple"
        }
      ],
      "name": "acceptLinkHash",
      "outputs": [],
      "stateMutability": "nonpayable",
      "type": "function"
    },
    {
      "inputs": [
        {
          "internalType": "address",
          "name": "to",
          "type": "address"
        },
        {
          "internalType": "uint256",
          "name": "tokenId",
          "type": "uint256"
        }
      ],
      "name": "approve",
      "outputs": [],
      "stateMutability": "nonpayable",
      "type": "function"
    },
    {
      "inputs": [
        {
          "internalType": "uint256",
          "name": "_campaignId",
          "type": "uint256"
        }
      ],
      "name": "approveCampaign",
      "outputs": [],
      "stateMutability": "nonpayable",
      "type": "function"
    },
    {
      "inputs": [
        {
          "internalType": "address",
          "name": "owner",
          "type": "address"
        }
      ],
      "name": "balanceOf",
      "outputs": [
        {
          "internalType": "uint256",
          "name": "",
          "type": "uint256"
        }
      ],
      "stateMutability": "view",
      "type": "function"
    },
    {
      "inputs": [
        {
          "internalType": "uint256",
          "name": "_tokenId",
          "type": "uint256"
        }
      ],
      "name": "cancelWhenStillPending",
      "outputs": [],
      "stateMutability": "nonpayable",
      "type": "function"
    },
    {
      "inputs": [
        {
          "internalType": "uint256",
          "name": "_tokenId",
          "type": "uint256"
        }
      ],
      "name": "checkPendingStatusPriorToGet",
      "outputs": [],
      "stateMutability": "nonpayable",
      "type": "function"
    },
    {
      "inputs": [
        {
          "internalType": "string",
          "name": "_campaignUri",
          "type": "string"
        }
      ],
      "name": "createCampaign",
      "outputs": [],
      "stateMutability": "nonpayable",
      "type": "function"
    },
    {
      "inputs": [
        {
          "internalType": "uint256",
          "name": "_status",
          "type": "uint256"
        },
        {
          "internalType": "address",
          "name": "_receiver",
          "type": "address"
        },
        {
          "components": [
            {
              "internalType": "uint16",
              "name": "lat",
              "type": "uint16"
            },
            {
              "internalType": "uint16",
              "name": "lng",
              "type": "uint16"
            }
          ],
          "internalType": "struct GratitudeContract.GEO",
          "name": "_geo",
          "type": "tuple"
        },
        {
          "internalType": "uint256",
          "name": "_timeStamp",
          "type": "uint256"
        },
        {
          "internalType": "string",
          "name": "_tokenUri",
          "type": "string"
        },
        {
          "internalType": "string",
          "name": "_linkCode",
          "type": "string"
        }
      ],
      "name": "createGratitudeToken",
      "outputs": [],
      "stateMutability": "payable",
      "type": "function"
    },
    {
      "inputs": [
        {
          "internalType": "uint256",
          "name": "tokenId",
          "type": "uint256"
        }
      ],
      "name": "getApproved",
      "outputs": [
        {
          "internalType": "address",
          "name": "",
          "type": "address"
        }
      ],
      "stateMutability": "view",
      "type": "function"
    },
    {
      "inputs": [
        {
          "internalType": "uint256",
          "name": "_campaignId",
          "type": "uint256"
        }
      ],
      "name": "getCampaignStatus",
      "outputs": [
        {
          "internalType": "enum GratitudeContract.CampaignStatus",
          "name": "",
          "type": "uint8"
        }
      ],
      "stateMutability": "view",
      "type": "function"
    },
    {
      "inputs": [],
      "name": "getCreatorTokens",
      "outputs": [
        {
          "components": [
            {
              "internalType": "address",
              "name": "receiver",
              "type": "address"
            },
            {
              "internalType": "uint256",
              "name": "tokenId",
              "type": "uint256"
            },
            {
              "internalType": "enum GratitudeContract.NftStatus",
              "name": "status",
              "type": "uint8"
            },
            {
              "components": [
                {
                  "internalType": "uint16",
                  "name": "lat",
                  "type": "uint16"
                },
                {
                  "internalType": "uint16",
                  "name": "lng",
                  "type": "uint16"
                }
              ],
              "internalType": "struct GratitudeContract.GEO",
              "name": "geo",
              "type": "tuple"
            },
            {
              "internalType": "uint256",
              "name": "timeStamp",
              "type": "uint256"
            },
            {
              "internalType": "string",
              "name": "tokenUri",
              "type": "string"
            },
            {
              "internalType": "bytes32",
              "name": "linkCode",
              "type": "bytes32"
            }
          ],
          "internalType": "struct GratitudeContract.NFT[]",
          "name": "",
          "type": "tuple[]"
        }
      ],
      "stateMutability": "view",
      "type": "function"
    },
    {
      "inputs": [
        {
          "internalType": "string",
          "name": "_linkCode",
          "type": "string"
        }
      ],
      "name": "getGratitudeNFtByLinkCode",
      "outputs": [
        {
          "components": [
            {
              "internalType": "address",
              "name": "receiver",
              "type": "address"
            },
            {
              "internalType": "uint256",
              "name": "tokenId",
              "type": "uint256"
            },
            {
              "internalType": "enum GratitudeContract.NftStatus",
              "name": "status",
              "type": "uint8"
            },
            {
              "components": [
                {
                  "internalType": "uint16",
                  "name": "lat",
                  "type": "uint16"
                },
                {
                  "internalType": "uint16",
                  "name": "lng",
                  "type": "uint16"
                }
              ],
              "internalType": "struct GratitudeContract.GEO",
              "name": "geo",
              "type": "tuple"
            },
            {
              "internalType": "uint256",
              "name": "timeStamp",
              "type": "uint256"
            },
            {
              "internalType": "string",
              "name": "tokenUri",
              "type": "string"
            },
            {
              "internalType": "bytes32",
              "name": "linkCode",
              "type": "bytes32"
            }
          ],
          "internalType": "struct GratitudeContract.NFT",
          "name": "",
          "type": "tuple"
        }
      ],
      "stateMutability": "view",
      "type": "function"
    },
    {
      "inputs": [
        {
          "internalType": "uint256",
          "name": "_tokenId",
          "type": "uint256"
        }
      ],
      "name": "getStatus",
      "outputs": [
        {
          "internalType": "enum GratitudeContract.NftStatus",
          "name": "",
          "type": "uint8"
        }
      ],
      "stateMutability": "view",
      "type": "function"
    },
    {
      "inputs": [
        {
          "internalType": "address",
          "name": "owner",
          "type": "address"
        },
        {
          "internalType": "address",
          "name": "operator",
          "type": "address"
        }
      ],
      "name": "isApprovedForAll",
      "outputs": [
        {
          "internalType": "bool",
          "name": "",
          "type": "bool"
        }
      ],
      "stateMutability": "view",
      "type": "function"
    },
    {
      "inputs": [],
      "name": "name",
      "outputs": [
        {
          "internalType": "string",
          "name": "",
          "type": "string"
        }
      ],
      "stateMutability": "view",
      "type": "function"
    },
    {
      "inputs": [],
      "name": "owner",
      "outputs": [
        {
          "internalType": "address",
          "name": "",
          "type": "address"
        }
      ],
      "stateMutability": "view",
      "type": "function"
    },
    {
      "inputs": [
        {
          "internalType": "uint256",
          "name": "tokenId",
          "type": "uint256"
        }
      ],
      "name": "ownerOf",
      "outputs": [
        {
          "internalType": "address",
          "name": "",
          "type": "address"
        }
      ],
      "stateMutability": "view",
      "type": "function"
    },
    {
      "inputs": [
        {
          "internalType": "uint256",
          "name": "_campaignId",
          "type": "uint256"
        }
      ],
      "name": "rejectCampaign",
      "outputs": [],
      "stateMutability": "nonpayable",
      "type": "function"
    },
    {
      "inputs": [
        {
          "internalType": "string",
          "name": "_linkCode",
          "type": "string"
        }
      ],
      "name": "rejectGratitudeNFTbyLinkCode",
      "outputs": [],
      "stateMutability": "nonpayable",
      "type": "function"
    },
    {
      "inputs": [],
      "name": "renounceOwnership",
      "outputs": [],
      "stateMutability": "nonpayable",
      "type": "function"
    },
    {
      "inputs": [
        {
          "internalType": "uint256",
          "name": "_tokenId",
          "type": "uint256"
        },
        {
          "internalType": "address",
          "name": "_receiver",
          "type": "address"
        },
        {
          "internalType": "string",
          "name": "_linkCode",
          "type": "string"
        }
      ],
      "name": "resendWhenTimeOutOrRejectedOrStandby",
      "outputs": [],
      "stateMutability": "nonpayable",
      "type": "function"
    },
    {
      "inputs": [
        {
          "internalType": "address",
          "name": "from",
          "type": "address"
        },
        {
          "internalType": "address",
          "name": "to",
          "type": "address"
        },
        {
          "internalType": "uint256",
          "name": "tokenId",
          "type": "uint256"
        }
      ],
      "name": "safeTransferFrom",
      "outputs": [],
      "stateMutability": "nonpayable",
      "type": "function"
    },
    {
      "inputs": [
        {
          "internalType": "address",
          "name": "from",
          "type": "address"
        },
        {
          "internalType": "address",
          "name": "to",
          "type": "address"
        },
        {
          "internalType": "uint256",
          "name": "tokenId",
          "type": "uint256"
        },
        {
          "internalType": "bytes",
          "name": "_data",
          "type": "bytes"
        }
      ],
      "name": "safeTransferFrom",
      "outputs": [],
      "stateMutability": "nonpayable",
      "type": "function"
    },
    {
      "inputs": [
        {
          "internalType": "address",
          "name": "operator",
          "type": "address"
        },
        {
          "internalType": "bool",
          "name": "approved",
          "type": "bool"
        }
      ],
      "name": "setApprovalForAll",
      "outputs": [],
      "stateMutability": "nonpayable",
      "type": "function"
    },
    {
      "inputs": [
        {
          "internalType": "bytes4",
          "name": "interfaceId",
          "type": "bytes4"
        }
      ],
      "name": "supportsInterface",
      "outputs": [
        {
          "internalType": "bool",
          "name": "",
          "type": "bool"
        }
      ],
      "stateMutability": "view",
      "type": "function"
    },
    {
      "inputs": [],
      "name": "symbol",
      "outputs": [
        {
          "internalType": "string",
          "name": "",
          "type": "string"
        }
      ],
      "stateMutability": "view",
      "type": "function"
    },
    {
      "inputs": [
        {
          "internalType": "uint256",
          "name": "tokenId",
          "type": "uint256"
        }
      ],
      "name": "tokenURI",
      "outputs": [
        {
          "internalType": "string",
          "name": "",
          "type": "string"
        }
      ],
      "stateMutability": "view",
      "type": "function"
    },
    {
      "inputs": [
        {
          "internalType": "address",
          "name": "from",
          "type": "address"
        },
        {
          "internalType": "address",
          "name": "to",
          "type": "address"
        },
        {
          "internalType": "uint256",
          "name": "tokenId",
          "type": "uint256"
        }
      ],
      "name": "transferFrom",
      "outputs": [],
      "stateMutability": "nonpayable",
      "type": "function"
    },
    {
      "inputs": [
        {
          "internalType": "address",
          "name": "newOwner",
          "type": "address"
        }
      ],
      "name": "transferOwnership",
      "outputs": [],
      "stateMutability": "nonpayable",
      "type": "function"
    },
    {
      "inputs": [],
      "name": "withdraw",
      "outputs": [],
      "stateMutability": "nonpayable",
      "type": "function"
    },
    {
      "stateMutability": "payable",
      "type": "receive"
    }
  ],
  "bytecode": "0x60806040523480156200001157600080fd5b50604080518082018252600d81526c11d49055125515511148139195609a1b60208083019182528351808501909452600384526247524160e81b9084015281519192916200006291600091620000f6565b50805162000078906001906020840190620000f6565b505050620000956200008f620000a060201b60201c565b620000a4565b6001600755620001d9565b3390565b600680546001600160a01b038381166001600160a01b0319831681179093556040519116919082907f8be0079c531659141344cd1fd0a4f28419497f9722a3daafe3b4186f6b6457e090600090a35050565b82805462000104906200019c565b90600052602060002090601f01602090048101928262000128576000855562000173565b82601f106200014357805160ff191683800117855562000173565b8280016001018555821562000173579182015b828111156200017357825182559160200191906001019062000156565b506200018192915062000185565b5090565b5b8082111562000181576000815560010162000186565b600181811c90821680620001b157607f821691505b60208210811415620001d357634e487b7160e01b600052602260045260246000fd5b50919050565b6132ca80620001e96000396000f3fe6080604052600436106101e75760003560e01c80637528f2b111610102578063a22cb46511610095578063e985e9c511610064578063e985e9c5146105bf578063ee4e1b5314610608578063f2fde38b14610628578063fdbf9ff11461064857600080fd5b8063a22cb46514610548578063aa46a40014610568578063b88d4fde1461057f578063c87b56dd1461059f57600080fd5b80638d816811116100d15780638d816811146104d35780638da5cb5b146104f557806395d89b41146105135780639896c56b1461052857600080fd5b80637528f2b1146104695780637a31707e1461048957806385df97dc1461049c57806386dadbfc146104bc57600080fd5b80633fd3b5681161017a57806368fb8fc01161014957806368fb8fc0146103b95780636c19e004146103e657806370a0823114610426578063715018a61461045457600080fd5b80633fd3b5681461031957806342842e0e146103395780635c622a0e146103595780636352211e1461039957600080fd5b8063095ea7b3116101b6578063095ea7b3146102a45780631a554c58146102c457806323b872dd146102e45780633ccfd60b1461030457600080fd5b806301ffc9a7146101f3578063034d09da1461022857806306fdde031461024a578063081812fc1461026c57600080fd5b366101ee57005b600080fd5b3480156101ff57600080fd5b5061021361020e366004612cd2565b610668565b60405190151581526020015b60405180910390f35b34801561023457600080fd5b50610248610243366004612d81565b610705565b005b34801561025657600080fd5b5061025f6107b8565b60405161021f91906130e2565b34801561027857600080fd5b5061028c610287366004612d81565b61084a565b6040516001600160a01b03909116815260200161021f565b3480156102b057600080fd5b506102486102bf366004612ca9565b6108df565b3480156102d057600080fd5b506102486102df366004612d81565b610a2f565b3480156102f057600080fd5b506102486102ff366004612bbb565b610af5565b34801561031057600080fd5b50610248610c35565b34801561032557600080fd5b50610248610334366004612d3d565b610cbe565b34801561034557600080fd5b50610248610354366004612bbb565b610e33565b34801561036557600080fd5b5061038c610374366004612d81565b6000908152600a602052604090206002015460ff1690565b60405161021f9190613074565b3480156103a557600080fd5b5061028c6103b4366004612d81565b610e4e565b3480156103c557600080fd5b506103d96103d4366004612d0a565b610ed9565b60405161021f91906130f5565b3480156103f257600080fd5b50610419610401366004612d81565b6000908152600f602052604090206001015460ff1690565b60405161021f9190613046565b34801561043257600080fd5b50610446610441366004612b6f565b6110b7565b60405190815260200161021f565b34801561046057600080fd5b50610248611151565b34801561047557600080fd5b50610248610484366004612d99565b6111b7565b610248610497366004612dee565b611387565b3480156104a857600080fd5b506102486104b7366004612d81565b611695565b3480156104c857600080fd5b506009546104469081565b3480156104df57600080fd5b506104e86117c7565b60405161021f9190612fe5565b34801561050157600080fd5b506006546001600160a01b031661028c565b34801561051f57600080fd5b5061025f611a38565b34801561053457600080fd5b50610248610543366004612d0a565b611a47565b34801561055457600080fd5b50610248610563366004612c6f565b611b63565b34801561057457600080fd5b506008546104469081565b34801561058b57600080fd5b5061024861059a366004612bf6565b611b6e565b3480156105ab57600080fd5b5061025f6105ba366004612d81565b611bfc565b3480156105cb57600080fd5b506102136105da366004612b89565b6001600160a01b03918216600090815260056020908152604080832093909416825291909152205460ff1690565b34801561061457600080fd5b50610248610623366004612d81565b611cf2565b34801561063457600080fd5b50610248610643366004612b6f565b611d9c565b34801561065457600080fd5b50610248610663366004612d0a565b611e7e565b60006001600160e01b031982167f80ac58cd0000000000000000000000000000000000000000000000000000000014806106cb57506001600160e01b031982167f5b5e139f00000000000000000000000000000000000000000000000000000000145b806106ff57507f01ffc9a7000000000000000000000000000000000000000000000000000000006001600160e01b03198316145b92915050565b6006546001600160a01b031633146107645760405162461bcd60e51b815260206004820181905260248201527f4f776e61626c653a2063616c6c6572206973206e6f7420746865206f776e657260448201526064015b60405180910390fd5b6000818152600f6020908152604091829020600101805460ff1916600217905590518281527f023b8e2137f7b1a0f739637260916076b1a4df7b363323a7105d144c6f2aa11391015b60405180910390a150565b6060600080546107c7906131bc565b80601f01602080910402602001604051908101604052809291908181526020018280546107f3906131bc565b80156108405780601f1061081557610100808354040283529160200191610840565b820191906000526020600020905b81548152906001019060200180831161082357829003601f168201915b5050505050905090565b6000818152600260205260408120546001600160a01b03166108c35760405162461bcd60e51b815260206004820152602c60248201527f4552433732313a20617070726f76656420717565727920666f72206e6f6e657860448201526b34b9ba32b73a103a37b5b2b760a11b606482015260840161075b565b506000908152600460205260409020546001600160a01b031690565b60006108ea82610e4e565b9050806001600160a01b0316836001600160a01b031614156109745760405162461bcd60e51b815260206004820152602160248201527f4552433732313a20617070726f76616c20746f2063757272656e74206f776e6560448201527f7200000000000000000000000000000000000000000000000000000000000000606482015260840161075b565b336001600160a01b03821614806109ae57506001600160a01b038116600090815260056020908152604080832033845290915290205460ff165b610a205760405162461bcd60e51b815260206004820152603860248201527f4552433732313a20617070726f76652063616c6c6572206973206e6f74206f7760448201527f6e6572206e6f7220617070726f76656420666f7220616c6c0000000000000000606482015260840161075b565b610a2a8383612011565b505050565b6000818152600a60205260408120600401544290610a4f9061025861314d565b119050801581610a92575060016000838152600a602052604090206002015460ff166005811115610a9057634e487b7160e01b600052602160045260246000fd5b145b8015610ab357506000828152600a60205260409020546001600160a01b0316155b8015610acf575033610ac483610e4e565b6001600160a01b0316145b15610af1576000828152600a60205260409020600201805460ff191660031790555b5050565b60026007541415610b485760405162461bcd60e51b815260206004820152601f60248201527f5265656e7472616e637947756172643a207265656e7472616e742063616c6c00604482015260640161075b565b6002600755610b57338261207f565b80610b7857506000818152600e60205260409020546001600160a01b031633145b610c105760405162461bcd60e51b815260206004820152604960248201527f4552433732313a207472616e736665722063616c6c6572206973206e6f74206f60448201527f776e6572206e6f7220617070726f766564206f72204e4654206e6f742079657460648201527f2061636365707465640000000000000000000000000000000000000000000000608482015260a40161075b565b610c2b838383604051806020016040528060008152506121b5565b5050600160075550565b6006546001600160a01b03163314610c8f5760405162461bcd60e51b815260206004820181905260248201527f4f776e61626c653a2063616c6c6572206973206e6f7420746865206f776e6572604482015260640161075b565b6040514790339082156108fc029083906000818181858888f19350505050158015610af1573d6000803e3d6000fd5b600082604051602001610cd19190612f5e565b60408051601f1981840301815291815281516020928301206000818152600d909352908220549092503391610d0582610e4e565b6000838152600e60205260409020549091506001600160a01b0384811691161415610d3a57610d35818484610af5565b610dd0565b6000848152600d6020526040902054610d529061223e565b610d9e5760405162461bcd60e51b815260206004820152600760248201527f54494d454f555400000000000000000000000000000000000000000000000000604482015260640161075b565b6000828152600e6020526040902080546001600160a01b0319166001600160a01b038516179055610dd0818484610af5565b6000828152600a602052604090819020600201805460ff1916600490811790915590517fbb429a1adde466705b0db958af8ba62e460beecc7344acd21d28364cbb0d242c91610e2391859190899061311c565b60405180910390a1505050505050565b610a2a83838360405180602001604052806000815250611b6e565b6000818152600260205260408120546001600160a01b0316806106ff5760405162461bcd60e51b815260206004820152602960248201527f4552433732313a206f776e657220717565727920666f72206e6f6e657869737460448201527f656e7420746f6b656e0000000000000000000000000000000000000000000000606482015260840161075b565b610f286040805160e08101825260008082526020808301829052828401829052835180850190945281845283015290606082019081526000602082018190526060604083018190529091015290565b600082604051602001610f3b9190612f5e565b60408051601f1981840301815282825280516020918201206000818152600d835283812054808252600a84529084902060e08601855280546001600160a01b031686526001810154938601939093526002830154919550939283019060ff166005811115610fb957634e487b7160e01b600052602160045260246000fd5b6005811115610fd857634e487b7160e01b600052602160045260246000fd5b8152604080518082018252600384015461ffff80821683526201000090910416602082810191909152830152600483015490820152600582018054606090920191611022906131bc565b80601f016020809104026020016040519081016040528092919081815260200182805461104e906131bc565b801561109b5780601f106110705761010080835404028352916020019161109b565b820191906000526020600020905b81548152906001019060200180831161107e57829003601f168201915b5050505050815260200160068201548152505092505050919050565b60006001600160a01b0382166111355760405162461bcd60e51b815260206004820152602a60248201527f4552433732313a2062616c616e636520717565727920666f7220746865207a6560448201527f726f206164647265737300000000000000000000000000000000000000000000606482015260840161075b565b506001600160a01b031660009081526003602052604090205490565b6006546001600160a01b031633146111ab5760405162461bcd60e51b815260206004820181905260248201527f4f776e61626c653a2063616c6c6572206973206e6f7420746865206f776e6572604482015260640161075b565b6111b560006122d5565b565b6000838152600a60205260409020600281015460ff1660058160058111156111ef57634e487b7160e01b600052602160045260246000fd5b148061121a5750600281600581111561121857634e487b7160e01b600052602160045260246000fd5b145b806112445750600381600581111561124257634e487b7160e01b600052602160045260246000fd5b145b801561126057503361125586610e4e565b6001600160a01b0316145b6112d25760405162461bcd60e51b815260206004820152602b60248201527f4e4654204953204e4f542052454a4543544544204e4f522054494d454f55542060448201527f4e4f52205354414e444259000000000000000000000000000000000000000000606482015260840161075b565b60028201805460ff191660011790556040516112f2908490602001612f5e565b60408051601f19818403018152919052805160209091012060068301556001600160a01b03841615611346576000858152600e6020526040902080546001600160a01b0319166001600160a01b0386161790555b7faaec24950f5d317fc1ae90c137651a2aeee78da55e6886373ba89ed5e613c9da856001604051611378929190613108565b60405180910390a15050505050565b8515806113945750856001145b6114065760405162461bcd60e51b815260206004820152602f60248201527f4f4e4c5920535441545553204452414654283029204f522050454e44494e472860448201527f3129204152452041434345505445440000000000000000000000000000000000606482015260840161075b565b611414600880546001019055565b600061141f60085490565b905060006040518060e00160405280886001600160a01b031681526020018381526020016000600581111561146457634e487b7160e01b600052602160045260246000fd5b81526020018781526020018681526020018581526020018460405160200161148c9190612f5e565b60408051601f19818403018152918152815160209283012090925260c08301516000908152600d909152208390559050600188141561150357600160408201526001600160a01b03871615611503576000828152600e6020526040902080546001600160a01b0319166001600160a01b0389161790555b61150d3383612327565b6020808201839052336000908152600c9091526040812080546001929061153590849061314d565b9091555050336000908152600b60209081526040808320600c83528184205484528252808320859055848352600a825291829020835181546001600160a01b0319166001600160a01b039091161781559083015160018083019190915591830151600282018054859460ff19909116908360058111156115c557634e487b7160e01b600052602160045260246000fd5b02179055506060820151805160038301805460209384015161ffff908116620100000263ffffffff199092169316929092179190911790556080830151600483015560a0830151805161161e92600585019201906129b6565b5060c08201518160060155905050817f7f5934690dfac381a9762deccef7b195bb1a79041d07e61bdec1e04f087522d289600581111561166e57634e487b7160e01b600052602160045260246000fd5b338a8a89604051611683959493929190613082565b60405180910390a25050505050505050565b3361169f82610e4e565b6001600160a01b0316146116f55760405162461bcd60e51b815260206004820152600b60248201527f4e4f542043524541544f52000000000000000000000000000000000000000000604482015260640161075b565b60016000828152600a602052604090206002015460ff16600581111561172b57634e487b7160e01b600052602160045260246000fd5b146117785760405162461bcd60e51b815260206004820152601960248201527f4e4654204e4f5420494e2050454e44494e472053544154555300000000000000604482015260640161075b565b6000818152600a6020526040908190206002908101805460ff19168217905590517faaec24950f5d317fc1ae90c137651a2aeee78da55e6886373ba89ed5e613c9da916107ad91849190613108565b336000908152600c60205260408120546060918167ffffffffffffffff81111561180157634e487b7160e01b600052604160045260246000fd5b60405190808252806020026020018201604052801561188157816020015b61186e6040805160e08101825260008082526020808301829052828401829052835180850190945281845283015290606082019081526000602082018190526060604083018190529091015290565b81526020019060019003908161181f5790505b50905060005b82811015611a3157600a600061189e83600161314d565b81526020808201929092526040908101600020815160e08101835281546001600160a01b031681526001820154938101939093526002810154909183019060ff1660058111156118fe57634e487b7160e01b600052602160045260246000fd5b600581111561191d57634e487b7160e01b600052602160045260246000fd5b8152604080518082018252600384015461ffff80821683526201000090910416602082810191909152830152600483015490820152600582018054606090920191611967906131bc565b80601f0160208091040260200160405190810160405280929190818152602001828054611993906131bc565b80156119e05780601f106119b5576101008083540402835291602001916119e0565b820191906000526020600020905b8154815290600101906020018083116119c357829003601f168201915b50505050508152602001600682015481525050828281518110611a1357634e487b7160e01b600052603260045260246000fd5b60200260200101819052508080611a29906131f7565b915050611887565b5092915050565b6060600180546107c7906131bc565b600081604051602001611a5a9190612f5e565b60408051601f1981840301815291815281516020928301206000818152600d90935291205490915060016000828152600a602052604090206002015460ff166005811115611ab857634e487b7160e01b600052602160045260246000fd5b14611b055760405162461bcd60e51b815260206004820152601960248201527f4e4654204e4f5420494e2050454e44494e472053544154555300000000000000604482015260640161075b565b6000818152600a602052604090819020600201805460ff1916600590811790915590517faaec24950f5d317fc1ae90c137651a2aeee78da55e6886373ba89ed5e613c9da91611b5691849190613108565b60405180910390a1505050565b610af1338383612469565b611b78338361207f565b611bea5760405162461bcd60e51b815260206004820152603160248201527f4552433732313a207472616e736665722063616c6c6572206973206e6f74206f60448201527f776e6572206e6f7220617070726f766564000000000000000000000000000000606482015260840161075b565b611bf6848484846121b5565b50505050565b6000818152600260205260409020546060906001600160a01b0316611c895760405162461bcd60e51b815260206004820152602f60248201527f4552433732314d657461646174613a2055524920717565727920666f72206e6f60448201527f6e6578697374656e7420746f6b656e0000000000000000000000000000000000606482015260840161075b565b6000611ca060408051602081019091526000815290565b90506000815111611cc05760405180602001604052806000815250611ceb565b80611cca84612538565b604051602001611cdb929190612f7a565b6040516020818303038152906040525b9392505050565b6006546001600160a01b03163314611d4c5760405162461bcd60e51b815260206004820181905260248201527f4f776e61626c653a2063616c6c6572206973206e6f7420746865206f776e6572604482015260640161075b565b6000818152600f602052604090206001908101805460ff1916828002179055506040518181527fade0ff2f87cd2fd5a89704161a2ebfc8accf3d6f70ab0485c1105e109204aa43906020016107ad565b6006546001600160a01b03163314611df65760405162461bcd60e51b815260206004820181905260248201527f4f776e61626c653a2063616c6c6572206973206e6f7420746865206f776e6572604482015260640161075b565b6001600160a01b038116611e725760405162461bcd60e51b815260206004820152602660248201527f4f776e61626c653a206e6577206f776e657220697320746865207a65726f206160448201527f6464726573730000000000000000000000000000000000000000000000000000606482015260840161075b565b611e7b816122d5565b50565b60026007541415611ed15760405162461bcd60e51b815260206004820152601f60248201527f5265656e7472616e637947756172643a207265656e7472616e742063616c6c00604482015260640161075b565b6002600755611ee4600980546001019055565b6000611eef60095490565b90506000604051806080016040528083815260200160006002811115611f2557634e487b7160e01b600052602160045260246000fd5b81526020808201869052336040928301526000858152600f8252919091208251815590820151600180830180549495508594909160ff1990911690836002811115611f8057634e487b7160e01b600052602160045260246000fd5b021790555060408201518051611fa09160028401916020909101906129b6565b5060609190910151600390910180546001600160a01b0319166001600160a01b0390921691909117905560405182907feb71ab29b3f6e1deab25c525438aa8a6a07a4bce79cd4427a7c084b0574a309c90611fff906000908790613054565b60405180910390a25050600160075550565b600081815260046020526040902080546001600160a01b0319166001600160a01b038416908117909155819061204682610e4e565b6001600160a01b03167f8c5be1e5ebec7d5bd14f71427d1e84f3dd0314c0f7b2291e5b200ac8c7c3b92560405160405180910390a45050565b6000818152600260205260408120546001600160a01b03166120f85760405162461bcd60e51b815260206004820152602c60248201527f4552433732313a206f70657261746f7220717565727920666f72206e6f6e657860448201526b34b9ba32b73a103a37b5b2b760a11b606482015260840161075b565b600061210383610e4e565b9050806001600160a01b0316846001600160a01b0316148061213e5750836001600160a01b03166121338461084a565b6001600160a01b0316145b8061216e57506001600160a01b0380821660009081526005602090815260408083209388168352929052205460ff165b80156121ad575060046000848152600a602052604090206002015460ff1660058111156121ab57634e487b7160e01b600052602160045260246000fd5b145b949350505050565b6121c0848484612686565b6121cc84848484612853565b611bf65760405162461bcd60e51b815260206004820152603260248201527f4552433732313a207472616e7366657220746f206e6f6e20455243373231526560448201527f63656976657220696d706c656d656e7465720000000000000000000000000000606482015260840161075b565b600060016000838152600a602052604090206002015460ff16600581111561227657634e487b7160e01b600052602160045260246000fd5b1461228357506000919050565b6000828152600a602052604081206004015442906122a39061025861314d565b119050806122cc5750506000908152600a60205260408120600201805460ff1916600317905590565b50600192915050565b600680546001600160a01b038381166001600160a01b0319831681179093556040519116919082907f8be0079c531659141344cd1fd0a4f28419497f9722a3daafe3b4186f6b6457e090600090a35050565b6001600160a01b03821661237d5760405162461bcd60e51b815260206004820181905260248201527f4552433732313a206d696e7420746f20746865207a65726f2061646472657373604482015260640161075b565b6000818152600260205260409020546001600160a01b0316156123e25760405162461bcd60e51b815260206004820152601c60248201527f4552433732313a20746f6b656e20616c7265616479206d696e74656400000000604482015260640161075b565b6001600160a01b038216600090815260036020526040812080546001929061240b90849061314d565b909155505060008181526002602052604080822080546001600160a01b0319166001600160a01b03861690811790915590518392907fddf252ad1be2c89b69c2b068fc378daa952ba7f163c4a11628f55a4df523b3ef908290a45050565b816001600160a01b0316836001600160a01b031614156124cb5760405162461bcd60e51b815260206004820152601960248201527f4552433732313a20617070726f766520746f2063616c6c657200000000000000604482015260640161075b565b6001600160a01b03838116600081815260056020908152604080832094871680845294825291829020805460ff191686151590811790915591519182527f17307eab39ab6107e8899845ad3d59bd9653f200f220920489ca2b5937696c31910160405180910390a3505050565b60608161257857505060408051808201909152600181527f3000000000000000000000000000000000000000000000000000000000000000602082015290565b8160005b81156125a2578061258c816131f7565b915061259b9050600a83613165565b915061257c565b60008167ffffffffffffffff8111156125cb57634e487b7160e01b600052604160045260246000fd5b6040519080825280601f01601f1916602001820160405280156125f5576020820181803683370190505b5090505b84156121ad5761260a600183613179565b9150612617600a86613212565b61262290603061314d565b60f81b81838151811061264557634e487b7160e01b600052603260045260246000fd5b60200101907effffffffffffffffffffffffffffffffffffffffffffffffffffffffffffff1916908160001a90535061267f600a86613165565b94506125f9565b826001600160a01b031661269982610e4e565b6001600160a01b0316146127155760405162461bcd60e51b815260206004820152602560248201527f4552433732313a207472616e736665722066726f6d20696e636f72726563742060448201527f6f776e6572000000000000000000000000000000000000000000000000000000606482015260840161075b565b6001600160a01b0382166127905760405162461bcd60e51b8152602060048201526024808201527f4552433732313a207472616e7366657220746f20746865207a65726f2061646460448201527f7265737300000000000000000000000000000000000000000000000000000000606482015260840161075b565b61279b600082612011565b6001600160a01b03831660009081526003602052604081208054600192906127c4908490613179565b90915550506001600160a01b03821660009081526003602052604081208054600192906127f290849061314d565b909155505060008181526002602052604080822080546001600160a01b0319166001600160a01b0386811691821790925591518493918716917fddf252ad1be2c89b69c2b068fc378daa952ba7f163c4a11628f55a4df523b3ef91a4505050565b60006001600160a01b0384163b156129ab57604051630a85bd0160e11b81526001600160a01b0385169063150b7a0290612897903390899088908890600401612fa9565b602060405180830381600087803b1580156128b157600080fd5b505af19250505080156128e1575060408051601f3d908101601f191682019092526128de91810190612cee565b60015b612991573d80801561290f576040519150601f19603f3d011682016040523d82523d6000602084013e612914565b606091505b5080516129895760405162461bcd60e51b815260206004820152603260248201527f4552433732313a207472616e7366657220746f206e6f6e20455243373231526560448201527f63656976657220696d706c656d656e7465720000000000000000000000000000606482015260840161075b565b805181602001fd5b6001600160e01b031916630a85bd0160e11b1490506121ad565b506001949350505050565b8280546129c2906131bc565b90600052602060002090601f0160209004810192826129e45760008555612a2a565b82601f106129fd57805160ff1916838001178555612a2a565b82800160010185558215612a2a579182015b82811115612a2a578251825591602001919060010190612a0f565b50612a36929150612a3a565b5090565b5b80821115612a365760008155600101612a3b565b600067ffffffffffffffff80841115612a6a57612a6a613268565b604051601f8501601f19908116603f01168101908282118183101715612a9257612a92613268565b81604052809350858152868686011115612aab57600080fd5b858560208301376000602087830101525050509392505050565b80356001600160a01b0381168114612adc57600080fd5b919050565b600082601f830112612af1578081fd5b611ceb83833560208501612a4f565b600060408284031215612b11578081fd5b6040516040810181811067ffffffffffffffff82111715612b3457612b34613268565b604052905080612b4383612b5d565b8152612b5160208401612b5d565b60208201525092915050565b803561ffff81168114612adc57600080fd5b600060208284031215612b80578081fd5b611ceb82612ac5565b60008060408385031215612b9b578081fd5b612ba483612ac5565b9150612bb260208401612ac5565b90509250929050565b600080600060608486031215612bcf578081fd5b612bd884612ac5565b9250612be660208501612ac5565b9150604084013590509250925092565b60008060008060808587031215612c0b578081fd5b612c1485612ac5565b9350612c2260208601612ac5565b925060408501359150606085013567ffffffffffffffff811115612c44578182fd5b8501601f81018713612c54578182fd5b612c6387823560208401612a4f565b91505092959194509250565b60008060408385031215612c81578182fd5b612c8a83612ac5565b915060208301358015158114612c9e578182fd5b809150509250929050565b60008060408385031215612cbb578182fd5b612cc483612ac5565b946020939093013593505050565b600060208284031215612ce3578081fd5b8135611ceb8161327e565b600060208284031215612cff578081fd5b8151611ceb8161327e565b600060208284031215612d1b578081fd5b813567ffffffffffffffff811115612d31578182fd5b6121ad84828501612ae1565b60008060608385031215612d4f578182fd5b823567ffffffffffffffff811115612d65578283fd5b612d7185828601612ae1565b925050612bb28460208501612b00565b600060208284031215612d92578081fd5b5035919050565b600080600060608486031215612dad578283fd5b83359250612dbd60208501612ac5565b9150604084013567ffffffffffffffff811115612dd8578182fd5b612de486828701612ae1565b9150509250925092565b60008060008060008060e08789031215612e06578384fd5b86359550612e1660208801612ac5565b9450612e258860408901612b00565b93506080870135925060a087013567ffffffffffffffff80821115612e48578384fd5b612e548a838b01612ae1565b935060c0890135915080821115612e69578283fd5b50612e7689828a01612ae1565b9150509295509295509295565b60008151808452612e9b816020860160208601613190565b601f01601f19169290920160200192915050565b60038110612ebf57612ebf613252565b9052565b60068110612ebf57612ebf613252565b60006101006001600160a01b038351168452602083015160208501526040830151612f016040860182612ec3565b506060830151612f256060860182805161ffff908116835260209182015116910152565b50608083015160a085015260a08301518160c0860152612f4782860182612e83565b91505060c083015160e08501528091505092915050565b60008251612f70818460208701613190565b9190910192915050565b60008351612f8c818460208801613190565b835190830190612fa0818360208801613190565b01949350505050565b60006001600160a01b03808716835280861660208401525083604083015260806060830152612fdb6080830184612e83565b9695505050505050565b6000602080830181845280855180835260408601915060408160051b8701019250838701855b8281101561303957603f19888603018452613027858351612ed3565b9450928501929085019060010161300b565b5092979650505050505050565b602081016106ff8284612eaf565b61305e8184612eaf565b6040602082015260006121ad6040830184612e83565b602081016106ff8284612ec3565b61308c8187612ec3565b6001600160a01b0385811660208301528416604082015260006130c36060830185805161ffff908116835260209182015116910152565b60c060a08301526130d760c0830184612e83565b979650505050505050565b602081526000611ceb6020830184612e83565b602081526000611ceb6020830184612ed3565b82815260408101611ceb6020830184612ec3565b838152608081016131306020830185612ec3565b825161ffff908116604084015260208401511660608301526121ad565b6000821982111561316057613160613226565b500190565b6000826131745761317461323c565b500490565b60008282101561318b5761318b613226565b500390565b60005b838110156131ab578181015183820152602001613193565b83811115611bf65750506000910152565b600181811c908216806131d057607f821691505b602082108114156131f157634e487b7160e01b600052602260045260246000fd5b50919050565b600060001982141561320b5761320b613226565b5060010190565b6000826132215761322161323c565b500690565b634e487b7160e01b600052601160045260246000fd5b634e487b7160e01b600052601260045260246000fd5b634e487b7160e01b600052602160045260246000fd5b634e487b7160e01b600052604160045260246000fd5b6001600160e01b031981168114611e7b57600080fdfea2646970667358221220f835f5092f67b3c51cf8c538a036fb9a8b538f09e1dd8ca91be2e972a79ffc5464736f6c63430008040033",
  "linkReferences": {},
  "deployedLinkReferences": {}
}