{
  "_format": "hh-sol-artifact-1",
  "contractName": "GratitudeContract",
  "sourceName": "contracts/GratitudeContract.sol",
  "abi": [
    {
      "inputs": [],
      "stateMutability": "nonpayable",
      "type": "constructor"
    },
    {
      "anonymous": false,
      "inputs": [
        {
          "indexed": true,
          "internalType": "address",
          "name": "owner",
          "type": "address"
        },
        {
          "indexed": true,
          "internalType": "address",
          "name": "approved",
          "type": "address"
        },
        {
          "indexed": true,
          "internalType": "uint256",
          "name": "tokenId",
          "type": "uint256"
        }
      ],
      "name": "Approval",
      "type": "event"
    },
    {
      "anonymous": false,
      "inputs": [
        {
          "indexed": true,
          "internalType": "address",
          "name": "owner",
          "type": "address"
        },
        {
          "indexed": true,
          "internalType": "address",
          "name": "operator",
          "type": "address"
        },
        {
          "indexed": false,
          "internalType": "bool",
          "name": "approved",
          "type": "bool"
        }
      ],
      "name": "ApprovalForAll",
      "type": "event"
    },
    {
      "anonymous": false,
      "inputs": [
        {
          "indexed": true,
          "internalType": "address",
          "name": "previousOwner",
          "type": "address"
        },
        {
          "indexed": true,
          "internalType": "address",
          "name": "newOwner",
          "type": "address"
        }
      ],
      "name": "OwnershipTransferred",
      "type": "event"
    },
    {
      "anonymous": false,
      "inputs": [
        {
          "indexed": true,
          "internalType": "address",
          "name": "from",
          "type": "address"
        },
        {
          "indexed": true,
          "internalType": "address",
          "name": "to",
          "type": "address"
        },
        {
          "indexed": true,
          "internalType": "uint256",
          "name": "tokenId",
          "type": "uint256"
        }
      ],
      "name": "Transfer",
      "type": "event"
    },
    {
      "inputs": [],
      "name": "_tokenIds",
      "outputs": [
        {
          "internalType": "uint256",
          "name": "_value",
          "type": "uint256"
        }
      ],
      "stateMutability": "view",
      "type": "function"
    },
    {
      "inputs": [
        {
          "internalType": "address",
          "name": "to",
          "type": "address"
        },
        {
          "internalType": "string",
          "name": "_linkCode",
          "type": "string"
        }
      ],
      "name": "acceptLinkHash",
      "outputs": [],
      "stateMutability": "nonpayable",
      "type": "function"
    },
    {
      "inputs": [
        {
          "internalType": "address",
          "name": "to",
          "type": "address"
        },
        {
          "internalType": "uint256",
          "name": "tokenId",
          "type": "uint256"
        }
      ],
      "name": "approve",
      "outputs": [],
      "stateMutability": "nonpayable",
      "type": "function"
    },
    {
      "inputs": [
        {
          "internalType": "address",
          "name": "owner",
          "type": "address"
        }
      ],
      "name": "balanceOf",
      "outputs": [
        {
          "internalType": "uint256",
          "name": "",
          "type": "uint256"
        }
      ],
      "stateMutability": "view",
      "type": "function"
    },
    {
      "inputs": [
        {
          "internalType": "uint256",
          "name": "_tokenId",
          "type": "uint256"
        }
      ],
      "name": "cancelWhenStillPending",
      "outputs": [],
      "stateMutability": "nonpayable",
      "type": "function"
    },
    {
      "inputs": [
        {
          "internalType": "uint256",
          "name": "_status",
          "type": "uint256"
        },
        {
          "internalType": "address",
          "name": "_receiver",
          "type": "address"
        },
        {
          "components": [
            {
              "internalType": "uint8",
              "name": "lat",
              "type": "uint8"
            },
            {
              "internalType": "uint8",
              "name": "lng",
              "type": "uint8"
            }
          ],
          "internalType": "struct GratitudeContract.GEO",
          "name": "_geo",
          "type": "tuple"
        },
        {
          "internalType": "uint256",
          "name": "_timeStamp",
          "type": "uint256"
        },
        {
          "internalType": "string",
          "name": "_tokenUri",
          "type": "string"
        },
        {
          "internalType": "string",
          "name": "_linkCode",
          "type": "string"
        }
      ],
      "name": "createGratitudeToken",
      "outputs": [],
      "stateMutability": "nonpayable",
      "type": "function"
    },
    {
      "inputs": [
        {
          "internalType": "uint256",
          "name": "tokenId",
          "type": "uint256"
        }
      ],
      "name": "getApproved",
      "outputs": [
        {
          "internalType": "address",
          "name": "",
          "type": "address"
        }
      ],
      "stateMutability": "view",
      "type": "function"
    },
    {
      "inputs": [
        {
          "internalType": "string",
          "name": "_linkCode",
          "type": "string"
        }
      ],
      "name": "getGratitudeNFtByLinkCode",
      "outputs": [
        {
          "components": [
            {
              "internalType": "address",
              "name": "receiver",
              "type": "address"
            },
            {
              "internalType": "uint256",
              "name": "tokenId",
              "type": "uint256"
            },
            {
              "internalType": "enum GratitudeContract.NFTStatus",
              "name": "status",
              "type": "uint8"
            },
            {
              "components": [
                {
                  "internalType": "uint8",
                  "name": "lat",
                  "type": "uint8"
                },
                {
                  "internalType": "uint8",
                  "name": "lng",
                  "type": "uint8"
                }
              ],
              "internalType": "struct GratitudeContract.GEO",
              "name": "geo",
              "type": "tuple"
            },
            {
              "internalType": "uint256",
              "name": "timeStamp",
              "type": "uint256"
            },
            {
              "internalType": "string",
              "name": "tokenUri",
              "type": "string"
            },
            {
              "internalType": "bytes32",
              "name": "linkCode",
              "type": "bytes32"
            }
          ],
          "internalType": "struct GratitudeContract.NFT",
          "name": "",
          "type": "tuple"
        }
      ],
      "stateMutability": "view",
      "type": "function"
    },
    {
      "inputs": [
        {
          "internalType": "uint256",
          "name": "_tokenId",
          "type": "uint256"
        }
      ],
      "name": "getPendingStatus",
      "outputs": [
        {
          "internalType": "enum GratitudeContract.NFTStatus",
          "name": "",
          "type": "uint8"
        }
      ],
      "stateMutability": "nonpayable",
      "type": "function"
    },
    {
      "inputs": [
        {
          "internalType": "address",
          "name": "owner",
          "type": "address"
        },
        {
          "internalType": "address",
          "name": "operator",
          "type": "address"
        }
      ],
      "name": "isApprovedForAll",
      "outputs": [
        {
          "internalType": "bool",
          "name": "",
          "type": "bool"
        }
      ],
      "stateMutability": "view",
      "type": "function"
    },
    {
      "inputs": [],
      "name": "name",
      "outputs": [
        {
          "internalType": "string",
          "name": "",
          "type": "string"
        }
      ],
      "stateMutability": "view",
      "type": "function"
    },
    {
      "inputs": [],
      "name": "owner",
      "outputs": [
        {
          "internalType": "address",
          "name": "",
          "type": "address"
        }
      ],
      "stateMutability": "view",
      "type": "function"
    },
    {
      "inputs": [
        {
          "internalType": "uint256",
          "name": "tokenId",
          "type": "uint256"
        }
      ],
      "name": "ownerOf",
      "outputs": [
        {
          "internalType": "address",
          "name": "",
          "type": "address"
        }
      ],
      "stateMutability": "view",
      "type": "function"
    },
    {
      "inputs": [
        {
          "internalType": "string",
          "name": "_linkCode",
          "type": "string"
        }
      ],
      "name": "rejectGratitudeNFTbyLinkCode",
      "outputs": [],
      "stateMutability": "nonpayable",
      "type": "function"
    },
    {
      "inputs": [],
      "name": "renounceOwnership",
      "outputs": [],
      "stateMutability": "nonpayable",
      "type": "function"
    },
    {
      "inputs": [
        {
          "internalType": "uint256",
          "name": "_tokenId",
          "type": "uint256"
        },
        {
          "internalType": "address",
          "name": "_receiver",
          "type": "address"
        },
        {
          "internalType": "string",
          "name": "_linkCode",
          "type": "string"
        }
      ],
      "name": "resendWhenTimeOutOrRejectedOrStandby",
      "outputs": [],
      "stateMutability": "nonpayable",
      "type": "function"
    },
    {
      "inputs": [
        {
          "internalType": "address",
          "name": "from",
          "type": "address"
        },
        {
          "internalType": "address",
          "name": "to",
          "type": "address"
        },
        {
          "internalType": "uint256",
          "name": "tokenId",
          "type": "uint256"
        }
      ],
      "name": "safeTransferFrom",
      "outputs": [],
      "stateMutability": "nonpayable",
      "type": "function"
    },
    {
      "inputs": [
        {
          "internalType": "address",
          "name": "from",
          "type": "address"
        },
        {
          "internalType": "address",
          "name": "to",
          "type": "address"
        },
        {
          "internalType": "uint256",
          "name": "tokenId",
          "type": "uint256"
        },
        {
          "internalType": "bytes",
          "name": "_data",
          "type": "bytes"
        }
      ],
      "name": "safeTransferFrom",
      "outputs": [],
      "stateMutability": "nonpayable",
      "type": "function"
    },
    {
      "inputs": [
        {
          "internalType": "address",
          "name": "operator",
          "type": "address"
        },
        {
          "internalType": "bool",
          "name": "approved",
          "type": "bool"
        }
      ],
      "name": "setApprovalForAll",
      "outputs": [],
      "stateMutability": "nonpayable",
      "type": "function"
    },
    {
      "inputs": [
        {
          "internalType": "bytes4",
          "name": "interfaceId",
          "type": "bytes4"
        }
      ],
      "name": "supportsInterface",
      "outputs": [
        {
          "internalType": "bool",
          "name": "",
          "type": "bool"
        }
      ],
      "stateMutability": "view",
      "type": "function"
    },
    {
      "inputs": [],
      "name": "symbol",
      "outputs": [
        {
          "internalType": "string",
          "name": "",
          "type": "string"
        }
      ],
      "stateMutability": "view",
      "type": "function"
    },
    {
      "inputs": [
        {
          "internalType": "uint256",
          "name": "index",
          "type": "uint256"
        }
      ],
      "name": "tokenByIndex",
      "outputs": [
        {
          "internalType": "uint256",
          "name": "",
          "type": "uint256"
        }
      ],
      "stateMutability": "view",
      "type": "function"
    },
    {
      "inputs": [
        {
          "internalType": "address",
          "name": "owner",
          "type": "address"
        },
        {
          "internalType": "uint256",
          "name": "index",
          "type": "uint256"
        }
      ],
      "name": "tokenOfOwnerByIndex",
      "outputs": [
        {
          "internalType": "uint256",
          "name": "",
          "type": "uint256"
        }
      ],
      "stateMutability": "view",
      "type": "function"
    },
    {
      "inputs": [
        {
          "internalType": "uint256",
          "name": "tokenId",
          "type": "uint256"
        }
      ],
      "name": "tokenURI",
      "outputs": [
        {
          "internalType": "string",
          "name": "",
          "type": "string"
        }
      ],
      "stateMutability": "view",
      "type": "function"
    },
    {
      "inputs": [],
      "name": "totalSupply",
      "outputs": [
        {
          "internalType": "uint256",
          "name": "",
          "type": "uint256"
        }
      ],
      "stateMutability": "view",
      "type": "function"
    },
    {
      "inputs": [
        {
          "internalType": "address",
          "name": "from",
          "type": "address"
        },
        {
          "internalType": "address",
          "name": "to",
          "type": "address"
        },
        {
          "internalType": "uint256",
          "name": "tokenId",
          "type": "uint256"
        }
      ],
      "name": "transferFrom",
      "outputs": [],
      "stateMutability": "nonpayable",
      "type": "function"
    },
    {
      "inputs": [
        {
          "internalType": "address",
          "name": "newOwner",
          "type": "address"
        }
      ],
      "name": "transferOwnership",
      "outputs": [],
      "stateMutability": "nonpayable",
      "type": "function"
    }
  ],
  "bytecode": "0x60806040523480156200001157600080fd5b506040518060400160405280600d81526020017f475241544954554445204e4654000000000000000000000000000000000000008152506040518060400160405280600381526020017f4752410000000000000000000000000000000000000000000000000000000000815250816000908051906020019062000096929190620001a6565b508060019080519060200190620000af929190620001a6565b505050620000d2620000c6620000d860201b60201c565b620000e060201b60201c565b620002bb565b600033905090565b6000600660009054906101000a900473ffffffffffffffffffffffffffffffffffffffff16905081600660006101000a81548173ffffffffffffffffffffffffffffffffffffffff021916908373ffffffffffffffffffffffffffffffffffffffff1602179055508173ffffffffffffffffffffffffffffffffffffffff168173ffffffffffffffffffffffffffffffffffffffff167f8be0079c531659141344cd1fd0a4f28419497f9722a3daafe3b4186f6b6457e060405160405180910390a35050565b828054620001b49062000256565b90600052602060002090601f016020900481019282620001d8576000855562000224565b82601f10620001f357805160ff191683800117855562000224565b8280016001018555821562000224579182015b828111156200022357825182559160200191906001019062000206565b5b50905062000233919062000237565b5090565b5b808211156200025257600081600090555060010162000238565b5090565b600060028204905060018216806200026f57607f821691505b602082108114156200028657620002856200028c565b5b50919050565b7f4e487b7100000000000000000000000000000000000000000000000000000000600052602260045260246000fd5b614d0a80620002cb6000396000f3fe608060405234801561001057600080fd5b50600436106101a95760003560e01c8063715018a6116100f9578063aa46a40011610097578063c87b56dd11610071578063c87b56dd146104b6578063e985e9c5146104e6578063f2fde38b14610516578063f81486b814610532576101a9565b8063aa46a40014610460578063b46734821461047e578063b88d4fde1461049a576101a9565b80638da5cb5b116100d35780638da5cb5b146103ec57806395d89b411461040a5780639896c56b14610428578063a22cb46514610444576101a9565b8063715018a6146103aa5780637528f2b1146103b457806385df97dc146103d0576101a9565b80632a584aaf116101665780634f6ccce7116101405780634f6ccce7146102ea5780636352211e1461031a57806368fb8fc01461034a57806370a082311461037a576101a9565b80632a584aaf146102825780632f745c591461029e57806342842e0e146102ce576101a9565b806301ffc9a7146101ae57806306fdde03146101de578063081812fc146101fc578063095ea7b31461022c57806318160ddd1461024857806323b872dd14610266575b600080fd5b6101c860048036038101906101c39190613670565b610562565b6040516101d59190613e42565b60405180910390f35b6101e6610644565b6040516101f39190613e78565b60405180910390f35b61021660048036038101906102119190613703565b6106d6565b6040516102239190613ddb565b60405180910390f35b61024660048036038101906102419190613634565b61075b565b005b610250610873565b60405161025d919061419c565b60405180910390f35b610280600480360381019061027b91906134da565b610880565b005b61029c600480360381019061029791906135e0565b6108f8565b005b6102b860048036038101906102b39190613634565b610ac9565b6040516102c5919061419c565b60405180910390f35b6102e860048036038101906102e391906134da565b610b6e565b005b61030460048036038101906102ff9190613703565b610b8e565b604051610311919061419c565b60405180910390f35b610334600480360381019061032f9190613703565b610c25565b6040516103419190613ddb565b60405180910390f35b610364600480360381019061035f91906136c2565b610cd7565b604051610371919061417a565b60405180910390f35b610394600480360381019061038f9190613475565b610f24565b6040516103a1919061419c565b60405180910390f35b6103b2610fdc565b005b6103ce60048036038101906103c9919061372c565b611064565b005b6103ea60048036038101906103e59190613703565b611388565b005b6103f4611506565b6040516104019190613ddb565b60405180910390f35b610412611530565b60405161041f9190613e78565b60405180910390f35b610442600480360381019061043d91906136c2565b6115c2565b005b61045e600480360381019061045991906135a4565b61166f565b005b610468611685565b604051610475919061419c565b60405180910390f35b61049860048036038101906104939190613793565b611691565b005b6104b460048036038101906104af9190613529565b6119d6565b005b6104d060048036038101906104cb9190613703565b611a38565b6040516104dd9190613e78565b60405180910390f35b61050060048036038101906104fb919061349e565b611adf565b60405161050d9190613e42565b60405180910390f35b610530600480360381019061052b9190613475565b611b73565b005b61054c60048036038101906105479190613703565b611c6b565b6040516105599190613e5d565b60405180910390f35b60007f80ac58cd000000000000000000000000000000000000000000000000000000007bffffffffffffffffffffffffffffffffffffffffffffffffffffffff1916827bffffffffffffffffffffffffffffffffffffffffffffffffffffffff1916148061062d57507f5b5e139f000000000000000000000000000000000000000000000000000000007bffffffffffffffffffffffffffffffffffffffffffffffffffffffff1916827bffffffffffffffffffffffffffffffffffffffffffffffffffffffff1916145b8061063d575061063c82611e4f565b5b9050919050565b6060600080546106539061443f565b80601f016020809104026020016040519081016040528092919081815260200182805461067f9061443f565b80156106cc5780601f106106a1576101008083540402835291602001916106cc565b820191906000526020600020905b8154815290600101906020018083116106af57829003601f168201915b5050505050905090565b60006106e182611eb9565b610720576040517f08c379a00000000000000000000000000000000000000000000000000000000081526004016107179061407a565b60405180910390fd5b6004600083815260200190815260200160002060009054906101000a900473ffffffffffffffffffffffffffffffffffffffff169050919050565b600061076682610c25565b90508073ffffffffffffffffffffffffffffffffffffffff168373ffffffffffffffffffffffffffffffffffffffff1614156107d7576040517f08c379a00000000000000000000000000000000000000000000000000000000081526004016107ce906140fa565b60405180910390fd5b8073ffffffffffffffffffffffffffffffffffffffff166107f6611f25565b73ffffffffffffffffffffffffffffffffffffffff16148061082557506108248161081f611f25565b611adf565b5b610864576040517f08c379a000000000000000000000000000000000000000000000000000000000815260040161085b90613fda565b60405180910390fd5b61086e8383611f2d565b505050565b6000600f80549050905090565b61089161088b611f25565b82611fe6565b806108a957506108a86108a2611f25565b82612163565b5b6108e8576040517f08c379a00000000000000000000000000000000000000000000000000000000081526004016108df90613fba565b60405180910390fd5b6108f38383836121cf565b505050565b60008160405160200161090b9190613da0565b6040516020818303038152906040528051906020012090506000600b6000838152602001908152602001600020549050600061094682610c25565b90508473ffffffffffffffffffffffffffffffffffffffff16600c600084815260200190815260200160002060009054906101000a900473ffffffffffffffffffffffffffffffffffffffff1673ffffffffffffffffffffffffffffffffffffffff1614156109bf576109ba818684610880565b610a5d565b6109db600b600085815260200190815260200160002054612436565b610a1a576040517f08c379a0000000000000000000000000000000000000000000000000000000008152600401610a11906140ba565b60405180910390fd5b8473ffffffffffffffffffffffffffffffffffffffff16600c600084815260200190815260200160002060009054906101000a90505050610a5c818684610880565b5b60046008600084815260200190815260200160002060020160006101000a81548160ff02191690836005811115610abd577f4e487b7100000000000000000000000000000000000000000000000000000000600052602160045260246000fd5b02179055505050505050565b6000610ad483610f24565b8210610b15576040517f08c379a0000000000000000000000000000000000000000000000000000000008152600401610b0c90613e9a565b60405180910390fd5b600d60008473ffffffffffffffffffffffffffffffffffffffff1673ffffffffffffffffffffffffffffffffffffffff168152602001908152602001600020600083815260200190815260200160002054905092915050565b610b89838383604051806020016040528060008152506119d6565b505050565b6000610b98610873565b8210610bd9576040517f08c379a0000000000000000000000000000000000000000000000000000000008152600401610bd09061413a565b60405180910390fd5b600f8281548110610c13577f4e487b7100000000000000000000000000000000000000000000000000000000600052603260045260246000fd5b90600052602060002001549050919050565b6000806002600084815260200190815260200160002060009054906101000a900473ffffffffffffffffffffffffffffffffffffffff169050600073ffffffffffffffffffffffffffffffffffffffff168173ffffffffffffffffffffffffffffffffffffffff161415610cce576040517f08c379a0000000000000000000000000000000000000000000000000000000008152600401610cc59061401a565b60405180910390fd5b80915050919050565b610cdf613227565b600082604051602001610cf29190613da0565b6040516020818303038152906040528051906020012090506000600b6000838152602001908152602001600020549050600860008281526020019081526020016000206040518060e00160405290816000820160009054906101000a900473ffffffffffffffffffffffffffffffffffffffff1673ffffffffffffffffffffffffffffffffffffffff1673ffffffffffffffffffffffffffffffffffffffff168152602001600182015481526020016002820160009054906101000a900460ff166005811115610deb577f4e487b7100000000000000000000000000000000000000000000000000000000600052602160045260246000fd5b6005811115610e23577f4e487b7100000000000000000000000000000000000000000000000000000000600052602160045260246000fd5b8152602001600382016040518060400160405290816000820160009054906101000a900460ff1660ff1660ff1681526020016000820160019054906101000a900460ff1660ff1660ff1681525050815260200160048201548152602001600582018054610e8f9061443f565b80601f0160208091040260200160405190810160405280929190818152602001828054610ebb9061443f565b8015610f085780601f10610edd57610100808354040283529160200191610f08565b820191906000526020600020905b815481529060010190602001808311610eeb57829003601f168201915b5050505050815260200160068201548152505092505050919050565b60008073ffffffffffffffffffffffffffffffffffffffff168273ffffffffffffffffffffffffffffffffffffffff161415610f95576040517f08c379a0000000000000000000000000000000000000000000000000000000008152600401610f8c90613ffa565b60405180910390fd5b600360008373ffffffffffffffffffffffffffffffffffffffff1673ffffffffffffffffffffffffffffffffffffffff168152602001908152602001600020549050919050565b610fe4611f25565b73ffffffffffffffffffffffffffffffffffffffff16611002611506565b73ffffffffffffffffffffffffffffffffffffffff1614611058576040517f08c379a000000000000000000000000000000000000000000000000000000000815260040161104f9061409a565b60405180910390fd5b6110626000612586565b565b600060086000858152602001908152602001600020905060008160020160009054906101000a900460ff1690506005808111156110ca577f4e487b7100000000000000000000000000000000000000000000000000000000600052602160045260246000fd5b816005811115611103577f4e487b7100000000000000000000000000000000000000000000000000000000600052602160045260246000fd5b148061117f575060026005811115611144577f4e487b7100000000000000000000000000000000000000000000000000000000600052602160045260246000fd5b81600581111561117d577f4e487b7100000000000000000000000000000000000000000000000000000000600052602160045260246000fd5b145b806111fa5750600360058111156111bf577f4e487b7100000000000000000000000000000000000000000000000000000000600052602160045260246000fd5b8160058111156111f8577f4e487b7100000000000000000000000000000000000000000000000000000000600052602160045260246000fd5b145b801561123957503373ffffffffffffffffffffffffffffffffffffffff1661122186610c25565b73ffffffffffffffffffffffffffffffffffffffff16145b611278576040517f08c379a000000000000000000000000000000000000000000000000000000000815260040161126f90613eba565b60405180910390fd5b60018260020160006101000a81548160ff021916908360058111156112c6577f4e487b7100000000000000000000000000000000000000000000000000000000600052602160045260246000fd5b0217905550826040516020016112dc9190613da0565b604051602081830303815290604052805190602001208260060181905550600073ffffffffffffffffffffffffffffffffffffffff168473ffffffffffffffffffffffffffffffffffffffff16146113815783600c600087815260200190815260200160002060006101000a81548173ffffffffffffffffffffffffffffffffffffffff021916908373ffffffffffffffffffffffffffffffffffffffff1602179055505b5050505050565b600160058111156113c2577f4e487b7100000000000000000000000000000000000000000000000000000000600052602160045260246000fd5b6008600083815260200190815260200160002060020160009054906101000a900460ff16600581111561141e577f4e487b7100000000000000000000000000000000000000000000000000000000600052602160045260246000fd5b1415801561145f57503373ffffffffffffffffffffffffffffffffffffffff1661144782610c25565b73ffffffffffffffffffffffffffffffffffffffff16145b61149e576040517f08c379a00000000000000000000000000000000000000000000000000000000081526004016114959061415a565b60405180910390fd5b60026008600083815260200190815260200160002060020160006101000a81548160ff021916908360058111156114fe577f4e487b7100000000000000000000000000000000000000000000000000000000600052602160045260246000fd5b021790555050565b6000600660009054906101000a900473ffffffffffffffffffffffffffffffffffffffff16905090565b60606001805461153f9061443f565b80601f016020809104026020016040519081016040528092919081815260200182805461156b9061443f565b80156115b85780601f1061158d576101008083540402835291602001916115b8565b820191906000526020600020905b81548152906001019060200180831161159b57829003601f168201915b5050505050905090565b6000816040516020016115d59190613da0565b6040516020818303038152906040528051906020012090506000600b600083815260200190815260200160002054905060056008600083815260200190815260200160002060020160006101000a81548160ff02191690836005811115611665577f4e487b7100000000000000000000000000000000000000000000000000000000600052602160045260246000fd5b0217905550505050565b61168161167a611f25565b838361264c565b5050565b60078060000154905081565b60008614806116a05750600186145b6116df576040517f08c379a00000000000000000000000000000000000000000000000000000000081526004016116d69061403a565b60405180910390fd5b6116e960076127b9565b60006116f560076127cf565b905060006040518060e001604052808873ffffffffffffffffffffffffffffffffffffffff16815260200183815260200160006005811115611760577f4e487b7100000000000000000000000000000000000000000000000000000000600052602160045260246000fd5b8152602001878152602001868152602001858152602001846040516020016117889190613da0565b60405160208183030381529060405280519060200120815250905081600b60008360c0015181526020019081526020016000208190555060018814156119cc57600181604001906005811115611807577f4e487b7100000000000000000000000000000000000000000000000000000000600052602160045260246000fd5b90816005811115611841577f4e487b7100000000000000000000000000000000000000000000000000000000600052602160045260246000fd5b8152505061184f33836127dd565b818160200181815250506001600a60003373ffffffffffffffffffffffffffffffffffffffff1673ffffffffffffffffffffffffffffffffffffffff16815260200190815260200160002060008282546118a99190614292565b9250508190555081600960003373ffffffffffffffffffffffffffffffffffffffff1673ffffffffffffffffffffffffffffffffffffffff1681526020019081526020016000206000600a60003373ffffffffffffffffffffffffffffffffffffffff1673ffffffffffffffffffffffffffffffffffffffff16815260200190815260200160002054815260200190815260200160002081905550600073ffffffffffffffffffffffffffffffffffffffff168773ffffffffffffffffffffffffffffffffffffffff16146119cb5786600c600084815260200190815260200160002060006101000a81548173ffffffffffffffffffffffffffffffffffffffff021916908373ffffffffffffffffffffffffffffffffffffffff1602179055505b5b5050505050505050565b6119e76119e1611f25565b83611fe6565b611a26576040517f08c379a0000000000000000000000000000000000000000000000000000000008152600401611a1d9061411a565b60405180910390fd5b611a32848484846129b7565b50505050565b6060611a4382611eb9565b611a82576040517f08c379a0000000000000000000000000000000000000000000000000000000008152600401611a79906140da565b60405180910390fd5b6000611a8c612a13565b90506000815111611aac5760405180602001604052806000815250611ad7565b80611ab684612a2a565b604051602001611ac7929190613db7565b6040516020818303038152906040525b915050919050565b6000600560008473ffffffffffffffffffffffffffffffffffffffff1673ffffffffffffffffffffffffffffffffffffffff16815260200190815260200160002060008373ffffffffffffffffffffffffffffffffffffffff1673ffffffffffffffffffffffffffffffffffffffff16815260200190815260200160002060009054906101000a900460ff16905092915050565b611b7b611f25565b73ffffffffffffffffffffffffffffffffffffffff16611b99611506565b73ffffffffffffffffffffffffffffffffffffffff1614611bef576040517f08c379a0000000000000000000000000000000000000000000000000000000008152600401611be69061409a565b60405180910390fd5b600073ffffffffffffffffffffffffffffffffffffffff168173ffffffffffffffffffffffffffffffffffffffff161415611c5f576040517f08c379a0000000000000000000000000000000000000000000000000000000008152600401611c5690613efa565b60405180910390fd5b611c6881612586565b50565b600060016005811115611ca7577f4e487b7100000000000000000000000000000000000000000000000000000000600052602160045260246000fd5b6008600084815260200190815260200160002060020160009054906101000a900460ff166005811115611d03577f4e487b7100000000000000000000000000000000000000000000000000000000600052602160045260246000fd5b14158015611d4457503373ffffffffffffffffffffffffffffffffffffffff16611d2c83610c25565b73ffffffffffffffffffffffffffffffffffffffff16145b611d83576040517f08c379a0000000000000000000000000000000000000000000000000000000008152600401611d7a9061415a565b60405180910390fd5b6000426102586008600086815260200190815260200160002060040154611daa9190614292565b1115905080611e225760036008600085815260200190815260200160002060020160006101000a81548160ff02191690836005811115611e13577f4e487b7100000000000000000000000000000000000000000000000000000000600052602160045260246000fd5b02179055506003915050611e4a565b6008600084815260200190815260200160002060020160009054906101000a900460ff169150505b919050565b60007f01ffc9a7000000000000000000000000000000000000000000000000000000007bffffffffffffffffffffffffffffffffffffffffffffffffffffffff1916827bffffffffffffffffffffffffffffffffffffffffffffffffffffffff1916149050919050565b60008073ffffffffffffffffffffffffffffffffffffffff166002600084815260200190815260200160002060009054906101000a900473ffffffffffffffffffffffffffffffffffffffff1673ffffffffffffffffffffffffffffffffffffffff1614159050919050565b600033905090565b816004600083815260200190815260200160002060006101000a81548173ffffffffffffffffffffffffffffffffffffffff021916908373ffffffffffffffffffffffffffffffffffffffff160217905550808273ffffffffffffffffffffffffffffffffffffffff16611fa083610c25565b73ffffffffffffffffffffffffffffffffffffffff167f8c5be1e5ebec7d5bd14f71427d1e84f3dd0314c0f7b2291e5b200ac8c7c3b92560405160405180910390a45050565b6000611ff182611eb9565b612030576040517f08c379a000000000000000000000000000000000000000000000000000000000815260040161202790613f9a565b60405180910390fd5b600061203b83610c25565b90508073ffffffffffffffffffffffffffffffffffffffff168473ffffffffffffffffffffffffffffffffffffffff1614806120aa57508373ffffffffffffffffffffffffffffffffffffffff16612092846106d6565b73ffffffffffffffffffffffffffffffffffffffff16145b806120bb57506120ba8185611adf565b5b801561215a5750600460058111156120fc577f4e487b7100000000000000000000000000000000000000000000000000000000600052602160045260246000fd5b6008600085815260200190815260200160002060020160009054906101000a900460ff166005811115612158577f4e487b7100000000000000000000000000000000000000000000000000000000600052602160045260246000fd5b145b91505092915050565b60008273ffffffffffffffffffffffffffffffffffffffff16600c600084815260200190815260200160002060009054906101000a900473ffffffffffffffffffffffffffffffffffffffff1673ffffffffffffffffffffffffffffffffffffffff1614905092915050565b8273ffffffffffffffffffffffffffffffffffffffff166121ef82610c25565b73ffffffffffffffffffffffffffffffffffffffff1614612245576040517f08c379a000000000000000000000000000000000000000000000000000000000815260040161223c90613f1a565b60405180910390fd5b600073ffffffffffffffffffffffffffffffffffffffff168273ffffffffffffffffffffffffffffffffffffffff1614156122b5576040517f08c379a00000000000000000000000000000000000000000000000000000000081526004016122ac90613f5a565b60405180910390fd5b6122c0838383612bd7565b6122cb600082611f2d565b6001600360008573ffffffffffffffffffffffffffffffffffffffff1673ffffffffffffffffffffffffffffffffffffffff168152602001908152602001600020600082825461231b9190614319565b925050819055506001600360008473ffffffffffffffffffffffffffffffffffffffff1673ffffffffffffffffffffffffffffffffffffffff16815260200190815260200160002060008282546123729190614292565b92505081905550816002600083815260200190815260200160002060006101000a81548173ffffffffffffffffffffffffffffffffffffffff021916908373ffffffffffffffffffffffffffffffffffffffff160217905550808273ffffffffffffffffffffffffffffffffffffffff168473ffffffffffffffffffffffffffffffffffffffff167fddf252ad1be2c89b69c2b068fc378daa952ba7f163c4a11628f55a4df523b3ef60405160405180910390a4612431838383612ceb565b505050565b600060016005811115612472577f4e487b7100000000000000000000000000000000000000000000000000000000600052602160045260246000fd5b6008600084815260200190815260200160002060020160009054906101000a900460ff1660058111156124ce577f4e487b7100000000000000000000000000000000000000000000000000000000600052602160045260246000fd5b146124dc5760009050612581565b60004261025860086000868152602001908152602001600020600401546125039190614292565b111590508061257b5760036008600085815260200190815260200160002060020160006101000a81548160ff0219169083600581111561256c577f4e487b7100000000000000000000000000000000000000000000000000000000600052602160045260246000fd5b02179055506000915050612581565b60019150505b919050565b6000600660009054906101000a900473ffffffffffffffffffffffffffffffffffffffff16905081600660006101000a81548173ffffffffffffffffffffffffffffffffffffffff021916908373ffffffffffffffffffffffffffffffffffffffff1602179055508173ffffffffffffffffffffffffffffffffffffffff168173ffffffffffffffffffffffffffffffffffffffff167f8be0079c531659141344cd1fd0a4f28419497f9722a3daafe3b4186f6b6457e060405160405180910390a35050565b8173ffffffffffffffffffffffffffffffffffffffff168373ffffffffffffffffffffffffffffffffffffffff1614156126bb576040517f08c379a00000000000000000000000000000000000000000000000000000000081526004016126b290613f7a565b60405180910390fd5b80600560008573ffffffffffffffffffffffffffffffffffffffff1673ffffffffffffffffffffffffffffffffffffffff16815260200190815260200160002060008473ffffffffffffffffffffffffffffffffffffffff1673ffffffffffffffffffffffffffffffffffffffff16815260200190815260200160002060006101000a81548160ff0219169083151502179055508173ffffffffffffffffffffffffffffffffffffffff168373ffffffffffffffffffffffffffffffffffffffff167f17307eab39ab6107e8899845ad3d59bd9653f200f220920489ca2b5937696c31836040516127ac9190613e42565b60405180910390a3505050565b6001816000016000828254019250508190555050565b600081600001549050919050565b600073ffffffffffffffffffffffffffffffffffffffff168273ffffffffffffffffffffffffffffffffffffffff16141561284d576040517f08c379a00000000000000000000000000000000000000000000000000000000081526004016128449061405a565b60405180910390fd5b61285681611eb9565b15612896576040517f08c379a000000000000000000000000000000000000000000000000000000000815260040161288d90613f3a565b60405180910390fd5b6128a260008383612bd7565b6001600360008473ffffffffffffffffffffffffffffffffffffffff1673ffffffffffffffffffffffffffffffffffffffff16815260200190815260200160002060008282546128f29190614292565b92505081905550816002600083815260200190815260200160002060006101000a81548173ffffffffffffffffffffffffffffffffffffffff021916908373ffffffffffffffffffffffffffffffffffffffff160217905550808273ffffffffffffffffffffffffffffffffffffffff16600073ffffffffffffffffffffffffffffffffffffffff167fddf252ad1be2c89b69c2b068fc378daa952ba7f163c4a11628f55a4df523b3ef60405160405180910390a46129b360008383612ceb565b5050565b6129c28484846121cf565b6129ce84848484612cf0565b612a0d576040517f08c379a0000000000000000000000000000000000000000000000000000000008152600401612a0490613eda565b60405180910390fd5b50505050565b606060405180602001604052806000815250905090565b60606000821415612a72576040518060400160405280600181526020017f30000000000000000000000000000000000000000000000000000000000000008152509050612bd2565b600082905060005b60008214612aa4578080612a8d906144a2565b915050600a82612a9d91906142e8565b9150612a7a565b60008167ffffffffffffffff811115612ae6577f4e487b7100000000000000000000000000000000000000000000000000000000600052604160045260246000fd5b6040519080825280601f01601f191660200182016040528015612b185781602001600182028036833780820191505090505b5090505b60008514612bcb57600182612b319190614319565b9150600a85612b4091906144eb565b6030612b4c9190614292565b60f81b818381518110612b88577f4e487b7100000000000000000000000000000000000000000000000000000000600052603260045260246000fd5b60200101907effffffffffffffffffffffffffffffffffffffffffffffffffffffffffffff1916908160001a905350600a85612bc491906142e8565b9450612b1c565b8093505050505b919050565b612be2838383612e87565b600073ffffffffffffffffffffffffffffffffffffffff168373ffffffffffffffffffffffffffffffffffffffff161415612c2557612c2081612e8c565b612c64565b8173ffffffffffffffffffffffffffffffffffffffff168373ffffffffffffffffffffffffffffffffffffffff1614612c6357612c628382612ed5565b5b5b600073ffffffffffffffffffffffffffffffffffffffff168273ffffffffffffffffffffffffffffffffffffffff161415612ca757612ca281613042565b612ce6565b8273ffffffffffffffffffffffffffffffffffffffff168273ffffffffffffffffffffffffffffffffffffffff1614612ce557612ce48282613185565b5b5b505050565b505050565b6000612d118473ffffffffffffffffffffffffffffffffffffffff16613204565b15612e7a578373ffffffffffffffffffffffffffffffffffffffff1663150b7a02612d3a611f25565b8786866040518563ffffffff1660e01b8152600401612d5c9493929190613df6565b602060405180830381600087803b158015612d7657600080fd5b505af1925050508015612da757506040513d601f19601f82011682018060405250810190612da49190613699565b60015b612e2a573d8060008114612dd7576040519150601f19603f3d011682016040523d82523d6000602084013e612ddc565b606091505b50600081511415612e22576040517f08c379a0000000000000000000000000000000000000000000000000000000008152600401612e1990613eda565b60405180910390fd5b805181602001fd5b63150b7a0260e01b7bffffffffffffffffffffffffffffffffffffffffffffffffffffffff1916817bffffffffffffffffffffffffffffffffffffffffffffffffffffffff191614915050612e7f565b600190505b949350505050565b505050565b600f805490506010600083815260200190815260200160002081905550600f81908060018154018082558091505060019003906000526020600020016000909190919091505550565b60006001612ee284610f24565b612eec9190614319565b90506000600e6000848152602001908152602001600020549050818114612fd1576000600d60008673ffffffffffffffffffffffffffffffffffffffff1673ffffffffffffffffffffffffffffffffffffffff168152602001908152602001600020600084815260200190815260200160002054905080600d60008773ffffffffffffffffffffffffffffffffffffffff1673ffffffffffffffffffffffffffffffffffffffff16815260200190815260200160002060008481526020019081526020016000208190555081600e600083815260200190815260200160002081905550505b600e600084815260200190815260200160002060009055600d60008573ffffffffffffffffffffffffffffffffffffffff1673ffffffffffffffffffffffffffffffffffffffff16815260200190815260200160002060008381526020019081526020016000206000905550505050565b60006001600f805490506130569190614319565b90506000601060008481526020019081526020016000205490506000600f83815481106130ac577f4e487b7100000000000000000000000000000000000000000000000000000000600052603260045260246000fd5b9060005260206000200154905080600f83815481106130f4577f4e487b7100000000000000000000000000000000000000000000000000000000600052603260045260246000fd5b90600052602060002001819055508160106000838152602001908152602001600020819055506010600085815260200190815260200160002060009055600f805480613169577f4e487b7100000000000000000000000000000000000000000000000000000000600052603160045260246000fd5b6001900381819060005260206000200160009055905550505050565b600061319083610f24565b905081600d60008573ffffffffffffffffffffffffffffffffffffffff1673ffffffffffffffffffffffffffffffffffffffff16815260200190815260200160002060008381526020019081526020016000208190555080600e600084815260200190815260200160002081905550505050565b6000808273ffffffffffffffffffffffffffffffffffffffff163b119050919050565b6040518060e00160405280600073ffffffffffffffffffffffffffffffffffffffff1681526020016000815260200160006005811115613290577f4e487b7100000000000000000000000000000000000000000000000000000000600052602160045260246000fd5b815260200161329d6132bb565b81526020016000815260200160608152602001600080191681525090565b6040518060400160405280600060ff168152602001600060ff1681525090565b60006132ee6132e9846141dc565b6141b7565b90508281526020810184848401111561330657600080fd5b6133118482856143fd565b509392505050565b600061332c6133278461420d565b6141b7565b90508281526020810184848401111561334457600080fd5b61334f8482856143fd565b509392505050565b60008135905061336681614c61565b92915050565b60008135905061337b81614c78565b92915050565b60008135905061339081614c8f565b92915050565b6000815190506133a581614c8f565b92915050565b600082601f8301126133bc57600080fd5b81356133cc8482602086016132db565b91505092915050565b600082601f8301126133e657600080fd5b81356133f6848260208601613319565b91505092915050565b60006040828403121561341157600080fd5b61341b60406141b7565b9050600061342b84828501613460565b600083015250602061343f84828501613460565b60208301525092915050565b60008135905061345a81614ca6565b92915050565b60008135905061346f81614cbd565b92915050565b60006020828403121561348757600080fd5b600061349584828501613357565b91505092915050565b600080604083850312156134b157600080fd5b60006134bf85828601613357565b92505060206134d085828601613357565b9150509250929050565b6000806000606084860312156134ef57600080fd5b60006134fd86828701613357565b935050602061350e86828701613357565b925050604061351f8682870161344b565b9150509250925092565b6000806000806080858703121561353f57600080fd5b600061354d87828801613357565b945050602061355e87828801613357565b935050604061356f8782880161344b565b925050606085013567ffffffffffffffff81111561358c57600080fd5b613598878288016133ab565b91505092959194509250565b600080604083850312156135b757600080fd5b60006135c585828601613357565b92505060206135d68582860161336c565b9150509250929050565b600080604083850312156135f357600080fd5b600061360185828601613357565b925050602083013567ffffffffffffffff81111561361e57600080fd5b61362a858286016133d5565b9150509250929050565b6000806040838503121561364757600080fd5b600061365585828601613357565b92505060206136668582860161344b565b9150509250929050565b60006020828403121561368257600080fd5b600061369084828501613381565b91505092915050565b6000602082840312156136ab57600080fd5b60006136b984828501613396565b91505092915050565b6000602082840312156136d457600080fd5b600082013567ffffffffffffffff8111156136ee57600080fd5b6136fa848285016133d5565b91505092915050565b60006020828403121561371557600080fd5b60006137238482850161344b565b91505092915050565b60008060006060848603121561374157600080fd5b600061374f8682870161344b565b935050602061376086828701613357565b925050604084013567ffffffffffffffff81111561377d57600080fd5b613789868287016133d5565b9150509250925092565b60008060008060008060e087890312156137ac57600080fd5b60006137ba89828a0161344b565b96505060206137cb89828a01613357565b95505060406137dc89828a016133ff565b94505060806137ed89828a0161344b565b93505060a087013567ffffffffffffffff81111561380a57600080fd5b61381689828a016133d5565b92505060c087013567ffffffffffffffff81111561383357600080fd5b61383f89828a016133d5565b9150509295509295509295565b6138558161434d565b82525050565b6138648161434d565b82525050565b6138738161435f565b82525050565b6138828161436b565b82525050565b60006138938261423e565b61389d8185614254565b93506138ad81856020860161440c565b6138b681614607565b840191505092915050565b6138ca816143eb565b82525050565b6138d9816143eb565b82525050565b60006138ea82614249565b6138f48185614265565b935061390481856020860161440c565b61390d81614607565b840191505092915050565b600061392382614249565b61392d8185614276565b935061393d81856020860161440c565b61394681614607565b840191505092915050565b600061395c82614249565b6139668185614287565b935061397681856020860161440c565b80840191505092915050565b600061398f602b83614276565b915061399a82614618565b604082019050919050565b60006139b2601f83614276565b91506139bd82614667565b602082019050919050565b60006139d5603283614276565b91506139e082614690565b604082019050919050565b60006139f8602683614276565b9150613a03826146df565b604082019050919050565b6000613a1b602583614276565b9150613a268261472e565b604082019050919050565b6000613a3e601c83614276565b9150613a498261477d565b602082019050919050565b6000613a61602483614276565b9150613a6c826147a6565b604082019050919050565b6000613a84601983614276565b9150613a8f826147f5565b602082019050919050565b6000613aa7602c83614276565b9150613ab28261481e565b604082019050919050565b6000613aca604983614276565b9150613ad58261486d565b606082019050919050565b6000613aed603883614276565b9150613af8826148e2565b604082019050919050565b6000613b10602a83614276565b9150613b1b82614931565b604082019050919050565b6000613b33602983614276565b9150613b3e82614980565b604082019050919050565b6000613b56602f83614276565b9150613b61826149cf565b604082019050919050565b6000613b79602083614276565b9150613b8482614a1e565b602082019050919050565b6000613b9c602c83614276565b9150613ba782614a47565b604082019050919050565b6000613bbf602083614276565b9150613bca82614a96565b602082019050919050565b6000613be2601383614276565b9150613bed82614abf565b602082019050919050565b6000613c05602f83614276565b9150613c1082614ae8565b604082019050919050565b6000613c28602183614276565b9150613c3382614b37565b604082019050919050565b6000613c4b603183614276565b9150613c5682614b86565b604082019050919050565b6000613c6e602c83614276565b9150613c7982614bd5565b604082019050919050565b6000613c91601983614276565b9150613c9c82614c24565b602082019050919050565b604082016000820151613cbd6000850182613d91565b506020820151613cd06020850182613d91565b50505050565b600061010083016000830151613cef600086018261384c565b506020830151613d026020860182613d73565b506040830151613d1560408601826138c1565b506060830151613d286060860182613ca7565b506080830151613d3b60a0860182613d73565b5060a083015184820360c0860152613d5382826138df565b91505060c0830151613d6860e0860182613879565b508091505092915050565b613d7c816143d4565b82525050565b613d8b816143d4565b82525050565b613d9a816143de565b82525050565b6000613dac8284613951565b915081905092915050565b6000613dc38285613951565b9150613dcf8284613951565b91508190509392505050565b6000602082019050613df0600083018461385b565b92915050565b6000608082019050613e0b600083018761385b565b613e18602083018661385b565b613e256040830185613d82565b8181036060830152613e378184613888565b905095945050505050565b6000602082019050613e57600083018461386a565b92915050565b6000602082019050613e7260008301846138d0565b92915050565b60006020820190508181036000830152613e928184613918565b905092915050565b60006020820190508181036000830152613eb381613982565b9050919050565b60006020820190508181036000830152613ed3816139a5565b9050919050565b60006020820190508181036000830152613ef3816139c8565b9050919050565b60006020820190508181036000830152613f13816139eb565b9050919050565b60006020820190508181036000830152613f3381613a0e565b9050919050565b60006020820190508181036000830152613f5381613a31565b9050919050565b60006020820190508181036000830152613f7381613a54565b9050919050565b60006020820190508181036000830152613f9381613a77565b9050919050565b60006020820190508181036000830152613fb381613a9a565b9050919050565b60006020820190508181036000830152613fd381613abd565b9050919050565b60006020820190508181036000830152613ff381613ae0565b9050919050565b6000602082019050818103600083015261401381613b03565b9050919050565b6000602082019050818103600083015261403381613b26565b9050919050565b6000602082019050818103600083015261405381613b49565b9050919050565b6000602082019050818103600083015261407381613b6c565b9050919050565b6000602082019050818103600083015261409381613b8f565b9050919050565b600060208201905081810360008301526140b381613bb2565b9050919050565b600060208201905081810360008301526140d381613bd5565b9050919050565b600060208201905081810360008301526140f381613bf8565b9050919050565b6000602082019050818103600083015261411381613c1b565b9050919050565b6000602082019050818103600083015261413381613c3e565b9050919050565b6000602082019050818103600083015261415381613c61565b9050919050565b6000602082019050818103600083015261417381613c84565b9050919050565b600060208201905081810360008301526141948184613cd6565b905092915050565b60006020820190506141b16000830184613d82565b92915050565b60006141c16141d2565b90506141cd8282614471565b919050565b6000604051905090565b600067ffffffffffffffff8211156141f7576141f66145d8565b5b61420082614607565b9050602081019050919050565b600067ffffffffffffffff821115614228576142276145d8565b5b61423182614607565b9050602081019050919050565b600081519050919050565b600081519050919050565b600082825260208201905092915050565b600082825260208201905092915050565b600082825260208201905092915050565b600081905092915050565b600061429d826143d4565b91506142a8836143d4565b9250827fffffffffffffffffffffffffffffffffffffffffffffffffffffffffffffffff038211156142dd576142dc61451c565b5b828201905092915050565b60006142f3826143d4565b91506142fe836143d4565b92508261430e5761430d61454b565b5b828204905092915050565b6000614324826143d4565b915061432f836143d4565b9250828210156143425761434161451c565b5b828203905092915050565b6000614358826143b4565b9050919050565b60008115159050919050565b6000819050919050565b60007fffffffff0000000000000000000000000000000000000000000000000000000082169050919050565b60008190506143af82614c4d565b919050565b600073ffffffffffffffffffffffffffffffffffffffff82169050919050565b6000819050919050565b600060ff82169050919050565b60006143f6826143a1565b9050919050565b82818337600083830152505050565b60005b8381101561442a57808201518184015260208101905061440f565b83811115614439576000848401525b50505050565b6000600282049050600182168061445757607f821691505b6020821081141561446b5761446a6145a9565b5b50919050565b61447a82614607565b810181811067ffffffffffffffff82111715614499576144986145d8565b5b80604052505050565b60006144ad826143d4565b91507fffffffffffffffffffffffffffffffffffffffffffffffffffffffffffffffff8214156144e0576144df61451c565b5b600182019050919050565b60006144f6826143d4565b9150614501836143d4565b9250826145115761451061454b565b5b828206905092915050565b7f4e487b7100000000000000000000000000000000000000000000000000000000600052601160045260246000fd5b7f4e487b7100000000000000000000000000000000000000000000000000000000600052601260045260246000fd5b7f4e487b7100000000000000000000000000000000000000000000000000000000600052602160045260246000fd5b7f4e487b7100000000000000000000000000000000000000000000000000000000600052602260045260246000fd5b7f4e487b7100000000000000000000000000000000000000000000000000000000600052604160045260246000fd5b6000601f19601f8301169050919050565b7f455243373231456e756d657261626c653a206f776e657220696e646578206f7560008201527f74206f6620626f756e6473000000000000000000000000000000000000000000602082015250565b7f4e4654204953204e4f542052454a4543544544204e4f522054494d454f555400600082015250565b7f4552433732313a207472616e7366657220746f206e6f6e20455243373231526560008201527f63656976657220696d706c656d656e7465720000000000000000000000000000602082015250565b7f4f776e61626c653a206e6577206f776e657220697320746865207a65726f206160008201527f6464726573730000000000000000000000000000000000000000000000000000602082015250565b7f4552433732313a207472616e736665722066726f6d20696e636f72726563742060008201527f6f776e6572000000000000000000000000000000000000000000000000000000602082015250565b7f4552433732313a20746f6b656e20616c7265616479206d696e74656400000000600082015250565b7f4552433732313a207472616e7366657220746f20746865207a65726f2061646460008201527f7265737300000000000000000000000000000000000000000000000000000000602082015250565b7f4552433732313a20617070726f766520746f2063616c6c657200000000000000600082015250565b7f4552433732313a206f70657261746f7220717565727920666f72206e6f6e657860008201527f697374656e7420746f6b656e0000000000000000000000000000000000000000602082015250565b7f4552433732313a207472616e736665722063616c6c6572206973206e6f74206f60008201527f776e6572206e6f7220617070726f766564206f72204e4654206e6f742079657460208201527f2061636365707465640000000000000000000000000000000000000000000000604082015250565b7f4552433732313a20617070726f76652063616c6c6572206973206e6f74206f7760008201527f6e6572206e6f7220617070726f76656420666f7220616c6c0000000000000000602082015250565b7f4552433732313a2062616c616e636520717565727920666f7220746865207a6560008201527f726f206164647265737300000000000000000000000000000000000000000000602082015250565b7f4552433732313a206f776e657220717565727920666f72206e6f6e657869737460008201527f656e7420746f6b656e0000000000000000000000000000000000000000000000602082015250565b7f4f4e4c5920535441545553204452414654283029204f522050454e44494e472860008201527f3129204152452041434345505445440000000000000000000000000000000000602082015250565b7f4552433732313a206d696e7420746f20746865207a65726f2061646472657373600082015250565b7f4552433732313a20617070726f76656420717565727920666f72206e6f6e657860008201527f697374656e7420746f6b656e0000000000000000000000000000000000000000602082015250565b7f4f776e61626c653a2063616c6c6572206973206e6f7420746865206f776e6572600082015250565b7f2054494d4520414c524541445920504153535400000000000000000000000000600082015250565b7f4552433732314d657461646174613a2055524920717565727920666f72206e6f60008201527f6e6578697374656e7420746f6b656e0000000000000000000000000000000000602082015250565b7f4552433732313a20617070726f76616c20746f2063757272656e74206f776e6560008201527f7200000000000000000000000000000000000000000000000000000000000000602082015250565b7f4552433732313a207472616e736665722063616c6c6572206973206e6f74206f60008201527f776e6572206e6f7220617070726f766564000000000000000000000000000000602082015250565b7f455243373231456e756d657261626c653a20676c6f62616c20696e646578206f60008201527f7574206f6620626f756e64730000000000000000000000000000000000000000602082015250565b7f4e4654204e4f5420494e2050454e44494e472053544154555300000000000000600082015250565b60068110614c5e57614c5d61457a565b5b50565b614c6a8161434d565b8114614c7557600080fd5b50565b614c818161435f565b8114614c8c57600080fd5b50565b614c9881614375565b8114614ca357600080fd5b50565b614caf816143d4565b8114614cba57600080fd5b50565b614cc6816143de565b8114614cd157600080fd5b5056fea2646970667358221220624fb0beb5631918187337064f4ab38ec591888b7cd9fc649a12c52276c152cb64736f6c63430008040033",
  "linkReferences": {},
  "deployedLinkReferences": {}
}