{
  "_format": "hh-sol-artifact-1",
  "contractName": "GratitudeContract",
  "sourceName": "contracts/GratitudeContract.sol",
  "abi": [
    {
      "inputs": [],
      "stateMutability": "nonpayable",
      "type": "constructor"
    },
    {
      "anonymous": false,
      "inputs": [
        {
          "indexed": true,
          "internalType": "address",
          "name": "owner",
          "type": "address"
        },
        {
          "indexed": true,
          "internalType": "address",
          "name": "approved",
          "type": "address"
        },
        {
          "indexed": true,
          "internalType": "uint256",
          "name": "tokenId",
          "type": "uint256"
        }
      ],
      "name": "Approval",
      "type": "event"
    },
    {
      "anonymous": false,
      "inputs": [
        {
          "indexed": true,
          "internalType": "address",
          "name": "owner",
          "type": "address"
        },
        {
          "indexed": true,
          "internalType": "address",
          "name": "operator",
          "type": "address"
        },
        {
          "indexed": false,
          "internalType": "bool",
          "name": "approved",
          "type": "bool"
        }
      ],
      "name": "ApprovalForAll",
      "type": "event"
    },
    {
      "anonymous": false,
      "inputs": [
        {
          "indexed": true,
          "internalType": "address",
          "name": "previousOwner",
          "type": "address"
        },
        {
          "indexed": true,
          "internalType": "address",
          "name": "newOwner",
          "type": "address"
        }
      ],
      "name": "OwnershipTransferred",
      "type": "event"
    },
    {
      "anonymous": false,
      "inputs": [
        {
          "indexed": true,
          "internalType": "address",
          "name": "from",
          "type": "address"
        },
        {
          "indexed": true,
          "internalType": "address",
          "name": "to",
          "type": "address"
        },
        {
          "indexed": true,
          "internalType": "uint256",
          "name": "tokenId",
          "type": "uint256"
        }
      ],
      "name": "Transfer",
      "type": "event"
    },
    {
      "inputs": [],
      "name": "_tokenIds",
      "outputs": [
        {
          "internalType": "uint256",
          "name": "_value",
          "type": "uint256"
        }
      ],
      "stateMutability": "view",
      "type": "function"
    },
    {
      "inputs": [
        {
          "internalType": "address",
          "name": "to",
          "type": "address"
        },
        {
          "internalType": "uint256",
          "name": "tokenId",
          "type": "uint256"
        }
      ],
      "name": "approve",
      "outputs": [],
      "stateMutability": "nonpayable",
      "type": "function"
    },
    {
      "inputs": [
        {
          "internalType": "address",
          "name": "owner",
          "type": "address"
        }
      ],
      "name": "balanceOf",
      "outputs": [
        {
          "internalType": "uint256",
          "name": "",
          "type": "uint256"
        }
      ],
      "stateMutability": "view",
      "type": "function"
    },
    {
      "inputs": [
        {
          "internalType": "uint256",
          "name": "tokenId",
          "type": "uint256"
        }
      ],
      "name": "getApproved",
      "outputs": [
        {
          "internalType": "address",
          "name": "",
          "type": "address"
        }
      ],
      "stateMutability": "view",
      "type": "function"
    },
    {
      "inputs": [
        {
          "internalType": "address",
          "name": "owner",
          "type": "address"
        },
        {
          "internalType": "address",
          "name": "operator",
          "type": "address"
        }
      ],
      "name": "isApprovedForAll",
      "outputs": [
        {
          "internalType": "bool",
          "name": "",
          "type": "bool"
        }
      ],
      "stateMutability": "view",
      "type": "function"
    },
    {
      "inputs": [
        {
          "internalType": "address",
          "name": "to",
          "type": "address"
        },
        {
          "internalType": "string",
          "name": "_tokenURI",
          "type": "string"
        }
      ],
      "name": "mintItem",
      "outputs": [
        {
          "internalType": "uint256",
          "name": "",
          "type": "uint256"
        }
      ],
      "stateMutability": "nonpayable",
      "type": "function"
    },
    {
      "inputs": [],
      "name": "name",
      "outputs": [
        {
          "internalType": "string",
          "name": "",
          "type": "string"
        }
      ],
      "stateMutability": "view",
      "type": "function"
    },
    {
      "inputs": [],
      "name": "owner",
      "outputs": [
        {
          "internalType": "address",
          "name": "",
          "type": "address"
        }
      ],
      "stateMutability": "view",
      "type": "function"
    },
    {
      "inputs": [
        {
          "internalType": "uint256",
          "name": "tokenId",
          "type": "uint256"
        }
      ],
      "name": "ownerOf",
      "outputs": [
        {
          "internalType": "address",
          "name": "",
          "type": "address"
        }
      ],
      "stateMutability": "view",
      "type": "function"
    },
    {
      "inputs": [],
      "name": "renounceOwnership",
      "outputs": [],
      "stateMutability": "nonpayable",
      "type": "function"
    },
    {
      "inputs": [
        {
          "internalType": "address",
          "name": "from",
          "type": "address"
        },
        {
          "internalType": "address",
          "name": "to",
          "type": "address"
        },
        {
          "internalType": "uint256",
          "name": "tokenId",
          "type": "uint256"
        }
      ],
      "name": "safeTransferFrom",
      "outputs": [],
      "stateMutability": "nonpayable",
      "type": "function"
    },
    {
      "inputs": [
        {
          "internalType": "address",
          "name": "from",
          "type": "address"
        },
        {
          "internalType": "address",
          "name": "to",
          "type": "address"
        },
        {
          "internalType": "uint256",
          "name": "tokenId",
          "type": "uint256"
        },
        {
          "internalType": "bytes",
          "name": "_data",
          "type": "bytes"
        }
      ],
      "name": "safeTransferFrom",
      "outputs": [],
      "stateMutability": "nonpayable",
      "type": "function"
    },
    {
      "inputs": [
        {
          "internalType": "address",
          "name": "operator",
          "type": "address"
        },
        {
          "internalType": "bool",
          "name": "approved",
          "type": "bool"
        }
      ],
      "name": "setApprovalForAll",
      "outputs": [],
      "stateMutability": "nonpayable",
      "type": "function"
    },
    {
      "inputs": [
        {
          "internalType": "bytes4",
          "name": "interfaceId",
          "type": "bytes4"
        }
      ],
      "name": "supportsInterface",
      "outputs": [
        {
          "internalType": "bool",
          "name": "",
          "type": "bool"
        }
      ],
      "stateMutability": "view",
      "type": "function"
    },
    {
      "inputs": [],
      "name": "symbol",
      "outputs": [
        {
          "internalType": "string",
          "name": "",
          "type": "string"
        }
      ],
      "stateMutability": "view",
      "type": "function"
    },
    {
      "inputs": [
        {
          "internalType": "uint256",
          "name": "tokenId",
          "type": "uint256"
        }
      ],
      "name": "tokenURI",
      "outputs": [
        {
          "internalType": "string",
          "name": "",
          "type": "string"
        }
      ],
      "stateMutability": "view",
      "type": "function"
    },
    {
      "inputs": [
        {
          "internalType": "address",
          "name": "from",
          "type": "address"
        },
        {
          "internalType": "address",
          "name": "to",
          "type": "address"
        },
        {
          "internalType": "uint256",
          "name": "tokenId",
          "type": "uint256"
        }
      ],
      "name": "transferFrom",
      "outputs": [],
      "stateMutability": "nonpayable",
      "type": "function"
    },
    {
      "inputs": [
        {
          "internalType": "address",
          "name": "newOwner",
          "type": "address"
        }
      ],
      "name": "transferOwnership",
      "outputs": [],
      "stateMutability": "nonpayable",
      "type": "function"
    }
  ],
  "bytecode": "0x60806040523480156200001157600080fd5b506040518060400160405280600f81526020017f4e47204e465420436f6e747261637400000000000000000000000000000000008152506040518060400160405280600381526020017f4e47430000000000000000000000000000000000000000000000000000000000815250816000908051906020019062000096929190620001a6565b508060019080519060200190620000af929190620001a6565b505050620000d2620000c6620000d860201b60201c565b620000e060201b60201c565b620002bb565b600033905090565b6000600760009054906101000a900473ffffffffffffffffffffffffffffffffffffffff16905081600760006101000a81548173ffffffffffffffffffffffffffffffffffffffff021916908373ffffffffffffffffffffffffffffffffffffffff1602179055508173ffffffffffffffffffffffffffffffffffffffff168173ffffffffffffffffffffffffffffffffffffffff167f8be0079c531659141344cd1fd0a4f28419497f9722a3daafe3b4186f6b6457e060405160405180910390a35050565b828054620001b49062000256565b90600052602060002090601f016020900481019282620001d8576000855562000224565b82601f10620001f357805160ff191683800117855562000224565b8280016001018555821562000224579182015b828111156200022357825182559160200191906001019062000206565b5b50905062000233919062000237565b5090565b5b808211156200025257600081600090555060010162000238565b5090565b600060028204905060018216806200026f57607f821691505b602082108114156200028657620002856200028c565b5b50919050565b7f4e487b7100000000000000000000000000000000000000000000000000000000600052602260045260246000fd5b61307880620002cb6000396000f3fe608060405234801561001057600080fd5b50600436106101165760003560e01c8063715018a6116100a2578063aa46a40011610071578063aa46a400146102df578063b88d4fde146102fd578063c87b56dd14610319578063e985e9c514610349578063f2fde38b1461037957610116565b8063715018a61461027d5780638da5cb5b1461028757806395d89b41146102a5578063a22cb465146102c357610116565b8063110bcd45116100e9578063110bcd45146101b557806323b872dd146101e557806342842e0e146102015780636352211e1461021d57806370a082311461024d57610116565b806301ffc9a71461011b57806306fdde031461014b578063081812fc14610169578063095ea7b314610199575b600080fd5b61013560048036038101906101309190612027565b610395565b6040516101429190612473565b60405180910390f35b610153610477565b604051610160919061248e565b60405180910390f35b610183600480360381019061017e9190612079565b610509565b604051610190919061240c565b60405180910390f35b6101b360048036038101906101ae9190611feb565b61058e565b005b6101cf60048036038101906101ca9190611f97565b6106a6565b6040516101dc91906126f0565b60405180910390f35b6101ff60048036038101906101fa9190611e91565b61075a565b005b61021b60048036038101906102169190611e91565b6107ba565b005b61023760048036038101906102329190612079565b6107da565b604051610244919061240c565b60405180910390f35b61026760048036038101906102629190611e2c565b61088c565b60405161027491906126f0565b60405180910390f35b610285610944565b005b61028f6109cc565b60405161029c919061240c565b60405180910390f35b6102ad6109f6565b6040516102ba919061248e565b60405180910390f35b6102dd60048036038101906102d89190611f5b565b610a88565b005b6102e7610a9e565b6040516102f491906126f0565b60405180910390f35b61031760048036038101906103129190611ee0565b610aaa565b005b610333600480360381019061032e9190612079565b610b0c565b604051610340919061248e565b60405180910390f35b610363600480360381019061035e9190611e55565b610b66565b6040516103709190612473565b60405180910390f35b610393600480360381019061038e9190611e2c565b610bfa565b005b60007f80ac58cd000000000000000000000000000000000000000000000000000000007bffffffffffffffffffffffffffffffffffffffffffffffffffffffff1916827bffffffffffffffffffffffffffffffffffffffffffffffffffffffff1916148061046057507f5b5e139f000000000000000000000000000000000000000000000000000000007bffffffffffffffffffffffffffffffffffffffffffffffffffffffff1916827bffffffffffffffffffffffffffffffffffffffffffffffffffffffff1916145b80610470575061046f82610cf2565b5b9050919050565b60606000805461048690612946565b80601f01602080910402602001604051908101604052809291908181526020018280546104b290612946565b80156104ff5780601f106104d4576101008083540402835291602001916104ff565b820191906000526020600020905b8154815290600101906020018083116104e257829003601f168201915b5050505050905090565b600061051482610d5c565b610553576040517f08c379a000000000000000000000000000000000000000000000000000000000815260040161054a90612650565b60405180910390fd5b6004600083815260200190815260200160002060009054906101000a900473ffffffffffffffffffffffffffffffffffffffff169050919050565b6000610599826107da565b90508073ffffffffffffffffffffffffffffffffffffffff168373ffffffffffffffffffffffffffffffffffffffff16141561060a576040517f08c379a0000000000000000000000000000000000000000000000000000000008152600401610601906126b0565b60405180910390fd5b8073ffffffffffffffffffffffffffffffffffffffff16610629610dc8565b73ffffffffffffffffffffffffffffffffffffffff161480610658575061065781610652610dc8565b610b66565b5b610697576040517f08c379a000000000000000000000000000000000000000000000000000000000815260040161068e90612590565b60405180910390fd5b6106a18383610dd0565b505050565b60006106b0610dc8565b73ffffffffffffffffffffffffffffffffffffffff166106ce6109cc565b73ffffffffffffffffffffffffffffffffffffffff1614610724576040517f08c379a000000000000000000000000000000000000000000000000000000000815260040161071b90612670565b60405180910390fd5b61072e6008610e89565b600061073a6008610e9f565b90506107468482610ead565b6107508184611087565b8091505092915050565b61076b610765610dc8565b826110fb565b6107aa576040517f08c379a00000000000000000000000000000000000000000000000000000000081526004016107a1906126d0565b60405180910390fd5b6107b58383836111d9565b505050565b6107d583838360405180602001604052806000815250610aaa565b505050565b6000806002600084815260200190815260200160002060009054906101000a900473ffffffffffffffffffffffffffffffffffffffff169050600073ffffffffffffffffffffffffffffffffffffffff168173ffffffffffffffffffffffffffffffffffffffff161415610883576040517f08c379a000000000000000000000000000000000000000000000000000000000815260040161087a906125d0565b60405180910390fd5b80915050919050565b60008073ffffffffffffffffffffffffffffffffffffffff168273ffffffffffffffffffffffffffffffffffffffff1614156108fd576040517f08c379a00000000000000000000000000000000000000000000000000000000081526004016108f4906125b0565b60405180910390fd5b600360008373ffffffffffffffffffffffffffffffffffffffff1673ffffffffffffffffffffffffffffffffffffffff168152602001908152602001600020549050919050565b61094c610dc8565b73ffffffffffffffffffffffffffffffffffffffff1661096a6109cc565b73ffffffffffffffffffffffffffffffffffffffff16146109c0576040517f08c379a00000000000000000000000000000000000000000000000000000000081526004016109b790612670565b60405180910390fd5b6109ca6000611440565b565b6000600760009054906101000a900473ffffffffffffffffffffffffffffffffffffffff16905090565b606060018054610a0590612946565b80601f0160208091040260200160405190810160405280929190818152602001828054610a3190612946565b8015610a7e5780601f10610a5357610100808354040283529160200191610a7e565b820191906000526020600020905b815481529060010190602001808311610a6157829003601f168201915b5050505050905090565b610a9a610a93610dc8565b8383611506565b5050565b60088060000154905081565b610abb610ab5610dc8565b836110fb565b610afa576040517f08c379a0000000000000000000000000000000000000000000000000000000008152600401610af1906126d0565b60405180910390fd5b610b0684848484611673565b50505050565b6060610b1782610d5c565b610b56576040517f08c379a0000000000000000000000000000000000000000000000000000000008152600401610b4d90612630565b60405180910390fd5b610b5f826116cf565b9050919050565b6000600560008473ffffffffffffffffffffffffffffffffffffffff1673ffffffffffffffffffffffffffffffffffffffff16815260200190815260200160002060008373ffffffffffffffffffffffffffffffffffffffff1673ffffffffffffffffffffffffffffffffffffffff16815260200190815260200160002060009054906101000a900460ff16905092915050565b610c02610dc8565b73ffffffffffffffffffffffffffffffffffffffff16610c206109cc565b73ffffffffffffffffffffffffffffffffffffffff1614610c76576040517f08c379a0000000000000000000000000000000000000000000000000000000008152600401610c6d90612670565b60405180910390fd5b600073ffffffffffffffffffffffffffffffffffffffff168173ffffffffffffffffffffffffffffffffffffffff161415610ce6576040517f08c379a0000000000000000000000000000000000000000000000000000000008152600401610cdd906124d0565b60405180910390fd5b610cef81611440565b50565b60007f01ffc9a7000000000000000000000000000000000000000000000000000000007bffffffffffffffffffffffffffffffffffffffffffffffffffffffff1916827bffffffffffffffffffffffffffffffffffffffffffffffffffffffff1916149050919050565b60008073ffffffffffffffffffffffffffffffffffffffff166002600084815260200190815260200160002060009054906101000a900473ffffffffffffffffffffffffffffffffffffffff1673ffffffffffffffffffffffffffffffffffffffff1614159050919050565b600033905090565b816004600083815260200190815260200160002060006101000a81548173ffffffffffffffffffffffffffffffffffffffff021916908373ffffffffffffffffffffffffffffffffffffffff160217905550808273ffffffffffffffffffffffffffffffffffffffff16610e43836107da565b73ffffffffffffffffffffffffffffffffffffffff167f8c5be1e5ebec7d5bd14f71427d1e84f3dd0314c0f7b2291e5b200ac8c7c3b92560405160405180910390a45050565b6001816000016000828254019250508190555050565b600081600001549050919050565b600073ffffffffffffffffffffffffffffffffffffffff168273ffffffffffffffffffffffffffffffffffffffff161415610f1d576040517f08c379a0000000000000000000000000000000000000000000000000000000008152600401610f1490612610565b60405180910390fd5b610f2681610d5c565b15610f66576040517f08c379a0000000000000000000000000000000000000000000000000000000008152600401610f5d90612510565b60405180910390fd5b610f7260008383611821565b6001600360008473ffffffffffffffffffffffffffffffffffffffff1673ffffffffffffffffffffffffffffffffffffffff1681526020019081526020016000206000828254610fc291906127d5565b92505081905550816002600083815260200190815260200160002060006101000a81548173ffffffffffffffffffffffffffffffffffffffff021916908373ffffffffffffffffffffffffffffffffffffffff160217905550808273ffffffffffffffffffffffffffffffffffffffff16600073ffffffffffffffffffffffffffffffffffffffff167fddf252ad1be2c89b69c2b068fc378daa952ba7f163c4a11628f55a4df523b3ef60405160405180910390a461108360008383611826565b5050565b61109082610d5c565b6110cf576040517f08c379a00000000000000000000000000000000000000000000000000000000081526004016110c6906125f0565b60405180910390fd5b806006600084815260200190815260200160002090805190602001906110f6929190611c50565b505050565b600061110682610d5c565b611145576040517f08c379a000000000000000000000000000000000000000000000000000000000815260040161113c90612570565b60405180910390fd5b6000611150836107da565b90508073ffffffffffffffffffffffffffffffffffffffff168473ffffffffffffffffffffffffffffffffffffffff1614806111bf57508373ffffffffffffffffffffffffffffffffffffffff166111a784610509565b73ffffffffffffffffffffffffffffffffffffffff16145b806111d057506111cf8185610b66565b5b91505092915050565b8273ffffffffffffffffffffffffffffffffffffffff166111f9826107da565b73ffffffffffffffffffffffffffffffffffffffff161461124f576040517f08c379a0000000000000000000000000000000000000000000000000000000008152600401611246906124f0565b60405180910390fd5b600073ffffffffffffffffffffffffffffffffffffffff168273ffffffffffffffffffffffffffffffffffffffff1614156112bf576040517f08c379a00000000000000000000000000000000000000000000000000000000081526004016112b690612530565b60405180910390fd5b6112ca838383611821565b6112d5600082610dd0565b6001600360008573ffffffffffffffffffffffffffffffffffffffff1673ffffffffffffffffffffffffffffffffffffffff1681526020019081526020016000206000828254611325919061285c565b925050819055506001600360008473ffffffffffffffffffffffffffffffffffffffff1673ffffffffffffffffffffffffffffffffffffffff168152602001908152602001600020600082825461137c91906127d5565b92505081905550816002600083815260200190815260200160002060006101000a81548173ffffffffffffffffffffffffffffffffffffffff021916908373ffffffffffffffffffffffffffffffffffffffff160217905550808273ffffffffffffffffffffffffffffffffffffffff168473ffffffffffffffffffffffffffffffffffffffff167fddf252ad1be2c89b69c2b068fc378daa952ba7f163c4a11628f55a4df523b3ef60405160405180910390a461143b838383611826565b505050565b6000600760009054906101000a900473ffffffffffffffffffffffffffffffffffffffff16905081600760006101000a81548173ffffffffffffffffffffffffffffffffffffffff021916908373ffffffffffffffffffffffffffffffffffffffff1602179055508173ffffffffffffffffffffffffffffffffffffffff168173ffffffffffffffffffffffffffffffffffffffff167f8be0079c531659141344cd1fd0a4f28419497f9722a3daafe3b4186f6b6457e060405160405180910390a35050565b8173ffffffffffffffffffffffffffffffffffffffff168373ffffffffffffffffffffffffffffffffffffffff161415611575576040517f08c379a000000000000000000000000000000000000000000000000000000000815260040161156c90612550565b60405180910390fd5b80600560008573ffffffffffffffffffffffffffffffffffffffff1673ffffffffffffffffffffffffffffffffffffffff16815260200190815260200160002060008473ffffffffffffffffffffffffffffffffffffffff1673ffffffffffffffffffffffffffffffffffffffff16815260200190815260200160002060006101000a81548160ff0219169083151502179055508173ffffffffffffffffffffffffffffffffffffffff168373ffffffffffffffffffffffffffffffffffffffff167f17307eab39ab6107e8899845ad3d59bd9653f200f220920489ca2b5937696c31836040516116669190612473565b60405180910390a3505050565b61167e8484846111d9565b61168a8484848461182b565b6116c9576040517f08c379a00000000000000000000000000000000000000000000000000000000081526004016116c0906124b0565b60405180910390fd5b50505050565b60606116da82610d5c565b611719576040517f08c379a000000000000000000000000000000000000000000000000000000000815260040161171090612630565b60405180910390fd5b600060066000848152602001908152602001600020805461173990612946565b80601f016020809104026020016040519081016040528092919081815260200182805461176590612946565b80156117b25780601f10611787576101008083540402835291602001916117b2565b820191906000526020600020905b81548152906001019060200180831161179557829003601f168201915b5050505050905060006117c36119c2565b90506000815114156117d957819250505061181c565b60008251111561180e5780826040516020016117f69291906123e8565b6040516020818303038152906040529250505061181c565b611817846119d9565b925050505b919050565b505050565b505050565b600061184c8473ffffffffffffffffffffffffffffffffffffffff16611a80565b156119b5578373ffffffffffffffffffffffffffffffffffffffff1663150b7a02611875610dc8565b8786866040518563ffffffff1660e01b81526004016118979493929190612427565b602060405180830381600087803b1580156118b157600080fd5b505af19250505080156118e257506040513d601f19601f820116820180604052508101906118df9190612050565b60015b611965573d8060008114611912576040519150601f19603f3d011682016040523d82523d6000602084013e611917565b606091505b5060008151141561195d576040517f08c379a0000000000000000000000000000000000000000000000000000000008152600401611954906124b0565b60405180910390fd5b805181602001fd5b63150b7a0260e01b7bffffffffffffffffffffffffffffffffffffffffffffffffffffffff1916817bffffffffffffffffffffffffffffffffffffffffffffffffffffffff1916149150506119ba565b600190505b949350505050565b606060405180602001604052806000815250905090565b60606119e482610d5c565b611a23576040517f08c379a0000000000000000000000000000000000000000000000000000000008152600401611a1a90612690565b60405180910390fd5b6000611a2d6119c2565b90506000815111611a4d5760405180602001604052806000815250611a78565b80611a5784611aa3565b604051602001611a689291906123e8565b6040516020818303038152906040525b915050919050565b6000808273ffffffffffffffffffffffffffffffffffffffff163b119050919050565b60606000821415611aeb576040518060400160405280600181526020017f30000000000000000000000000000000000000000000000000000000000000008152509050611c4b565b600082905060005b60008214611b1d578080611b06906129a9565b915050600a82611b16919061282b565b9150611af3565b60008167ffffffffffffffff811115611b5f577f4e487b7100000000000000000000000000000000000000000000000000000000600052604160045260246000fd5b6040519080825280601f01601f191660200182016040528015611b915781602001600182028036833780820191505090505b5090505b60008514611c4457600182611baa919061285c565b9150600a85611bb991906129f2565b6030611bc591906127d5565b60f81b818381518110611c01577f4e487b7100000000000000000000000000000000000000000000000000000000600052603260045260246000fd5b60200101907effffffffffffffffffffffffffffffffffffffffffffffffffffffffffffff1916908160001a905350600a85611c3d919061282b565b9450611b95565b8093505050505b919050565b828054611c5c90612946565b90600052602060002090601f016020900481019282611c7e5760008555611cc5565b82601f10611c9757805160ff1916838001178555611cc5565b82800160010185558215611cc5579182015b82811115611cc4578251825591602001919060010190611ca9565b5b509050611cd29190611cd6565b5090565b5b80821115611cef576000816000905550600101611cd7565b5090565b6000611d06611d0184612730565b61270b565b905082815260208101848484011115611d1e57600080fd5b611d29848285612904565b509392505050565b6000611d44611d3f84612761565b61270b565b905082815260208101848484011115611d5c57600080fd5b611d67848285612904565b509392505050565b600081359050611d7e81612fe6565b92915050565b600081359050611d9381612ffd565b92915050565b600081359050611da881613014565b92915050565b600081519050611dbd81613014565b92915050565b600082601f830112611dd457600080fd5b8135611de4848260208601611cf3565b91505092915050565b600082601f830112611dfe57600080fd5b8135611e0e848260208601611d31565b91505092915050565b600081359050611e268161302b565b92915050565b600060208284031215611e3e57600080fd5b6000611e4c84828501611d6f565b91505092915050565b60008060408385031215611e6857600080fd5b6000611e7685828601611d6f565b9250506020611e8785828601611d6f565b9150509250929050565b600080600060608486031215611ea657600080fd5b6000611eb486828701611d6f565b9350506020611ec586828701611d6f565b9250506040611ed686828701611e17565b9150509250925092565b60008060008060808587031215611ef657600080fd5b6000611f0487828801611d6f565b9450506020611f1587828801611d6f565b9350506040611f2687828801611e17565b925050606085013567ffffffffffffffff811115611f4357600080fd5b611f4f87828801611dc3565b91505092959194509250565b60008060408385031215611f6e57600080fd5b6000611f7c85828601611d6f565b9250506020611f8d85828601611d84565b9150509250929050565b60008060408385031215611faa57600080fd5b6000611fb885828601611d6f565b925050602083013567ffffffffffffffff811115611fd557600080fd5b611fe185828601611ded565b9150509250929050565b60008060408385031215611ffe57600080fd5b600061200c85828601611d6f565b925050602061201d85828601611e17565b9150509250929050565b60006020828403121561203957600080fd5b600061204784828501611d99565b91505092915050565b60006020828403121561206257600080fd5b600061207084828501611dae565b91505092915050565b60006020828403121561208b57600080fd5b600061209984828501611e17565b91505092915050565b6120ab81612890565b82525050565b6120ba816128a2565b82525050565b60006120cb82612792565b6120d581856127a8565b93506120e5818560208601612913565b6120ee81612adf565b840191505092915050565b60006121048261279d565b61210e81856127b9565b935061211e818560208601612913565b61212781612adf565b840191505092915050565b600061213d8261279d565b61214781856127ca565b9350612157818560208601612913565b80840191505092915050565b60006121706032836127b9565b915061217b82612af0565b604082019050919050565b60006121936026836127b9565b915061219e82612b3f565b604082019050919050565b60006121b66025836127b9565b91506121c182612b8e565b604082019050919050565b60006121d9601c836127b9565b91506121e482612bdd565b602082019050919050565b60006121fc6024836127b9565b915061220782612c06565b604082019050919050565b600061221f6019836127b9565b915061222a82612c55565b602082019050919050565b6000612242602c836127b9565b915061224d82612c7e565b604082019050919050565b60006122656038836127b9565b915061227082612ccd565b604082019050919050565b6000612288602a836127b9565b915061229382612d1c565b604082019050919050565b60006122ab6029836127b9565b91506122b682612d6b565b604082019050919050565b60006122ce602e836127b9565b91506122d982612dba565b604082019050919050565b60006122f16020836127b9565b91506122fc82612e09565b602082019050919050565b60006123146031836127b9565b915061231f82612e32565b604082019050919050565b6000612337602c836127b9565b915061234282612e81565b604082019050919050565b600061235a6020836127b9565b915061236582612ed0565b602082019050919050565b600061237d602f836127b9565b915061238882612ef9565b604082019050919050565b60006123a06021836127b9565b91506123ab82612f48565b604082019050919050565b60006123c36031836127b9565b91506123ce82612f97565b604082019050919050565b6123e2816128fa565b82525050565b60006123f48285612132565b91506124008284612132565b91508190509392505050565b600060208201905061242160008301846120a2565b92915050565b600060808201905061243c60008301876120a2565b61244960208301866120a2565b61245660408301856123d9565b818103606083015261246881846120c0565b905095945050505050565b600060208201905061248860008301846120b1565b92915050565b600060208201905081810360008301526124a881846120f9565b905092915050565b600060208201905081810360008301526124c981612163565b9050919050565b600060208201905081810360008301526124e981612186565b9050919050565b60006020820190508181036000830152612509816121a9565b9050919050565b60006020820190508181036000830152612529816121cc565b9050919050565b60006020820190508181036000830152612549816121ef565b9050919050565b6000602082019050818103600083015261256981612212565b9050919050565b6000602082019050818103600083015261258981612235565b9050919050565b600060208201905081810360008301526125a981612258565b9050919050565b600060208201905081810360008301526125c98161227b565b9050919050565b600060208201905081810360008301526125e98161229e565b9050919050565b60006020820190508181036000830152612609816122c1565b9050919050565b60006020820190508181036000830152612629816122e4565b9050919050565b6000602082019050818103600083015261264981612307565b9050919050565b600060208201905081810360008301526126698161232a565b9050919050565b600060208201905081810360008301526126898161234d565b9050919050565b600060208201905081810360008301526126a981612370565b9050919050565b600060208201905081810360008301526126c981612393565b9050919050565b600060208201905081810360008301526126e9816123b6565b9050919050565b600060208201905061270560008301846123d9565b92915050565b6000612715612726565b90506127218282612978565b919050565b6000604051905090565b600067ffffffffffffffff82111561274b5761274a612ab0565b5b61275482612adf565b9050602081019050919050565b600067ffffffffffffffff82111561277c5761277b612ab0565b5b61278582612adf565b9050602081019050919050565b600081519050919050565b600081519050919050565b600082825260208201905092915050565b600082825260208201905092915050565b600081905092915050565b60006127e0826128fa565b91506127eb836128fa565b9250827fffffffffffffffffffffffffffffffffffffffffffffffffffffffffffffffff038211156128205761281f612a23565b5b828201905092915050565b6000612836826128fa565b9150612841836128fa565b92508261285157612850612a52565b5b828204905092915050565b6000612867826128fa565b9150612872836128fa565b92508282101561288557612884612a23565b5b828203905092915050565b600061289b826128da565b9050919050565b60008115159050919050565b60007fffffffff0000000000000000000000000000000000000000000000000000000082169050919050565b600073ffffffffffffffffffffffffffffffffffffffff82169050919050565b6000819050919050565b82818337600083830152505050565b60005b83811015612931578082015181840152602081019050612916565b83811115612940576000848401525b50505050565b6000600282049050600182168061295e57607f821691505b6020821081141561297257612971612a81565b5b50919050565b61298182612adf565b810181811067ffffffffffffffff821117156129a05761299f612ab0565b5b80604052505050565b60006129b4826128fa565b91507fffffffffffffffffffffffffffffffffffffffffffffffffffffffffffffffff8214156129e7576129e6612a23565b5b600182019050919050565b60006129fd826128fa565b9150612a08836128fa565b925082612a1857612a17612a52565b5b828206905092915050565b7f4e487b7100000000000000000000000000000000000000000000000000000000600052601160045260246000fd5b7f4e487b7100000000000000000000000000000000000000000000000000000000600052601260045260246000fd5b7f4e487b7100000000000000000000000000000000000000000000000000000000600052602260045260246000fd5b7f4e487b7100000000000000000000000000000000000000000000000000000000600052604160045260246000fd5b6000601f19601f8301169050919050565b7f4552433732313a207472616e7366657220746f206e6f6e20455243373231526560008201527f63656976657220696d706c656d656e7465720000000000000000000000000000602082015250565b7f4f776e61626c653a206e6577206f776e657220697320746865207a65726f206160008201527f6464726573730000000000000000000000000000000000000000000000000000602082015250565b7f4552433732313a207472616e736665722066726f6d20696e636f72726563742060008201527f6f776e6572000000000000000000000000000000000000000000000000000000602082015250565b7f4552433732313a20746f6b656e20616c7265616479206d696e74656400000000600082015250565b7f4552433732313a207472616e7366657220746f20746865207a65726f2061646460008201527f7265737300000000000000000000000000000000000000000000000000000000602082015250565b7f4552433732313a20617070726f766520746f2063616c6c657200000000000000600082015250565b7f4552433732313a206f70657261746f7220717565727920666f72206e6f6e657860008201527f697374656e7420746f6b656e0000000000000000000000000000000000000000602082015250565b7f4552433732313a20617070726f76652063616c6c6572206973206e6f74206f7760008201527f6e6572206e6f7220617070726f76656420666f7220616c6c0000000000000000602082015250565b7f4552433732313a2062616c616e636520717565727920666f7220746865207a6560008201527f726f206164647265737300000000000000000000000000000000000000000000602082015250565b7f4552433732313a206f776e657220717565727920666f72206e6f6e657869737460008201527f656e7420746f6b656e0000000000000000000000000000000000000000000000602082015250565b7f45524337323155524953746f726167653a2055524920736574206f66206e6f6e60008201527f6578697374656e7420746f6b656e000000000000000000000000000000000000602082015250565b7f4552433732313a206d696e7420746f20746865207a65726f2061646472657373600082015250565b7f45524337323155524953746f726167653a2055524920717565727920666f722060008201527f6e6f6e6578697374656e7420746f6b656e000000000000000000000000000000602082015250565b7f4552433732313a20617070726f76656420717565727920666f72206e6f6e657860008201527f697374656e7420746f6b656e0000000000000000000000000000000000000000602082015250565b7f4f776e61626c653a2063616c6c6572206973206e6f7420746865206f776e6572600082015250565b7f4552433732314d657461646174613a2055524920717565727920666f72206e6f60008201527f6e6578697374656e7420746f6b656e0000000000000000000000000000000000602082015250565b7f4552433732313a20617070726f76616c20746f2063757272656e74206f776e6560008201527f7200000000000000000000000000000000000000000000000000000000000000602082015250565b7f4552433732313a207472616e736665722063616c6c6572206973206e6f74206f60008201527f776e6572206e6f7220617070726f766564000000000000000000000000000000602082015250565b612fef81612890565b8114612ffa57600080fd5b50565b613006816128a2565b811461301157600080fd5b50565b61301d816128ae565b811461302857600080fd5b50565b613034816128fa565b811461303f57600080fd5b5056fea2646970667358221220d42df1f785b0d10a974005c01c965b892c3b88eb7df8e6a7e357579accd43ab464736f6c63430008040033",
  "linkReferences": {},
  "deployedLinkReferences": {}
}