{
  "_format": "hh-sol-artifact-1",
  "contractName": "GratitudeContract",
  "sourceName": "contracts/GratitudeContract.sol",
  "abi": [
    {
      "inputs": [],
      "stateMutability": "nonpayable",
      "type": "constructor"
    },
    {
      "anonymous": false,
      "inputs": [
        {
          "indexed": true,
          "internalType": "address",
          "name": "owner",
          "type": "address"
        },
        {
          "indexed": true,
          "internalType": "address",
          "name": "approved",
          "type": "address"
        },
        {
          "indexed": true,
          "internalType": "uint256",
          "name": "tokenId",
          "type": "uint256"
        }
      ],
      "name": "Approval",
      "type": "event"
    },
    {
      "anonymous": false,
      "inputs": [
        {
          "indexed": true,
          "internalType": "address",
          "name": "owner",
          "type": "address"
        },
        {
          "indexed": true,
          "internalType": "address",
          "name": "operator",
          "type": "address"
        },
        {
          "indexed": false,
          "internalType": "bool",
          "name": "approved",
          "type": "bool"
        }
      ],
      "name": "ApprovalForAll",
      "type": "event"
    },
    {
      "anonymous": false,
      "inputs": [
        {
          "indexed": true,
          "internalType": "address",
          "name": "previousOwner",
          "type": "address"
        },
        {
          "indexed": true,
          "internalType": "address",
          "name": "newOwner",
          "type": "address"
        }
      ],
      "name": "OwnershipTransferred",
      "type": "event"
    },
    {
      "anonymous": false,
      "inputs": [
        {
          "indexed": true,
          "internalType": "address",
          "name": "from",
          "type": "address"
        },
        {
          "indexed": true,
          "internalType": "address",
          "name": "to",
          "type": "address"
        },
        {
          "indexed": true,
          "internalType": "uint256",
          "name": "tokenId",
          "type": "uint256"
        }
      ],
      "name": "Transfer",
      "type": "event"
    },
    {
      "inputs": [],
      "name": "_tokenIds",
      "outputs": [
        {
          "internalType": "uint256",
          "name": "_value",
          "type": "uint256"
        }
      ],
      "stateMutability": "view",
      "type": "function"
    },
    {
      "inputs": [
        {
          "internalType": "string",
          "name": "_linkCode",
          "type": "string"
        }
      ],
      "name": "acceptLinkHash",
      "outputs": [],
      "stateMutability": "nonpayable",
      "type": "function"
    },
    {
      "inputs": [
        {
          "internalType": "address",
          "name": "to",
          "type": "address"
        },
        {
          "internalType": "uint256",
          "name": "tokenId",
          "type": "uint256"
        }
      ],
      "name": "approve",
      "outputs": [],
      "stateMutability": "nonpayable",
      "type": "function"
    },
    {
      "inputs": [
        {
          "internalType": "address",
          "name": "owner",
          "type": "address"
        }
      ],
      "name": "balanceOf",
      "outputs": [
        {
          "internalType": "uint256",
          "name": "",
          "type": "uint256"
        }
      ],
      "stateMutability": "view",
      "type": "function"
    },
    {
      "inputs": [
        {
          "internalType": "uint256",
          "name": "_tokenId",
          "type": "uint256"
        }
      ],
      "name": "cancelWhenStillPending",
      "outputs": [],
      "stateMutability": "nonpayable",
      "type": "function"
    },
    {
      "inputs": [
        {
          "internalType": "uint256",
          "name": "_tokenId",
          "type": "uint256"
        }
      ],
      "name": "checkPendingStatusPriorToGet",
      "outputs": [],
      "stateMutability": "nonpayable",
      "type": "function"
    },
    {
      "inputs": [
        {
          "internalType": "uint256",
          "name": "_status",
          "type": "uint256"
        },
        {
          "internalType": "address",
          "name": "_receiver",
          "type": "address"
        },
        {
          "components": [
            {
              "internalType": "uint8",
              "name": "lat",
              "type": "uint8"
            },
            {
              "internalType": "uint8",
              "name": "lng",
              "type": "uint8"
            }
          ],
          "internalType": "struct GratitudeContract.GEO",
          "name": "_geo",
          "type": "tuple"
        },
        {
          "internalType": "uint256",
          "name": "_timeStamp",
          "type": "uint256"
        },
        {
          "internalType": "string",
          "name": "_tokenUri",
          "type": "string"
        },
        {
          "internalType": "string",
          "name": "_linkCode",
          "type": "string"
        }
      ],
      "name": "createGratitudeToken",
      "outputs": [],
      "stateMutability": "nonpayable",
      "type": "function"
    },
    {
      "inputs": [
        {
          "internalType": "uint256",
          "name": "tokenId",
          "type": "uint256"
        }
      ],
      "name": "getApproved",
      "outputs": [
        {
          "internalType": "address",
          "name": "",
          "type": "address"
        }
      ],
      "stateMutability": "view",
      "type": "function"
    },
    {
      "inputs": [],
      "name": "getCreatorTokens",
      "outputs": [
        {
          "components": [
            {
              "internalType": "address",
              "name": "receiver",
              "type": "address"
            },
            {
              "internalType": "uint256",
              "name": "tokenId",
              "type": "uint256"
            },
            {
              "internalType": "enum GratitudeContract.NFTStatus",
              "name": "status",
              "type": "uint8"
            },
            {
              "components": [
                {
                  "internalType": "uint8",
                  "name": "lat",
                  "type": "uint8"
                },
                {
                  "internalType": "uint8",
                  "name": "lng",
                  "type": "uint8"
                }
              ],
              "internalType": "struct GratitudeContract.GEO",
              "name": "geo",
              "type": "tuple"
            },
            {
              "internalType": "uint256",
              "name": "timeStamp",
              "type": "uint256"
            },
            {
              "internalType": "string",
              "name": "tokenUri",
              "type": "string"
            },
            {
              "internalType": "bytes32",
              "name": "linkCode",
              "type": "bytes32"
            }
          ],
          "internalType": "struct GratitudeContract.NFT[]",
          "name": "",
          "type": "tuple[]"
        }
      ],
      "stateMutability": "view",
      "type": "function"
    },
    {
      "inputs": [
        {
          "internalType": "string",
          "name": "_linkCode",
          "type": "string"
        }
      ],
      "name": "getGratitudeNFtByLinkCode",
      "outputs": [
        {
          "components": [
            {
              "internalType": "address",
              "name": "receiver",
              "type": "address"
            },
            {
              "internalType": "uint256",
              "name": "tokenId",
              "type": "uint256"
            },
            {
              "internalType": "enum GratitudeContract.NFTStatus",
              "name": "status",
              "type": "uint8"
            },
            {
              "components": [
                {
                  "internalType": "uint8",
                  "name": "lat",
                  "type": "uint8"
                },
                {
                  "internalType": "uint8",
                  "name": "lng",
                  "type": "uint8"
                }
              ],
              "internalType": "struct GratitudeContract.GEO",
              "name": "geo",
              "type": "tuple"
            },
            {
              "internalType": "uint256",
              "name": "timeStamp",
              "type": "uint256"
            },
            {
              "internalType": "string",
              "name": "tokenUri",
              "type": "string"
            },
            {
              "internalType": "bytes32",
              "name": "linkCode",
              "type": "bytes32"
            }
          ],
          "internalType": "struct GratitudeContract.NFT",
          "name": "",
          "type": "tuple"
        }
      ],
      "stateMutability": "view",
      "type": "function"
    },
    {
      "inputs": [],
      "name": "getOwnedTokens",
      "outputs": [
        {
          "internalType": "string[]",
          "name": "",
          "type": "string[]"
        }
      ],
      "stateMutability": "view",
      "type": "function"
    },
    {
      "inputs": [
        {
          "internalType": "uint256",
          "name": "_tokenId",
          "type": "uint256"
        }
      ],
      "name": "getStatus",
      "outputs": [
        {
          "internalType": "enum GratitudeContract.NFTStatus",
          "name": "",
          "type": "uint8"
        }
      ],
      "stateMutability": "view",
      "type": "function"
    },
    {
      "inputs": [
        {
          "internalType": "address",
          "name": "owner",
          "type": "address"
        },
        {
          "internalType": "address",
          "name": "operator",
          "type": "address"
        }
      ],
      "name": "isApprovedForAll",
      "outputs": [
        {
          "internalType": "bool",
          "name": "",
          "type": "bool"
        }
      ],
      "stateMutability": "view",
      "type": "function"
    },
    {
      "inputs": [],
      "name": "name",
      "outputs": [
        {
          "internalType": "string",
          "name": "",
          "type": "string"
        }
      ],
      "stateMutability": "view",
      "type": "function"
    },
    {
      "inputs": [],
      "name": "owner",
      "outputs": [
        {
          "internalType": "address",
          "name": "",
          "type": "address"
        }
      ],
      "stateMutability": "view",
      "type": "function"
    },
    {
      "inputs": [
        {
          "internalType": "uint256",
          "name": "tokenId",
          "type": "uint256"
        }
      ],
      "name": "ownerOf",
      "outputs": [
        {
          "internalType": "address",
          "name": "",
          "type": "address"
        }
      ],
      "stateMutability": "view",
      "type": "function"
    },
    {
      "inputs": [
        {
          "internalType": "string",
          "name": "_linkCode",
          "type": "string"
        }
      ],
      "name": "rejectGratitudeNFTbyLinkCode",
      "outputs": [],
      "stateMutability": "nonpayable",
      "type": "function"
    },
    {
      "inputs": [],
      "name": "renounceOwnership",
      "outputs": [],
      "stateMutability": "nonpayable",
      "type": "function"
    },
    {
      "inputs": [
        {
          "internalType": "uint256",
          "name": "_tokenId",
          "type": "uint256"
        },
        {
          "internalType": "address",
          "name": "_receiver",
          "type": "address"
        },
        {
          "internalType": "string",
          "name": "_linkCode",
          "type": "string"
        }
      ],
      "name": "resendWhenTimeOutOrRejectedOrStandby",
      "outputs": [],
      "stateMutability": "nonpayable",
      "type": "function"
    },
    {
      "inputs": [
        {
          "internalType": "address",
          "name": "from",
          "type": "address"
        },
        {
          "internalType": "address",
          "name": "to",
          "type": "address"
        },
        {
          "internalType": "uint256",
          "name": "tokenId",
          "type": "uint256"
        }
      ],
      "name": "safeTransferFrom",
      "outputs": [],
      "stateMutability": "nonpayable",
      "type": "function"
    },
    {
      "inputs": [
        {
          "internalType": "address",
          "name": "from",
          "type": "address"
        },
        {
          "internalType": "address",
          "name": "to",
          "type": "address"
        },
        {
          "internalType": "uint256",
          "name": "tokenId",
          "type": "uint256"
        },
        {
          "internalType": "bytes",
          "name": "_data",
          "type": "bytes"
        }
      ],
      "name": "safeTransferFrom",
      "outputs": [],
      "stateMutability": "nonpayable",
      "type": "function"
    },
    {
      "inputs": [
        {
          "internalType": "address",
          "name": "operator",
          "type": "address"
        },
        {
          "internalType": "bool",
          "name": "approved",
          "type": "bool"
        }
      ],
      "name": "setApprovalForAll",
      "outputs": [],
      "stateMutability": "nonpayable",
      "type": "function"
    },
    {
      "inputs": [
        {
          "internalType": "bytes4",
          "name": "interfaceId",
          "type": "bytes4"
        }
      ],
      "name": "supportsInterface",
      "outputs": [
        {
          "internalType": "bool",
          "name": "",
          "type": "bool"
        }
      ],
      "stateMutability": "view",
      "type": "function"
    },
    {
      "inputs": [],
      "name": "symbol",
      "outputs": [
        {
          "internalType": "string",
          "name": "",
          "type": "string"
        }
      ],
      "stateMutability": "view",
      "type": "function"
    },
    {
      "inputs": [
        {
          "internalType": "uint256",
          "name": "index",
          "type": "uint256"
        }
      ],
      "name": "tokenByIndex",
      "outputs": [
        {
          "internalType": "uint256",
          "name": "",
          "type": "uint256"
        }
      ],
      "stateMutability": "view",
      "type": "function"
    },
    {
      "inputs": [
        {
          "internalType": "address",
          "name": "owner",
          "type": "address"
        },
        {
          "internalType": "uint256",
          "name": "index",
          "type": "uint256"
        }
      ],
      "name": "tokenOfOwnerByIndex",
      "outputs": [
        {
          "internalType": "uint256",
          "name": "",
          "type": "uint256"
        }
      ],
      "stateMutability": "view",
      "type": "function"
    },
    {
      "inputs": [
        {
          "internalType": "uint256",
          "name": "tokenId",
          "type": "uint256"
        }
      ],
      "name": "tokenURI",
      "outputs": [
        {
          "internalType": "string",
          "name": "",
          "type": "string"
        }
      ],
      "stateMutability": "view",
      "type": "function"
    },
    {
      "inputs": [],
      "name": "totalSupply",
      "outputs": [
        {
          "internalType": "uint256",
          "name": "",
          "type": "uint256"
        }
      ],
      "stateMutability": "view",
      "type": "function"
    },
    {
      "inputs": [
        {
          "internalType": "address",
          "name": "from",
          "type": "address"
        },
        {
          "internalType": "address",
          "name": "to",
          "type": "address"
        },
        {
          "internalType": "uint256",
          "name": "tokenId",
          "type": "uint256"
        }
      ],
      "name": "transferFrom",
      "outputs": [],
      "stateMutability": "nonpayable",
      "type": "function"
    },
    {
      "inputs": [
        {
          "internalType": "address",
          "name": "newOwner",
          "type": "address"
        }
      ],
      "name": "transferOwnership",
      "outputs": [],
      "stateMutability": "nonpayable",
      "type": "function"
    }
  ],
  "bytecode": "0x60806040523480156200001157600080fd5b50604080518082018252600d81526c11d49055125515511148139195609a1b60208083019182528351808501909452600384526247524160e81b9084015281519192916200006291600091620000f1565b50805162000078906001906020840190620000f1565b505050620000956200008f6200009b60201b60201c565b6200009f565b620001d4565b3390565b600680546001600160a01b038381166001600160a01b0319831681179093556040519116919082907f8be0079c531659141344cd1fd0a4f28419497f9722a3daafe3b4186f6b6457e090600090a35050565b828054620000ff9062000197565b90600052602060002090601f0160209004810192826200012357600085556200016e565b82601f106200013e57805160ff19168380011785556200016e565b828001600101855582156200016e579182015b828111156200016e57825182559160200191906001019062000151565b506200017c92915062000180565b5090565b5b808211156200017c576000815560010162000181565b600181811c90821680620001ac57607f821691505b60208210811415620001ce57634e487b7160e01b600052602260045260246000fd5b50919050565b612e4d80620001e46000396000f3fe608060405234801561001057600080fd5b50600436106101da5760003560e01c806370a08231116101045780639896c56b116100a2578063b88d4fde11610071578063b88d4fde1461040d578063c87b56dd14610420578063e985e9c514610433578063f2fde38b1461046f57600080fd5b80639896c56b146103ca578063a22cb465146103dd578063aa46a400146103f0578063b4673482146103fa57600080fd5b806385df97dc116100de57806385df97dc146103895780638d8168111461039c5780638da5cb5b146103b157806395d89b41146103c257600080fd5b806370a082311461035b578063715018a61461036e5780637528f2b11461037657600080fd5b80632f745c591161017c5780635c622a0e1161014b5780635c622a0e146102e057806360820d80146103135780636352211e1461032857806368fb8fc01461033b57600080fd5b80632f745c591461029457806342842e0e146102a75780634d118973146102ba5780634f6ccce7146102cd57600080fd5b8063095ea7b3116101b8578063095ea7b31461024757806318160ddd1461025c5780631a554c581461026e57806323b872dd1461028157600080fd5b806301ffc9a7146101df57806306fdde0314610207578063081812fc1461021c575b600080fd5b6101f26101ed36600461288f565b610482565b60405190151581526020015b60405180910390f35b61020f6104d4565b6040516101fe9190612c45565b61022f61022a3660046128fa565b610566565b6040516001600160a01b0390911681526020016101fe565b61025a610255366004612866565b610600565b005b600f545b6040519081526020016101fe565b61025a61027c3660046128fa565b610716565b61025a61028f366004612778565b6107dc565b6102606102a2366004612866565b6108b1565b61025a6102b5366004612778565b610947565b61025a6102c83660046128c7565b610962565b6102606102db3660046128fa565b610a80565b6103066102ee3660046128fa565b60009081526008602052604090206002015460ff1690565b6040516101fe9190612c37565b61031b610b21565b6040516101fe9190612b82565b61022f6103363660046128fa565b610c87565b61034e6103493660046128c7565b610cfe565b6040516101fe9190612caa565b61026061036936600461272c565b610e93565b61025a610f1a565b61025a610384366004612912565b610f80565b61025a6103973660046128fa565b611104565b6103a46111f1565b6040516101fe9190612be3565b6006546001600160a01b031661022f565b61020f611412565b61025a6103d83660046128c7565b611421565b61025a6103eb36600461282c565b6114fb565b6007546102609081565b61025a610408366004612967565b611506565b61025a61041b3660046127b3565b6117a3565b61020f61042e3660046128fa565b611825565b6101f2610441366004612746565b6001600160a01b03918216600090815260056020908152604080832093909416825291909152205460ff1690565b61025a61047d36600461272c565b61190d565b60006001600160e01b031982166380ac58cd60e01b14806104b357506001600160e01b03198216635b5e139f60e01b145b806104ce57506301ffc9a760e01b6001600160e01b03198316145b92915050565b6060600080546104e390612d55565b80601f016020809104026020016040519081016040528092919081815260200182805461050f90612d55565b801561055c5780601f106105315761010080835404028352916020019161055c565b820191906000526020600020905b81548152906001019060200180831161053f57829003601f168201915b5050505050905090565b6000818152600260205260408120546001600160a01b03166105e45760405162461bcd60e51b815260206004820152602c60248201527f4552433732313a20617070726f76656420717565727920666f72206e6f6e657860448201526b34b9ba32b73a103a37b5b2b760a11b60648201526084015b60405180910390fd5b506000908152600460205260409020546001600160a01b031690565b600061060b82610c87565b9050806001600160a01b0316836001600160a01b031614156106795760405162461bcd60e51b815260206004820152602160248201527f4552433732313a20617070726f76616c20746f2063757272656e74206f776e656044820152603960f91b60648201526084016105db565b336001600160a01b038216148061069557506106958133610441565b6107075760405162461bcd60e51b815260206004820152603860248201527f4552433732313a20617070726f76652063616c6c6572206973206e6f74206f7760448201527f6e6572206e6f7220617070726f76656420666f7220616c6c000000000000000060648201526084016105db565b61071183836119d8565b505050565b600081815260086020526040812060040154429061073690610258612ce6565b1190508015816107795750600160008381526008602052604090206002015460ff16600581111561077757634e487b7160e01b600052602160045260246000fd5b145b801561079a57506000828152600860205260409020546001600160a01b0316155b80156107b65750336107ab83610c87565b6001600160a01b0316145b156107d8576000828152600860205260409020600201805460ff191660031790555b5050565b6107e63382611a46565b8061080757506000818152600c60205260409020546001600160a01b031633145b61088b5760405162461bcd60e51b815260206004820152604960248201527f4552433732313a207472616e736665722063616c6c6572206973206e6f74206f60448201527f776e6572206e6f7220617070726f766564206f72204e4654206e6f7420796574606482015268081858d8d95c1d195960ba1b608482015260a4016105db565b610896838383611b7c565b61071183838360405180602001604052806000815250611c34565b60006108bc83610e93565b821061091e5760405162461bcd60e51b815260206004820152602b60248201527f455243373231456e756d657261626c653a206f776e657220696e646578206f7560448201526a74206f6620626f756e647360a81b60648201526084016105db565b506001600160a01b03919091166000908152600d60209081526040808320938352929052205490565b610711838383604051806020016040528060008152506117a3565b6000816040516020016109759190612afa565b60408051601f1981840301815291815281516020928301206000818152600b9093529082205490925033916109a982610c87565b6000838152600c60205260409020549091506001600160a01b03848116911614156109de576109d98184846107dc565b610a5e565b6000848152600b60205260409020546109f690611c67565b610a2c5760405162461bcd60e51b81526020600482015260076024820152661512535153d55560ca1b60448201526064016105db565b6000828152600c6020526040902080546001600160a01b0319166001600160a01b038516179055610a5e8184846107dc565b506000908152600860205260409020600201805460ff19166004179055505050565b6000610a8b600f5490565b8210610aee5760405162461bcd60e51b815260206004820152602c60248201527f455243373231456e756d657261626c653a20676c6f62616c20696e646578206f60448201526b7574206f6620626f756e647360a01b60648201526084016105db565b600f8281548110610b0f57634e487b7160e01b600052603260045260246000fd5b90600052602060002001549050919050565b60606000610b2e33610e93565b905060008167ffffffffffffffff811115610b5957634e487b7160e01b600052604160045260246000fd5b604051908082528060200260200182016040528015610b8c57816020015b6060815260200190600190039081610b775790505b50905060005b82811015610c805760086000610ba833846108b1565b81526020019081526020016000206005018054610bc490612d55565b80601f0160208091040260200160405190810160405280929190818152602001828054610bf090612d55565b8015610c3d5780601f10610c1257610100808354040283529160200191610c3d565b820191906000526020600020905b815481529060010190602001808311610c2057829003601f168201915b5050505050828281518110610c6257634e487b7160e01b600052603260045260246000fd5b60200260200101819052508080610c7890612d90565b915050610b92565b5092915050565b6000818152600260205260408120546001600160a01b0316806104ce5760405162461bcd60e51b815260206004820152602960248201527f4552433732313a206f776e657220717565727920666f72206e6f6e657869737460448201526832b73a103a37b5b2b760b91b60648201526084016105db565b610d06612585565b600082604051602001610d199190612afa565b60408051601f1981840301815282825280516020918201206000818152600b835283812054808252600884529084902060e08601855280546001600160a01b031686526001810154938601939093526002830154919550939283019060ff166005811115610d9757634e487b7160e01b600052602160045260246000fd5b6005811115610db657634e487b7160e01b600052602160045260246000fd5b8152604080518082018252600384015460ff808216835261010090910416602082810191909152830152600483015490820152600582018054606090920191610dfe90612d55565b80601f0160208091040260200160405190810160405280929190818152602001828054610e2a90612d55565b8015610e775780601f10610e4c57610100808354040283529160200191610e77565b820191906000526020600020905b815481529060010190602001808311610e5a57829003601f168201915b5050505050815260200160068201548152505092505050919050565b60006001600160a01b038216610efe5760405162461bcd60e51b815260206004820152602a60248201527f4552433732313a2062616c616e636520717565727920666f7220746865207a65604482015269726f206164647265737360b01b60648201526084016105db565b506001600160a01b031660009081526003602052604090205490565b6006546001600160a01b03163314610f745760405162461bcd60e51b815260206004820181905260248201527f4f776e61626c653a2063616c6c6572206973206e6f7420746865206f776e657260448201526064016105db565b610f7e6000611cfe565b565b6000838152600860205260409020600281015460ff166005816005811115610fb857634e487b7160e01b600052602160045260246000fd5b1480610fe357506002816005811115610fe157634e487b7160e01b600052602160045260246000fd5b145b8061100d5750600381600581111561100b57634e487b7160e01b600052602160045260246000fd5b145b801561102957503361101e86610c87565b6001600160a01b0316145b6110895760405162461bcd60e51b815260206004820152602b60248201527f4e4654204953204e4f542052454a4543544544204e4f522054494d454f55542060448201526a4e4f52205354414e44425960a81b60648201526084016105db565b60028201805460ff191660011790556040516110a9908490602001612afa565b60408051601f19818403018152919052805160209091012060068301556001600160a01b038416156110fd576000858152600c6020526040902080546001600160a01b0319166001600160a01b0386161790555b5050505050565b3361110e82610c87565b6001600160a01b0316146111525760405162461bcd60e51b815260206004820152600b60248201526a2727aa1021a922a0aa27a960a91b60448201526064016105db565b600160008281526008602052604090206002015460ff16600581111561118857634e487b7160e01b600052602160045260246000fd5b146111d15760405162461bcd60e51b81526020600482015260196024820152784e4654204e4f5420494e2050454e44494e472053544154555360381b60448201526064016105db565b60009081526008602052604090206002908101805460ff19169091179055565b336000908152600a60205260408120546060918167ffffffffffffffff81111561122b57634e487b7160e01b600052604160045260246000fd5b60405190808252806020026020018201604052801561126457816020015b611251612585565b8152602001906001900390816112495790505b50905060005b82811015610c805760086000611281836001612ce6565b81526020808201929092526040908101600020815160e08101835281546001600160a01b031681526001820154938101939093526002810154909183019060ff1660058111156112e157634e487b7160e01b600052602160045260246000fd5b600581111561130057634e487b7160e01b600052602160045260246000fd5b8152604080518082018252600384015460ff80821683526101009091041660208281019190915283015260048301549082015260058201805460609092019161134890612d55565b80601f016020809104026020016040519081016040528092919081815260200182805461137490612d55565b80156113c15780601f10611396576101008083540402835291602001916113c1565b820191906000526020600020905b8154815290600101906020018083116113a457829003601f168201915b505050505081526020016006820154815250508282815181106113f457634e487b7160e01b600052603260045260246000fd5b6020026020010181905250808061140a90612d90565b91505061126a565b6060600180546104e390612d55565b6000816040516020016114349190612afa565b60408051601f1981840301815291815281516020928301206000818152600b909352912054909150600160008281526008602052604090206002015460ff16600581111561149257634e487b7160e01b600052602160045260246000fd5b146114db5760405162461bcd60e51b81526020600482015260196024820152784e4654204e4f5420494e2050454e44494e472053544154555360381b60448201526064016105db565b6000908152600860205260409020600201805460ff191660051790555050565b6107d8338383611d50565b8515806115135750856001145b6115775760405162461bcd60e51b815260206004820152602f60248201527f4f4e4c5920535441545553204452414654283029204f522050454e44494e472860448201526e0c4a48105491481050d0d154151151608a1b60648201526084016105db565b611585600780546001019055565b600061159060075490565b905060006040518060e00160405280886001600160a01b03168152602001838152602001600060058111156115d557634e487b7160e01b600052602160045260246000fd5b8152602001878152602001868152602001858152602001846040516020016115fd9190612afa565b60408051601f19818403018152918152815160209283012090925260c08301516000908152600b909152208390559050600188141561179957600160408201526116473383611e1f565b6020808201839052336000908152600a9091526040812080546001929061166f908490612ce6565b9091555050336000908152600960209081526040808320600a835281842054845282528083208590558483526008825291829020835181546001600160a01b0319166001600160a01b039091161781559083015160018083019190915591830151600282018054859460ff19909116908360058111156116ff57634e487b7160e01b600052602160045260246000fd5b02179055506060820151805160038301805460209384015160ff9081166101000261ffff199092169316929092179190911790556080830151600483015560a0830151805161175492600585019201906125d1565b5060c091909101516006909101556001600160a01b03871615611799576000828152600c6020526040902080546001600160a01b0319166001600160a01b0389161790555b5050505050505050565b6117ad3383611a46565b6118135760405162461bcd60e51b815260206004820152603160248201527f4552433732313a207472616e736665722063616c6c6572206973206e6f74206f6044820152701ddb995c881b9bdc88185c1c1c9bdd9959607a1b60648201526084016105db565b61181f84848484611c34565b50505050565b6000818152600260205260409020546060906001600160a01b03166118a45760405162461bcd60e51b815260206004820152602f60248201527f4552433732314d657461646174613a2055524920717565727920666f72206e6f60448201526e3732bc34b9ba32b73a103a37b5b2b760891b60648201526084016105db565b60006118bb60408051602081019091526000815290565b905060008151116118db5760405180602001604052806000815250611906565b806118e584611f6d565b6040516020016118f6929190612b16565b6040516020818303038152906040525b9392505050565b6006546001600160a01b031633146119675760405162461bcd60e51b815260206004820181905260248201527f4f776e61626c653a2063616c6c6572206973206e6f7420746865206f776e657260448201526064016105db565b6001600160a01b0381166119cc5760405162461bcd60e51b815260206004820152602660248201527f4f776e61626c653a206e6577206f776e657220697320746865207a65726f206160448201526564647265737360d01b60648201526084016105db565b6119d581611cfe565b50565b600081815260046020526040902080546001600160a01b0319166001600160a01b0384169081179091558190611a0d82610c87565b6001600160a01b03167f8c5be1e5ebec7d5bd14f71427d1e84f3dd0314c0f7b2291e5b200ac8c7c3b92560405160405180910390a45050565b6000818152600260205260408120546001600160a01b0316611abf5760405162461bcd60e51b815260206004820152602c60248201527f4552433732313a206f70657261746f7220717565727920666f72206e6f6e657860448201526b34b9ba32b73a103a37b5b2b760a11b60648201526084016105db565b6000611aca83610c87565b9050806001600160a01b0316846001600160a01b03161480611b055750836001600160a01b0316611afa84610566565b6001600160a01b0316145b80611b3557506001600160a01b0380821660009081526005602090815260408083209388168352929052205460ff165b8015611b745750600460008481526008602052604090206002015460ff166005811115611b7257634e487b7160e01b600052602160045260246000fd5b145b949350505050565b6001600160a01b038316611bd757611bd281600f80546000838152601060205260408120829055600182018355919091527f8d1108e10bcb7c27dddfc02ed9d693a074039d026cf4ea4240b40f7d581ac8020155565b611bfa565b816001600160a01b0316836001600160a01b031614611bfa57611bfa8382612087565b6001600160a01b038216611c115761071181612155565b826001600160a01b0316826001600160a01b03161461071157610711828261222e565b611c3f848484612272565b611c4b84848484612419565b61181f5760405162461bcd60e51b81526004016105db90612c58565b6000600160008381526008602052604090206002015460ff166005811115611c9f57634e487b7160e01b600052602160045260246000fd5b14611cac57506000919050565b6000828152600860205260408120600401544290611ccc90610258612ce6565b11905080611cf55750506000908152600860205260408120600201805460ff1916600317905590565b50600192915050565b600680546001600160a01b038381166001600160a01b0319831681179093556040519116919082907f8be0079c531659141344cd1fd0a4f28419497f9722a3daafe3b4186f6b6457e090600090a35050565b816001600160a01b0316836001600160a01b03161415611db25760405162461bcd60e51b815260206004820152601960248201527f4552433732313a20617070726f766520746f2063616c6c65720000000000000060448201526064016105db565b6001600160a01b03838116600081815260056020908152604080832094871680845294825291829020805460ff191686151590811790915591519182527f17307eab39ab6107e8899845ad3d59bd9653f200f220920489ca2b5937696c31910160405180910390a3505050565b6001600160a01b038216611e755760405162461bcd60e51b815260206004820181905260248201527f4552433732313a206d696e7420746f20746865207a65726f206164647265737360448201526064016105db565b6000818152600260205260409020546001600160a01b031615611eda5760405162461bcd60e51b815260206004820152601c60248201527f4552433732313a20746f6b656e20616c7265616479206d696e7465640000000060448201526064016105db565b611ee660008383611b7c565b6001600160a01b0382166000908152600360205260408120805460019290611f0f908490612ce6565b909155505060008181526002602052604080822080546001600160a01b0319166001600160a01b03861690811790915590518392907fddf252ad1be2c89b69c2b068fc378daa952ba7f163c4a11628f55a4df523b3ef908290a45050565b606081611f915750506040805180820190915260018152600360fc1b602082015290565b8160005b8115611fbb5780611fa581612d90565b9150611fb49050600a83612cfe565b9150611f95565b60008167ffffffffffffffff811115611fe457634e487b7160e01b600052604160045260246000fd5b6040519080825280601f01601f19166020018201604052801561200e576020820181803683370190505b5090505b8415611b7457612023600183612d12565b9150612030600a86612dab565b61203b906030612ce6565b60f81b81838151811061205e57634e487b7160e01b600052603260045260246000fd5b60200101906001600160f81b031916908160001a905350612080600a86612cfe565b9450612012565b6120b86040518060400160405280601081526020016f492073686f756c64206265206865726560801b815250612526565b600060016120c584610e93565b6120cf9190612d12565b6000838152600e6020526040902054909150808214612122576001600160a01b0384166000908152600d602090815260408083208584528252808320548484528184208190558352600e90915290208190555b506000918252600e602090815260408084208490556001600160a01b039094168352600d81528383209183525290812055565b600f5460009061216790600190612d12565b600083815260106020526040812054600f805493945090928490811061219d57634e487b7160e01b600052603260045260246000fd5b9060005260206000200154905080600f83815481106121cc57634e487b7160e01b600052603260045260246000fd5b600091825260208083209091019290925582815260109091526040808220849055858252812055600f80548061221257634e487b7160e01b600052603160045260246000fd5b6001900381819060005260206000200160009055905550505050565b600061223983610e93565b6001600160a01b039093166000908152600d602090815260408083208684528252808320859055938252600e9052919091209190915550565b826001600160a01b031661228582610c87565b6001600160a01b0316146122e95760405162461bcd60e51b815260206004820152602560248201527f4552433732313a207472616e736665722066726f6d20696e636f72726563742060448201526437bbb732b960d91b60648201526084016105db565b6001600160a01b03821661234b5760405162461bcd60e51b8152602060048201526024808201527f4552433732313a207472616e7366657220746f20746865207a65726f206164646044820152637265737360e01b60648201526084016105db565b612356838383611b7c565b6123616000826119d8565b6001600160a01b038316600090815260036020526040812080546001929061238a908490612d12565b90915550506001600160a01b03821660009081526003602052604081208054600192906123b8908490612ce6565b909155505060008181526002602052604080822080546001600160a01b0319166001600160a01b0386811691821790925591518493918716917fddf252ad1be2c89b69c2b068fc378daa952ba7f163c4a11628f55a4df523b3ef91a4505050565b60006001600160a01b0384163b1561251b57604051630a85bd0160e11b81526001600160a01b0385169063150b7a029061245d903390899088908890600401612b45565b602060405180830381600087803b15801561247757600080fd5b505af19250505080156124a7575060408051601f3d908101601f191682019092526124a4918101906128ab565b60015b612501573d8080156124d5576040519150601f19603f3d011682016040523d82523d6000602084013e6124da565b606091505b5080516124f95760405162461bcd60e51b81526004016105db90612c58565b805181602001fd5b6001600160e01b031916630a85bd0160e11b149050611b74565b506001949350505050565b6119d58160405160240161253a9190612c45565b60408051601f198184030181529190526020810180516001600160e01b031663104c13eb60e21b17905280516a636f6e736f6c652e6c6f67602083016000808483855afa5050505050565b6040805160e08101825260008082526020808301829052828401829052835180850190945281845283015290606082019081526000602082018190526060604083018190529091015290565b8280546125dd90612d55565b90600052602060002090601f0160209004810192826125ff5760008555612645565b82601f1061261857805160ff1916838001178555612645565b82800160010185558215612645579182015b8281111561264557825182559160200191906001019061262a565b50612651929150612655565b5090565b5b808211156126515760008155600101612656565b600067ffffffffffffffff8084111561268557612685612deb565b604051601f8501601f19908116603f011681019082821181831017156126ad576126ad612deb565b816040528093508581528686860111156126c657600080fd5b858560208301376000602087830101525050509392505050565b80356001600160a01b03811681146126f757600080fd5b919050565b600082601f83011261270c578081fd5b6119068383356020850161266a565b803560ff811681146126f757600080fd5b60006020828403121561273d578081fd5b611906826126e0565b60008060408385031215612758578081fd5b612761836126e0565b915061276f602084016126e0565b90509250929050565b60008060006060848603121561278c578081fd5b612795846126e0565b92506127a3602085016126e0565b9150604084013590509250925092565b600080600080608085870312156127c8578081fd5b6127d1856126e0565b93506127df602086016126e0565b925060408501359150606085013567ffffffffffffffff811115612801578182fd5b8501601f81018713612811578182fd5b6128208782356020840161266a565b91505092959194509250565b6000806040838503121561283e578182fd5b612847836126e0565b91506020830135801515811461285b578182fd5b809150509250929050565b60008060408385031215612878578182fd5b612881836126e0565b946020939093013593505050565b6000602082840312156128a0578081fd5b813561190681612e01565b6000602082840312156128bc578081fd5b815161190681612e01565b6000602082840312156128d8578081fd5b813567ffffffffffffffff8111156128ee578182fd5b611b74848285016126fc565b60006020828403121561290b578081fd5b5035919050565b600080600060608486031215612926578283fd5b83359250612936602085016126e0565b9150604084013567ffffffffffffffff811115612951578182fd5b61295d868287016126fc565b9150509250925092565b60008060008060008086880360e0811215612980578283fd5b87359650612990602089016126e0565b95506040603f19820112156129a3578283fd5b506129ac612cbd565b6129b86040890161271b565b81526129c66060890161271b565b602082015293506080870135925060a087013567ffffffffffffffff808211156129ee578384fd5b6129fa8a838b016126fc565b935060c0890135915080821115612a0f578283fd5b50612a1c89828a016126fc565b9150509295509295509295565b60008151808452612a41816020860160208601612d29565b601f01601f19169290920160200192915050565b60068110612a7357634e487b7160e01b600052602160045260246000fd5b9052565b600061010060018060a01b038351168452602083015160208501526040830151612aa46040860182612a55565b50606083015160ff815116606086015260ff602082015116608086015250608083015160a085015260a08301518160c0860152612ae382860182612a29565b91505060c083015160e08501528091505092915050565b60008251612b0c818460208701612d29565b9190910192915050565b60008351612b28818460208801612d29565b835190830190612b3c818360208801612d29565b01949350505050565b6001600160a01b0385811682528416602082015260408101839052608060608201819052600090612b7890830184612a29565b9695505050505050565b6000602080830181845280855180835260408601915060408160051b8701019250838701855b82811015612bd657603f19888603018452612bc4858351612a29565b94509285019290850190600101612ba8565b5092979650505050505050565b6000602080830181845280855180835260408601915060408160051b8701019250838701855b82811015612bd657603f19888603018452612c25858351612a77565b94509285019290850190600101612c09565b602081016104ce8284612a55565b6020815260006119066020830184612a29565b60208082526032908201527f4552433732313a207472616e7366657220746f206e6f6e20455243373231526560408201527131b2b4bb32b91034b6b83632b6b2b73a32b960711b606082015260800190565b6020815260006119066020830184612a77565b6040805190810167ffffffffffffffff81118282101715612ce057612ce0612deb565b60405290565b60008219821115612cf957612cf9612dbf565b500190565b600082612d0d57612d0d612dd5565b500490565b600082821015612d2457612d24612dbf565b500390565b60005b83811015612d44578181015183820152602001612d2c565b8381111561181f5750506000910152565b600181811c90821680612d6957607f821691505b60208210811415612d8a57634e487b7160e01b600052602260045260246000fd5b50919050565b6000600019821415612da457612da4612dbf565b5060010190565b600082612dba57612dba612dd5565b500690565b634e487b7160e01b600052601160045260246000fd5b634e487b7160e01b600052601260045260246000fd5b634e487b7160e01b600052604160045260246000fd5b6001600160e01b0319811681146119d557600080fdfea264697066735822122014b2a8a31d4c88492caa1b534a4d7258b490832f6aeb48863d7cd462def5daf764736f6c63430008040033",
  "linkReferences": {},
  "deployedLinkReferences": {}
}