{
  "_format": "hh-sol-artifact-1",
  "contractName": "GratitudeContract",
  "sourceName": "contracts/GratitudeContract.sol",
  "abi": [
    {
      "inputs": [],
      "stateMutability": "nonpayable",
      "type": "constructor"
    },
    {
      "anonymous": false,
      "inputs": [
        {
          "indexed": true,
          "internalType": "address",
          "name": "owner",
          "type": "address"
        },
        {
          "indexed": true,
          "internalType": "address",
          "name": "approved",
          "type": "address"
        },
        {
          "indexed": true,
          "internalType": "uint256",
          "name": "tokenId",
          "type": "uint256"
        }
      ],
      "name": "Approval",
      "type": "event"
    },
    {
      "anonymous": false,
      "inputs": [
        {
          "indexed": true,
          "internalType": "address",
          "name": "owner",
          "type": "address"
        },
        {
          "indexed": true,
          "internalType": "address",
          "name": "operator",
          "type": "address"
        },
        {
          "indexed": false,
          "internalType": "bool",
          "name": "approved",
          "type": "bool"
        }
      ],
      "name": "ApprovalForAll",
      "type": "event"
    },
    {
      "anonymous": false,
      "inputs": [
        {
          "indexed": true,
          "internalType": "address",
          "name": "previousOwner",
          "type": "address"
        },
        {
          "indexed": true,
          "internalType": "address",
          "name": "newOwner",
          "type": "address"
        }
      ],
      "name": "OwnershipTransferred",
      "type": "event"
    },
    {
      "anonymous": false,
      "inputs": [
        {
          "indexed": true,
          "internalType": "address",
          "name": "from",
          "type": "address"
        },
        {
          "indexed": true,
          "internalType": "address",
          "name": "to",
          "type": "address"
        },
        {
          "indexed": true,
          "internalType": "uint256",
          "name": "tokenId",
          "type": "uint256"
        }
      ],
      "name": "Transfer",
      "type": "event"
    },
    {
      "inputs": [],
      "name": "_draftTokenIds",
      "outputs": [
        {
          "internalType": "uint256",
          "name": "_value",
          "type": "uint256"
        }
      ],
      "stateMutability": "view",
      "type": "function"
    },
    {
      "inputs": [],
      "name": "_tokenIds",
      "outputs": [
        {
          "internalType": "uint256",
          "name": "_value",
          "type": "uint256"
        }
      ],
      "stateMutability": "view",
      "type": "function"
    },
    {
      "inputs": [
        {
          "internalType": "address",
          "name": "to",
          "type": "address"
        },
        {
          "internalType": "uint256",
          "name": "tokenId",
          "type": "uint256"
        }
      ],
      "name": "approve",
      "outputs": [],
      "stateMutability": "nonpayable",
      "type": "function"
    },
    {
      "inputs": [
        {
          "internalType": "address",
          "name": "owner",
          "type": "address"
        }
      ],
      "name": "balanceOf",
      "outputs": [
        {
          "internalType": "uint256",
          "name": "",
          "type": "uint256"
        }
      ],
      "stateMutability": "view",
      "type": "function"
    },
    {
      "inputs": [
        {
          "internalType": "uint256",
          "name": "status",
          "type": "uint256"
        },
        {
          "internalType": "address",
          "name": "receiver",
          "type": "address"
        }
      ],
      "name": "createGratitudeToken",
      "outputs": [
        {
          "internalType": "uint256",
          "name": "",
          "type": "uint256"
        }
      ],
      "stateMutability": "nonpayable",
      "type": "function"
    },
    {
      "inputs": [
        {
          "internalType": "uint256",
          "name": "tokenId",
          "type": "uint256"
        }
      ],
      "name": "getApproved",
      "outputs": [
        {
          "internalType": "address",
          "name": "",
          "type": "address"
        }
      ],
      "stateMutability": "view",
      "type": "function"
    },
    {
      "inputs": [
        {
          "internalType": "address",
          "name": "owner",
          "type": "address"
        },
        {
          "internalType": "address",
          "name": "operator",
          "type": "address"
        }
      ],
      "name": "isApprovedForAll",
      "outputs": [
        {
          "internalType": "bool",
          "name": "",
          "type": "bool"
        }
      ],
      "stateMutability": "view",
      "type": "function"
    },
    {
      "inputs": [
        {
          "internalType": "string",
          "name": "_tokenURI",
          "type": "string"
        }
      ],
      "name": "mintItem",
      "outputs": [
        {
          "internalType": "uint256",
          "name": "",
          "type": "uint256"
        }
      ],
      "stateMutability": "nonpayable",
      "type": "function"
    },
    {
      "inputs": [],
      "name": "name",
      "outputs": [
        {
          "internalType": "string",
          "name": "",
          "type": "string"
        }
      ],
      "stateMutability": "view",
      "type": "function"
    },
    {
      "inputs": [],
      "name": "owner",
      "outputs": [
        {
          "internalType": "address",
          "name": "",
          "type": "address"
        }
      ],
      "stateMutability": "view",
      "type": "function"
    },
    {
      "inputs": [
        {
          "internalType": "uint256",
          "name": "tokenId",
          "type": "uint256"
        }
      ],
      "name": "ownerOf",
      "outputs": [
        {
          "internalType": "address",
          "name": "",
          "type": "address"
        }
      ],
      "stateMutability": "view",
      "type": "function"
    },
    {
      "inputs": [],
      "name": "renounceOwnership",
      "outputs": [],
      "stateMutability": "nonpayable",
      "type": "function"
    },
    {
      "inputs": [
        {
          "internalType": "address",
          "name": "from",
          "type": "address"
        },
        {
          "internalType": "address",
          "name": "to",
          "type": "address"
        },
        {
          "internalType": "uint256",
          "name": "tokenId",
          "type": "uint256"
        }
      ],
      "name": "safeTransferFrom",
      "outputs": [],
      "stateMutability": "nonpayable",
      "type": "function"
    },
    {
      "inputs": [
        {
          "internalType": "address",
          "name": "from",
          "type": "address"
        },
        {
          "internalType": "address",
          "name": "to",
          "type": "address"
        },
        {
          "internalType": "uint256",
          "name": "tokenId",
          "type": "uint256"
        },
        {
          "internalType": "bytes",
          "name": "_data",
          "type": "bytes"
        }
      ],
      "name": "safeTransferFrom",
      "outputs": [],
      "stateMutability": "nonpayable",
      "type": "function"
    },
    {
      "inputs": [
        {
          "internalType": "address",
          "name": "operator",
          "type": "address"
        },
        {
          "internalType": "bool",
          "name": "approved",
          "type": "bool"
        }
      ],
      "name": "setApprovalForAll",
      "outputs": [],
      "stateMutability": "nonpayable",
      "type": "function"
    },
    {
      "inputs": [
        {
          "internalType": "bytes4",
          "name": "interfaceId",
          "type": "bytes4"
        }
      ],
      "name": "supportsInterface",
      "outputs": [
        {
          "internalType": "bool",
          "name": "",
          "type": "bool"
        }
      ],
      "stateMutability": "view",
      "type": "function"
    },
    {
      "inputs": [],
      "name": "symbol",
      "outputs": [
        {
          "internalType": "string",
          "name": "",
          "type": "string"
        }
      ],
      "stateMutability": "view",
      "type": "function"
    },
    {
      "inputs": [
        {
          "internalType": "uint256",
          "name": "tokenId",
          "type": "uint256"
        }
      ],
      "name": "tokenURI",
      "outputs": [
        {
          "internalType": "string",
          "name": "",
          "type": "string"
        }
      ],
      "stateMutability": "view",
      "type": "function"
    },
    {
      "inputs": [
        {
          "internalType": "address",
          "name": "from",
          "type": "address"
        },
        {
          "internalType": "address",
          "name": "to",
          "type": "address"
        },
        {
          "internalType": "uint256",
          "name": "tokenId",
          "type": "uint256"
        }
      ],
      "name": "transferFrom",
      "outputs": [],
      "stateMutability": "nonpayable",
      "type": "function"
    },
    {
      "inputs": [
        {
          "internalType": "address",
          "name": "newOwner",
          "type": "address"
        }
      ],
      "name": "transferOwnership",
      "outputs": [],
      "stateMutability": "nonpayable",
      "type": "function"
    }
  ],
  "bytecode": "0x60806040523480156200001157600080fd5b506040518060400160405280600f81526020017f4e47204e465420436f6e747261637400000000000000000000000000000000008152506040518060400160405280600381526020017f4e47430000000000000000000000000000000000000000000000000000000000815250816000908051906020019062000096929190620001a6565b508060019080519060200190620000af929190620001a6565b505050620000d2620000c6620000d860201b60201c565b620000e060201b60201c565b620002bb565b600033905090565b6000600760009054906101000a900473ffffffffffffffffffffffffffffffffffffffff16905081600760006101000a81548173ffffffffffffffffffffffffffffffffffffffff021916908373ffffffffffffffffffffffffffffffffffffffff1602179055508173ffffffffffffffffffffffffffffffffffffffff168173ffffffffffffffffffffffffffffffffffffffff167f8be0079c531659141344cd1fd0a4f28419497f9722a3daafe3b4186f6b6457e060405160405180910390a35050565b828054620001b49062000256565b90600052602060002090601f016020900481019282620001d8576000855562000224565b82601f10620001f357805160ff191683800117855562000224565b8280016001018555821562000224579182015b828111156200022357825182559160200191906001019062000206565b5b50905062000233919062000237565b5090565b5b808211156200025257600081600090555060010162000238565b5090565b600060028204905060018216806200026f57607f821691505b602082108114156200028657620002856200028c565b5b50919050565b7f4e487b7100000000000000000000000000000000000000000000000000000000600052602260045260246000fd5b61327180620002cb6000396000f3fe608060405234801561001057600080fd5b506004361061012c5760003560e01c806395d89b41116100ad578063c754584911610071578063c75458491461031d578063c87b56dd1461034d578063e985e9c51461037d578063f2fde38b146103ad578063f3fc8b73146103c95761012c565b806395d89b411461028b578063a22cb465146102a9578063aa46a400146102c5578063b264f6e7146102e3578063b88d4fde146103015761012c565b806342842e0e116100f457806342842e0e146101e75780636352211e1461020357806370a0823114610233578063715018a6146102635780638da5cb5b1461026d5761012c565b806301ffc9a71461013157806306fdde0314610161578063081812fc1461017f578063095ea7b3146101af57806323b872dd146101cb575b600080fd5b61014b60048036038101906101469190612111565b6103f9565b60405161015891906125fd565b60405180910390f35b6101696104db565b6040516101769190612618565b60405180910390f35b610199600480360381019061019491906121a4565b61056d565b6040516101a69190612596565b60405180910390f35b6101c960048036038101906101c491906120d5565b6105f2565b005b6101e560048036038101906101e09190611fcf565b61070a565b005b61020160048036038101906101fc9190611fcf565b61076a565b005b61021d600480360381019061021891906121a4565b61078a565b60405161022a9190612596565b60405180910390f35b61024d60048036038101906102489190611f6a565b61083c565b60405161025a919061289a565b60405180910390f35b61026b6108f4565b005b61027561097c565b6040516102829190612596565b60405180910390f35b6102936109a6565b6040516102a09190612618565b60405180910390f35b6102c360048036038101906102be9190612099565b610a38565b005b6102cd610a4e565b6040516102da919061289a565b60405180910390f35b6102eb610a5a565b6040516102f8919061289a565b60405180910390f35b61031b6004803603810190610316919061201e565b610a66565b005b61033760048036038101906103329190612163565b610ac8565b604051610344919061289a565b60405180910390f35b610367600480360381019061036291906121a4565b610aff565b6040516103749190612618565b60405180910390f35b61039760048036038101906103929190611f93565b610b59565b6040516103a491906125fd565b60405180910390f35b6103c760048036038101906103c29190611f6a565b610bed565b005b6103e360048036038101906103de91906121cd565b610ce5565b6040516103f0919061289a565b60405180910390f35b60007f80ac58cd000000000000000000000000000000000000000000000000000000007bffffffffffffffffffffffffffffffffffffffffffffffffffffffff1916827bffffffffffffffffffffffffffffffffffffffffffffffffffffffff191614806104c457507f5b5e139f000000000000000000000000000000000000000000000000000000007bffffffffffffffffffffffffffffffffffffffffffffffffffffffff1916827bffffffffffffffffffffffffffffffffffffffffffffffffffffffff1916145b806104d457506104d382610d6e565b5b9050919050565b6060600080546104ea90612af0565b80601f016020809104026020016040519081016040528092919081815260200182805461051690612af0565b80156105635780601f1061053857610100808354040283529160200191610563565b820191906000526020600020905b81548152906001019060200180831161054657829003601f168201915b5050505050905090565b600061057882610dd8565b6105b7576040517f08c379a00000000000000000000000000000000000000000000000000000000081526004016105ae906127fa565b60405180910390fd5b6004600083815260200190815260200160002060009054906101000a900473ffffffffffffffffffffffffffffffffffffffff169050919050565b60006105fd8261078a565b90508073ffffffffffffffffffffffffffffffffffffffff168373ffffffffffffffffffffffffffffffffffffffff16141561066e576040517f08c379a00000000000000000000000000000000000000000000000000000000081526004016106659061285a565b60405180910390fd5b8073ffffffffffffffffffffffffffffffffffffffff1661068d610e44565b73ffffffffffffffffffffffffffffffffffffffff1614806106bc57506106bb816106b6610e44565b610b59565b5b6106fb576040517f08c379a00000000000000000000000000000000000000000000000000000000081526004016106f29061271a565b60405180910390fd5b6107058383610e4c565b505050565b61071b610715610e44565b82610f05565b61075a576040517f08c379a00000000000000000000000000000000000000000000000000000000081526004016107519061287a565b60405180910390fd5b610765838383610fe3565b505050565b61078583838360405180602001604052806000815250610a66565b505050565b6000806002600084815260200190815260200160002060009054906101000a900473ffffffffffffffffffffffffffffffffffffffff169050600073ffffffffffffffffffffffffffffffffffffffff168173ffffffffffffffffffffffffffffffffffffffff161415610833576040517f08c379a000000000000000000000000000000000000000000000000000000000815260040161082a9061275a565b60405180910390fd5b80915050919050565b60008073ffffffffffffffffffffffffffffffffffffffff168273ffffffffffffffffffffffffffffffffffffffff1614156108ad576040517f08c379a00000000000000000000000000000000000000000000000000000000081526004016108a49061273a565b60405180910390fd5b600360008373ffffffffffffffffffffffffffffffffffffffff1673ffffffffffffffffffffffffffffffffffffffff168152602001908152602001600020549050919050565b6108fc610e44565b73ffffffffffffffffffffffffffffffffffffffff1661091a61097c565b73ffffffffffffffffffffffffffffffffffffffff1614610970576040517f08c379a00000000000000000000000000000000000000000000000000000000081526004016109679061281a565b60405180910390fd5b61097a600061124a565b565b6000600760009054906101000a900473ffffffffffffffffffffffffffffffffffffffff16905090565b6060600180546109b590612af0565b80601f01602080910402602001604051908101604052809291908181526020018280546109e190612af0565b8015610a2e5780601f10610a0357610100808354040283529160200191610a2e565b820191906000526020600020905b815481529060010190602001808311610a1157829003601f168201915b5050505050905090565b610a4a610a43610e44565b8383611310565b5050565b60088060000154905081565b60098060000154905081565b610a77610a71610e44565b83610f05565b610ab6576040517f08c379a0000000000000000000000000000000000000000000000000000000008152600401610aad9061287a565b60405180910390fd5b610ac28484848461147d565b50505050565b6000610ad460086114d9565b6000610ae060086114ef565b9050610aec33826114fd565b610af681846116d7565b80915050919050565b6060610b0a82610dd8565b610b49576040517f08c379a0000000000000000000000000000000000000000000000000000000008152600401610b40906127da565b60405180910390fd5b610b528261174b565b9050919050565b6000600560008473ffffffffffffffffffffffffffffffffffffffff1673ffffffffffffffffffffffffffffffffffffffff16815260200190815260200160002060008373ffffffffffffffffffffffffffffffffffffffff1673ffffffffffffffffffffffffffffffffffffffff16815260200190815260200160002060009054906101000a900460ff16905092915050565b610bf5610e44565b73ffffffffffffffffffffffffffffffffffffffff16610c1361097c565b73ffffffffffffffffffffffffffffffffffffffff1614610c69576040517f08c379a0000000000000000000000000000000000000000000000000000000008152600401610c609061281a565b60405180910390fd5b600073ffffffffffffffffffffffffffffffffffffffff168173ffffffffffffffffffffffffffffffffffffffff161415610cd9576040517f08c379a0000000000000000000000000000000000000000000000000000000008152600401610cd09061265a565b60405180910390fd5b610ce28161124a565b50565b600080831480610cf55750600183145b610d34576040517f08c379a0000000000000000000000000000000000000000000000000000000008152600401610d2b9061279a565b60405180910390fd5b610d3d8261189d565b610d4760096114d9565b6000610d5360096114ef565b90506000841415610d6357610d64565b5b8091505092915050565b60007f01ffc9a7000000000000000000000000000000000000000000000000000000007bffffffffffffffffffffffffffffffffffffffffffffffffffffffff1916827bffffffffffffffffffffffffffffffffffffffffffffffffffffffff1916149050919050565b60008073ffffffffffffffffffffffffffffffffffffffff166002600084815260200190815260200160002060009054906101000a900473ffffffffffffffffffffffffffffffffffffffff1673ffffffffffffffffffffffffffffffffffffffff1614159050919050565b600033905090565b816004600083815260200190815260200160002060006101000a81548173ffffffffffffffffffffffffffffffffffffffff021916908373ffffffffffffffffffffffffffffffffffffffff160217905550808273ffffffffffffffffffffffffffffffffffffffff16610ebf8361078a565b73ffffffffffffffffffffffffffffffffffffffff167f8c5be1e5ebec7d5bd14f71427d1e84f3dd0314c0f7b2291e5b200ac8c7c3b92560405160405180910390a45050565b6000610f1082610dd8565b610f4f576040517f08c379a0000000000000000000000000000000000000000000000000000000008152600401610f46906126fa565b60405180910390fd5b6000610f5a8361078a565b90508073ffffffffffffffffffffffffffffffffffffffff168473ffffffffffffffffffffffffffffffffffffffff161480610fc957508373ffffffffffffffffffffffffffffffffffffffff16610fb18461056d565b73ffffffffffffffffffffffffffffffffffffffff16145b80610fda5750610fd98185610b59565b5b91505092915050565b8273ffffffffffffffffffffffffffffffffffffffff166110038261078a565b73ffffffffffffffffffffffffffffffffffffffff1614611059576040517f08c379a00000000000000000000000000000000000000000000000000000000081526004016110509061267a565b60405180910390fd5b600073ffffffffffffffffffffffffffffffffffffffff168273ffffffffffffffffffffffffffffffffffffffff1614156110c9576040517f08c379a00000000000000000000000000000000000000000000000000000000081526004016110c0906126ba565b60405180910390fd5b6110d4838383611936565b6110df600082610e4c565b6001600360008573ffffffffffffffffffffffffffffffffffffffff1673ffffffffffffffffffffffffffffffffffffffff168152602001908152602001600020600082825461112f9190612a06565b925050819055506001600360008473ffffffffffffffffffffffffffffffffffffffff1673ffffffffffffffffffffffffffffffffffffffff1681526020019081526020016000206000828254611186919061297f565b92505081905550816002600083815260200190815260200160002060006101000a81548173ffffffffffffffffffffffffffffffffffffffff021916908373ffffffffffffffffffffffffffffffffffffffff160217905550808273ffffffffffffffffffffffffffffffffffffffff168473ffffffffffffffffffffffffffffffffffffffff167fddf252ad1be2c89b69c2b068fc378daa952ba7f163c4a11628f55a4df523b3ef60405160405180910390a461124583838361193b565b505050565b6000600760009054906101000a900473ffffffffffffffffffffffffffffffffffffffff16905081600760006101000a81548173ffffffffffffffffffffffffffffffffffffffff021916908373ffffffffffffffffffffffffffffffffffffffff1602179055508173ffffffffffffffffffffffffffffffffffffffff168173ffffffffffffffffffffffffffffffffffffffff167f8be0079c531659141344cd1fd0a4f28419497f9722a3daafe3b4186f6b6457e060405160405180910390a35050565b8173ffffffffffffffffffffffffffffffffffffffff168373ffffffffffffffffffffffffffffffffffffffff16141561137f576040517f08c379a0000000000000000000000000000000000000000000000000000000008152600401611376906126da565b60405180910390fd5b80600560008573ffffffffffffffffffffffffffffffffffffffff1673ffffffffffffffffffffffffffffffffffffffff16815260200190815260200160002060008473ffffffffffffffffffffffffffffffffffffffff1673ffffffffffffffffffffffffffffffffffffffff16815260200190815260200160002060006101000a81548160ff0219169083151502179055508173ffffffffffffffffffffffffffffffffffffffff168373ffffffffffffffffffffffffffffffffffffffff167f17307eab39ab6107e8899845ad3d59bd9653f200f220920489ca2b5937696c318360405161147091906125fd565b60405180910390a3505050565b611488848484610fe3565b61149484848484611940565b6114d3576040517f08c379a00000000000000000000000000000000000000000000000000000000081526004016114ca9061263a565b60405180910390fd5b50505050565b6001816000016000828254019250508190555050565b600081600001549050919050565b600073ffffffffffffffffffffffffffffffffffffffff168273ffffffffffffffffffffffffffffffffffffffff16141561156d576040517f08c379a0000000000000000000000000000000000000000000000000000000008152600401611564906127ba565b60405180910390fd5b61157681610dd8565b156115b6576040517f08c379a00000000000000000000000000000000000000000000000000000000081526004016115ad9061269a565b60405180910390fd5b6115c260008383611936565b6001600360008473ffffffffffffffffffffffffffffffffffffffff1673ffffffffffffffffffffffffffffffffffffffff1681526020019081526020016000206000828254611612919061297f565b92505081905550816002600083815260200190815260200160002060006101000a81548173ffffffffffffffffffffffffffffffffffffffff021916908373ffffffffffffffffffffffffffffffffffffffff160217905550808273ffffffffffffffffffffffffffffffffffffffff16600073ffffffffffffffffffffffffffffffffffffffff167fddf252ad1be2c89b69c2b068fc378daa952ba7f163c4a11628f55a4df523b3ef60405160405180910390a46116d36000838361193b565b5050565b6116e082610dd8565b61171f576040517f08c379a00000000000000000000000000000000000000000000000000000000081526004016117169061277a565b60405180910390fd5b80600660008481526020019081526020016000209080519060200190611746929190611d8e565b505050565b606061175682610dd8565b611795576040517f08c379a000000000000000000000000000000000000000000000000000000000815260040161178c906127da565b60405180910390fd5b60006006600084815260200190815260200160002080546117b590612af0565b80601f01602080910402602001604051908101604052809291908181526020018280546117e190612af0565b801561182e5780601f106118035761010080835404028352916020019161182e565b820191906000526020600020905b81548152906001019060200180831161181157829003601f168201915b50505050509050600061183f611ad7565b9050600081511415611855578192505050611898565b60008251111561188a578082604051602001611872929190612572565b60405160208183030381529060405292505050611898565b61189384611aee565b925050505b919050565b611933816040516024016118b19190612596565b6040516020818303038152906040527f2c2ecbc2000000000000000000000000000000000000000000000000000000007bffffffffffffffffffffffffffffffffffffffffffffffffffffffff19166020820180517bffffffffffffffffffffffffffffffffffffffffffffffffffffffff8381831617835250505050611b95565b50565b505050565b505050565b60006119618473ffffffffffffffffffffffffffffffffffffffff16611bbe565b15611aca578373ffffffffffffffffffffffffffffffffffffffff1663150b7a0261198a610e44565b8786866040518563ffffffff1660e01b81526004016119ac94939291906125b1565b602060405180830381600087803b1580156119c657600080fd5b505af19250505080156119f757506040513d601f19601f820116820180604052508101906119f4919061213a565b60015b611a7a573d8060008114611a27576040519150601f19603f3d011682016040523d82523d6000602084013e611a2c565b606091505b50600081511415611a72576040517f08c379a0000000000000000000000000000000000000000000000000000000008152600401611a699061263a565b60405180910390fd5b805181602001fd5b63150b7a0260e01b7bffffffffffffffffffffffffffffffffffffffffffffffffffffffff1916817bffffffffffffffffffffffffffffffffffffffffffffffffffffffff191614915050611acf565b600190505b949350505050565b606060405180602001604052806000815250905090565b6060611af982610dd8565b611b38576040517f08c379a0000000000000000000000000000000000000000000000000000000008152600401611b2f9061283a565b60405180910390fd5b6000611b42611ad7565b90506000815111611b625760405180602001604052806000815250611b8d565b80611b6c84611be1565b604051602001611b7d929190612572565b6040516020818303038152906040525b915050919050565b60008151905060006a636f6e736f6c652e6c6f679050602083016000808483855afa5050505050565b6000808273ffffffffffffffffffffffffffffffffffffffff163b119050919050565b60606000821415611c29576040518060400160405280600181526020017f30000000000000000000000000000000000000000000000000000000000000008152509050611d89565b600082905060005b60008214611c5b578080611c4490612b53565b915050600a82611c5491906129d5565b9150611c31565b60008167ffffffffffffffff811115611c9d577f4e487b7100000000000000000000000000000000000000000000000000000000600052604160045260246000fd5b6040519080825280601f01601f191660200182016040528015611ccf5781602001600182028036833780820191505090505b5090505b60008514611d8257600182611ce89190612a06565b9150600a85611cf79190612b9c565b6030611d03919061297f565b60f81b818381518110611d3f577f4e487b7100000000000000000000000000000000000000000000000000000000600052603260045260246000fd5b60200101907effffffffffffffffffffffffffffffffffffffffffffffffffffffffffffff1916908160001a905350600a85611d7b91906129d5565b9450611cd3565b8093505050505b919050565b828054611d9a90612af0565b90600052602060002090601f016020900481019282611dbc5760008555611e03565b82601f10611dd557805160ff1916838001178555611e03565b82800160010185558215611e03579182015b82811115611e02578251825591602001919060010190611de7565b5b509050611e109190611e14565b5090565b5b80821115611e2d576000816000905550600101611e15565b5090565b6000611e44611e3f846128da565b6128b5565b905082815260208101848484011115611e5c57600080fd5b611e67848285612aae565b509392505050565b6000611e82611e7d8461290b565b6128b5565b905082815260208101848484011115611e9a57600080fd5b611ea5848285612aae565b509392505050565b600081359050611ebc816131df565b92915050565b600081359050611ed1816131f6565b92915050565b600081359050611ee68161320d565b92915050565b600081519050611efb8161320d565b92915050565b600082601f830112611f1257600080fd5b8135611f22848260208601611e31565b91505092915050565b600082601f830112611f3c57600080fd5b8135611f4c848260208601611e6f565b91505092915050565b600081359050611f6481613224565b92915050565b600060208284031215611f7c57600080fd5b6000611f8a84828501611ead565b91505092915050565b60008060408385031215611fa657600080fd5b6000611fb485828601611ead565b9250506020611fc585828601611ead565b9150509250929050565b600080600060608486031215611fe457600080fd5b6000611ff286828701611ead565b935050602061200386828701611ead565b925050604061201486828701611f55565b9150509250925092565b6000806000806080858703121561203457600080fd5b600061204287828801611ead565b945050602061205387828801611ead565b935050604061206487828801611f55565b925050606085013567ffffffffffffffff81111561208157600080fd5b61208d87828801611f01565b91505092959194509250565b600080604083850312156120ac57600080fd5b60006120ba85828601611ead565b92505060206120cb85828601611ec2565b9150509250929050565b600080604083850312156120e857600080fd5b60006120f685828601611ead565b925050602061210785828601611f55565b9150509250929050565b60006020828403121561212357600080fd5b600061213184828501611ed7565b91505092915050565b60006020828403121561214c57600080fd5b600061215a84828501611eec565b91505092915050565b60006020828403121561217557600080fd5b600082013567ffffffffffffffff81111561218f57600080fd5b61219b84828501611f2b565b91505092915050565b6000602082840312156121b657600080fd5b60006121c484828501611f55565b91505092915050565b600080604083850312156121e057600080fd5b60006121ee85828601611f55565b92505060206121ff85828601611ead565b9150509250929050565b61221281612a3a565b82525050565b61222181612a4c565b82525050565b60006122328261293c565b61223c8185612952565b935061224c818560208601612abd565b61225581612c89565b840191505092915050565b600061226b82612947565b6122758185612963565b9350612285818560208601612abd565b61228e81612c89565b840191505092915050565b60006122a482612947565b6122ae8185612974565b93506122be818560208601612abd565b80840191505092915050565b60006122d7603283612963565b91506122e282612c9a565b604082019050919050565b60006122fa602683612963565b915061230582612ce9565b604082019050919050565b600061231d602583612963565b915061232882612d38565b604082019050919050565b6000612340601c83612963565b915061234b82612d87565b602082019050919050565b6000612363602483612963565b915061236e82612db0565b604082019050919050565b6000612386601983612963565b915061239182612dff565b602082019050919050565b60006123a9602c83612963565b91506123b482612e28565b604082019050919050565b60006123cc603883612963565b91506123d782612e77565b604082019050919050565b60006123ef602a83612963565b91506123fa82612ec6565b604082019050919050565b6000612412602983612963565b915061241d82612f15565b604082019050919050565b6000612435602e83612963565b915061244082612f64565b604082019050919050565b6000612458602f83612963565b915061246382612fb3565b604082019050919050565b600061247b602083612963565b915061248682613002565b602082019050919050565b600061249e603183612963565b91506124a98261302b565b604082019050919050565b60006124c1602c83612963565b91506124cc8261307a565b604082019050919050565b60006124e4602083612963565b91506124ef826130c9565b602082019050919050565b6000612507602f83612963565b9150612512826130f2565b604082019050919050565b600061252a602183612963565b915061253582613141565b604082019050919050565b600061254d603183612963565b915061255882613190565b604082019050919050565b61256c81612aa4565b82525050565b600061257e8285612299565b915061258a8284612299565b91508190509392505050565b60006020820190506125ab6000830184612209565b92915050565b60006080820190506125c66000830187612209565b6125d36020830186612209565b6125e06040830185612563565b81810360608301526125f28184612227565b905095945050505050565b60006020820190506126126000830184612218565b92915050565b600060208201905081810360008301526126328184612260565b905092915050565b60006020820190508181036000830152612653816122ca565b9050919050565b60006020820190508181036000830152612673816122ed565b9050919050565b6000602082019050818103600083015261269381612310565b9050919050565b600060208201905081810360008301526126b381612333565b9050919050565b600060208201905081810360008301526126d381612356565b9050919050565b600060208201905081810360008301526126f381612379565b9050919050565b600060208201905081810360008301526127138161239c565b9050919050565b60006020820190508181036000830152612733816123bf565b9050919050565b60006020820190508181036000830152612753816123e2565b9050919050565b6000602082019050818103600083015261277381612405565b9050919050565b6000602082019050818103600083015261279381612428565b9050919050565b600060208201905081810360008301526127b38161244b565b9050919050565b600060208201905081810360008301526127d38161246e565b9050919050565b600060208201905081810360008301526127f381612491565b9050919050565b60006020820190508181036000830152612813816124b4565b9050919050565b60006020820190508181036000830152612833816124d7565b9050919050565b60006020820190508181036000830152612853816124fa565b9050919050565b600060208201905081810360008301526128738161251d565b9050919050565b6000602082019050818103600083015261289381612540565b9050919050565b60006020820190506128af6000830184612563565b92915050565b60006128bf6128d0565b90506128cb8282612b22565b919050565b6000604051905090565b600067ffffffffffffffff8211156128f5576128f4612c5a565b5b6128fe82612c89565b9050602081019050919050565b600067ffffffffffffffff82111561292657612925612c5a565b5b61292f82612c89565b9050602081019050919050565b600081519050919050565b600081519050919050565b600082825260208201905092915050565b600082825260208201905092915050565b600081905092915050565b600061298a82612aa4565b915061299583612aa4565b9250827fffffffffffffffffffffffffffffffffffffffffffffffffffffffffffffffff038211156129ca576129c9612bcd565b5b828201905092915050565b60006129e082612aa4565b91506129eb83612aa4565b9250826129fb576129fa612bfc565b5b828204905092915050565b6000612a1182612aa4565b9150612a1c83612aa4565b925082821015612a2f57612a2e612bcd565b5b828203905092915050565b6000612a4582612a84565b9050919050565b60008115159050919050565b60007fffffffff0000000000000000000000000000000000000000000000000000000082169050919050565b600073ffffffffffffffffffffffffffffffffffffffff82169050919050565b6000819050919050565b82818337600083830152505050565b60005b83811015612adb578082015181840152602081019050612ac0565b83811115612aea576000848401525b50505050565b60006002820490506001821680612b0857607f821691505b60208210811415612b1c57612b1b612c2b565b5b50919050565b612b2b82612c89565b810181811067ffffffffffffffff82111715612b4a57612b49612c5a565b5b80604052505050565b6000612b5e82612aa4565b91507fffffffffffffffffffffffffffffffffffffffffffffffffffffffffffffffff821415612b9157612b90612bcd565b5b600182019050919050565b6000612ba782612aa4565b9150612bb283612aa4565b925082612bc257612bc1612bfc565b5b828206905092915050565b7f4e487b7100000000000000000000000000000000000000000000000000000000600052601160045260246000fd5b7f4e487b7100000000000000000000000000000000000000000000000000000000600052601260045260246000fd5b7f4e487b7100000000000000000000000000000000000000000000000000000000600052602260045260246000fd5b7f4e487b7100000000000000000000000000000000000000000000000000000000600052604160045260246000fd5b6000601f19601f8301169050919050565b7f4552433732313a207472616e7366657220746f206e6f6e20455243373231526560008201527f63656976657220696d706c656d656e7465720000000000000000000000000000602082015250565b7f4f776e61626c653a206e6577206f776e657220697320746865207a65726f206160008201527f6464726573730000000000000000000000000000000000000000000000000000602082015250565b7f4552433732313a207472616e736665722066726f6d20696e636f72726563742060008201527f6f776e6572000000000000000000000000000000000000000000000000000000602082015250565b7f4552433732313a20746f6b656e20616c7265616479206d696e74656400000000600082015250565b7f4552433732313a207472616e7366657220746f20746865207a65726f2061646460008201527f7265737300000000000000000000000000000000000000000000000000000000602082015250565b7f4552433732313a20617070726f766520746f2063616c6c657200000000000000600082015250565b7f4552433732313a206f70657261746f7220717565727920666f72206e6f6e657860008201527f697374656e7420746f6b656e0000000000000000000000000000000000000000602082015250565b7f4552433732313a20617070726f76652063616c6c6572206973206e6f74206f7760008201527f6e6572206e6f7220617070726f76656420666f7220616c6c0000000000000000602082015250565b7f4552433732313a2062616c616e636520717565727920666f7220746865207a6560008201527f726f206164647265737300000000000000000000000000000000000000000000602082015250565b7f4552433732313a206f776e657220717565727920666f72206e6f6e657869737460008201527f656e7420746f6b656e0000000000000000000000000000000000000000000000602082015250565b7f45524337323155524953746f726167653a2055524920736574206f66206e6f6e60008201527f6578697374656e7420746f6b656e000000000000000000000000000000000000602082015250565b7f4f4e4c5920535441545553204452414654283029204f522050454e44494e472860008201527f3129204152452041434345505445440000000000000000000000000000000000602082015250565b7f4552433732313a206d696e7420746f20746865207a65726f2061646472657373600082015250565b7f45524337323155524953746f726167653a2055524920717565727920666f722060008201527f6e6f6e6578697374656e7420746f6b656e000000000000000000000000000000602082015250565b7f4552433732313a20617070726f76656420717565727920666f72206e6f6e657860008201527f697374656e7420746f6b656e0000000000000000000000000000000000000000602082015250565b7f4f776e61626c653a2063616c6c6572206973206e6f7420746865206f776e6572600082015250565b7f4552433732314d657461646174613a2055524920717565727920666f72206e6f60008201527f6e6578697374656e7420746f6b656e0000000000000000000000000000000000602082015250565b7f4552433732313a20617070726f76616c20746f2063757272656e74206f776e6560008201527f7200000000000000000000000000000000000000000000000000000000000000602082015250565b7f4552433732313a207472616e736665722063616c6c6572206973206e6f74206f60008201527f776e6572206e6f7220617070726f766564000000000000000000000000000000602082015250565b6131e881612a3a565b81146131f357600080fd5b50565b6131ff81612a4c565b811461320a57600080fd5b50565b61321681612a58565b811461322157600080fd5b50565b61322d81612aa4565b811461323857600080fd5b5056fea2646970667358221220a471f598bf1ff9431f83d80913693595de4954c30ca9e7e3f961649da99aa40064736f6c63430008040033",
  "linkReferences": {},
  "deployedLinkReferences": {}
}