{
  "_format": "hh-sol-artifact-1",
  "contractName": "GratitudeContract",
  "sourceName": "contracts/GratitudeContract.sol",
  "abi": [
    {
      "inputs": [],
      "stateMutability": "nonpayable",
      "type": "constructor"
    },
    {
      "anonymous": false,
      "inputs": [
        {
          "indexed": true,
          "internalType": "address",
          "name": "owner",
          "type": "address"
        },
        {
          "indexed": true,
          "internalType": "address",
          "name": "approved",
          "type": "address"
        },
        {
          "indexed": true,
          "internalType": "uint256",
          "name": "tokenId",
          "type": "uint256"
        }
      ],
      "name": "Approval",
      "type": "event"
    },
    {
      "anonymous": false,
      "inputs": [
        {
          "indexed": true,
          "internalType": "address",
          "name": "owner",
          "type": "address"
        },
        {
          "indexed": true,
          "internalType": "address",
          "name": "operator",
          "type": "address"
        },
        {
          "indexed": false,
          "internalType": "bool",
          "name": "approved",
          "type": "bool"
        }
      ],
      "name": "ApprovalForAll",
      "type": "event"
    },
    {
      "anonymous": false,
      "inputs": [
        {
          "indexed": false,
          "internalType": "uint256",
          "name": "tokenId",
          "type": "uint256"
        },
        {
          "indexed": false,
          "internalType": "enum GratitudeContract.NftStatus",
          "name": "status",
          "type": "uint8"
        },
        {
          "indexed": false,
          "internalType": "string",
          "name": "lat",
          "type": "string"
        },
        {
          "indexed": false,
          "internalType": "string",
          "name": "lng",
          "type": "string"
        },
        {
          "indexed": false,
          "internalType": "address",
          "name": "receiver",
          "type": "address"
        }
      ],
      "name": "GratitudTokenAceptedEvent",
      "type": "event"
    },
    {
      "anonymous": false,
      "inputs": [
        {
          "indexed": false,
          "internalType": "uint256",
          "name": "tokenId",
          "type": "uint256"
        },
        {
          "indexed": false,
          "internalType": "enum GratitudeContract.NftStatus",
          "name": "status",
          "type": "uint8"
        }
      ],
      "name": "GratitudTokenChangeStatusEvent",
      "type": "event"
    },
    {
      "anonymous": false,
      "inputs": [
        {
          "indexed": true,
          "internalType": "uint256",
          "name": "campaignId",
          "type": "uint256"
        },
        {
          "indexed": false,
          "internalType": "address",
          "name": "campaign_creator",
          "type": "address"
        },
        {
          "indexed": false,
          "internalType": "enum GratitudeContract.CampaignStatus",
          "name": "status",
          "type": "uint8"
        },
        {
          "indexed": false,
          "internalType": "string",
          "name": "campaignUri",
          "type": "string"
        },
        {
          "indexed": false,
          "internalType": "string",
          "name": "name",
          "type": "string"
        }
      ],
      "name": "GratitudeCampaignCreatedEvent",
      "type": "event"
    },
    {
      "anonymous": false,
      "inputs": [
        {
          "indexed": false,
          "internalType": "uint256",
          "name": "campaignId",
          "type": "uint256"
        }
      ],
      "name": "GratitudeCampaignRejected",
      "type": "event"
    },
    {
      "anonymous": false,
      "inputs": [
        {
          "indexed": false,
          "internalType": "uint256",
          "name": "campaignId",
          "type": "uint256"
        }
      ],
      "name": "GratitudeCampaignVerified",
      "type": "event"
    },
    {
      "anonymous": false,
      "inputs": [
        {
          "indexed": true,
          "internalType": "uint256",
          "name": "tokenId",
          "type": "uint256"
        },
        {
          "indexed": false,
          "internalType": "enum GratitudeContract.NftStatus",
          "name": "status",
          "type": "uint8"
        },
        {
          "indexed": false,
          "internalType": "address",
          "name": "sender",
          "type": "address"
        },
        {
          "indexed": false,
          "internalType": "address",
          "name": "receiver",
          "type": "address"
        },
        {
          "indexed": false,
          "internalType": "string",
          "name": "lat",
          "type": "string"
        },
        {
          "indexed": false,
          "internalType": "string",
          "name": "lng",
          "type": "string"
        },
        {
          "indexed": false,
          "internalType": "string",
          "name": "tokenUri",
          "type": "string"
        }
      ],
      "name": "GratitudeTokenCreationEvent",
      "type": "event"
    },
    {
      "anonymous": false,
      "inputs": [
        {
          "indexed": true,
          "internalType": "address",
          "name": "previousOwner",
          "type": "address"
        },
        {
          "indexed": true,
          "internalType": "address",
          "name": "newOwner",
          "type": "address"
        }
      ],
      "name": "OwnershipTransferred",
      "type": "event"
    },
    {
      "anonymous": false,
      "inputs": [
        {
          "indexed": true,
          "internalType": "address",
          "name": "from",
          "type": "address"
        },
        {
          "indexed": true,
          "internalType": "address",
          "name": "to",
          "type": "address"
        },
        {
          "indexed": true,
          "internalType": "uint256",
          "name": "tokenId",
          "type": "uint256"
        }
      ],
      "name": "Transfer",
      "type": "event"
    },
    {
      "inputs": [],
      "name": "_campaignIds",
      "outputs": [
        {
          "internalType": "uint256",
          "name": "_value",
          "type": "uint256"
        }
      ],
      "stateMutability": "view",
      "type": "function"
    },
    {
      "inputs": [],
      "name": "_tokenIds",
      "outputs": [
        {
          "internalType": "uint256",
          "name": "_value",
          "type": "uint256"
        }
      ],
      "stateMutability": "view",
      "type": "function"
    },
    {
      "inputs": [
        {
          "internalType": "string",
          "name": "_linkCode",
          "type": "string"
        },
        {
          "components": [
            {
              "internalType": "string",
              "name": "lat",
              "type": "string"
            },
            {
              "internalType": "string",
              "name": "lng",
              "type": "string"
            }
          ],
          "internalType": "struct GratitudeContract.GEO",
          "name": "_geo",
          "type": "tuple"
        }
      ],
      "name": "acceptLinkHash",
      "outputs": [],
      "stateMutability": "nonpayable",
      "type": "function"
    },
    {
      "inputs": [
        {
          "internalType": "address",
          "name": "to",
          "type": "address"
        },
        {
          "internalType": "uint256",
          "name": "tokenId",
          "type": "uint256"
        }
      ],
      "name": "approve",
      "outputs": [],
      "stateMutability": "nonpayable",
      "type": "function"
    },
    {
      "inputs": [
        {
          "internalType": "uint256",
          "name": "_campaignId",
          "type": "uint256"
        }
      ],
      "name": "approveCampaign",
      "outputs": [],
      "stateMutability": "nonpayable",
      "type": "function"
    },
    {
      "inputs": [
        {
          "internalType": "address",
          "name": "owner",
          "type": "address"
        }
      ],
      "name": "balanceOf",
      "outputs": [
        {
          "internalType": "uint256",
          "name": "",
          "type": "uint256"
        }
      ],
      "stateMutability": "view",
      "type": "function"
    },
    {
      "inputs": [
        {
          "internalType": "uint256",
          "name": "_tokenId",
          "type": "uint256"
        }
      ],
      "name": "cancelWhenStillPending",
      "outputs": [],
      "stateMutability": "nonpayable",
      "type": "function"
    },
    {
      "inputs": [
        {
          "internalType": "uint256",
          "name": "_tokenId",
          "type": "uint256"
        }
      ],
      "name": "checkPendingStatusPriorToGet",
      "outputs": [],
      "stateMutability": "nonpayable",
      "type": "function"
    },
    {
      "inputs": [
        {
          "internalType": "string",
          "name": "_name",
          "type": "string"
        },
        {
          "internalType": "string",
          "name": "_campaignUri",
          "type": "string"
        }
      ],
      "name": "createCampaign",
      "outputs": [],
      "stateMutability": "nonpayable",
      "type": "function"
    },
    {
      "inputs": [
        {
          "internalType": "uint256",
          "name": "_status",
          "type": "uint256"
        },
        {
          "internalType": "address",
          "name": "_receiver",
          "type": "address"
        },
        {
          "components": [
            {
              "internalType": "string",
              "name": "lat",
              "type": "string"
            },
            {
              "internalType": "string",
              "name": "lng",
              "type": "string"
            }
          ],
          "internalType": "struct GratitudeContract.GEO",
          "name": "_geo",
          "type": "tuple"
        },
        {
          "internalType": "uint256",
          "name": "_timeStamp",
          "type": "uint256"
        },
        {
          "internalType": "string",
          "name": "_tokenUri",
          "type": "string"
        },
        {
          "internalType": "string",
          "name": "_linkCode",
          "type": "string"
        }
      ],
      "name": "createGratitudeToken",
      "outputs": [],
      "stateMutability": "payable",
      "type": "function"
    },
    {
      "inputs": [
        {
          "internalType": "uint256",
          "name": "tokenId",
          "type": "uint256"
        }
      ],
      "name": "getApproved",
      "outputs": [
        {
          "internalType": "address",
          "name": "",
          "type": "address"
        }
      ],
      "stateMutability": "view",
      "type": "function"
    },
    {
      "inputs": [
        {
          "internalType": "uint256",
          "name": "_campaignId",
          "type": "uint256"
        }
      ],
      "name": "getCampaignStatus",
      "outputs": [
        {
          "internalType": "enum GratitudeContract.CampaignStatus",
          "name": "",
          "type": "uint8"
        }
      ],
      "stateMutability": "view",
      "type": "function"
    },
    {
      "inputs": [],
      "name": "getCreatorTokens",
      "outputs": [
        {
          "components": [
            {
              "internalType": "address",
              "name": "receiver",
              "type": "address"
            },
            {
              "internalType": "uint256",
              "name": "tokenId",
              "type": "uint256"
            },
            {
              "internalType": "enum GratitudeContract.NftStatus",
              "name": "status",
              "type": "uint8"
            },
            {
              "internalType": "uint256",
              "name": "timeStamp",
              "type": "uint256"
            },
            {
              "internalType": "string",
              "name": "tokenUri",
              "type": "string"
            },
            {
              "internalType": "bytes32",
              "name": "linkCode",
              "type": "bytes32"
            }
          ],
          "internalType": "struct GratitudeContract.NFT[]",
          "name": "",
          "type": "tuple[]"
        }
      ],
      "stateMutability": "view",
      "type": "function"
    },
    {
      "inputs": [
        {
          "internalType": "string",
          "name": "_linkCode",
          "type": "string"
        }
      ],
      "name": "getGratitudeNFtByLinkCode",
      "outputs": [
        {
          "components": [
            {
              "internalType": "address",
              "name": "receiver",
              "type": "address"
            },
            {
              "internalType": "uint256",
              "name": "tokenId",
              "type": "uint256"
            },
            {
              "internalType": "enum GratitudeContract.NftStatus",
              "name": "status",
              "type": "uint8"
            },
            {
              "internalType": "uint256",
              "name": "timeStamp",
              "type": "uint256"
            },
            {
              "internalType": "string",
              "name": "tokenUri",
              "type": "string"
            },
            {
              "internalType": "bytes32",
              "name": "linkCode",
              "type": "bytes32"
            }
          ],
          "internalType": "struct GratitudeContract.NFT",
          "name": "",
          "type": "tuple"
        }
      ],
      "stateMutability": "view",
      "type": "function"
    },
    {
      "inputs": [
        {
          "internalType": "uint256",
          "name": "_tokenId",
          "type": "uint256"
        }
      ],
      "name": "getStatus",
      "outputs": [
        {
          "internalType": "enum GratitudeContract.NftStatus",
          "name": "",
          "type": "uint8"
        }
      ],
      "stateMutability": "view",
      "type": "function"
    },
    {
      "inputs": [
        {
          "internalType": "address",
          "name": "owner",
          "type": "address"
        },
        {
          "internalType": "address",
          "name": "operator",
          "type": "address"
        }
      ],
      "name": "isApprovedForAll",
      "outputs": [
        {
          "internalType": "bool",
          "name": "",
          "type": "bool"
        }
      ],
      "stateMutability": "view",
      "type": "function"
    },
    {
      "inputs": [],
      "name": "name",
      "outputs": [
        {
          "internalType": "string",
          "name": "",
          "type": "string"
        }
      ],
      "stateMutability": "view",
      "type": "function"
    },
    {
      "inputs": [],
      "name": "owner",
      "outputs": [
        {
          "internalType": "address",
          "name": "",
          "type": "address"
        }
      ],
      "stateMutability": "view",
      "type": "function"
    },
    {
      "inputs": [
        {
          "internalType": "uint256",
          "name": "tokenId",
          "type": "uint256"
        }
      ],
      "name": "ownerOf",
      "outputs": [
        {
          "internalType": "address",
          "name": "",
          "type": "address"
        }
      ],
      "stateMutability": "view",
      "type": "function"
    },
    {
      "inputs": [
        {
          "internalType": "uint256",
          "name": "_campaignId",
          "type": "uint256"
        }
      ],
      "name": "rejectCampaign",
      "outputs": [],
      "stateMutability": "nonpayable",
      "type": "function"
    },
    {
      "inputs": [
        {
          "internalType": "string",
          "name": "_linkCode",
          "type": "string"
        }
      ],
      "name": "rejectGratitudeNFTbyLinkCode",
      "outputs": [],
      "stateMutability": "nonpayable",
      "type": "function"
    },
    {
      "inputs": [],
      "name": "renounceOwnership",
      "outputs": [],
      "stateMutability": "nonpayable",
      "type": "function"
    },
    {
      "inputs": [
        {
          "internalType": "uint256",
          "name": "_tokenId",
          "type": "uint256"
        },
        {
          "internalType": "address",
          "name": "_receiver",
          "type": "address"
        },
        {
          "internalType": "string",
          "name": "_linkCode",
          "type": "string"
        }
      ],
      "name": "resendWhenTimeOutOrRejectedOrStandby",
      "outputs": [],
      "stateMutability": "nonpayable",
      "type": "function"
    },
    {
      "inputs": [
        {
          "internalType": "address",
          "name": "from",
          "type": "address"
        },
        {
          "internalType": "address",
          "name": "to",
          "type": "address"
        },
        {
          "internalType": "uint256",
          "name": "tokenId",
          "type": "uint256"
        }
      ],
      "name": "safeTransferFrom",
      "outputs": [],
      "stateMutability": "nonpayable",
      "type": "function"
    },
    {
      "inputs": [
        {
          "internalType": "address",
          "name": "from",
          "type": "address"
        },
        {
          "internalType": "address",
          "name": "to",
          "type": "address"
        },
        {
          "internalType": "uint256",
          "name": "tokenId",
          "type": "uint256"
        },
        {
          "internalType": "bytes",
          "name": "_data",
          "type": "bytes"
        }
      ],
      "name": "safeTransferFrom",
      "outputs": [],
      "stateMutability": "nonpayable",
      "type": "function"
    },
    {
      "inputs": [
        {
          "internalType": "address",
          "name": "operator",
          "type": "address"
        },
        {
          "internalType": "bool",
          "name": "approved",
          "type": "bool"
        }
      ],
      "name": "setApprovalForAll",
      "outputs": [],
      "stateMutability": "nonpayable",
      "type": "function"
    },
    {
      "inputs": [
        {
          "internalType": "bytes4",
          "name": "interfaceId",
          "type": "bytes4"
        }
      ],
      "name": "supportsInterface",
      "outputs": [
        {
          "internalType": "bool",
          "name": "",
          "type": "bool"
        }
      ],
      "stateMutability": "view",
      "type": "function"
    },
    {
      "inputs": [],
      "name": "symbol",
      "outputs": [
        {
          "internalType": "string",
          "name": "",
          "type": "string"
        }
      ],
      "stateMutability": "view",
      "type": "function"
    },
    {
      "inputs": [
        {
          "internalType": "uint256",
          "name": "tokenId",
          "type": "uint256"
        }
      ],
      "name": "tokenURI",
      "outputs": [
        {
          "internalType": "string",
          "name": "",
          "type": "string"
        }
      ],
      "stateMutability": "view",
      "type": "function"
    },
    {
      "inputs": [
        {
          "internalType": "address",
          "name": "from",
          "type": "address"
        },
        {
          "internalType": "address",
          "name": "to",
          "type": "address"
        },
        {
          "internalType": "uint256",
          "name": "tokenId",
          "type": "uint256"
        }
      ],
      "name": "transferFrom",
      "outputs": [],
      "stateMutability": "nonpayable",
      "type": "function"
    },
    {
      "inputs": [
        {
          "internalType": "address",
          "name": "newOwner",
          "type": "address"
        }
      ],
      "name": "transferOwnership",
      "outputs": [],
      "stateMutability": "nonpayable",
      "type": "function"
    },
    {
      "inputs": [],
      "name": "withdraw",
      "outputs": [],
      "stateMutability": "nonpayable",
      "type": "function"
    },
    {
      "stateMutability": "payable",
      "type": "receive"
    }
  ],
  "bytecode": "0x60806040523480156200001157600080fd5b50604080518082018252600d81526c11d49055125515511148139195609a1b60208083019182528351808501909452600384526247524160e81b9084015281519192916200006291600091620000f6565b50805162000078906001906020840190620000f6565b505050620000956200008f620000a060201b60201c565b620000a4565b6001600755620001d9565b3390565b600680546001600160a01b038381166001600160a01b0319831681179093556040519116919082907f8be0079c531659141344cd1fd0a4f28419497f9722a3daafe3b4186f6b6457e090600090a35050565b82805462000104906200019c565b90600052602060002090601f01602090048101928262000128576000855562000173565b82601f106200014357805160ff191683800117855562000173565b8280016001018555821562000173579182015b828111156200017357825182559160200191906001019062000156565b506200018192915062000185565b5090565b5b8082111562000181576000815560010162000186565b600181811c90821680620001b157607f821691505b60208210811415620001d357634e487b7160e01b600052602260045260246000fd5b50919050565b6132e980620001e96000396000f3fe6080604052600436106101e75760003560e01c806385df97dc11610102578063aa46a40011610095578063e985e9c511610064578063e985e9c5146105bf578063ee4e1b5314610608578063f2fde38b14610628578063fce3f6ac1461064857600080fd5b8063aa46a40014610555578063b88d4fde1461056c578063c87b56dd1461058c578063e05992a1146105ac57600080fd5b806395d89b41116100d157806395d89b41146104e05780639896c56b146104f55780639a4e1dd714610515578063a22cb4651461053557600080fd5b806385df97dc1461046957806386dadbfc146104895780638d816811146104a05780638da5cb5b146104c257600080fd5b806342842e0e1161017a5780636c19e004116101495780636c19e004146103c657806370a0823114610406578063715018a6146104345780637528f2b11461044957600080fd5b806342842e0e146103195780635c622a0e146103395780636352211e1461037957806368fb8fc01461039957600080fd5b8063095ea7b3116101b6578063095ea7b3146102a45780631a554c58146102c457806323b872dd146102e45780633ccfd60b1461030457600080fd5b806301ffc9a7146101f3578063034d09da1461022857806306fdde031461024a578063081812fc1461026c57600080fd5b366101ee57005b600080fd5b3480156101ff57600080fd5b5061021361020e366004612c38565b610668565b60405190151581526020015b60405180910390f35b34801561023457600080fd5b50610248610243366004612d5b565b610705565b005b34801561025657600080fd5b5061025f6107b8565b60405161021f91906130de565b34801561027857600080fd5b5061028c610287366004612d5b565b61084a565b6040516001600160a01b03909116815260200161021f565b3480156102b057600080fd5b506102486102bf366004612c0f565b6108df565b3480156102d057600080fd5b506102486102df366004612d5b565b610a2f565b3480156102f057600080fd5b506102486102ff366004612b21565b610af5565b34801561031057600080fd5b50610248610c35565b34801561032557600080fd5b50610248610334366004612b21565b610cbe565b34801561034557600080fd5b5061036c610354366004612d5b565b6000908152600a602052604090206002015460ff1690565b60405161021f9190613064565b34801561038557600080fd5b5061028c610394366004612d5b565b610cd9565b3480156103a557600080fd5b506103b96103b4366004612c70565b610d64565b60405161021f91906130f1565b3480156103d257600080fd5b506103f96103e1366004612d5b565b6000908152600f602052604090206001015460ff1690565b60405161021f9190613056565b34801561041257600080fd5b50610426610421366004612ad5565b610ef8565b60405190815260200161021f565b34801561044057600080fd5b50610248610f92565b34801561045557600080fd5b50610248610464366004612d73565b610ff8565b34801561047557600080fd5b50610248610484366004612d5b565b6111c8565b34801561049557600080fd5b506009546104269081565b3480156104ac57600080fd5b506104b56112fa565b60405161021f9190612ff5565b3480156104ce57600080fd5b506006546001600160a01b031661028c565b3480156104ec57600080fd5b5061025f61151e565b34801561050157600080fd5b50610248610510366004612c70565b61152d565b34801561052157600080fd5b50610248610530366004612d04565b611649565b34801561054157600080fd5b50610248610550366004612bd5565b6117cc565b34801561056157600080fd5b506008546104269081565b34801561057857600080fd5b50610248610587366004612b5c565b6117d7565b34801561059857600080fd5b5061025f6105a7366004612d5b565b611865565b6102486105ba366004612dc8565b61195b565b3480156105cb57600080fd5b506102136105da366004612aef565b6001600160a01b03918216600090815260056020908152604080832093909416825291909152205460ff1690565b34801561061457600080fd5b50610248610623366004612d5b565b611c39565b34801561063457600080fd5b50610248610643366004612ad5565b611ce3565b34801561065457600080fd5b50610248610663366004612ca3565b611dc5565b60006001600160e01b031982167f80ac58cd0000000000000000000000000000000000000000000000000000000014806106cb57506001600160e01b031982167f5b5e139f00000000000000000000000000000000000000000000000000000000145b806106ff57507f01ffc9a7000000000000000000000000000000000000000000000000000000006001600160e01b03198316145b92915050565b6006546001600160a01b031633146107645760405162461bcd60e51b815260206004820181905260248201527f4f776e61626c653a2063616c6c6572206973206e6f7420746865206f776e657260448201526064015b60405180910390fd5b6000818152600f6020908152604091829020600101805460ff1916600217905590518281527f023b8e2137f7b1a0f739637260916076b1a4df7b363323a7105d144c6f2aa11391015b60405180910390a150565b6060600080546107c7906131db565b80601f01602080910402602001604051908101604052809291908181526020018280546107f3906131db565b80156108405780601f1061081557610100808354040283529160200191610840565b820191906000526020600020905b81548152906001019060200180831161082357829003601f168201915b5050505050905090565b6000818152600260205260408120546001600160a01b03166108c35760405162461bcd60e51b815260206004820152602c60248201527f4552433732313a20617070726f76656420717565727920666f72206e6f6e657860448201526b34b9ba32b73a103a37b5b2b760a11b606482015260840161075b565b506000908152600460205260409020546001600160a01b031690565b60006108ea82610cd9565b9050806001600160a01b0316836001600160a01b031614156109745760405162461bcd60e51b815260206004820152602160248201527f4552433732313a20617070726f76616c20746f2063757272656e74206f776e6560448201527f7200000000000000000000000000000000000000000000000000000000000000606482015260840161075b565b336001600160a01b03821614806109ae57506001600160a01b038116600090815260056020908152604080832033845290915290205460ff165b610a205760405162461bcd60e51b815260206004820152603860248201527f4552433732313a20617070726f76652063616c6c6572206973206e6f74206f7760448201527f6e6572206e6f7220617070726f76656420666f7220616c6c0000000000000000606482015260840161075b565b610a2a8383611f5d565b505050565b6000818152600a60205260408120600301544290610a4f9061025861316c565b119050801581610a92575060016000838152600a602052604090206002015460ff166005811115610a9057634e487b7160e01b600052602160045260246000fd5b145b8015610ab357506000828152600a60205260409020546001600160a01b0316155b8015610acf575033610ac483610cd9565b6001600160a01b0316145b15610af1576000828152600a60205260409020600201805460ff191660031790555b5050565b60026007541415610b485760405162461bcd60e51b815260206004820152601f60248201527f5265656e7472616e637947756172643a207265656e7472616e742063616c6c00604482015260640161075b565b6002600755610b573382611fcb565b80610b7857506000818152600e60205260409020546001600160a01b031633145b610c105760405162461bcd60e51b815260206004820152604960248201527f4552433732313a207472616e736665722063616c6c6572206973206e6f74206f60448201527f776e6572206e6f7220617070726f766564206f72204e4654206e6f742079657460648201527f2061636365707465640000000000000000000000000000000000000000000000608482015260a40161075b565b610c2b83838360405180602001604052806000815250612101565b5050600160075550565b6006546001600160a01b03163314610c8f5760405162461bcd60e51b815260206004820181905260248201527f4f776e61626c653a2063616c6c6572206973206e6f7420746865206f776e6572604482015260640161075b565b6040514790339082156108fc029083906000818181858888f19350505050158015610af1573d6000803e3d6000fd5b610a2a838383604051806020016040528060008152506117d7565b6000818152600260205260408120546001600160a01b0316806106ff5760405162461bcd60e51b815260206004820152602960248201527f4552433732313a206f776e657220717565727920666f72206e6f6e657869737460448201527f656e7420746f6b656e0000000000000000000000000000000000000000000000606482015260840161075b565b6040805160c0810182526000808252602082018190529181018290526060808201839052608082015260a0810191909152600082604051602001610da89190612f22565b60408051601f1981840301815282825280516020918201206000818152600d835283812054808252600a84529084902060c08601855280546001600160a01b031686526001810154938601939093526002830154919550939283019060ff166005811115610e2657634e487b7160e01b600052602160045260246000fd5b6005811115610e4557634e487b7160e01b600052602160045260246000fd5b815260200160038201548152602001600482018054610e63906131db565b80601f0160208091040260200160405190810160405280929190818152602001828054610e8f906131db565b8015610edc5780601f10610eb157610100808354040283529160200191610edc565b820191906000526020600020905b815481529060010190602001808311610ebf57829003601f168201915b5050505050815260200160058201548152505092505050919050565b60006001600160a01b038216610f765760405162461bcd60e51b815260206004820152602a60248201527f4552433732313a2062616c616e636520717565727920666f7220746865207a6560448201527f726f206164647265737300000000000000000000000000000000000000000000606482015260840161075b565b506001600160a01b031660009081526003602052604090205490565b6006546001600160a01b03163314610fec5760405162461bcd60e51b815260206004820181905260248201527f4f776e61626c653a2063616c6c6572206973206e6f7420746865206f776e6572604482015260640161075b565b610ff6600061218a565b565b6000838152600a60205260409020600281015460ff16600581600581111561103057634e487b7160e01b600052602160045260246000fd5b148061105b5750600281600581111561105957634e487b7160e01b600052602160045260246000fd5b145b806110855750600381600581111561108357634e487b7160e01b600052602160045260246000fd5b145b80156110a157503361109686610cd9565b6001600160a01b0316145b6111135760405162461bcd60e51b815260206004820152602b60248201527f4e4654204953204e4f542052454a4543544544204e4f522054494d454f55542060448201527f4e4f52205354414e444259000000000000000000000000000000000000000000606482015260840161075b565b60028201805460ff19166001179055604051611133908490602001612f22565b60408051601f19818403018152919052805160209091012060058301556001600160a01b03841615611187576000858152600e6020526040902080546001600160a01b0319166001600160a01b0386161790555b7faaec24950f5d317fc1ae90c137651a2aeee78da55e6886373ba89ed5e613c9da8560016040516111b9929190613104565b60405180910390a15050505050565b336111d282610cd9565b6001600160a01b0316146112285760405162461bcd60e51b815260206004820152600b60248201527f4e4f542043524541544f52000000000000000000000000000000000000000000604482015260640161075b565b60016000828152600a602052604090206002015460ff16600581111561125e57634e487b7160e01b600052602160045260246000fd5b146112ab5760405162461bcd60e51b815260206004820152601960248201527f4e4654204e4f5420494e2050454e44494e472053544154555300000000000000604482015260640161075b565b6000818152600a6020526040908190206002908101805460ff19168217905590517faaec24950f5d317fc1ae90c137651a2aeee78da55e6886373ba89ed5e613c9da916107ad91849190613104565b336000908152600c60205260408120546060918167ffffffffffffffff81111561133457634e487b7160e01b600052604160045260246000fd5b60405190808252806020026020018201604052801561139357816020015b6040805160c081018252600080825260208083018290529282018190526060808301829052608083015260a082015282526000199092019101816113525790505b50905060005b8281101561151757600a60006113b083600161316c565b81526020808201929092526040908101600020815160c08101835281546001600160a01b031681526001820154938101939093526002810154909183019060ff16600581111561141057634e487b7160e01b600052602160045260246000fd5b600581111561142f57634e487b7160e01b600052602160045260246000fd5b81526020016003820154815260200160048201805461144d906131db565b80601f0160208091040260200160405190810160405280929190818152602001828054611479906131db565b80156114c65780601f1061149b576101008083540402835291602001916114c6565b820191906000526020600020905b8154815290600101906020018083116114a957829003601f168201915b505050505081526020016005820154815250508282815181106114f957634e487b7160e01b600052603260045260246000fd5b6020026020010181905250808061150f90613216565b915050611399565b5092915050565b6060600180546107c7906131db565b6000816040516020016115409190612f22565b60408051601f1981840301815291815281516020928301206000818152600d90935291205490915060016000828152600a602052604090206002015460ff16600581111561159e57634e487b7160e01b600052602160045260246000fd5b146115eb5760405162461bcd60e51b815260206004820152601960248201527f4e4654204e4f5420494e2050454e44494e472053544154555300000000000000604482015260640161075b565b6000818152600a602052604090819020600201805460ff1916600590811790915590517faaec24950f5d317fc1ae90c137651a2aeee78da55e6886373ba89ed5e613c9da9161163c91849190613104565b60405180910390a1505050565b60008260405160200161165c9190612f22565b60408051601f1981840301815291815281516020928301206000818152600d90935290822054909250339161169082610cd9565b6000838152600e60205260409020549091506001600160a01b03848116911614156116c5576116c0818484610af5565b61175b565b6000848152600d60205260409020546116dd906121dc565b6117295760405162461bcd60e51b815260206004820152600760248201527f54494d454f555400000000000000000000000000000000000000000000000000604482015260640161075b565b6000828152600e6020526040902080546001600160a01b0319166001600160a01b03851617905561175b818484610af5565b6000828152600a6020526040902060020180546004919060ff19166001830217905550845160208601516040517fb763765dbdfcce43f1f8efbdb136d6afb5ef825e9756ec2a687e7fdf60192106926117bc92869260049291903390613118565b60405180910390a1505050505050565b610af1338383612273565b6117e13383611fcb565b6118535760405162461bcd60e51b815260206004820152603160248201527f4552433732313a207472616e736665722063616c6c6572206973206e6f74206f60448201527f776e6572206e6f7220617070726f766564000000000000000000000000000000606482015260840161075b565b61185f84848484612101565b50505050565b6000818152600260205260409020546060906001600160a01b03166118f25760405162461bcd60e51b815260206004820152602f60248201527f4552433732314d657461646174613a2055524920717565727920666f72206e6f60448201527f6e6578697374656e7420746f6b656e0000000000000000000000000000000000606482015260840161075b565b600061190960408051602081019091526000815290565b905060008151116119295760405180602001604052806000815250611954565b8061193384612342565b604051602001611944929190612f3e565b6040516020818303038152906040525b9392505050565b8515806119685750856001145b6119da5760405162461bcd60e51b815260206004820152602f60248201527f4f4e4c5920535441545553204452414654283029204f522050454e44494e472860448201527f3129204152452041434345505445440000000000000000000000000000000000606482015260840161075b565b6119e8600880546001019055565b60006119f360085490565b905060006040518060c00160405280886001600160a01b0316815260200183815260200160006005811115611a3857634e487b7160e01b600052602160045260246000fd5b815260200186815260200185815260200184604051602001611a5a9190612f22565b60408051601f19818403018152918152815160209283012090925260a08301516000908152600d9091522083905590506001881415611ad157600160408201526001600160a01b03871615611ad1576000828152600e6020526040902080546001600160a01b0319166001600160a01b0389161790555b611adb3383612490565b6020808201839052336000908152600c90915260408120805460019290611b0390849061316c565b9091555050336000908152600b60209081526040808320600c83528184205484528252808320859055848352600a825291829020835181546001600160a01b0319166001600160a01b039091161781559083015160018083019190915591830151600282018054859460ff1990911690836005811115611b9357634e487b7160e01b600052602160045260246000fd5b02179055506060820151600382015560808201518051611bbd916004840191602090910190612902565b5060a08201518160050155905050817f598bcac9d5f46bbe46bfb713bd1938e3b2db6e44e297c4d194e1f939b42e8047896005811115611c0d57634e487b7160e01b600052602160045260246000fd5b885160208a0151604051611c27939233928e928c90613072565b60405180910390a25050505050505050565b6006546001600160a01b03163314611c935760405162461bcd60e51b815260206004820181905260248201527f4f776e61626c653a2063616c6c6572206973206e6f7420746865206f776e6572604482015260640161075b565b6000818152600f602052604090206001908101805460ff1916828002179055506040518181527fade0ff2f87cd2fd5a89704161a2ebfc8accf3d6f70ab0485c1105e109204aa43906020016107ad565b6006546001600160a01b03163314611d3d5760405162461bcd60e51b815260206004820181905260248201527f4f776e61626c653a2063616c6c6572206973206e6f7420746865206f776e6572604482015260640161075b565b6001600160a01b038116611db95760405162461bcd60e51b815260206004820152602660248201527f4f776e61626c653a206e6577206f776e657220697320746865207a65726f206160448201527f6464726573730000000000000000000000000000000000000000000000000000606482015260840161075b565b611dc28161218a565b50565b60026007541415611e185760405162461bcd60e51b815260206004820152601f60248201527f5265656e7472616e637947756172643a207265656e7472616e742063616c6c00604482015260640161075b565b6002600755611e2b600980546001019055565b6000611e3660095490565b90506000604051806080016040528083815260200160006002811115611e6c57634e487b7160e01b600052602160045260246000fd5b81526020808201869052336040928301526000858152600f8252919091208251815590820151600180830180549495508594909160ff1990911690836002811115611ec757634e487b7160e01b600052602160045260246000fd5b021790555060408201518051611ee7916002840191602090910190612902565b5060609190910151600390910180546001600160a01b0319166001600160a01b0390921691909117905560405182907f9a298d4520c945bb590ba985d7d228a9fada94908f3fb6734f2900adb884f3ad90611f4a90339060009088908a90612fa9565b60405180910390a2505060016007555050565b600081815260046020526040902080546001600160a01b0319166001600160a01b0384169081179091558190611f9282610cd9565b6001600160a01b03167f8c5be1e5ebec7d5bd14f71427d1e84f3dd0314c0f7b2291e5b200ac8c7c3b92560405160405180910390a45050565b6000818152600260205260408120546001600160a01b03166120445760405162461bcd60e51b815260206004820152602c60248201527f4552433732313a206f70657261746f7220717565727920666f72206e6f6e657860448201526b34b9ba32b73a103a37b5b2b760a11b606482015260840161075b565b600061204f83610cd9565b9050806001600160a01b0316846001600160a01b0316148061208a5750836001600160a01b031661207f8461084a565b6001600160a01b0316145b806120ba57506001600160a01b0380821660009081526005602090815260408083209388168352929052205460ff165b80156120f9575060046000848152600a602052604090206002015460ff1660058111156120f757634e487b7160e01b600052602160045260246000fd5b145b949350505050565b61210c8484846125d2565b6121188484848461279f565b61185f5760405162461bcd60e51b815260206004820152603260248201527f4552433732313a207472616e7366657220746f206e6f6e20455243373231526560448201527f63656976657220696d706c656d656e7465720000000000000000000000000000606482015260840161075b565b600680546001600160a01b038381166001600160a01b0319831681179093556040519116919082907f8be0079c531659141344cd1fd0a4f28419497f9722a3daafe3b4186f6b6457e090600090a35050565b600060016000838152600a602052604090206002015460ff16600581111561221457634e487b7160e01b600052602160045260246000fd5b1461222157506000919050565b6000828152600a602052604081206003015442906122419061025861316c565b1190508061226a5750506000908152600a60205260408120600201805460ff1916600317905590565b50600192915050565b816001600160a01b0316836001600160a01b031614156122d55760405162461bcd60e51b815260206004820152601960248201527f4552433732313a20617070726f766520746f2063616c6c657200000000000000604482015260640161075b565b6001600160a01b03838116600081815260056020908152604080832094871680845294825291829020805460ff191686151590811790915591519182527f17307eab39ab6107e8899845ad3d59bd9653f200f220920489ca2b5937696c31910160405180910390a3505050565b60608161238257505060408051808201909152600181527f3000000000000000000000000000000000000000000000000000000000000000602082015290565b8160005b81156123ac578061239681613216565b91506123a59050600a83613184565b9150612386565b60008167ffffffffffffffff8111156123d557634e487b7160e01b600052604160045260246000fd5b6040519080825280601f01601f1916602001820160405280156123ff576020820181803683370190505b5090505b84156120f957612414600183613198565b9150612421600a86613231565b61242c90603061316c565b60f81b81838151811061244f57634e487b7160e01b600052603260045260246000fd5b60200101907effffffffffffffffffffffffffffffffffffffffffffffffffffffffffffff1916908160001a905350612489600a86613184565b9450612403565b6001600160a01b0382166124e65760405162461bcd60e51b815260206004820181905260248201527f4552433732313a206d696e7420746f20746865207a65726f2061646472657373604482015260640161075b565b6000818152600260205260409020546001600160a01b03161561254b5760405162461bcd60e51b815260206004820152601c60248201527f4552433732313a20746f6b656e20616c7265616479206d696e74656400000000604482015260640161075b565b6001600160a01b038216600090815260036020526040812080546001929061257490849061316c565b909155505060008181526002602052604080822080546001600160a01b0319166001600160a01b03861690811790915590518392907fddf252ad1be2c89b69c2b068fc378daa952ba7f163c4a11628f55a4df523b3ef908290a45050565b826001600160a01b03166125e582610cd9565b6001600160a01b0316146126615760405162461bcd60e51b815260206004820152602560248201527f4552433732313a207472616e736665722066726f6d20696e636f72726563742060448201527f6f776e6572000000000000000000000000000000000000000000000000000000606482015260840161075b565b6001600160a01b0382166126dc5760405162461bcd60e51b8152602060048201526024808201527f4552433732313a207472616e7366657220746f20746865207a65726f2061646460448201527f7265737300000000000000000000000000000000000000000000000000000000606482015260840161075b565b6126e7600082611f5d565b6001600160a01b0383166000908152600360205260408120805460019290612710908490613198565b90915550506001600160a01b038216600090815260036020526040812080546001929061273e90849061316c565b909155505060008181526002602052604080822080546001600160a01b0319166001600160a01b0386811691821790925591518493918716917fddf252ad1be2c89b69c2b068fc378daa952ba7f163c4a11628f55a4df523b3ef91a4505050565b60006001600160a01b0384163b156128f757604051630a85bd0160e11b81526001600160a01b0385169063150b7a02906127e3903390899088908890600401612f6d565b602060405180830381600087803b1580156127fd57600080fd5b505af192505050801561282d575060408051601f3d908101601f1916820190925261282a91810190612c54565b60015b6128dd573d80801561285b576040519150601f19603f3d011682016040523d82523d6000602084013e612860565b606091505b5080516128d55760405162461bcd60e51b815260206004820152603260248201527f4552433732313a207472616e7366657220746f206e6f6e20455243373231526560448201527f63656976657220696d706c656d656e7465720000000000000000000000000000606482015260840161075b565b805181602001fd5b6001600160e01b031916630a85bd0160e11b1490506120f9565b506001949350505050565b82805461290e906131db565b90600052602060002090601f0160209004810192826129305760008555612976565b82601f1061294957805160ff1916838001178555612976565b82800160010185558215612976579182015b8281111561297657825182559160200191906001019061295b565b50612982929150612986565b5090565b5b808211156129825760008155600101612987565b600067ffffffffffffffff808411156129b6576129b6613287565b604051601f8501601f19908116603f011681019082821181831017156129de576129de613287565b816040528093508581528686860111156129f757600080fd5b858560208301376000602087830101525050509392505050565b80356001600160a01b0381168114612a2857600080fd5b919050565b600082601f830112612a3d578081fd5b6119548383356020850161299b565b600060408284031215612a5d578081fd5b6040516040810167ffffffffffffffff8282108183111715612a8157612a81613287565b816040528293508435915080821115612a9957600080fd5b612aa586838701612a2d565b83526020850135915080821115612abb57600080fd5b50612ac885828601612a2d565b6020830152505092915050565b600060208284031215612ae6578081fd5b61195482612a11565b60008060408385031215612b01578081fd5b612b0a83612a11565b9150612b1860208401612a11565b90509250929050565b600080600060608486031215612b35578081fd5b612b3e84612a11565b9250612b4c60208501612a11565b9150604084013590509250925092565b60008060008060808587031215612b71578081fd5b612b7a85612a11565b9350612b8860208601612a11565b925060408501359150606085013567ffffffffffffffff811115612baa578182fd5b8501601f81018713612bba578182fd5b612bc98782356020840161299b565b91505092959194509250565b60008060408385031215612be7578182fd5b612bf083612a11565b915060208301358015158114612c04578182fd5b809150509250929050565b60008060408385031215612c21578182fd5b612c2a83612a11565b946020939093013593505050565b600060208284031215612c49578081fd5b81356119548161329d565b600060208284031215612c65578081fd5b81516119548161329d565b600060208284031215612c81578081fd5b813567ffffffffffffffff811115612c97578182fd5b6120f984828501612a2d565b60008060408385031215612cb5578182fd5b823567ffffffffffffffff80821115612ccc578384fd5b612cd886838701612a2d565b93506020850135915080821115612ced578283fd5b50612cfa85828601612a2d565b9150509250929050565b60008060408385031215612d16578182fd5b823567ffffffffffffffff80821115612d2d578384fd5b612d3986838701612a2d565b93506020850135915080821115612d4e578283fd5b50612cfa85828601612a4c565b600060208284031215612d6c578081fd5b5035919050565b600080600060608486031215612d87578283fd5b83359250612d9760208501612a11565b9150604084013567ffffffffffffffff811115612db2578182fd5b612dbe86828701612a2d565b9150509250925092565b60008060008060008060c08789031215612de0578384fd5b86359550612df060208801612a11565b9450604087013567ffffffffffffffff80821115612e0c578586fd5b612e188a838b01612a4c565b9550606089013594506080890135915080821115612e34578384fd5b612e408a838b01612a2d565b935060a0890135915080821115612e55578283fd5b50612e6289828a01612a2d565b9150509295509295509295565b60008151808452612e878160208601602086016131af565b601f01601f19169290920160200192915050565b60038110612eab57612eab613271565b9052565b60068110612eab57612eab613271565b6001600160a01b0381511682526020810151602083015260006040820151612eea6040850182612eaf565b5060608201516060840152608082015160c06080850152612f0e60c0850182612e6f565b60a093840151949093019390935250919050565b60008251612f348184602087016131af565b9190910192915050565b60008351612f508184602088016131af565b835190830190612f648183602088016131af565b01949350505050565b60006001600160a01b03808716835280861660208401525083604083015260806060830152612f9f6080830184612e6f565b9695505050505050565b6001600160a01b0385168152612fc26020820185612e9b565b608060408201526000612fd86080830185612e6f565b8281036060840152612fea8185612e6f565b979650505050505050565b6000602080830181845280855180835260408601915060408160051b8701019250838701855b8281101561304957603f19888603018452613037858351612ebf565b9450928501929085019060010161301b565b5092979650505050505050565b602081016106ff8284612e9b565b602081016106ff8284612eaf565b61307c8188612eaf565b60006001600160a01b03808816602084015280871660408401525060c060608301526130ab60c0830186612e6f565b82810360808401526130bd8186612e6f565b905082810360a08401526130d18185612e6f565b9998505050505050505050565b6020815260006119546020830184612e6f565b6020815260006119546020830184612ebf565b828152604081016119546020830184612eaf565b8581526131286020820186612eaf565b60a06040820152600061313e60a0830186612e6f565b82810360608401526131508186612e6f565b9150506001600160a01b03831660808301529695505050505050565b6000821982111561317f5761317f613245565b500190565b6000826131935761319361325b565b500490565b6000828210156131aa576131aa613245565b500390565b60005b838110156131ca5781810151838201526020016131b2565b8381111561185f5750506000910152565b600181811c908216806131ef57607f821691505b6020821081141561321057634e487b7160e01b600052602260045260246000fd5b50919050565b600060001982141561322a5761322a613245565b5060010190565b6000826132405761324061325b565b500690565b634e487b7160e01b600052601160045260246000fd5b634e487b7160e01b600052601260045260246000fd5b634e487b7160e01b600052602160045260246000fd5b634e487b7160e01b600052604160045260246000fd5b6001600160e01b031981168114611dc257600080fdfea2646970667358221220756af10210e20fa835b041e83832e06b81201d38f86d60153e617a3d59a2a11e64736f6c63430008040033",
  "linkReferences": {},
  "deployedLinkReferences": {}
}