{
  "_format": "hh-sol-artifact-1",
  "contractName": "GratitudeContract",
  "sourceName": "contracts/GratitudeContract.sol",
  "abi": [
    {
      "inputs": [],
      "stateMutability": "nonpayable",
      "type": "constructor"
    },
    {
      "anonymous": false,
      "inputs": [
        {
          "indexed": true,
          "internalType": "address",
          "name": "owner",
          "type": "address"
        },
        {
          "indexed": true,
          "internalType": "address",
          "name": "approved",
          "type": "address"
        },
        {
          "indexed": true,
          "internalType": "uint256",
          "name": "tokenId",
          "type": "uint256"
        }
      ],
      "name": "Approval",
      "type": "event"
    },
    {
      "anonymous": false,
      "inputs": [
        {
          "indexed": true,
          "internalType": "address",
          "name": "owner",
          "type": "address"
        },
        {
          "indexed": true,
          "internalType": "address",
          "name": "operator",
          "type": "address"
        },
        {
          "indexed": false,
          "internalType": "bool",
          "name": "approved",
          "type": "bool"
        }
      ],
      "name": "ApprovalForAll",
      "type": "event"
    },
    {
      "anonymous": false,
      "inputs": [
        {
          "indexed": true,
          "internalType": "address",
          "name": "previousOwner",
          "type": "address"
        },
        {
          "indexed": true,
          "internalType": "address",
          "name": "newOwner",
          "type": "address"
        }
      ],
      "name": "OwnershipTransferred",
      "type": "event"
    },
    {
      "anonymous": false,
      "inputs": [
        {
          "indexed": true,
          "internalType": "address",
          "name": "from",
          "type": "address"
        },
        {
          "indexed": true,
          "internalType": "address",
          "name": "to",
          "type": "address"
        },
        {
          "indexed": true,
          "internalType": "uint256",
          "name": "tokenId",
          "type": "uint256"
        }
      ],
      "name": "Transfer",
      "type": "event"
    },
    {
      "inputs": [],
      "name": "_tokenIds",
      "outputs": [
        {
          "internalType": "uint256",
          "name": "_value",
          "type": "uint256"
        }
      ],
      "stateMutability": "view",
      "type": "function"
    },
    {
      "inputs": [
        {
          "internalType": "address",
          "name": "to",
          "type": "address"
        },
        {
          "internalType": "string",
          "name": "_linkCode",
          "type": "string"
        }
      ],
      "name": "acceptLinkHash",
      "outputs": [],
      "stateMutability": "nonpayable",
      "type": "function"
    },
    {
      "inputs": [
        {
          "internalType": "address",
          "name": "to",
          "type": "address"
        },
        {
          "internalType": "uint256",
          "name": "tokenId",
          "type": "uint256"
        }
      ],
      "name": "approve",
      "outputs": [],
      "stateMutability": "nonpayable",
      "type": "function"
    },
    {
      "inputs": [
        {
          "internalType": "address",
          "name": "owner",
          "type": "address"
        }
      ],
      "name": "balanceOf",
      "outputs": [
        {
          "internalType": "uint256",
          "name": "",
          "type": "uint256"
        }
      ],
      "stateMutability": "view",
      "type": "function"
    },
    {
      "inputs": [
        {
          "internalType": "uint256",
          "name": "_tokenId",
          "type": "uint256"
        }
      ],
      "name": "cancelWhenStillPending",
      "outputs": [],
      "stateMutability": "nonpayable",
      "type": "function"
    },
    {
      "inputs": [
        {
          "internalType": "uint256",
          "name": "_status",
          "type": "uint256"
        },
        {
          "internalType": "address",
          "name": "_receiver",
          "type": "address"
        },
        {
          "components": [
            {
              "internalType": "uint8",
              "name": "lat",
              "type": "uint8"
            },
            {
              "internalType": "uint8",
              "name": "lng",
              "type": "uint8"
            }
          ],
          "internalType": "struct GratitudeContract.GEO",
          "name": "_geo",
          "type": "tuple"
        },
        {
          "internalType": "uint256",
          "name": "_timeStamp",
          "type": "uint256"
        },
        {
          "internalType": "string",
          "name": "_tokenUri",
          "type": "string"
        },
        {
          "internalType": "string",
          "name": "_linkCode",
          "type": "string"
        }
      ],
      "name": "createGratitudeToken",
      "outputs": [],
      "stateMutability": "nonpayable",
      "type": "function"
    },
    {
      "inputs": [
        {
          "internalType": "uint256",
          "name": "tokenId",
          "type": "uint256"
        }
      ],
      "name": "getApproved",
      "outputs": [
        {
          "internalType": "address",
          "name": "",
          "type": "address"
        }
      ],
      "stateMutability": "view",
      "type": "function"
    },
    {
      "inputs": [
        {
          "internalType": "string",
          "name": "_linkCode",
          "type": "string"
        }
      ],
      "name": "getGratitudeNFtByLinkCode",
      "outputs": [
        {
          "components": [
            {
              "internalType": "address",
              "name": "receiver",
              "type": "address"
            },
            {
              "internalType": "uint256",
              "name": "tokenId",
              "type": "uint256"
            },
            {
              "internalType": "enum GratitudeContract.NFTStatus",
              "name": "status",
              "type": "uint8"
            },
            {
              "components": [
                {
                  "internalType": "uint8",
                  "name": "lat",
                  "type": "uint8"
                },
                {
                  "internalType": "uint8",
                  "name": "lng",
                  "type": "uint8"
                }
              ],
              "internalType": "struct GratitudeContract.GEO",
              "name": "geo",
              "type": "tuple"
            },
            {
              "internalType": "uint256",
              "name": "timeStamp",
              "type": "uint256"
            },
            {
              "internalType": "string",
              "name": "tokenUri",
              "type": "string"
            },
            {
              "internalType": "bytes32",
              "name": "linkCode",
              "type": "bytes32"
            }
          ],
          "internalType": "struct GratitudeContract.NFT",
          "name": "",
          "type": "tuple"
        }
      ],
      "stateMutability": "view",
      "type": "function"
    },
    {
      "inputs": [
        {
          "internalType": "uint256",
          "name": "_tokenId",
          "type": "uint256"
        }
      ],
      "name": "getPendingStatus",
      "outputs": [
        {
          "internalType": "enum GratitudeContract.NFTStatus",
          "name": "",
          "type": "uint8"
        }
      ],
      "stateMutability": "nonpayable",
      "type": "function"
    },
    {
      "inputs": [
        {
          "internalType": "address",
          "name": "owner",
          "type": "address"
        },
        {
          "internalType": "address",
          "name": "operator",
          "type": "address"
        }
      ],
      "name": "isApprovedForAll",
      "outputs": [
        {
          "internalType": "bool",
          "name": "",
          "type": "bool"
        }
      ],
      "stateMutability": "view",
      "type": "function"
    },
    {
      "inputs": [],
      "name": "name",
      "outputs": [
        {
          "internalType": "string",
          "name": "",
          "type": "string"
        }
      ],
      "stateMutability": "view",
      "type": "function"
    },
    {
      "inputs": [],
      "name": "owner",
      "outputs": [
        {
          "internalType": "address",
          "name": "",
          "type": "address"
        }
      ],
      "stateMutability": "view",
      "type": "function"
    },
    {
      "inputs": [
        {
          "internalType": "uint256",
          "name": "tokenId",
          "type": "uint256"
        }
      ],
      "name": "ownerOf",
      "outputs": [
        {
          "internalType": "address",
          "name": "",
          "type": "address"
        }
      ],
      "stateMutability": "view",
      "type": "function"
    },
    {
      "inputs": [
        {
          "internalType": "string",
          "name": "_linkCode",
          "type": "string"
        }
      ],
      "name": "rejectGratitudeNFTbyLinkCode",
      "outputs": [],
      "stateMutability": "nonpayable",
      "type": "function"
    },
    {
      "inputs": [],
      "name": "renounceOwnership",
      "outputs": [],
      "stateMutability": "nonpayable",
      "type": "function"
    },
    {
      "inputs": [
        {
          "internalType": "uint256",
          "name": "_tokenId",
          "type": "uint256"
        },
        {
          "internalType": "address",
          "name": "_receiver",
          "type": "address"
        },
        {
          "internalType": "string",
          "name": "_linkCode",
          "type": "string"
        }
      ],
      "name": "resendWhenTimeOutOrRejectedOrStandby",
      "outputs": [],
      "stateMutability": "nonpayable",
      "type": "function"
    },
    {
      "inputs": [
        {
          "internalType": "address",
          "name": "from",
          "type": "address"
        },
        {
          "internalType": "address",
          "name": "to",
          "type": "address"
        },
        {
          "internalType": "uint256",
          "name": "tokenId",
          "type": "uint256"
        }
      ],
      "name": "safeTransferFrom",
      "outputs": [],
      "stateMutability": "nonpayable",
      "type": "function"
    },
    {
      "inputs": [
        {
          "internalType": "address",
          "name": "from",
          "type": "address"
        },
        {
          "internalType": "address",
          "name": "to",
          "type": "address"
        },
        {
          "internalType": "uint256",
          "name": "tokenId",
          "type": "uint256"
        },
        {
          "internalType": "bytes",
          "name": "_data",
          "type": "bytes"
        }
      ],
      "name": "safeTransferFrom",
      "outputs": [],
      "stateMutability": "nonpayable",
      "type": "function"
    },
    {
      "inputs": [
        {
          "internalType": "address",
          "name": "operator",
          "type": "address"
        },
        {
          "internalType": "bool",
          "name": "approved",
          "type": "bool"
        }
      ],
      "name": "setApprovalForAll",
      "outputs": [],
      "stateMutability": "nonpayable",
      "type": "function"
    },
    {
      "inputs": [
        {
          "internalType": "bytes4",
          "name": "interfaceId",
          "type": "bytes4"
        }
      ],
      "name": "supportsInterface",
      "outputs": [
        {
          "internalType": "bool",
          "name": "",
          "type": "bool"
        }
      ],
      "stateMutability": "view",
      "type": "function"
    },
    {
      "inputs": [],
      "name": "symbol",
      "outputs": [
        {
          "internalType": "string",
          "name": "",
          "type": "string"
        }
      ],
      "stateMutability": "view",
      "type": "function"
    },
    {
      "inputs": [
        {
          "internalType": "uint256",
          "name": "index",
          "type": "uint256"
        }
      ],
      "name": "tokenByIndex",
      "outputs": [
        {
          "internalType": "uint256",
          "name": "",
          "type": "uint256"
        }
      ],
      "stateMutability": "view",
      "type": "function"
    },
    {
      "inputs": [
        {
          "internalType": "address",
          "name": "owner",
          "type": "address"
        },
        {
          "internalType": "uint256",
          "name": "index",
          "type": "uint256"
        }
      ],
      "name": "tokenOfOwnerByIndex",
      "outputs": [
        {
          "internalType": "uint256",
          "name": "",
          "type": "uint256"
        }
      ],
      "stateMutability": "view",
      "type": "function"
    },
    {
      "inputs": [
        {
          "internalType": "uint256",
          "name": "tokenId",
          "type": "uint256"
        }
      ],
      "name": "tokenURI",
      "outputs": [
        {
          "internalType": "string",
          "name": "",
          "type": "string"
        }
      ],
      "stateMutability": "view",
      "type": "function"
    },
    {
      "inputs": [],
      "name": "totalSupply",
      "outputs": [
        {
          "internalType": "uint256",
          "name": "",
          "type": "uint256"
        }
      ],
      "stateMutability": "view",
      "type": "function"
    },
    {
      "inputs": [
        {
          "internalType": "address",
          "name": "from",
          "type": "address"
        },
        {
          "internalType": "address",
          "name": "to",
          "type": "address"
        },
        {
          "internalType": "uint256",
          "name": "tokenId",
          "type": "uint256"
        }
      ],
      "name": "transferFrom",
      "outputs": [],
      "stateMutability": "nonpayable",
      "type": "function"
    },
    {
      "inputs": [
        {
          "internalType": "address",
          "name": "newOwner",
          "type": "address"
        }
      ],
      "name": "transferOwnership",
      "outputs": [],
      "stateMutability": "nonpayable",
      "type": "function"
    },
    {
      "inputs": [],
      "name": "updateGratitudeToken",
      "outputs": [],
      "stateMutability": "nonpayable",
      "type": "function"
    }
  ],
  "bytecode": "0x60806040523480156200001157600080fd5b506040518060400160405280600f81526020017f4e47204e465420436f6e747261637400000000000000000000000000000000008152506040518060400160405280600381526020017f4e47430000000000000000000000000000000000000000000000000000000000815250816000908051906020019062000096929190620001a6565b508060019080519060200190620000af929190620001a6565b505050620000d2620000c6620000d860201b60201c565b620000e060201b60201c565b620002bb565b600033905090565b6000600660009054906101000a900473ffffffffffffffffffffffffffffffffffffffff16905081600660006101000a81548173ffffffffffffffffffffffffffffffffffffffff021916908373ffffffffffffffffffffffffffffffffffffffff1602179055508173ffffffffffffffffffffffffffffffffffffffff168173ffffffffffffffffffffffffffffffffffffffff167f8be0079c531659141344cd1fd0a4f28419497f9722a3daafe3b4186f6b6457e060405160405180910390a35050565b828054620001b49062000256565b90600052602060002090601f016020900481019282620001d8576000855562000224565b82601f10620001f357805160ff191683800117855562000224565b8280016001018555821562000224579182015b828111156200022357825182559160200191906001019062000206565b5b50905062000233919062000237565b5090565b5b808211156200025257600081600090555060010162000238565b5090565b600060028204905060018216806200026f57607f821691505b602082108114156200028657620002856200028c565b5b50919050565b7f4e487b7100000000000000000000000000000000000000000000000000000000600052602260045260246000fd5b614d3180620002cb6000396000f3fe608060405234801561001057600080fd5b50600436106101c45760003560e01c80637528f2b1116100f9578063b467348211610097578063c87b56dd11610071578063c87b56dd146104db578063e985e9c51461050b578063f2fde38b1461053b578063f81486b814610557576101c4565b8063b467348214610499578063b88d4fde146104b5578063c1e0d96c146104d1576101c4565b806395d89b41116100d357806395d89b41146104255780639896c56b14610443578063a22cb4651461045f578063aa46a4001461047b576101c4565b80637528f2b1146103cf57806385df97dc146103eb5780638da5cb5b14610407576101c4565b80632f745c59116101665780636352211e116101405780636352211e1461033557806368fb8fc01461036557806370a0823114610395578063715018a6146103c5576101c4565b80632f745c59146102b957806342842e0e146102e95780634f6ccce714610305576101c4565b8063095ea7b3116101a2578063095ea7b31461024757806318160ddd1461026357806323b872dd146102815780632a584aaf1461029d576101c4565b806301ffc9a7146101c957806306fdde03146101f9578063081812fc14610217575b600080fd5b6101e360048036038101906101de9190613697565b610587565b6040516101f09190613e69565b60405180910390f35b610201610669565b60405161020e9190613e9f565b60405180910390f35b610231600480360381019061022c919061372a565b6106fb565b60405161023e9190613e02565b60405180910390f35b610261600480360381019061025c919061365b565b610780565b005b61026b610898565b60405161027891906141c3565b60405180910390f35b61029b60048036038101906102969190613501565b6108a5565b005b6102b760048036038101906102b29190613607565b61091d565b005b6102d360048036038101906102ce919061365b565b610aee565b6040516102e091906141c3565b60405180910390f35b61030360048036038101906102fe9190613501565b610b93565b005b61031f600480360381019061031a919061372a565b610bb3565b60405161032c91906141c3565b60405180910390f35b61034f600480360381019061034a919061372a565b610c4a565b60405161035c9190613e02565b60405180910390f35b61037f600480360381019061037a91906136e9565b610cfc565b60405161038c91906141a1565b60405180910390f35b6103af60048036038101906103aa919061349c565b610f49565b6040516103bc91906141c3565b60405180910390f35b6103cd611001565b005b6103e960048036038101906103e49190613753565b611089565b005b6104056004803603810190610400919061372a565b6113ad565b005b61040f61152b565b60405161041c9190613e02565b60405180910390f35b61042d611555565b60405161043a9190613e9f565b60405180910390f35b61045d600480360381019061045891906136e9565b6115e7565b005b610479600480360381019061047491906135cb565b611694565b005b6104836116aa565b60405161049091906141c3565b60405180910390f35b6104b360048036038101906104ae91906137ba565b6116b6565b005b6104cf60048036038101906104ca9190613550565b6119fb565b005b6104d9611a5d565b005b6104f560048036038101906104f0919061372a565b611a5f565b6040516105029190613e9f565b60405180910390f35b610525600480360381019061052091906134c5565b611b06565b6040516105329190613e69565b60405180910390f35b6105556004803603810190610550919061349c565b611b9a565b005b610571600480360381019061056c919061372a565b611c92565b60405161057e9190613e84565b60405180910390f35b60007f80ac58cd000000000000000000000000000000000000000000000000000000007bffffffffffffffffffffffffffffffffffffffffffffffffffffffff1916827bffffffffffffffffffffffffffffffffffffffffffffffffffffffff1916148061065257507f5b5e139f000000000000000000000000000000000000000000000000000000007bffffffffffffffffffffffffffffffffffffffffffffffffffffffff1916827bffffffffffffffffffffffffffffffffffffffffffffffffffffffff1916145b80610662575061066182611e76565b5b9050919050565b60606000805461067890614466565b80601f01602080910402602001604051908101604052809291908181526020018280546106a490614466565b80156106f15780601f106106c6576101008083540402835291602001916106f1565b820191906000526020600020905b8154815290600101906020018083116106d457829003601f168201915b5050505050905090565b600061070682611ee0565b610745576040517f08c379a000000000000000000000000000000000000000000000000000000000815260040161073c906140a1565b60405180910390fd5b6004600083815260200190815260200160002060009054906101000a900473ffffffffffffffffffffffffffffffffffffffff169050919050565b600061078b82610c4a565b90508073ffffffffffffffffffffffffffffffffffffffff168373ffffffffffffffffffffffffffffffffffffffff1614156107fc576040517f08c379a00000000000000000000000000000000000000000000000000000000081526004016107f390614121565b60405180910390fd5b8073ffffffffffffffffffffffffffffffffffffffff1661081b611f4c565b73ffffffffffffffffffffffffffffffffffffffff16148061084a575061084981610844611f4c565b611b06565b5b610889576040517f08c379a000000000000000000000000000000000000000000000000000000000815260040161088090614001565b60405180910390fd5b6108938383611f54565b505050565b6000600f80549050905090565b6108b66108b0611f4c565b8261200d565b806108ce57506108cd6108c7611f4c565b8261218a565b5b61090d576040517f08c379a000000000000000000000000000000000000000000000000000000000815260040161090490613fe1565b60405180910390fd5b6109188383836121f6565b505050565b6000816040516020016109309190613dc7565b6040516020818303038152906040528051906020012090506000600b6000838152602001908152602001600020549050600061096b82610c4a565b90508473ffffffffffffffffffffffffffffffffffffffff16600c600084815260200190815260200160002060009054906101000a900473ffffffffffffffffffffffffffffffffffffffff1673ffffffffffffffffffffffffffffffffffffffff1614156109e4576109df8186846108a5565b610a82565b610a00600b60008581526020019081526020016000205461245d565b610a3f576040517f08c379a0000000000000000000000000000000000000000000000000000000008152600401610a36906140e1565b60405180910390fd5b8473ffffffffffffffffffffffffffffffffffffffff16600c600084815260200190815260200160002060009054906101000a90505050610a818186846108a5565b5b60046008600084815260200190815260200160002060020160006101000a81548160ff02191690836005811115610ae2577f4e487b7100000000000000000000000000000000000000000000000000000000600052602160045260246000fd5b02179055505050505050565b6000610af983610f49565b8210610b3a576040517f08c379a0000000000000000000000000000000000000000000000000000000008152600401610b3190613ec1565b60405180910390fd5b600d60008473ffffffffffffffffffffffffffffffffffffffff1673ffffffffffffffffffffffffffffffffffffffff168152602001908152602001600020600083815260200190815260200160002054905092915050565b610bae838383604051806020016040528060008152506119fb565b505050565b6000610bbd610898565b8210610bfe576040517f08c379a0000000000000000000000000000000000000000000000000000000008152600401610bf590614161565b60405180910390fd5b600f8281548110610c38577f4e487b7100000000000000000000000000000000000000000000000000000000600052603260045260246000fd5b90600052602060002001549050919050565b6000806002600084815260200190815260200160002060009054906101000a900473ffffffffffffffffffffffffffffffffffffffff169050600073ffffffffffffffffffffffffffffffffffffffff168173ffffffffffffffffffffffffffffffffffffffff161415610cf3576040517f08c379a0000000000000000000000000000000000000000000000000000000008152600401610cea90614041565b60405180910390fd5b80915050919050565b610d0461324e565b600082604051602001610d179190613dc7565b6040516020818303038152906040528051906020012090506000600b6000838152602001908152602001600020549050600860008281526020019081526020016000206040518060e00160405290816000820160009054906101000a900473ffffffffffffffffffffffffffffffffffffffff1673ffffffffffffffffffffffffffffffffffffffff1673ffffffffffffffffffffffffffffffffffffffff168152602001600182015481526020016002820160009054906101000a900460ff166005811115610e10577f4e487b7100000000000000000000000000000000000000000000000000000000600052602160045260246000fd5b6005811115610e48577f4e487b7100000000000000000000000000000000000000000000000000000000600052602160045260246000fd5b8152602001600382016040518060400160405290816000820160009054906101000a900460ff1660ff1660ff1681526020016000820160019054906101000a900460ff1660ff1660ff1681525050815260200160048201548152602001600582018054610eb490614466565b80601f0160208091040260200160405190810160405280929190818152602001828054610ee090614466565b8015610f2d5780601f10610f0257610100808354040283529160200191610f2d565b820191906000526020600020905b815481529060010190602001808311610f1057829003601f168201915b5050505050815260200160068201548152505092505050919050565b60008073ffffffffffffffffffffffffffffffffffffffff168273ffffffffffffffffffffffffffffffffffffffff161415610fba576040517f08c379a0000000000000000000000000000000000000000000000000000000008152600401610fb190614021565b60405180910390fd5b600360008373ffffffffffffffffffffffffffffffffffffffff1673ffffffffffffffffffffffffffffffffffffffff168152602001908152602001600020549050919050565b611009611f4c565b73ffffffffffffffffffffffffffffffffffffffff1661102761152b565b73ffffffffffffffffffffffffffffffffffffffff161461107d576040517f08c379a0000000000000000000000000000000000000000000000000000000008152600401611074906140c1565b60405180910390fd5b61108760006125ad565b565b600060086000858152602001908152602001600020905060008160020160009054906101000a900460ff1690506005808111156110ef577f4e487b7100000000000000000000000000000000000000000000000000000000600052602160045260246000fd5b816005811115611128577f4e487b7100000000000000000000000000000000000000000000000000000000600052602160045260246000fd5b14806111a4575060026005811115611169577f4e487b7100000000000000000000000000000000000000000000000000000000600052602160045260246000fd5b8160058111156111a2577f4e487b7100000000000000000000000000000000000000000000000000000000600052602160045260246000fd5b145b8061121f5750600360058111156111e4577f4e487b7100000000000000000000000000000000000000000000000000000000600052602160045260246000fd5b81600581111561121d577f4e487b7100000000000000000000000000000000000000000000000000000000600052602160045260246000fd5b145b801561125e57503373ffffffffffffffffffffffffffffffffffffffff1661124686610c4a565b73ffffffffffffffffffffffffffffffffffffffff16145b61129d576040517f08c379a000000000000000000000000000000000000000000000000000000000815260040161129490613ee1565b60405180910390fd5b60018260020160006101000a81548160ff021916908360058111156112eb577f4e487b7100000000000000000000000000000000000000000000000000000000600052602160045260246000fd5b0217905550826040516020016113019190613dc7565b604051602081830303815290604052805190602001208260060181905550600073ffffffffffffffffffffffffffffffffffffffff168473ffffffffffffffffffffffffffffffffffffffff16146113a65783600c600087815260200190815260200160002060006101000a81548173ffffffffffffffffffffffffffffffffffffffff021916908373ffffffffffffffffffffffffffffffffffffffff1602179055505b5050505050565b600160058111156113e7577f4e487b7100000000000000000000000000000000000000000000000000000000600052602160045260246000fd5b6008600083815260200190815260200160002060020160009054906101000a900460ff166005811115611443577f4e487b7100000000000000000000000000000000000000000000000000000000600052602160045260246000fd5b1415801561148457503373ffffffffffffffffffffffffffffffffffffffff1661146c82610c4a565b73ffffffffffffffffffffffffffffffffffffffff16145b6114c3576040517f08c379a00000000000000000000000000000000000000000000000000000000081526004016114ba90614181565b60405180910390fd5b60026008600083815260200190815260200160002060020160006101000a81548160ff02191690836005811115611523577f4e487b7100000000000000000000000000000000000000000000000000000000600052602160045260246000fd5b021790555050565b6000600660009054906101000a900473ffffffffffffffffffffffffffffffffffffffff16905090565b60606001805461156490614466565b80601f016020809104026020016040519081016040528092919081815260200182805461159090614466565b80156115dd5780601f106115b2576101008083540402835291602001916115dd565b820191906000526020600020905b8154815290600101906020018083116115c057829003601f168201915b5050505050905090565b6000816040516020016115fa9190613dc7565b6040516020818303038152906040528051906020012090506000600b600083815260200190815260200160002054905060056008600083815260200190815260200160002060020160006101000a81548160ff0219169083600581111561168a577f4e487b7100000000000000000000000000000000000000000000000000000000600052602160045260246000fd5b0217905550505050565b6116a661169f611f4c565b8383612673565b5050565b60078060000154905081565b60008614806116c55750600186145b611704576040517f08c379a00000000000000000000000000000000000000000000000000000000081526004016116fb90614061565b60405180910390fd5b61170e60076127e0565b600061171a60076127f6565b905060006040518060e001604052808873ffffffffffffffffffffffffffffffffffffffff16815260200183815260200160006005811115611785577f4e487b7100000000000000000000000000000000000000000000000000000000600052602160045260246000fd5b8152602001878152602001868152602001858152602001846040516020016117ad9190613dc7565b60405160208183030381529060405280519060200120815250905081600b60008360c0015181526020019081526020016000208190555060018814156119f15760018160400190600581111561182c577f4e487b7100000000000000000000000000000000000000000000000000000000600052602160045260246000fd5b90816005811115611866577f4e487b7100000000000000000000000000000000000000000000000000000000600052602160045260246000fd5b815250506118743383612804565b818160200181815250506001600a60003373ffffffffffffffffffffffffffffffffffffffff1673ffffffffffffffffffffffffffffffffffffffff16815260200190815260200160002060008282546118ce91906142b9565b9250508190555081600960003373ffffffffffffffffffffffffffffffffffffffff1673ffffffffffffffffffffffffffffffffffffffff1681526020019081526020016000206000600a60003373ffffffffffffffffffffffffffffffffffffffff1673ffffffffffffffffffffffffffffffffffffffff16815260200190815260200160002054815260200190815260200160002081905550600073ffffffffffffffffffffffffffffffffffffffff168773ffffffffffffffffffffffffffffffffffffffff16146119f05786600c600084815260200190815260200160002060006101000a81548173ffffffffffffffffffffffffffffffffffffffff021916908373ffffffffffffffffffffffffffffffffffffffff1602179055505b5b5050505050505050565b611a0c611a06611f4c565b8361200d565b611a4b576040517f08c379a0000000000000000000000000000000000000000000000000000000008152600401611a4290614141565b60405180910390fd5b611a57848484846129de565b50505050565b565b6060611a6a82611ee0565b611aa9576040517f08c379a0000000000000000000000000000000000000000000000000000000008152600401611aa090614101565b60405180910390fd5b6000611ab3612a3a565b90506000815111611ad35760405180602001604052806000815250611afe565b80611add84612a51565b604051602001611aee929190613dde565b6040516020818303038152906040525b915050919050565b6000600560008473ffffffffffffffffffffffffffffffffffffffff1673ffffffffffffffffffffffffffffffffffffffff16815260200190815260200160002060008373ffffffffffffffffffffffffffffffffffffffff1673ffffffffffffffffffffffffffffffffffffffff16815260200190815260200160002060009054906101000a900460ff16905092915050565b611ba2611f4c565b73ffffffffffffffffffffffffffffffffffffffff16611bc061152b565b73ffffffffffffffffffffffffffffffffffffffff1614611c16576040517f08c379a0000000000000000000000000000000000000000000000000000000008152600401611c0d906140c1565b60405180910390fd5b600073ffffffffffffffffffffffffffffffffffffffff168173ffffffffffffffffffffffffffffffffffffffff161415611c86576040517f08c379a0000000000000000000000000000000000000000000000000000000008152600401611c7d90613f21565b60405180910390fd5b611c8f816125ad565b50565b600060016005811115611cce577f4e487b7100000000000000000000000000000000000000000000000000000000600052602160045260246000fd5b6008600084815260200190815260200160002060020160009054906101000a900460ff166005811115611d2a577f4e487b7100000000000000000000000000000000000000000000000000000000600052602160045260246000fd5b14158015611d6b57503373ffffffffffffffffffffffffffffffffffffffff16611d5383610c4a565b73ffffffffffffffffffffffffffffffffffffffff16145b611daa576040517f08c379a0000000000000000000000000000000000000000000000000000000008152600401611da190614181565b60405180910390fd5b6000426102586008600086815260200190815260200160002060040154611dd191906142b9565b1115905080611e495760036008600085815260200190815260200160002060020160006101000a81548160ff02191690836005811115611e3a577f4e487b7100000000000000000000000000000000000000000000000000000000600052602160045260246000fd5b02179055506003915050611e71565b6008600084815260200190815260200160002060020160009054906101000a900460ff169150505b919050565b60007f01ffc9a7000000000000000000000000000000000000000000000000000000007bffffffffffffffffffffffffffffffffffffffffffffffffffffffff1916827bffffffffffffffffffffffffffffffffffffffffffffffffffffffff1916149050919050565b60008073ffffffffffffffffffffffffffffffffffffffff166002600084815260200190815260200160002060009054906101000a900473ffffffffffffffffffffffffffffffffffffffff1673ffffffffffffffffffffffffffffffffffffffff1614159050919050565b600033905090565b816004600083815260200190815260200160002060006101000a81548173ffffffffffffffffffffffffffffffffffffffff021916908373ffffffffffffffffffffffffffffffffffffffff160217905550808273ffffffffffffffffffffffffffffffffffffffff16611fc783610c4a565b73ffffffffffffffffffffffffffffffffffffffff167f8c5be1e5ebec7d5bd14f71427d1e84f3dd0314c0f7b2291e5b200ac8c7c3b92560405160405180910390a45050565b600061201882611ee0565b612057576040517f08c379a000000000000000000000000000000000000000000000000000000000815260040161204e90613fc1565b60405180910390fd5b600061206283610c4a565b90508073ffffffffffffffffffffffffffffffffffffffff168473ffffffffffffffffffffffffffffffffffffffff1614806120d157508373ffffffffffffffffffffffffffffffffffffffff166120b9846106fb565b73ffffffffffffffffffffffffffffffffffffffff16145b806120e257506120e18185611b06565b5b8015612181575060046005811115612123577f4e487b7100000000000000000000000000000000000000000000000000000000600052602160045260246000fd5b6008600085815260200190815260200160002060020160009054906101000a900460ff16600581111561217f577f4e487b7100000000000000000000000000000000000000000000000000000000600052602160045260246000fd5b145b91505092915050565b60008273ffffffffffffffffffffffffffffffffffffffff16600c600084815260200190815260200160002060009054906101000a900473ffffffffffffffffffffffffffffffffffffffff1673ffffffffffffffffffffffffffffffffffffffff1614905092915050565b8273ffffffffffffffffffffffffffffffffffffffff1661221682610c4a565b73ffffffffffffffffffffffffffffffffffffffff161461226c576040517f08c379a000000000000000000000000000000000000000000000000000000000815260040161226390613f41565b60405180910390fd5b600073ffffffffffffffffffffffffffffffffffffffff168273ffffffffffffffffffffffffffffffffffffffff1614156122dc576040517f08c379a00000000000000000000000000000000000000000000000000000000081526004016122d390613f81565b60405180910390fd5b6122e7838383612bfe565b6122f2600082611f54565b6001600360008573ffffffffffffffffffffffffffffffffffffffff1673ffffffffffffffffffffffffffffffffffffffff16815260200190815260200160002060008282546123429190614340565b925050819055506001600360008473ffffffffffffffffffffffffffffffffffffffff1673ffffffffffffffffffffffffffffffffffffffff168152602001908152602001600020600082825461239991906142b9565b92505081905550816002600083815260200190815260200160002060006101000a81548173ffffffffffffffffffffffffffffffffffffffff021916908373ffffffffffffffffffffffffffffffffffffffff160217905550808273ffffffffffffffffffffffffffffffffffffffff168473ffffffffffffffffffffffffffffffffffffffff167fddf252ad1be2c89b69c2b068fc378daa952ba7f163c4a11628f55a4df523b3ef60405160405180910390a4612458838383612d12565b505050565b600060016005811115612499577f4e487b7100000000000000000000000000000000000000000000000000000000600052602160045260246000fd5b6008600084815260200190815260200160002060020160009054906101000a900460ff1660058111156124f5577f4e487b7100000000000000000000000000000000000000000000000000000000600052602160045260246000fd5b1461250357600090506125a8565b600042610258600860008681526020019081526020016000206004015461252a91906142b9565b11159050806125a25760036008600085815260200190815260200160002060020160006101000a81548160ff02191690836005811115612593577f4e487b7100000000000000000000000000000000000000000000000000000000600052602160045260246000fd5b021790555060009150506125a8565b60019150505b919050565b6000600660009054906101000a900473ffffffffffffffffffffffffffffffffffffffff16905081600660006101000a81548173ffffffffffffffffffffffffffffffffffffffff021916908373ffffffffffffffffffffffffffffffffffffffff1602179055508173ffffffffffffffffffffffffffffffffffffffff168173ffffffffffffffffffffffffffffffffffffffff167f8be0079c531659141344cd1fd0a4f28419497f9722a3daafe3b4186f6b6457e060405160405180910390a35050565b8173ffffffffffffffffffffffffffffffffffffffff168373ffffffffffffffffffffffffffffffffffffffff1614156126e2576040517f08c379a00000000000000000000000000000000000000000000000000000000081526004016126d990613fa1565b60405180910390fd5b80600560008573ffffffffffffffffffffffffffffffffffffffff1673ffffffffffffffffffffffffffffffffffffffff16815260200190815260200160002060008473ffffffffffffffffffffffffffffffffffffffff1673ffffffffffffffffffffffffffffffffffffffff16815260200190815260200160002060006101000a81548160ff0219169083151502179055508173ffffffffffffffffffffffffffffffffffffffff168373ffffffffffffffffffffffffffffffffffffffff167f17307eab39ab6107e8899845ad3d59bd9653f200f220920489ca2b5937696c31836040516127d39190613e69565b60405180910390a3505050565b6001816000016000828254019250508190555050565b600081600001549050919050565b600073ffffffffffffffffffffffffffffffffffffffff168273ffffffffffffffffffffffffffffffffffffffff161415612874576040517f08c379a000000000000000000000000000000000000000000000000000000000815260040161286b90614081565b60405180910390fd5b61287d81611ee0565b156128bd576040517f08c379a00000000000000000000000000000000000000000000000000000000081526004016128b490613f61565b60405180910390fd5b6128c960008383612bfe565b6001600360008473ffffffffffffffffffffffffffffffffffffffff1673ffffffffffffffffffffffffffffffffffffffff168152602001908152602001600020600082825461291991906142b9565b92505081905550816002600083815260200190815260200160002060006101000a81548173ffffffffffffffffffffffffffffffffffffffff021916908373ffffffffffffffffffffffffffffffffffffffff160217905550808273ffffffffffffffffffffffffffffffffffffffff16600073ffffffffffffffffffffffffffffffffffffffff167fddf252ad1be2c89b69c2b068fc378daa952ba7f163c4a11628f55a4df523b3ef60405160405180910390a46129da60008383612d12565b5050565b6129e98484846121f6565b6129f584848484612d17565b612a34576040517f08c379a0000000000000000000000000000000000000000000000000000000008152600401612a2b90613f01565b60405180910390fd5b50505050565b606060405180602001604052806000815250905090565b60606000821415612a99576040518060400160405280600181526020017f30000000000000000000000000000000000000000000000000000000000000008152509050612bf9565b600082905060005b60008214612acb578080612ab4906144c9565b915050600a82612ac4919061430f565b9150612aa1565b60008167ffffffffffffffff811115612b0d577f4e487b7100000000000000000000000000000000000000000000000000000000600052604160045260246000fd5b6040519080825280601f01601f191660200182016040528015612b3f5781602001600182028036833780820191505090505b5090505b60008514612bf257600182612b589190614340565b9150600a85612b679190614512565b6030612b7391906142b9565b60f81b818381518110612baf577f4e487b7100000000000000000000000000000000000000000000000000000000600052603260045260246000fd5b60200101907effffffffffffffffffffffffffffffffffffffffffffffffffffffffffffff1916908160001a905350600a85612beb919061430f565b9450612b43565b8093505050505b919050565b612c09838383612eae565b600073ffffffffffffffffffffffffffffffffffffffff168373ffffffffffffffffffffffffffffffffffffffff161415612c4c57612c4781612eb3565b612c8b565b8173ffffffffffffffffffffffffffffffffffffffff168373ffffffffffffffffffffffffffffffffffffffff1614612c8a57612c898382612efc565b5b5b600073ffffffffffffffffffffffffffffffffffffffff168273ffffffffffffffffffffffffffffffffffffffff161415612cce57612cc981613069565b612d0d565b8273ffffffffffffffffffffffffffffffffffffffff168273ffffffffffffffffffffffffffffffffffffffff1614612d0c57612d0b82826131ac565b5b5b505050565b505050565b6000612d388473ffffffffffffffffffffffffffffffffffffffff1661322b565b15612ea1578373ffffffffffffffffffffffffffffffffffffffff1663150b7a02612d61611f4c565b8786866040518563ffffffff1660e01b8152600401612d839493929190613e1d565b602060405180830381600087803b158015612d9d57600080fd5b505af1925050508015612dce57506040513d601f19601f82011682018060405250810190612dcb91906136c0565b60015b612e51573d8060008114612dfe576040519150601f19603f3d011682016040523d82523d6000602084013e612e03565b606091505b50600081511415612e49576040517f08c379a0000000000000000000000000000000000000000000000000000000008152600401612e4090613f01565b60405180910390fd5b805181602001fd5b63150b7a0260e01b7bffffffffffffffffffffffffffffffffffffffffffffffffffffffff1916817bffffffffffffffffffffffffffffffffffffffffffffffffffffffff191614915050612ea6565b600190505b949350505050565b505050565b600f805490506010600083815260200190815260200160002081905550600f81908060018154018082558091505060019003906000526020600020016000909190919091505550565b60006001612f0984610f49565b612f139190614340565b90506000600e6000848152602001908152602001600020549050818114612ff8576000600d60008673ffffffffffffffffffffffffffffffffffffffff1673ffffffffffffffffffffffffffffffffffffffff168152602001908152602001600020600084815260200190815260200160002054905080600d60008773ffffffffffffffffffffffffffffffffffffffff1673ffffffffffffffffffffffffffffffffffffffff16815260200190815260200160002060008481526020019081526020016000208190555081600e600083815260200190815260200160002081905550505b600e600084815260200190815260200160002060009055600d60008573ffffffffffffffffffffffffffffffffffffffff1673ffffffffffffffffffffffffffffffffffffffff16815260200190815260200160002060008381526020019081526020016000206000905550505050565b60006001600f8054905061307d9190614340565b90506000601060008481526020019081526020016000205490506000600f83815481106130d3577f4e487b7100000000000000000000000000000000000000000000000000000000600052603260045260246000fd5b9060005260206000200154905080600f838154811061311b577f4e487b7100000000000000000000000000000000000000000000000000000000600052603260045260246000fd5b90600052602060002001819055508160106000838152602001908152602001600020819055506010600085815260200190815260200160002060009055600f805480613190577f4e487b7100000000000000000000000000000000000000000000000000000000600052603160045260246000fd5b6001900381819060005260206000200160009055905550505050565b60006131b783610f49565b905081600d60008573ffffffffffffffffffffffffffffffffffffffff1673ffffffffffffffffffffffffffffffffffffffff16815260200190815260200160002060008381526020019081526020016000208190555080600e600084815260200190815260200160002081905550505050565b6000808273ffffffffffffffffffffffffffffffffffffffff163b119050919050565b6040518060e00160405280600073ffffffffffffffffffffffffffffffffffffffff16815260200160008152602001600060058111156132b7577f4e487b7100000000000000000000000000000000000000000000000000000000600052602160045260246000fd5b81526020016132c46132e2565b81526020016000815260200160608152602001600080191681525090565b6040518060400160405280600060ff168152602001600060ff1681525090565b600061331561331084614203565b6141de565b90508281526020810184848401111561332d57600080fd5b613338848285614424565b509392505050565b600061335361334e84614234565b6141de565b90508281526020810184848401111561336b57600080fd5b613376848285614424565b509392505050565b60008135905061338d81614c88565b92915050565b6000813590506133a281614c9f565b92915050565b6000813590506133b781614cb6565b92915050565b6000815190506133cc81614cb6565b92915050565b600082601f8301126133e357600080fd5b81356133f3848260208601613302565b91505092915050565b600082601f83011261340d57600080fd5b813561341d848260208601613340565b91505092915050565b60006040828403121561343857600080fd5b61344260406141de565b9050600061345284828501613487565b600083015250602061346684828501613487565b60208301525092915050565b60008135905061348181614ccd565b92915050565b60008135905061349681614ce4565b92915050565b6000602082840312156134ae57600080fd5b60006134bc8482850161337e565b91505092915050565b600080604083850312156134d857600080fd5b60006134e68582860161337e565b92505060206134f78582860161337e565b9150509250929050565b60008060006060848603121561351657600080fd5b60006135248682870161337e565b93505060206135358682870161337e565b925050604061354686828701613472565b9150509250925092565b6000806000806080858703121561356657600080fd5b60006135748782880161337e565b94505060206135858782880161337e565b935050604061359687828801613472565b925050606085013567ffffffffffffffff8111156135b357600080fd5b6135bf878288016133d2565b91505092959194509250565b600080604083850312156135de57600080fd5b60006135ec8582860161337e565b92505060206135fd85828601613393565b9150509250929050565b6000806040838503121561361a57600080fd5b60006136288582860161337e565b925050602083013567ffffffffffffffff81111561364557600080fd5b613651858286016133fc565b9150509250929050565b6000806040838503121561366e57600080fd5b600061367c8582860161337e565b925050602061368d85828601613472565b9150509250929050565b6000602082840312156136a957600080fd5b60006136b7848285016133a8565b91505092915050565b6000602082840312156136d257600080fd5b60006136e0848285016133bd565b91505092915050565b6000602082840312156136fb57600080fd5b600082013567ffffffffffffffff81111561371557600080fd5b613721848285016133fc565b91505092915050565b60006020828403121561373c57600080fd5b600061374a84828501613472565b91505092915050565b60008060006060848603121561376857600080fd5b600061377686828701613472565b93505060206137878682870161337e565b925050604084013567ffffffffffffffff8111156137a457600080fd5b6137b0868287016133fc565b9150509250925092565b60008060008060008060e087890312156137d357600080fd5b60006137e189828a01613472565b96505060206137f289828a0161337e565b955050604061380389828a01613426565b945050608061381489828a01613472565b93505060a087013567ffffffffffffffff81111561383157600080fd5b61383d89828a016133fc565b92505060c087013567ffffffffffffffff81111561385a57600080fd5b61386689828a016133fc565b9150509295509295509295565b61387c81614374565b82525050565b61388b81614374565b82525050565b61389a81614386565b82525050565b6138a981614392565b82525050565b60006138ba82614265565b6138c4818561427b565b93506138d4818560208601614433565b6138dd8161462e565b840191505092915050565b6138f181614412565b82525050565b61390081614412565b82525050565b600061391182614270565b61391b818561428c565b935061392b818560208601614433565b6139348161462e565b840191505092915050565b600061394a82614270565b613954818561429d565b9350613964818560208601614433565b61396d8161462e565b840191505092915050565b600061398382614270565b61398d81856142ae565b935061399d818560208601614433565b80840191505092915050565b60006139b6602b8361429d565b91506139c18261463f565b604082019050919050565b60006139d9601f8361429d565b91506139e48261468e565b602082019050919050565b60006139fc60328361429d565b9150613a07826146b7565b604082019050919050565b6000613a1f60268361429d565b9150613a2a82614706565b604082019050919050565b6000613a4260258361429d565b9150613a4d82614755565b604082019050919050565b6000613a65601c8361429d565b9150613a70826147a4565b602082019050919050565b6000613a8860248361429d565b9150613a93826147cd565b604082019050919050565b6000613aab60198361429d565b9150613ab68261481c565b602082019050919050565b6000613ace602c8361429d565b9150613ad982614845565b604082019050919050565b6000613af160498361429d565b9150613afc82614894565b606082019050919050565b6000613b1460388361429d565b9150613b1f82614909565b604082019050919050565b6000613b37602a8361429d565b9150613b4282614958565b604082019050919050565b6000613b5a60298361429d565b9150613b65826149a7565b604082019050919050565b6000613b7d602f8361429d565b9150613b88826149f6565b604082019050919050565b6000613ba060208361429d565b9150613bab82614a45565b602082019050919050565b6000613bc3602c8361429d565b9150613bce82614a6e565b604082019050919050565b6000613be660208361429d565b9150613bf182614abd565b602082019050919050565b6000613c0960138361429d565b9150613c1482614ae6565b602082019050919050565b6000613c2c602f8361429d565b9150613c3782614b0f565b604082019050919050565b6000613c4f60218361429d565b9150613c5a82614b5e565b604082019050919050565b6000613c7260318361429d565b9150613c7d82614bad565b604082019050919050565b6000613c95602c8361429d565b9150613ca082614bfc565b604082019050919050565b6000613cb860198361429d565b9150613cc382614c4b565b602082019050919050565b604082016000820151613ce46000850182613db8565b506020820151613cf76020850182613db8565b50505050565b600061010083016000830151613d166000860182613873565b506020830151613d296020860182613d9a565b506040830151613d3c60408601826138e8565b506060830151613d4f6060860182613cce565b506080830151613d6260a0860182613d9a565b5060a083015184820360c0860152613d7a8282613906565b91505060c0830151613d8f60e08601826138a0565b508091505092915050565b613da3816143fb565b82525050565b613db2816143fb565b82525050565b613dc181614405565b82525050565b6000613dd38284613978565b915081905092915050565b6000613dea8285613978565b9150613df68284613978565b91508190509392505050565b6000602082019050613e176000830184613882565b92915050565b6000608082019050613e326000830187613882565b613e3f6020830186613882565b613e4c6040830185613da9565b8181036060830152613e5e81846138af565b905095945050505050565b6000602082019050613e7e6000830184613891565b92915050565b6000602082019050613e9960008301846138f7565b92915050565b60006020820190508181036000830152613eb9818461393f565b905092915050565b60006020820190508181036000830152613eda816139a9565b9050919050565b60006020820190508181036000830152613efa816139cc565b9050919050565b60006020820190508181036000830152613f1a816139ef565b9050919050565b60006020820190508181036000830152613f3a81613a12565b9050919050565b60006020820190508181036000830152613f5a81613a35565b9050919050565b60006020820190508181036000830152613f7a81613a58565b9050919050565b60006020820190508181036000830152613f9a81613a7b565b9050919050565b60006020820190508181036000830152613fba81613a9e565b9050919050565b60006020820190508181036000830152613fda81613ac1565b9050919050565b60006020820190508181036000830152613ffa81613ae4565b9050919050565b6000602082019050818103600083015261401a81613b07565b9050919050565b6000602082019050818103600083015261403a81613b2a565b9050919050565b6000602082019050818103600083015261405a81613b4d565b9050919050565b6000602082019050818103600083015261407a81613b70565b9050919050565b6000602082019050818103600083015261409a81613b93565b9050919050565b600060208201905081810360008301526140ba81613bb6565b9050919050565b600060208201905081810360008301526140da81613bd9565b9050919050565b600060208201905081810360008301526140fa81613bfc565b9050919050565b6000602082019050818103600083015261411a81613c1f565b9050919050565b6000602082019050818103600083015261413a81613c42565b9050919050565b6000602082019050818103600083015261415a81613c65565b9050919050565b6000602082019050818103600083015261417a81613c88565b9050919050565b6000602082019050818103600083015261419a81613cab565b9050919050565b600060208201905081810360008301526141bb8184613cfd565b905092915050565b60006020820190506141d86000830184613da9565b92915050565b60006141e86141f9565b90506141f48282614498565b919050565b6000604051905090565b600067ffffffffffffffff82111561421e5761421d6145ff565b5b6142278261462e565b9050602081019050919050565b600067ffffffffffffffff82111561424f5761424e6145ff565b5b6142588261462e565b9050602081019050919050565b600081519050919050565b600081519050919050565b600082825260208201905092915050565b600082825260208201905092915050565b600082825260208201905092915050565b600081905092915050565b60006142c4826143fb565b91506142cf836143fb565b9250827fffffffffffffffffffffffffffffffffffffffffffffffffffffffffffffffff0382111561430457614303614543565b5b828201905092915050565b600061431a826143fb565b9150614325836143fb565b92508261433557614334614572565b5b828204905092915050565b600061434b826143fb565b9150614356836143fb565b92508282101561436957614368614543565b5b828203905092915050565b600061437f826143db565b9050919050565b60008115159050919050565b6000819050919050565b60007fffffffff0000000000000000000000000000000000000000000000000000000082169050919050565b60008190506143d682614c74565b919050565b600073ffffffffffffffffffffffffffffffffffffffff82169050919050565b6000819050919050565b600060ff82169050919050565b600061441d826143c8565b9050919050565b82818337600083830152505050565b60005b83811015614451578082015181840152602081019050614436565b83811115614460576000848401525b50505050565b6000600282049050600182168061447e57607f821691505b60208210811415614492576144916145d0565b5b50919050565b6144a18261462e565b810181811067ffffffffffffffff821117156144c0576144bf6145ff565b5b80604052505050565b60006144d4826143fb565b91507fffffffffffffffffffffffffffffffffffffffffffffffffffffffffffffffff82141561450757614506614543565b5b600182019050919050565b600061451d826143fb565b9150614528836143fb565b92508261453857614537614572565b5b828206905092915050565b7f4e487b7100000000000000000000000000000000000000000000000000000000600052601160045260246000fd5b7f4e487b7100000000000000000000000000000000000000000000000000000000600052601260045260246000fd5b7f4e487b7100000000000000000000000000000000000000000000000000000000600052602160045260246000fd5b7f4e487b7100000000000000000000000000000000000000000000000000000000600052602260045260246000fd5b7f4e487b7100000000000000000000000000000000000000000000000000000000600052604160045260246000fd5b6000601f19601f8301169050919050565b7f455243373231456e756d657261626c653a206f776e657220696e646578206f7560008201527f74206f6620626f756e6473000000000000000000000000000000000000000000602082015250565b7f4e4654204953204e4f542052454a4543544544204e4f522054494d454f555400600082015250565b7f4552433732313a207472616e7366657220746f206e6f6e20455243373231526560008201527f63656976657220696d706c656d656e7465720000000000000000000000000000602082015250565b7f4f776e61626c653a206e6577206f776e657220697320746865207a65726f206160008201527f6464726573730000000000000000000000000000000000000000000000000000602082015250565b7f4552433732313a207472616e736665722066726f6d20696e636f72726563742060008201527f6f776e6572000000000000000000000000000000000000000000000000000000602082015250565b7f4552433732313a20746f6b656e20616c7265616479206d696e74656400000000600082015250565b7f4552433732313a207472616e7366657220746f20746865207a65726f2061646460008201527f7265737300000000000000000000000000000000000000000000000000000000602082015250565b7f4552433732313a20617070726f766520746f2063616c6c657200000000000000600082015250565b7f4552433732313a206f70657261746f7220717565727920666f72206e6f6e657860008201527f697374656e7420746f6b656e0000000000000000000000000000000000000000602082015250565b7f4552433732313a207472616e736665722063616c6c6572206973206e6f74206f60008201527f776e6572206e6f7220617070726f766564206f72204e4654206e6f742079657460208201527f2061636365707465640000000000000000000000000000000000000000000000604082015250565b7f4552433732313a20617070726f76652063616c6c6572206973206e6f74206f7760008201527f6e6572206e6f7220617070726f76656420666f7220616c6c0000000000000000602082015250565b7f4552433732313a2062616c616e636520717565727920666f7220746865207a6560008201527f726f206164647265737300000000000000000000000000000000000000000000602082015250565b7f4552433732313a206f776e657220717565727920666f72206e6f6e657869737460008201527f656e7420746f6b656e0000000000000000000000000000000000000000000000602082015250565b7f4f4e4c5920535441545553204452414654283029204f522050454e44494e472860008201527f3129204152452041434345505445440000000000000000000000000000000000602082015250565b7f4552433732313a206d696e7420746f20746865207a65726f2061646472657373600082015250565b7f4552433732313a20617070726f76656420717565727920666f72206e6f6e657860008201527f697374656e7420746f6b656e0000000000000000000000000000000000000000602082015250565b7f4f776e61626c653a2063616c6c6572206973206e6f7420746865206f776e6572600082015250565b7f2054494d4520414c524541445920504153535400000000000000000000000000600082015250565b7f4552433732314d657461646174613a2055524920717565727920666f72206e6f60008201527f6e6578697374656e7420746f6b656e0000000000000000000000000000000000602082015250565b7f4552433732313a20617070726f76616c20746f2063757272656e74206f776e6560008201527f7200000000000000000000000000000000000000000000000000000000000000602082015250565b7f4552433732313a207472616e736665722063616c6c6572206973206e6f74206f60008201527f776e6572206e6f7220617070726f766564000000000000000000000000000000602082015250565b7f455243373231456e756d657261626c653a20676c6f62616c20696e646578206f60008201527f7574206f6620626f756e64730000000000000000000000000000000000000000602082015250565b7f4e4654204e4f5420494e2050454e44494e472053544154555300000000000000600082015250565b60068110614c8557614c846145a1565b5b50565b614c9181614374565b8114614c9c57600080fd5b50565b614ca881614386565b8114614cb357600080fd5b50565b614cbf8161439c565b8114614cca57600080fd5b50565b614cd6816143fb565b8114614ce157600080fd5b50565b614ced81614405565b8114614cf857600080fd5b5056fea2646970667358221220a15d590594309e3c2debcd430fe06d10fab12f86648126c28fda017a63dd53ca64736f6c63430008040033",
  "linkReferences": {},
  "deployedLinkReferences": {}
}