{
  "_format": "hh-sol-artifact-1",
  "contractName": "GratitudeContract",
  "sourceName": "contracts/GratitudeContract.sol",
  "abi": [
    {
      "inputs": [],
      "stateMutability": "nonpayable",
      "type": "constructor"
    },
    {
      "anonymous": false,
      "inputs": [
        {
          "indexed": true,
          "internalType": "address",
          "name": "owner",
          "type": "address"
        },
        {
          "indexed": true,
          "internalType": "address",
          "name": "approved",
          "type": "address"
        },
        {
          "indexed": true,
          "internalType": "uint256",
          "name": "tokenId",
          "type": "uint256"
        }
      ],
      "name": "Approval",
      "type": "event"
    },
    {
      "anonymous": false,
      "inputs": [
        {
          "indexed": true,
          "internalType": "address",
          "name": "owner",
          "type": "address"
        },
        {
          "indexed": true,
          "internalType": "address",
          "name": "operator",
          "type": "address"
        },
        {
          "indexed": false,
          "internalType": "bool",
          "name": "approved",
          "type": "bool"
        }
      ],
      "name": "ApprovalForAll",
      "type": "event"
    },
    {
      "anonymous": false,
      "inputs": [
        {
          "indexed": true,
          "internalType": "address",
          "name": "previousOwner",
          "type": "address"
        },
        {
          "indexed": true,
          "internalType": "address",
          "name": "newOwner",
          "type": "address"
        }
      ],
      "name": "OwnershipTransferred",
      "type": "event"
    },
    {
      "anonymous": false,
      "inputs": [
        {
          "indexed": true,
          "internalType": "address",
          "name": "from",
          "type": "address"
        },
        {
          "indexed": true,
          "internalType": "address",
          "name": "to",
          "type": "address"
        },
        {
          "indexed": true,
          "internalType": "uint256",
          "name": "tokenId",
          "type": "uint256"
        }
      ],
      "name": "Transfer",
      "type": "event"
    },
    {
      "inputs": [],
      "name": "_tokenIds",
      "outputs": [
        {
          "internalType": "uint256",
          "name": "_value",
          "type": "uint256"
        }
      ],
      "stateMutability": "view",
      "type": "function"
    },
    {
      "inputs": [
        {
          "internalType": "bytes32",
          "name": "",
          "type": "bytes32"
        }
      ],
      "name": "_usersByPhoneNumber",
      "outputs": [
        {
          "internalType": "address",
          "name": "",
          "type": "address"
        }
      ],
      "stateMutability": "view",
      "type": "function"
    },
    {
      "inputs": [
        {
          "internalType": "address",
          "name": "to",
          "type": "address"
        },
        {
          "internalType": "uint256",
          "name": "tokenId",
          "type": "uint256"
        }
      ],
      "name": "approve",
      "outputs": [],
      "stateMutability": "nonpayable",
      "type": "function"
    },
    {
      "inputs": [
        {
          "internalType": "address",
          "name": "owner",
          "type": "address"
        }
      ],
      "name": "balanceOf",
      "outputs": [
        {
          "internalType": "uint256",
          "name": "",
          "type": "uint256"
        }
      ],
      "stateMutability": "view",
      "type": "function"
    },
    {
      "inputs": [
        {
          "internalType": "uint256",
          "name": "tokenId",
          "type": "uint256"
        }
      ],
      "name": "getApproved",
      "outputs": [
        {
          "internalType": "address",
          "name": "",
          "type": "address"
        }
      ],
      "stateMutability": "view",
      "type": "function"
    },
    {
      "inputs": [
        {
          "internalType": "address",
          "name": "owner",
          "type": "address"
        },
        {
          "internalType": "address",
          "name": "operator",
          "type": "address"
        }
      ],
      "name": "isApprovedForAll",
      "outputs": [
        {
          "internalType": "bool",
          "name": "",
          "type": "bool"
        }
      ],
      "stateMutability": "view",
      "type": "function"
    },
    {
      "inputs": [
        {
          "internalType": "address",
          "name": "to",
          "type": "address"
        },
        {
          "internalType": "string",
          "name": "_tokenURI",
          "type": "string"
        }
      ],
      "name": "mintItem",
      "outputs": [
        {
          "internalType": "uint256",
          "name": "",
          "type": "uint256"
        }
      ],
      "stateMutability": "nonpayable",
      "type": "function"
    },
    {
      "inputs": [],
      "name": "name",
      "outputs": [
        {
          "internalType": "string",
          "name": "",
          "type": "string"
        }
      ],
      "stateMutability": "view",
      "type": "function"
    },
    {
      "inputs": [],
      "name": "owner",
      "outputs": [
        {
          "internalType": "address",
          "name": "",
          "type": "address"
        }
      ],
      "stateMutability": "view",
      "type": "function"
    },
    {
      "inputs": [
        {
          "internalType": "uint256",
          "name": "tokenId",
          "type": "uint256"
        }
      ],
      "name": "ownerOf",
      "outputs": [
        {
          "internalType": "address",
          "name": "",
          "type": "address"
        }
      ],
      "stateMutability": "view",
      "type": "function"
    },
    {
      "inputs": [],
      "name": "renounceOwnership",
      "outputs": [],
      "stateMutability": "nonpayable",
      "type": "function"
    },
    {
      "inputs": [
        {
          "internalType": "address",
          "name": "from",
          "type": "address"
        },
        {
          "internalType": "address",
          "name": "to",
          "type": "address"
        },
        {
          "internalType": "uint256",
          "name": "tokenId",
          "type": "uint256"
        }
      ],
      "name": "safeTransferFrom",
      "outputs": [],
      "stateMutability": "nonpayable",
      "type": "function"
    },
    {
      "inputs": [
        {
          "internalType": "address",
          "name": "from",
          "type": "address"
        },
        {
          "internalType": "address",
          "name": "to",
          "type": "address"
        },
        {
          "internalType": "uint256",
          "name": "tokenId",
          "type": "uint256"
        },
        {
          "internalType": "bytes",
          "name": "_data",
          "type": "bytes"
        }
      ],
      "name": "safeTransferFrom",
      "outputs": [],
      "stateMutability": "nonpayable",
      "type": "function"
    },
    {
      "inputs": [
        {
          "internalType": "address",
          "name": "operator",
          "type": "address"
        },
        {
          "internalType": "bool",
          "name": "approved",
          "type": "bool"
        }
      ],
      "name": "setApprovalForAll",
      "outputs": [],
      "stateMutability": "nonpayable",
      "type": "function"
    },
    {
      "inputs": [
        {
          "internalType": "bytes4",
          "name": "interfaceId",
          "type": "bytes4"
        }
      ],
      "name": "supportsInterface",
      "outputs": [
        {
          "internalType": "bool",
          "name": "",
          "type": "bool"
        }
      ],
      "stateMutability": "view",
      "type": "function"
    },
    {
      "inputs": [],
      "name": "symbol",
      "outputs": [
        {
          "internalType": "string",
          "name": "",
          "type": "string"
        }
      ],
      "stateMutability": "view",
      "type": "function"
    },
    {
      "inputs": [
        {
          "internalType": "uint256",
          "name": "tokenId",
          "type": "uint256"
        }
      ],
      "name": "tokenURI",
      "outputs": [
        {
          "internalType": "string",
          "name": "",
          "type": "string"
        }
      ],
      "stateMutability": "view",
      "type": "function"
    },
    {
      "inputs": [
        {
          "internalType": "address",
          "name": "from",
          "type": "address"
        },
        {
          "internalType": "address",
          "name": "to",
          "type": "address"
        },
        {
          "internalType": "uint256",
          "name": "tokenId",
          "type": "uint256"
        }
      ],
      "name": "transferFrom",
      "outputs": [],
      "stateMutability": "nonpayable",
      "type": "function"
    },
    {
      "inputs": [
        {
          "internalType": "address",
          "name": "newOwner",
          "type": "address"
        }
      ],
      "name": "transferOwnership",
      "outputs": [],
      "stateMutability": "nonpayable",
      "type": "function"
    }
  ],
  "bytecode": "0x60806040523480156200001157600080fd5b506040518060400160405280600f81526020017f4e47204e465420436f6e747261637400000000000000000000000000000000008152506040518060400160405280600381526020017f4e47430000000000000000000000000000000000000000000000000000000000815250816000908051906020019062000096929190620001a6565b508060019080519060200190620000af929190620001a6565b505050620000d2620000c6620000d860201b60201c565b620000e060201b60201c565b620002bb565b600033905090565b6000600760009054906101000a900473ffffffffffffffffffffffffffffffffffffffff16905081600760006101000a81548173ffffffffffffffffffffffffffffffffffffffff021916908373ffffffffffffffffffffffffffffffffffffffff1602179055508173ffffffffffffffffffffffffffffffffffffffff168173ffffffffffffffffffffffffffffffffffffffff167f8be0079c531659141344cd1fd0a4f28419497f9722a3daafe3b4186f6b6457e060405160405180910390a35050565b828054620001b49062000256565b90600052602060002090601f016020900481019282620001d8576000855562000224565b82601f10620001f357805160ff191683800117855562000224565b8280016001018555821562000224579182015b828111156200022357825182559160200191906001019062000206565b5b50905062000233919062000237565b5090565b5b808211156200025257600081600090555060010162000238565b5090565b600060028204905060018216806200026f57607f821691505b602082108114156200028657620002856200028c565b5b50919050565b7f4e487b7100000000000000000000000000000000000000000000000000000000600052602260045260246000fd5b61314580620002cb6000396000f3fe608060405234801561001057600080fd5b50600436106101215760003560e01c806370a08231116100ad578063aa46a40011610071578063aa46a4001461031a578063b88d4fde14610338578063c87b56dd14610354578063e985e9c514610384578063f2fde38b146103b457610121565b806370a0823114610288578063715018a6146102b85780638da5cb5b146102c257806395d89b41146102e0578063a22cb465146102fe57610121565b8063110bcd45116100f4578063110bcd45146101c057806323b872dd146101f05780633babc9ef1461020c57806342842e0e1461023c5780636352211e1461025857610121565b806301ffc9a71461012657806306fdde0314610156578063081812fc14610174578063095ea7b3146101a4575b600080fd5b610140600480360381019061013b91906120d3565b6103d0565b60405161014d919061251f565b60405180910390f35b61015e6104b2565b60405161016b919061253a565b60405180910390f35b61018e60048036038101906101899190612125565b610544565b60405161019b91906124b8565b60405180910390f35b6101be60048036038101906101b9919061206e565b6105c9565b005b6101da60048036038101906101d5919061201a565b6106e1565b6040516101e7919061279c565b60405180910390f35b61020a60048036038101906102059190611f14565b610795565b005b610226600480360381019061022191906120aa565b6107f5565b60405161023391906124b8565b60405180910390f35b61025660048036038101906102519190611f14565b610828565b005b610272600480360381019061026d9190612125565b610848565b60405161027f91906124b8565b60405180910390f35b6102a2600480360381019061029d9190611eaf565b6108fa565b6040516102af919061279c565b60405180910390f35b6102c06109b2565b005b6102ca610a3a565b6040516102d791906124b8565b60405180910390f35b6102e8610a64565b6040516102f5919061253a565b60405180910390f35b61031860048036038101906103139190611fde565b610af6565b005b610322610b0c565b60405161032f919061279c565b60405180910390f35b610352600480360381019061034d9190611f63565b610b18565b005b61036e60048036038101906103699190612125565b610b7a565b60405161037b919061253a565b60405180910390f35b61039e60048036038101906103999190611ed8565b610bd4565b6040516103ab919061251f565b60405180910390f35b6103ce60048036038101906103c99190611eaf565b610c68565b005b60007f80ac58cd000000000000000000000000000000000000000000000000000000007bffffffffffffffffffffffffffffffffffffffffffffffffffffffff1916827bffffffffffffffffffffffffffffffffffffffffffffffffffffffff1916148061049b57507f5b5e139f000000000000000000000000000000000000000000000000000000007bffffffffffffffffffffffffffffffffffffffffffffffffffffffff1916827bffffffffffffffffffffffffffffffffffffffffffffffffffffffff1916145b806104ab57506104aa82610d60565b5b9050919050565b6060600080546104c1906129fc565b80601f01602080910402602001604051908101604052809291908181526020018280546104ed906129fc565b801561053a5780601f1061050f5761010080835404028352916020019161053a565b820191906000526020600020905b81548152906001019060200180831161051d57829003601f168201915b5050505050905090565b600061054f82610dca565b61058e576040517f08c379a0000000000000000000000000000000000000000000000000000000008152600401610585906126fc565b60405180910390fd5b6004600083815260200190815260200160002060009054906101000a900473ffffffffffffffffffffffffffffffffffffffff169050919050565b60006105d482610848565b90508073ffffffffffffffffffffffffffffffffffffffff168373ffffffffffffffffffffffffffffffffffffffff161415610645576040517f08c379a000000000000000000000000000000000000000000000000000000000815260040161063c9061275c565b60405180910390fd5b8073ffffffffffffffffffffffffffffffffffffffff16610664610e36565b73ffffffffffffffffffffffffffffffffffffffff16148061069357506106928161068d610e36565b610bd4565b5b6106d2576040517f08c379a00000000000000000000000000000000000000000000000000000000081526004016106c99061263c565b60405180910390fd5b6106dc8383610e3e565b505050565b60006106eb610e36565b73ffffffffffffffffffffffffffffffffffffffff16610709610a3a565b73ffffffffffffffffffffffffffffffffffffffff161461075f576040517f08c379a00000000000000000000000000000000000000000000000000000000081526004016107569061271c565b60405180910390fd5b6107696008610ef7565b60006107756008610f0d565b90506107818482610f1b565b61078b81846110f5565b8091505092915050565b6107a66107a0610e36565b82611169565b6107e5576040517f08c379a00000000000000000000000000000000000000000000000000000000081526004016107dc9061277c565b60405180910390fd5b6107f0838383611247565b505050565b60096020528060005260406000206000915054906101000a900473ffffffffffffffffffffffffffffffffffffffff1681565b61084383838360405180602001604052806000815250610b18565b505050565b6000806002600084815260200190815260200160002060009054906101000a900473ffffffffffffffffffffffffffffffffffffffff169050600073ffffffffffffffffffffffffffffffffffffffff168173ffffffffffffffffffffffffffffffffffffffff1614156108f1576040517f08c379a00000000000000000000000000000000000000000000000000000000081526004016108e89061267c565b60405180910390fd5b80915050919050565b60008073ffffffffffffffffffffffffffffffffffffffff168273ffffffffffffffffffffffffffffffffffffffff16141561096b576040517f08c379a00000000000000000000000000000000000000000000000000000000081526004016109629061265c565b60405180910390fd5b600360008373ffffffffffffffffffffffffffffffffffffffff1673ffffffffffffffffffffffffffffffffffffffff168152602001908152602001600020549050919050565b6109ba610e36565b73ffffffffffffffffffffffffffffffffffffffff166109d8610a3a565b73ffffffffffffffffffffffffffffffffffffffff1614610a2e576040517f08c379a0000000000000000000000000000000000000000000000000000000008152600401610a259061271c565b60405180910390fd5b610a3860006114ae565b565b6000600760009054906101000a900473ffffffffffffffffffffffffffffffffffffffff16905090565b606060018054610a73906129fc565b80601f0160208091040260200160405190810160405280929190818152602001828054610a9f906129fc565b8015610aec5780601f10610ac157610100808354040283529160200191610aec565b820191906000526020600020905b815481529060010190602001808311610acf57829003601f168201915b5050505050905090565b610b08610b01610e36565b8383611574565b5050565b60088060000154905081565b610b29610b23610e36565b83611169565b610b68576040517f08c379a0000000000000000000000000000000000000000000000000000000008152600401610b5f9061277c565b60405180910390fd5b610b74848484846116e1565b50505050565b6060610b8582610dca565b610bc4576040517f08c379a0000000000000000000000000000000000000000000000000000000008152600401610bbb906126dc565b60405180910390fd5b610bcd8261173d565b9050919050565b6000600560008473ffffffffffffffffffffffffffffffffffffffff1673ffffffffffffffffffffffffffffffffffffffff16815260200190815260200160002060008373ffffffffffffffffffffffffffffffffffffffff1673ffffffffffffffffffffffffffffffffffffffff16815260200190815260200160002060009054906101000a900460ff16905092915050565b610c70610e36565b73ffffffffffffffffffffffffffffffffffffffff16610c8e610a3a565b73ffffffffffffffffffffffffffffffffffffffff1614610ce4576040517f08c379a0000000000000000000000000000000000000000000000000000000008152600401610cdb9061271c565b60405180910390fd5b600073ffffffffffffffffffffffffffffffffffffffff168173ffffffffffffffffffffffffffffffffffffffff161415610d54576040517f08c379a0000000000000000000000000000000000000000000000000000000008152600401610d4b9061257c565b60405180910390fd5b610d5d816114ae565b50565b60007f01ffc9a7000000000000000000000000000000000000000000000000000000007bffffffffffffffffffffffffffffffffffffffffffffffffffffffff1916827bffffffffffffffffffffffffffffffffffffffffffffffffffffffff1916149050919050565b60008073ffffffffffffffffffffffffffffffffffffffff166002600084815260200190815260200160002060009054906101000a900473ffffffffffffffffffffffffffffffffffffffff1673ffffffffffffffffffffffffffffffffffffffff1614159050919050565b600033905090565b816004600083815260200190815260200160002060006101000a81548173ffffffffffffffffffffffffffffffffffffffff021916908373ffffffffffffffffffffffffffffffffffffffff160217905550808273ffffffffffffffffffffffffffffffffffffffff16610eb183610848565b73ffffffffffffffffffffffffffffffffffffffff167f8c5be1e5ebec7d5bd14f71427d1e84f3dd0314c0f7b2291e5b200ac8c7c3b92560405160405180910390a45050565b6001816000016000828254019250508190555050565b600081600001549050919050565b600073ffffffffffffffffffffffffffffffffffffffff168273ffffffffffffffffffffffffffffffffffffffff161415610f8b576040517f08c379a0000000000000000000000000000000000000000000000000000000008152600401610f82906126bc565b60405180910390fd5b610f9481610dca565b15610fd4576040517f08c379a0000000000000000000000000000000000000000000000000000000008152600401610fcb906125bc565b60405180910390fd5b610fe06000838361188f565b6001600360008473ffffffffffffffffffffffffffffffffffffffff1673ffffffffffffffffffffffffffffffffffffffff16815260200190815260200160002060008282546110309190612881565b92505081905550816002600083815260200190815260200160002060006101000a81548173ffffffffffffffffffffffffffffffffffffffff021916908373ffffffffffffffffffffffffffffffffffffffff160217905550808273ffffffffffffffffffffffffffffffffffffffff16600073ffffffffffffffffffffffffffffffffffffffff167fddf252ad1be2c89b69c2b068fc378daa952ba7f163c4a11628f55a4df523b3ef60405160405180910390a46110f160008383611894565b5050565b6110fe82610dca565b61113d576040517f08c379a00000000000000000000000000000000000000000000000000000000081526004016111349061269c565b60405180910390fd5b80600660008481526020019081526020016000209080519060200190611164929190611cbe565b505050565b600061117482610dca565b6111b3576040517f08c379a00000000000000000000000000000000000000000000000000000000081526004016111aa9061261c565b60405180910390fd5b60006111be83610848565b90508073ffffffffffffffffffffffffffffffffffffffff168473ffffffffffffffffffffffffffffffffffffffff16148061122d57508373ffffffffffffffffffffffffffffffffffffffff1661121584610544565b73ffffffffffffffffffffffffffffffffffffffff16145b8061123e575061123d8185610bd4565b5b91505092915050565b8273ffffffffffffffffffffffffffffffffffffffff1661126782610848565b73ffffffffffffffffffffffffffffffffffffffff16146112bd576040517f08c379a00000000000000000000000000000000000000000000000000000000081526004016112b49061259c565b60405180910390fd5b600073ffffffffffffffffffffffffffffffffffffffff168273ffffffffffffffffffffffffffffffffffffffff16141561132d576040517f08c379a0000000000000000000000000000000000000000000000000000000008152600401611324906125dc565b60405180910390fd5b61133883838361188f565b611343600082610e3e565b6001600360008573ffffffffffffffffffffffffffffffffffffffff1673ffffffffffffffffffffffffffffffffffffffff16815260200190815260200160002060008282546113939190612908565b925050819055506001600360008473ffffffffffffffffffffffffffffffffffffffff1673ffffffffffffffffffffffffffffffffffffffff16815260200190815260200160002060008282546113ea9190612881565b92505081905550816002600083815260200190815260200160002060006101000a81548173ffffffffffffffffffffffffffffffffffffffff021916908373ffffffffffffffffffffffffffffffffffffffff160217905550808273ffffffffffffffffffffffffffffffffffffffff168473ffffffffffffffffffffffffffffffffffffffff167fddf252ad1be2c89b69c2b068fc378daa952ba7f163c4a11628f55a4df523b3ef60405160405180910390a46114a9838383611894565b505050565b6000600760009054906101000a900473ffffffffffffffffffffffffffffffffffffffff16905081600760006101000a81548173ffffffffffffffffffffffffffffffffffffffff021916908373ffffffffffffffffffffffffffffffffffffffff1602179055508173ffffffffffffffffffffffffffffffffffffffff168173ffffffffffffffffffffffffffffffffffffffff167f8be0079c531659141344cd1fd0a4f28419497f9722a3daafe3b4186f6b6457e060405160405180910390a35050565b8173ffffffffffffffffffffffffffffffffffffffff168373ffffffffffffffffffffffffffffffffffffffff1614156115e3576040517f08c379a00000000000000000000000000000000000000000000000000000000081526004016115da906125fc565b60405180910390fd5b80600560008573ffffffffffffffffffffffffffffffffffffffff1673ffffffffffffffffffffffffffffffffffffffff16815260200190815260200160002060008473ffffffffffffffffffffffffffffffffffffffff1673ffffffffffffffffffffffffffffffffffffffff16815260200190815260200160002060006101000a81548160ff0219169083151502179055508173ffffffffffffffffffffffffffffffffffffffff168373ffffffffffffffffffffffffffffffffffffffff167f17307eab39ab6107e8899845ad3d59bd9653f200f220920489ca2b5937696c31836040516116d4919061251f565b60405180910390a3505050565b6116ec848484611247565b6116f884848484611899565b611737576040517f08c379a000000000000000000000000000000000000000000000000000000000815260040161172e9061255c565b60405180910390fd5b50505050565b606061174882610dca565b611787576040517f08c379a000000000000000000000000000000000000000000000000000000000815260040161177e906126dc565b60405180910390fd5b60006006600084815260200190815260200160002080546117a7906129fc565b80601f01602080910402602001604051908101604052809291908181526020018280546117d3906129fc565b80156118205780601f106117f557610100808354040283529160200191611820565b820191906000526020600020905b81548152906001019060200180831161180357829003601f168201915b505050505090506000611831611a30565b905060008151141561184757819250505061188a565b60008251111561187c578082604051602001611864929190612494565b6040516020818303038152906040529250505061188a565b61188584611a47565b925050505b919050565b505050565b505050565b60006118ba8473ffffffffffffffffffffffffffffffffffffffff16611aee565b15611a23578373ffffffffffffffffffffffffffffffffffffffff1663150b7a026118e3610e36565b8786866040518563ffffffff1660e01b815260040161190594939291906124d3565b602060405180830381600087803b15801561191f57600080fd5b505af192505050801561195057506040513d601f19601f8201168201806040525081019061194d91906120fc565b60015b6119d3573d8060008114611980576040519150601f19603f3d011682016040523d82523d6000602084013e611985565b606091505b506000815114156119cb576040517f08c379a00000000000000000000000000000000000000000000000000000000081526004016119c29061255c565b60405180910390fd5b805181602001fd5b63150b7a0260e01b7bffffffffffffffffffffffffffffffffffffffffffffffffffffffff1916817bffffffffffffffffffffffffffffffffffffffffffffffffffffffff191614915050611a28565b600190505b949350505050565b606060405180602001604052806000815250905090565b6060611a5282610dca565b611a91576040517f08c379a0000000000000000000000000000000000000000000000000000000008152600401611a889061273c565b60405180910390fd5b6000611a9b611a30565b90506000815111611abb5760405180602001604052806000815250611ae6565b80611ac584611b11565b604051602001611ad6929190612494565b6040516020818303038152906040525b915050919050565b6000808273ffffffffffffffffffffffffffffffffffffffff163b119050919050565b60606000821415611b59576040518060400160405280600181526020017f30000000000000000000000000000000000000000000000000000000000000008152509050611cb9565b600082905060005b60008214611b8b578080611b7490612a5f565b915050600a82611b8491906128d7565b9150611b61565b60008167ffffffffffffffff811115611bcd577f4e487b7100000000000000000000000000000000000000000000000000000000600052604160045260246000fd5b6040519080825280601f01601f191660200182016040528015611bff5781602001600182028036833780820191505090505b5090505b60008514611cb257600182611c189190612908565b9150600a85611c279190612aa8565b6030611c339190612881565b60f81b818381518110611c6f577f4e487b7100000000000000000000000000000000000000000000000000000000600052603260045260246000fd5b60200101907effffffffffffffffffffffffffffffffffffffffffffffffffffffffffffff1916908160001a905350600a85611cab91906128d7565b9450611c03565b8093505050505b919050565b828054611cca906129fc565b90600052602060002090601f016020900481019282611cec5760008555611d33565b82601f10611d0557805160ff1916838001178555611d33565b82800160010185558215611d33579182015b82811115611d32578251825591602001919060010190611d17565b5b509050611d409190611d44565b5090565b5b80821115611d5d576000816000905550600101611d45565b5090565b6000611d74611d6f846127dc565b6127b7565b905082815260208101848484011115611d8c57600080fd5b611d978482856129ba565b509392505050565b6000611db2611dad8461280d565b6127b7565b905082815260208101848484011115611dca57600080fd5b611dd58482856129ba565b509392505050565b600081359050611dec8161309c565b92915050565b600081359050611e01816130b3565b92915050565b600081359050611e16816130ca565b92915050565b600081359050611e2b816130e1565b92915050565b600081519050611e40816130e1565b92915050565b600082601f830112611e5757600080fd5b8135611e67848260208601611d61565b91505092915050565b600082601f830112611e8157600080fd5b8135611e91848260208601611d9f565b91505092915050565b600081359050611ea9816130f8565b92915050565b600060208284031215611ec157600080fd5b6000611ecf84828501611ddd565b91505092915050565b60008060408385031215611eeb57600080fd5b6000611ef985828601611ddd565b9250506020611f0a85828601611ddd565b9150509250929050565b600080600060608486031215611f2957600080fd5b6000611f3786828701611ddd565b9350506020611f4886828701611ddd565b9250506040611f5986828701611e9a565b9150509250925092565b60008060008060808587031215611f7957600080fd5b6000611f8787828801611ddd565b9450506020611f9887828801611ddd565b9350506040611fa987828801611e9a565b925050606085013567ffffffffffffffff811115611fc657600080fd5b611fd287828801611e46565b91505092959194509250565b60008060408385031215611ff157600080fd5b6000611fff85828601611ddd565b925050602061201085828601611df2565b9150509250929050565b6000806040838503121561202d57600080fd5b600061203b85828601611ddd565b925050602083013567ffffffffffffffff81111561205857600080fd5b61206485828601611e70565b9150509250929050565b6000806040838503121561208157600080fd5b600061208f85828601611ddd565b92505060206120a085828601611e9a565b9150509250929050565b6000602082840312156120bc57600080fd5b60006120ca84828501611e07565b91505092915050565b6000602082840312156120e557600080fd5b60006120f384828501611e1c565b91505092915050565b60006020828403121561210e57600080fd5b600061211c84828501611e31565b91505092915050565b60006020828403121561213757600080fd5b600061214584828501611e9a565b91505092915050565b6121578161293c565b82525050565b6121668161294e565b82525050565b60006121778261283e565b6121818185612854565b93506121918185602086016129c9565b61219a81612b95565b840191505092915050565b60006121b082612849565b6121ba8185612865565b93506121ca8185602086016129c9565b6121d381612b95565b840191505092915050565b60006121e982612849565b6121f38185612876565b93506122038185602086016129c9565b80840191505092915050565b600061221c603283612865565b915061222782612ba6565b604082019050919050565b600061223f602683612865565b915061224a82612bf5565b604082019050919050565b6000612262602583612865565b915061226d82612c44565b604082019050919050565b6000612285601c83612865565b915061229082612c93565b602082019050919050565b60006122a8602483612865565b91506122b382612cbc565b604082019050919050565b60006122cb601983612865565b91506122d682612d0b565b602082019050919050565b60006122ee602c83612865565b91506122f982612d34565b604082019050919050565b6000612311603883612865565b915061231c82612d83565b604082019050919050565b6000612334602a83612865565b915061233f82612dd2565b604082019050919050565b6000612357602983612865565b915061236282612e21565b604082019050919050565b600061237a602e83612865565b915061238582612e70565b604082019050919050565b600061239d602083612865565b91506123a882612ebf565b602082019050919050565b60006123c0603183612865565b91506123cb82612ee8565b604082019050919050565b60006123e3602c83612865565b91506123ee82612f37565b604082019050919050565b6000612406602083612865565b915061241182612f86565b602082019050919050565b6000612429602f83612865565b915061243482612faf565b604082019050919050565b600061244c602183612865565b915061245782612ffe565b604082019050919050565b600061246f603183612865565b915061247a8261304d565b604082019050919050565b61248e816129b0565b82525050565b60006124a082856121de565b91506124ac82846121de565b91508190509392505050565b60006020820190506124cd600083018461214e565b92915050565b60006080820190506124e8600083018761214e565b6124f5602083018661214e565b6125026040830185612485565b8181036060830152612514818461216c565b905095945050505050565b6000602082019050612534600083018461215d565b92915050565b6000602082019050818103600083015261255481846121a5565b905092915050565b600060208201905081810360008301526125758161220f565b9050919050565b6000602082019050818103600083015261259581612232565b9050919050565b600060208201905081810360008301526125b581612255565b9050919050565b600060208201905081810360008301526125d581612278565b9050919050565b600060208201905081810360008301526125f58161229b565b9050919050565b60006020820190508181036000830152612615816122be565b9050919050565b60006020820190508181036000830152612635816122e1565b9050919050565b6000602082019050818103600083015261265581612304565b9050919050565b6000602082019050818103600083015261267581612327565b9050919050565b600060208201905081810360008301526126958161234a565b9050919050565b600060208201905081810360008301526126b58161236d565b9050919050565b600060208201905081810360008301526126d581612390565b9050919050565b600060208201905081810360008301526126f5816123b3565b9050919050565b60006020820190508181036000830152612715816123d6565b9050919050565b60006020820190508181036000830152612735816123f9565b9050919050565b600060208201905081810360008301526127558161241c565b9050919050565b600060208201905081810360008301526127758161243f565b9050919050565b6000602082019050818103600083015261279581612462565b9050919050565b60006020820190506127b16000830184612485565b92915050565b60006127c16127d2565b90506127cd8282612a2e565b919050565b6000604051905090565b600067ffffffffffffffff8211156127f7576127f6612b66565b5b61280082612b95565b9050602081019050919050565b600067ffffffffffffffff82111561282857612827612b66565b5b61283182612b95565b9050602081019050919050565b600081519050919050565b600081519050919050565b600082825260208201905092915050565b600082825260208201905092915050565b600081905092915050565b600061288c826129b0565b9150612897836129b0565b9250827fffffffffffffffffffffffffffffffffffffffffffffffffffffffffffffffff038211156128cc576128cb612ad9565b5b828201905092915050565b60006128e2826129b0565b91506128ed836129b0565b9250826128fd576128fc612b08565b5b828204905092915050565b6000612913826129b0565b915061291e836129b0565b92508282101561293157612930612ad9565b5b828203905092915050565b600061294782612990565b9050919050565b60008115159050919050565b6000819050919050565b60007fffffffff0000000000000000000000000000000000000000000000000000000082169050919050565b600073ffffffffffffffffffffffffffffffffffffffff82169050919050565b6000819050919050565b82818337600083830152505050565b60005b838110156129e75780820151818401526020810190506129cc565b838111156129f6576000848401525b50505050565b60006002820490506001821680612a1457607f821691505b60208210811415612a2857612a27612b37565b5b50919050565b612a3782612b95565b810181811067ffffffffffffffff82111715612a5657612a55612b66565b5b80604052505050565b6000612a6a826129b0565b91507fffffffffffffffffffffffffffffffffffffffffffffffffffffffffffffffff821415612a9d57612a9c612ad9565b5b600182019050919050565b6000612ab3826129b0565b9150612abe836129b0565b925082612ace57612acd612b08565b5b828206905092915050565b7f4e487b7100000000000000000000000000000000000000000000000000000000600052601160045260246000fd5b7f4e487b7100000000000000000000000000000000000000000000000000000000600052601260045260246000fd5b7f4e487b7100000000000000000000000000000000000000000000000000000000600052602260045260246000fd5b7f4e487b7100000000000000000000000000000000000000000000000000000000600052604160045260246000fd5b6000601f19601f8301169050919050565b7f4552433732313a207472616e7366657220746f206e6f6e20455243373231526560008201527f63656976657220696d706c656d656e7465720000000000000000000000000000602082015250565b7f4f776e61626c653a206e6577206f776e657220697320746865207a65726f206160008201527f6464726573730000000000000000000000000000000000000000000000000000602082015250565b7f4552433732313a207472616e736665722066726f6d20696e636f72726563742060008201527f6f776e6572000000000000000000000000000000000000000000000000000000602082015250565b7f4552433732313a20746f6b656e20616c7265616479206d696e74656400000000600082015250565b7f4552433732313a207472616e7366657220746f20746865207a65726f2061646460008201527f7265737300000000000000000000000000000000000000000000000000000000602082015250565b7f4552433732313a20617070726f766520746f2063616c6c657200000000000000600082015250565b7f4552433732313a206f70657261746f7220717565727920666f72206e6f6e657860008201527f697374656e7420746f6b656e0000000000000000000000000000000000000000602082015250565b7f4552433732313a20617070726f76652063616c6c6572206973206e6f74206f7760008201527f6e6572206e6f7220617070726f76656420666f7220616c6c0000000000000000602082015250565b7f4552433732313a2062616c616e636520717565727920666f7220746865207a6560008201527f726f206164647265737300000000000000000000000000000000000000000000602082015250565b7f4552433732313a206f776e657220717565727920666f72206e6f6e657869737460008201527f656e7420746f6b656e0000000000000000000000000000000000000000000000602082015250565b7f45524337323155524953746f726167653a2055524920736574206f66206e6f6e60008201527f6578697374656e7420746f6b656e000000000000000000000000000000000000602082015250565b7f4552433732313a206d696e7420746f20746865207a65726f2061646472657373600082015250565b7f45524337323155524953746f726167653a2055524920717565727920666f722060008201527f6e6f6e6578697374656e7420746f6b656e000000000000000000000000000000602082015250565b7f4552433732313a20617070726f76656420717565727920666f72206e6f6e657860008201527f697374656e7420746f6b656e0000000000000000000000000000000000000000602082015250565b7f4f776e61626c653a2063616c6c6572206973206e6f7420746865206f776e6572600082015250565b7f4552433732314d657461646174613a2055524920717565727920666f72206e6f60008201527f6e6578697374656e7420746f6b656e0000000000000000000000000000000000602082015250565b7f4552433732313a20617070726f76616c20746f2063757272656e74206f776e6560008201527f7200000000000000000000000000000000000000000000000000000000000000602082015250565b7f4552433732313a207472616e736665722063616c6c6572206973206e6f74206f60008201527f776e6572206e6f7220617070726f766564000000000000000000000000000000602082015250565b6130a58161293c565b81146130b057600080fd5b50565b6130bc8161294e565b81146130c757600080fd5b50565b6130d38161295a565b81146130de57600080fd5b50565b6130ea81612964565b81146130f557600080fd5b50565b613101816129b0565b811461310c57600080fd5b5056fea264697066735822122067258fb3af28cbec51485e3162bad59280548084ea55792f9270e0095282977164736f6c63430008040033",
  "linkReferences": {},
  "deployedLinkReferences": {}
}